:020000040800F2
:100000007810002439030008D7180008D317000817
:10001000D51800083F040008691A00080000000015
:10002000000000000000000000000000DB180008D5
:100030004104000800000000D9180008DD1800087D
:100040005303000853030008530300085303000838
:100050005303000853030008530300085303000828
:100060005303000853030008530300085303000818
:100070005303000853030008530300085303000808
:1000800053030008530300085303000853030008F8
:1000900053030008530300085303000853030008E8
:1000A00053030008530300085303000853030008D8
:1000B00053030008530300085303000853030008C8
:1000C00053030008530300085303000853030008B8
:1000D00053030008530300085303000853030008A8
:1000E00053030008530300080000000053030008F6
:1000F0005303000853030008530300085303000888
:100100005303000853030008530300085303000877
:100110005303000853030008530300085303000867
:100120005303000853030008530300085303000857
:100130005303000853030008530300085303000847
:1001400000000000000000000000000000000000AF
:100150005303000853030008530300085303000827
:100160005303000853030008530300085303000817
:100170005303000853030008530300085303000807
:1001800053030008530300085303000853030008F7
:1001900053030008530300085303000853030008E7
:1001A00053030008530300085303000853030008D7
:1001B00053030008530300085303000853030008C7
:1001C00053030008530300085303000853030008B7
:1001D00053030008530300085303000853030008A7
:1001E0005303000853030008530300085303000897
:1001F0005303000853030008530300085303000887
:100200005303000853030008530300085303000876
:100210005303000853030008530300085303000866
:1002200053030008530300085303000800000000B4
:1002300053030008530300080000000053030008A4
:100240005303000853030008530300085303000836
:100250005303000853030008530300085303000826
:100260005303000853030008530300085303000816
:100270005303000853030008530300080000000064
:100280005303000853030008530300080000000054
:10029000000000005303000800F002F800F03CF8F2
:1002A0000AA090E8000C82448344AAF10107DA45D1
:1002B00001D100F031F8AFF2090EBAE80F0013F0E7
:1002C000010F18BFFB1A43F001031847041900007F
:1002D00024190000103A24BF78C878C1FAD8520710
:1002E00024BF30C830C144BF04680C6070470000B0
:1002F0000023002400250026103A28BF78C1FBD82F
:10030000520728BF30C148BF0B6070471FB501F0CE
:1003100051FC1FBD10B510BD00F058F81146FFF795
:10032000F5FF01F0B5FB00F076F803B4FFF7F2FF3C
:1003300003BC00F07DF800000948804709480047E9
:10034000FEE7FEE7FEE7FEE7FEE7FEE7FEE7FEE785
:10035000FEE7FEE704480549054A064B70470000E2
:1003600085190008990200087800002478100024FC
:1003700078080024780800244FF0000200B51346E6
:1003800094469646203922BFA0E80C50A0E80C50B5
:10039000B1F12001BFF4F7AF090728BFA0E80C5066
:1003A00048BF0CC05DF804EB890028BF40F8042B5F
:1003B00008BF704748BF20F8022B11F0804F18BFCC
:1003C00000F8012B7047704770477047754600F082
:1003D0002BF8AE4605006946534620F007008546D7
:1003E00018B020B5FFF7B6FFBDE820404FF000067B
:1003F0004FF000074FF000084FF0000B21F007010D
:10040000AC46ACE8C009ACE8C009ACE8C009ACE84F
:10041000C0098D46704710B50446AFF300802046F2
:10042000BDE81040FFF781BF00487047140000246A
:1004300001491820ABBEFEE7260002007047FEE728
:100440007047000070B5044600F0F2F90546601CE4
:1004500002D004480078044400F0EAF9401BA042AE
:10046000FAD370BD000000242DE9FC5FDFF8C092D4
:100470000027DFF8C0820D46DFF8BCA24845DFF850
:10048000BCB204461FD054451DD05C451BD0AC48BF
:10049000844218D0AB48844215D0AB48844212D075
:1004A000AA4884420FD0AA4884420CD0A94884426A
:1004B00009D0A948844206D0A848844203D0BB2171
:1004C000A7A001F0E3FA28680104090C01D0000C90
:1004D00003D0BC21A2A001F0D9FA6868F8B10128C4
:1004E0001DD011281BD0022819D0122817D0AB49D3
:1004F000884214D0AA49884211D0AA4988420ED015
:10050000A94988420BD0A949884208D0A849884205
:1005100005D0032803D0BD2191A001F0B7FAA86847
:10052000002807D00128FCD00228FAD0BE218CA0D8
:1005300001F0ACFAF4E00120B840064000907DD014
:100540006868012805D0022803D0112801D012289C
:100550001DD1E86848B1012807D0022805D003283A
:1005600003D0CE217EA001F091FAA16803237A0086
:10057000E8689340904099430843A06060682979F7
:10058000009AC1F300119043B94001436160E168F2
:1005900003207B000193AA689840814300909A4011
:1005A0000A43E2606868022801D0122839D14C451C
:1005B0001FD054451DD05C451BD06148844218D0E3
:1005C0006048844215D06048844212D05F4884421B
:1005D0000FD05F4884420CD05E48844209D05E4808
:1005E000844206D05D48844203D0E6215CA001F03D
:1005F0004DFA28690F2803D9E72159A001F046FADE
:10060000F80829690F2304EB80024FEA477C106A3F
:100610004FEADC6C03FA0CF3984301FA0CF1014346
:10062000116228792168009A00F003009143019A31
:100630009040084320606868C00000E06FE06ED51D
:100640005C48016841F002010160006827F0030284
:1006500002F1B04200F002000090B8070F21030F32
:10066000D2F8080499404C4520EA010001D100214C
:100670002BE0544501D1012127E05C4501D1022145
:1006800023E02F498C4201D103211EE02D498C42E9
:1006900001D1042119E02C498C4201D1052114E03B
:1006A0002A498C4201D106210FE029498C4201D10F
:1006B00007210AE027498C4201D1082105E026499B
:1006C0008C4201D1092100E00A2199400143C2F87E
:1006D0000814D8F80000696820EA0600C90300D5AC
:1006E0003043C8F80000D8F80400696820EA060022
:1006F000890300D53043C8F804004FF0B0406A6861
:100700000168D20221EA060100D5314301606A681E
:100710004168920221EA060100D5314341607F1C05
:100720002E6836FA07F07FF406AFBDE8FC9F0000A4
:1007300000000258800000580004025800080258C7
:10074000000C0258001002580014025800180258F9
:10075000001C0258002002580024025800280258A9
:100760002E2E2F447269766572732F53544D333297
:10077000483778785F48414C5F4472697665722FDC
:100780005372632F73746D3332683778785F6861A2
:100790006C5F6770696F2E6300000000000011112C
:1007A000000021110000311100001211000022117F
:1007B00000003211F444025870B50C00154606468C
:1007C00004D109A040F2AD1101F060F945B1012D4D
:1007D00004D005A04FF4D77101F058F9B46170BD91
:1007E0002004B06170BD00002E2E2F447269766522
:1007F00072732F53544D3332483778785F48414CE9
:100800005F4472697665722F5372632F73746D3310
:1008100032683778785F68616C5F6770696F2E63E4
:100820000000000001480068000C70470010005CE8
:100830000148806870470000000000240248816879
:10084000027811448160704700000024032010B535
:1008500000F0A6F800F08CFB0F4A104914681368EA
:10086000C4F3032203F00F038A5CC95C02F01F0289
:1008700001F01F01D0400A4A20FA01F11160094934
:100880000860002000F010F808B1012010BD00F051
:100890002BF8002010BD000018440258BE1B0008B1
:1008A000100000240C00002470B50D4D044628787B
:1008B000A0B14FF47A71B1FBF0F00A490968B1FBBD
:1008C000F0F000F073FF48B9102C07D20022214647
:1008D000501E00F017F800206C6070BD012070BD44
:1008E000000000240C000024054808B5016841F010
:1008F00002010160006800F00200009008BD0000E5
:10090000F444025870B5102A14460D46064603D327
:10091000AA2113A001F0BAF8102D03D3AB2110A027
:1009200001F0B4F81D480068C0F30223C3F10702C8
:10093000042A00D90422181D072801D2002300E050
:10094000DB1E012101FA02F09940401E2840491E99
:100950009840214001433046BDE8704001F085B821
:100960002E2E2F447269766572732F53544D333295
:10097000483778785F48414C5F4472697665722FDA
:100980005372632F73746D3332683778785F6861A0
:100990006C5F636F727465782E6300000CED00E08D
:1009A00070B5072804460BD0062C09D0052C07D0BB
:1009B000042C05D0032C03D0922108A001F066F886
:1009C000154904F007024FF6FF050868134B28404D
:1009D00040EA02201843086070BD00002E2E2F440C
:1009E0007269766572732F53544D33324837787875
:1009F0005F48414C5F4472697665722F5372632F72
:100A000073746D3332683778785F68616C5F636FD9
:100A1000727465782E6300000CED00E00000FA05AA
:100A200070B50228044606D0012C04D015A040F26F
:100A30003F1101F02BF822480168C943490705D549
:100A4000006800F00700A04213D118E0016821F00F
:100A5000070121430160FFF7EBFE194D4FF47A7651
:100A60000446083D07E000BFFFF7E2FE001BB0426E
:100A700001D9012070BD2868C0438004F4D400204F
:100A800070BD00002E2E2F447269766572732F534D
:100A9000544D3332483778785F48414C5F4472692F
:100AA0007665722F5372632F73746D3332683778A3
:100AB000785F68616C5F7077725F65782E630000A5
:100AC0000C4802582DE9F05F04000D467ED02068E6
:100AD000401E3E2804D9FFA040F2863100F0D6FF28
:100AE00015B3012D20D0022D1ED0032D1CD0042DB6
:100AF0001AD0052D18D0062D16D0072D14D0082D8C
:100B000012D0092D10D00A2D0ED00B2D0CD00C2D8B
:100B10000AD00D2D08D00E2D06D00F2D04D0EDA03B
:100B200040F2873100F0B2FFDFF8E083D8F8000030
:100B300000F00F00A8420CD2D8F8001021F00F01ED
:100B40002943C8F80010D8F8000000F00F00A842B0
:100B50003CD12078EE4E400719D52069316801F06C
:100B60007001884213D960B140280AD0502808D0BB
:100B7000602806D0702804D0D6A040F2A33100F03F
:100B800085FF2169306820F07000084330602078CC
:100B9000DF4F3F1D00071BD56069396801F0700108
:100BA000884215D960B140280AD0502808D0602862
:100BB00006D0702804D0C7A040F2B53100F066FF1F
:100BC0006169386820F07000084300E00DE138608A
:100BD0002078C0061DD5A069396801F4E06188421B
:100BE00017D980B1B0F5806F0DD0B0F5A06F0AD0E5
:100BF000B0F5C06F07D0B0F5E06F04D0B5A040F2FB
:100C0000C63100F043FFA169386820F4E060084372
:100C100038602078DFF8F8A280060AF1080A1CD5AF
:100C2000E069DAF8001001F07001884215D960B16E
:100C300040280AD0502808D0602806D0702804D058
:100C40004FF47671A3A000F021FFE269DAF80010FA
:100C500021F070011143CAF800102078800721D5D7
:100C6000E068316801F00F0188421BD9A0B1082863
:100C700012D0092810D00A280ED00B280CD00C282E
:100C80000AD00D2808D00E2806D00F2804D091A035
:100C900040F2EB3100F0FAFEE168306820F00F001E
:100CA000084330602078C00769D0A068E0B1B0F593
:100CB000006F19D0B0F5106F16D0B0F5206F13D0BB
:100CC000B0F5306F10D0B0F5406F0DD0B0F5506F6B
:100CD0000AD0B0F5606F07D0B0F5706F04D07DA07A
:100CE00040F2FB3100F0D2FE6068012809D040B12B
:100CF000022806D0032804D04FF47F7175A000F0BD
:100D0000C5FE8349A2683068183920F4706010432A
:100D100030606068022816D0032817D009680128BF
:100D200017D04907002960DADFF8E4B1ABF1080B0E
:100D3000DBF8002022F007020243CBF80020FFF787
:100D400077FD814613E009688903EBE709688901AB
:100D5000E8E7C905E6E700BFFFF76AFDA0EB090178
:100D600041F28830814202D90320BDE8F09F6168DA
:100D7000DBF8000000F03800B0EBC10FECD12078B8
:100D8000800721D5E068316801F00F0188421BD24D
:100D9000A0B1082812D0092810D00A280ED00B289C
:100DA0000CD00C280AD00D2808D00E2806D00F2809
:100DB00004D048A040F23D4100F068FEE168306890
:100DC00020F00F0008433060D8F80010404601F0D2
:100DD0000F01A9420BD9016821F00F0129430160DD
:100DE000006800F00F00A84201D00120BDE7207884
:100DF000400719D52069316801F07001884213D28B
:100E000060B140280AD0502808D0602806D0702849
:100E100004D030A040F25E4100F038FE2169306815
:100E200020F07000084330602078000719D5606911
:100E3000396801F07001884213D260B140280AD0AD
:100E4000502808D0602806D0702804D04FF48E6156
:100E500020A000F01BFE6169386820F07000084394
:100E600038602078C0061DD5A069396801F4E061BA
:100E7000884217D280B1B0F5806F0DD0B0F5A06F69
:100E80000AD0B0F5C06F07D0B0F5E06F04D011A064
:100E900040F2824100F0FAFDA169386820F4E06078
:100EA00008433860207880063DD5E0695546DAF879
:100EB000001001F07001884235D258B340282CD080
:100EC00050282AD0602828D0702826D001A040F2CF
:100ED000944120E02E2E2F447269766572732F5351
:100EE000544D3332483778785F48414C5F447269DB
:100EF0007665722F5372632F73746D33326837784F
:100F0000785F68616C5F7263632E6300002000523B
:100F10001844025801E000F0B9FDE169286820F0AA
:100F200070000843286000F023F80D4933683268E8
:100F3000C3F3032302F00F02CB5C895C03F01F02B2
:100F400001F01F01D040074A20FA01F11160064963
:100F5000086006480068BDE8F05FFFF7A5BC000028
:100F6000BE1B0008100000240C0000240400002414
:100F7000454970B545480968434B103B11F03802AC
:100F800008D00111082A03D0102A0BD0182A0BD040
:100F9000084670BD19688906FBD51968C1F3C101FF
:100FA000C84070BD3A4870BD3749374D18310C1DE7
:100FB00024350A68096826682D6802F0030406F0E3
:100FC0000102C1F30511C5F3CC0515FB02F200EED9
:100FD000102AB8EE400AE9B32F4ADFED2E0AB7EE29
:100FE000001A6CB1DFED2D1A012C01D0022C43D078
:100FF00002EE101A1068F8EE422A81EEA22A1EE0D4
:101000001C68A40611D51B6801EE901A1168C3F381
:10101000C103F8EE612AD84001EE900AC1F308003E
:10102000F8EE611A81EEA22A0BE001EE901ADFEDD4
:101030001C2A00BFF8EE611A106882EEA12AC0F3E4
:10104000080001EE900AF8EE611A40EE201A31EE27
:10105000810A00E015E022EE000A1068C0F3462085
:10106000401C00EE900AF8EE600A80EE201ABCEEFA
:10107000C10A10EE100A70BD01EE901ADFED092AC8
:10108000D8E7002070BD0000104402580090D00343
:10109000001BB70000000039304402580024744A95
:1010A0000024744C001B374B2DE9F05F04006FD017
:1010B000FE4E41F20308DFF8F493FC4FA6F104055D
:1010C000206809F10C09243780B1C10711D18107CB
:1010D0006CD4C1067DD401077CD441077BD4800643
:1010E0007AD4F3A040F2A31100F0D0FC2078C0071E
:1010F00059D060684FF4803A4FF4A02B40B150456E
:1011000006D0584504D04FF4D471E9A000F0BEFCDD
:10111000D9F80000396800F0380010280CD01828E1
:1011200003D101F00300022806D0606850450AD1BF
:10113000286840F4803010E02868800333D5606868
:101140000028B4D02FE008B158450DD0286820F40D
:1011500080302860286820F480202860606898B17A
:10116000FFF766FB82460BE0286840F48020286089
:10117000DEE700BFFFF75CFBA0EB0A00642873D832
:1011800028688003F6D50EE0FFF752FB824607E0A1
:1011900032E100BFFFF74CFBA0EB0A006428EED859
:1011A00028688003F6D42078800770D5E06860B1A5
:1011B00001280AD0092808D0112806D0192804D0FF
:1011C0004FF4EE71BAA000F061FC20697F2809D9C4
:1011D00003E05FE0CFE0EEE004E1B5A040F2DD1116
:1011E00000F054FCD9F80000396810F038000ED037
:1011F000182801D188070AD0E068A0B3296821F037
:10120000190101432960FFF713FB82461AE02868A1
:10121000400702D5E068002893D0FFF703FB404564
:101220001AD82069402811D0316821F47C3141EA74
:10123000003030602BE000BFFFF7FAFAA0EB0A00A5
:1012400002289CD828684007F6D5E6E7306820F4E5
:101250007C3040F40030ECE7207C316821F0FE4126
:1012600041EA0060E5E700E06BE2286820F0010059
:101270002860FFF7DDFA824606E000BFFFF7D8FAE4
:10128000A0EB0A0002288AD828684007F6D4207804
:10129000C0066DD5E06930B1802804D084A040F24A
:1012A0001F2100F0F3FB206A3F2804D94FF4087196
:1012B0007FA000F0EBFBD9F80000DFF8F0B139684F
:1012C00000F038000BF1080B082810D0182803D1C3
:1012D00001F0030001280AD0E0690028286837D00F
:1012E00040F080002860FFF7A3FA824622E02868D9
:1012F000C00522D5E06980287ED11EE0206A202822
:1013000020D0316821F0F84141EA806030602FE060
:1013100094F82010DBF8002022F07C5242EA0161B0
:10132000CBF8001024E000BFFFF782FAA0EB0A0020
:10133000022886D82868C005F6D5FFF773FA40451D
:10134000E6D8DBE7306820F0F84040F08040DDE789
:1013500020F080002860FFF76BFA064605E000BF2A
:10136000FFF766FA801B02288DD82868C005F7D4DD
:101370002078000733D54D4E60697036E0B1012802
:1013800006D04BA040F2612100F080FB606998B16B
:101390003168B04641F001013160FFF749FA064675
:1013A00005E000BFFFF744FA801B0228C1D8D8F837
:1013B00000008007F6D512E03168B04621F0010147
:1013C0003160FFF735FA064605E000BFFFF730FA57
:1013D000801B0228ADD8D8F800008007F6D420780A
:1013E00080062FD5A069E0B1012808D04FF4237101
:1013F0002FA000F04BFB00E0D2E1A06988B1286883
:1014000040F480502860FFF713FA064605E000BF5D
:10141000FFF70EFA801B02288BD828688004F7D5C6
:1014200010E0286820F480502860FFF701FA064693
:1014300005E000BFFFF7FCF9801B022894D828685C
:101440008004F7D42078400779D5A06840B10128FE
:1014500006D0052804D016A040F2B62100F016FBF5
:10146000DFF88480D8F8001041F48071C8F80010CB
:10147000FFF7DEF9064604E0FFF7DAF9801B64287F
:1014800094D8D8F80000C005F6D5084EA0686C3690
:1014900001282BD008B1052834D0306820F0010095
:1014A0003060306820F0040023E00000044402585B
:1014B0002E2E2F447269766572732F53544D33323A
:1014C000483778785F48414C5F4472697665722F7F
:1014D0005372632F73746D3332683778785F686145
:1014E0006C5F7263632E630000480258306840F0FE
:1014F00001003060A06841F2883A98B1FFF798F98E
:1015000080460BE0306840F004003060EEE700BF3A
:10151000FFF78EF9A0EB080151458FD8306880079E
:10152000F6D50CE0FFF784F9804605E0FFF780F977
:10153000A0EB08015145A3D830688007F6D4606A53
:1015400000287DD001280AD0022808D04FF43A7133
:10155000AFF2A40000F09AFA606A0028F1D0DFF838
:101560004882D9F80000C0F3C200032869D0606A3D
:10157000022807D0286820F080702860FFF758F90B
:101580000446E1E0A06A01280AD048B1032807D048
:10159000022805D040F2F121AFF2EC0000F076FA1B
:1015A000206C58B1042809D0082807D00C2805D091
:1015B00040F2F221AFF2081000F068FA606C38B126
:1015C000022805D040F2F321AFF21C1000F05EFAC1
:1015D000E06A401E3E2805D94FF43D71AFF230104D
:1015E00000F054FA206B001FB0F5FE7F05D940F2E1
:1015F000F521AFF2441000F049FA606B401E7F28DD
:1016000005D940F2F621AFF2581000F03FFAA06B76
:10161000401E7F2805D940F2F721AFF26C1000F090
:1016200035FAE06B401E7F2805D94FF43E71AFF2CA
:10163000801000F02BFAA06CB0F5005F08D301E039
:10164000B0E085E040F2F921AFF29C1000F01EFA04
:10165000286820F080702860FFF7EAF8064604E06A
:10166000FFF7E6F8801B02286BD828688001F7D4C2
:10167000E26A40F2F331386854F8283F884340EA80
:10168000021018433860267B434621894FF4FE0C34
:10169000208A4FF0FE47491E227D7602401EA6F5A5
:1016A0000076C1F30808B1B2521E0CEA004041EACC
:1016B000080101433C4807EA026211433A4A001F0D
:1016C0001960121D016821F00101016011684FF6D7
:1016D000F876236AB14341EAC30111600168A26947
:1016E00021F00C01114301600168E26921F002015F
:1016F00011430160016841F480310160016841F4E7
:1017000000310160016841F480210160016841F00D
:1017100001010160286840F080702860FFF788F8B8
:10172000044604E0FFF784F8001B022809D8286863
:101730008001F7D536E000BFFFF77AF8001B0228DA
:1017400002D90320BDE8F09F28688001F4D429E085
:10175000626A3968D8F80000012A21D0A26A01F033
:10176000030393421CD1E26AC1F305118A4217D1E7
:10177000216BC0F30802491E8A4211D1616BC0F38C
:101780004622491E91420BD1A16BC0F30642491E6D
:10179000914205D1E16BC0F30660491E814201D040
:1017A0000120CFE70020CDE730440258401EB0F1C1
:1017B000807F10B501D3012010BD4FF0E02460619F
:1017C0000F21601700F051F90020A061072121616D
:1017D00010BDFEE7F0B587B014216846FEF7CCFDDA
:1017E0003648016841F010010160016801F0100104
:1017F0000591016841F004010160016801F00401F4
:101800000591016841F080010160016801F08001EB
:101810000591016841F001010160016801F00101D9
:101820000591016841F002010160016801F00201C7
:101830000591016841F00801016000680122204F14
:10184000072100F0080005903846FEF7B5FF002498
:101850004FF6FF76032500961A486946CDE90154F4
:10186000FEF702FE43F6F8706946CDE900053846FA
:101870000294FEF7F9FD01200721CDE90204CDE92C
:10188000001069463846FEF7EFFD49F6FF706946DD
:10189000CDE900050C480294FEF7E6FD0096694686
:1018A0000A48CDE90154FEF7DFFD00966946084875
:1018B000CDE90154FEF7D8FD07B0F0BDE044025871
:1018C0000008025800100258000002580004025894
:1018D000000C0258FEE7FEE770477047FEF7AEBF08
:1018E00030B59DB04C216846FEF746FD202113A877
:1018F000FEF742FD0220FFF793F82048002420491C
:10190000026842F44042026002680A6842F0010242
:101910000A60096801F001011B9101688904FCD586
:10192000022009900121C20350230C25CDE90012A9
:101930000AAA82E80B000D90CDE910540E900F908A
:1019400068461294FFF7B0FB08B172B6FEE740207C
:101950001A9008230501CDE9163013ABCDE918051F
:101960003F21032283E81600042113A8FFF7AAF8F9
:10197000002801D072B6FEE71DB030BD18480258ED
:101980002C0400582E48F0B52E4A016841F470012D
:101990000160106800F00F00072804D2106820F0E2
:1019A0000F00C01D106028490020274C10340B6820
:1019B000264D43F001030B6020600B682B400B6049
:1019C000136803F00F03072B04D9136823F00F03E8
:1019D000DB1D13601C4C1E4A18341E4B261D371D80
:1019E0002060194C1C4D28343060261D3860371D8E
:1019F00023603B1D35601C1D3A60251D2E1D18609F
:101A0000331D22602860326018600A680E4B134C48
:101A100022F4802260330A60186020686FF30F00A0
:101A2000B0F1005F03D20E490120C1F8080143F272
:101A3000D2000C49024B4A03803B08601A60F0BD9B
:101A400088ED00E000200052004402587FEDF6EAE5
:101A500080020101000202020000FF010010005C90
:101A60000080005100400052FEE7090700284FEABD
:101A7000116104DB00F1E02080F80014704700F0F1
:101A80000F0000F1E02080F8141D7047704700003F
:101A90004549002004460A68920311D4BFF34F8FD2
:101AA000BFF36F8F414A1060BFF34F8FBFF36F8F4B
:101AB0000A6842F400320A60BFF34F8FBFF36F8FA2
:101AC0000A68D20323D4384A70321060BFF34F8FB4
:101AD000101F43F6FF7C0068344D1035C0F34E32C2
:101AE000C0F3C9030CEA4216184600BF46EA8077E5
:101AF0002F60401EFAD2521EF4D2BFF34F8F0868F7
:101B000040F480300860BFF34F8FBFF36F8FFEF754
:101B10009DFEFFF7E5FEFFF75DFE254D07264FF41E
:101B20007A7700BFB4FBF6F006FB1040072817D207
:101B3000DFE800F0040B1C1E252C2E000022284696
:101B40000121FEF739FE012201E0012211E002210C
:101B50002846FEF731FE012228460421FEF72CFE1E
:101B6000641C3846E4B2FEF76DFCDBE7012207E0B7
:101B7000002228460121FEF71FFE0022E7E700228F
:101B800028460121FEF718FE012207E0012200E0AD
:101B9000002228460121FEF70FFE002228460221DE
:101BA000FEF70AFE0022D7E714ED00E050EF00E058
:101BB000000802584FF04070E1EE100A7047000034
:101BC00000000102030401020304060708090000E3
:101BD000F01B00080000002414000000D4020008DC
:101BE000041C00081400002464100000F002000827
:101BF0000100000010000000000000000090D00371
:041C00000090D0037D
:040000050800029954
:00000001FF
