:020000040800F2
:1000000058210024390300086F400008AD3E000865
:100010006D400008CB050008F954000800000000FE
:10002000000000000000000000000000654A000819
:10003000CD0500080000000009430008674A0008D9
:100040005303000853030008530300085303000838
:100050005303000853030008530300085303000828
:100060005303000853030008530300085303000818
:100070005303000853030008530300085303000808
:1000800053030008530300085303000853030008F8
:1000900053030008530300085303000853030008E8
:1000A00053030008530300085303000853030008D8
:1000B00053030008530300085303000853030008C8
:1000C00053030008530300085303000853030008B8
:1000D00053030008ED5400085303000853030008BD
:1000E00053030008530300080000000053030008F6
:1000F0005303000853030008530300085303000888
:100100005303000853030008530300085303000877
:100110005303000853030008530300085303000867
:100120005303000853030008530300085303000857
:100130005303000853030008530300085303000847
:1001400000000000000000000000000000000000AF
:100150005303000853030008530300085303000827
:100160005303000853030008530300085303000817
:100170005303000853030008530300085303000807
:1001800053030008530300085303000853030008F7
:1001900053030008530300085303000853030008E7
:1001A00053030008530300085303000853030008D7
:1001B00053030008530300085303000853030008C7
:1001C00053030008530300085303000853030008B7
:1001D00053030008530300085303000853030008A7
:1001E0005303000853030008530300085303000897
:1001F0005303000853030008530300085303000887
:100200005303000853030008530300085303000876
:100210005303000853030008530300085303000866
:1002200053030008530300085303000800000000B4
:1002300053030008530300080000000053030008A4
:100240005303000853030008530300085303000836
:100250005303000853030008530300085303000826
:100260005303000853030008530300085303000816
:100270005303000853030008530300080000000064
:100280005303000853030008530300080000000054
:10029000000000005303000800F002F800F03CF8F2
:1002A0000AA090E8000C82448344AAF10107DA45D1
:1002B00001D100F031F8AFF2090EBAE80F0013F0E7
:1002C000010F18BFFB1A43F001031847185500002F
:1002D00038550000103A24BF78C878C1FAD85207C0
:1002E00024BF30C830C144BF04680C6070470000B0
:1002F0000023002400250026103A28BF78C1FBD82F
:10030000520728BF30C148BF0B6070471FB505F0CA
:100310003BFA1FBD10B510BD00F00AF91146FFF7FA
:10032000F5FF05F007F900F03CF903B4FFF7F2FF21
:1003300003BC00F043F90000094880470948004722
:10034000FEE7FEE7FEE7FEE7FEE7FEE7FEE7FEE785
:10035000FEE7FEE704480549054A064B70470000E2
:10036000214B00089902000858110024582100244C
:10037000581900245819002453EA020C00F069802F
:100380002DE9F04B4FF00006002B1FBFB3FA83F5A9
:1003900003FA05F424FA05F65E4012BF1643B2FADA
:1003A00082F502FA05F4C5F120051EBF22FA05FC0C
:1003B00044EA0C04203556EA044C4FEA144418BFB2
:1003C000641C4FF000084FF00009904271EB030CE1
:1003D00039D3002919BFB1FA81F701FA07F6B0FA4B
:1003E00080F700FA07F6C7F120071EBF20FA07FCC6
:1003F00046EA0C062037B6FBF4FCA7EB0507103FD6
:1004000007F01F0BCBF120060CFA0BFB2CFA06F6BB
:1004100044BFB3460026202FA4BF5E464FF0000B1A
:100420005BEA060C08BF4FF0010B19EB0B09ABFBA5
:10043000027C48EB0608C01B06FB02CC0BFB03CC7E
:1004400071EB0C01C1E70B46024641464846BDE848
:10045000F08B13B54FF000004FF00001AFF30080B8
:10046000BDE81C40704700000FB4044910B503AA52
:10047000029800F02FF810BC5DF814FB1400002463
:100480004FF0000200B5134694469646203922BF2D
:10049000A0E80C50A0E80C50B1F12001BFF4F7AF78
:1004A000090728BFA0E80C5048BF0CC05DF804EB5A
:1004B000890028BF40F8042B08BF704748BF20F8C8
:1004C000022B11F0804F18BF00F8012B70477047C6
:1004D00070477047074B70B50D467B4400F011F82C
:1004E0000446284600F020F810B14FF0FF3070BDF0
:1004F000204670BD4350000001694A1C0261087823
:10050000704700B58FB0CDE9013100210591054953
:100510007944CDE903101146684600F02EF80FB07B
:1005200000BD0000E5FFFFFF007B00F0800070478A
:10053000754600F03FF8AE4605006946534620F088
:100540000700854618B020B5FFF704FFBDE820403E
:100550004FF000064FF000074FF000084FF0000B7F
:1005600021F00701AC46ACE8C009ACE8C009ACE832
:10057000C009ACE8C0098D4670472DE9F041064638
:100580000024D6E90170F5688046304603E0414614
:10059000B847641C3046A8470028F8D12046BDE87B
:1005A000F08110B50446AFF300802046BDE810404E
:1005B000FFF7BBBE00487047F8100024014918201F
:1005C000ABBEFEE7260002007047FEE7704772B63A
:1005D000FEE700002DE9F84F044600F041FD002C35
:1005E000009008D094F83500022805D0802161657C
:1005F000002084F83400E3E0C84DC84EC7491835E0
:1006000020683036DFF81883DFF818938842DFF867
:1006100018A3DFF818B32ED0A8422CD0B0422AD0AD
:10062000404528D0484526D0504524D0584522D0B2
:10063000BE4A183290421ED0BD4A90421BD0BC4ADE
:100640001832904217D0BA4A3032904213D0B84A8A
:10065000483290420FD0B64A603290420BD0B44A32
:100660007832904207D0B24A9032904203D0B04ADA
:10067000A832904209D1026822F01E02026020686E
:10068000426922F08002426103E0026822F00E0219
:10069000026027688F4238464DD0A8424BD0B04206
:1006A00049D0404547D0484545D0504543D05845AE
:1006B00041D09E4A183290423DD09D4A90423AD055
:1006C0009B4A1832904236D0994A3032904232D00A
:1006D000974A483290422ED0954A603290422AD0B2
:1006E000934A7832904226D0914A9032904222D05A
:1006F0008F4AA83290421ED08E4A90421BD08D4A1B
:100700001432904217D08B4A2832904213D0894A33
:100710003C3290420FD0874A503290420BD0854AEB
:100720006432904207D0834A7832904203D0814AA3
:100730008C32974204D1206E026822F480720260EB
:1007400076492068884228D0A84226D0B04224D0DA
:10075000404522D0484520D050451ED058451CD099
:1007600072491831884218D07149884215D07049B1
:100770001831884211D06E49303188420DD06C4911
:100780004831884209D06A496031884205D06849B9
:100790007831884201D066499031016821F0010129
:1007A000016010E000F05CFC0099401A05280AD9AD
:1007B000202262650020032184F8340084F835107B
:1007C0000120BDE8F88F3868C007EBD1534A0121FA
:1007D000206890422ED0A8422CD0B0422AD040456A
:1007E00028D0484526D0504524D0584522D04F4BDC
:1007F000183398421ED04E4B98421BD04C4B1833A6
:10080000984217D04A4B3033984213D0484B483364
:1008100098420FD0464B603398420BD0444B78330C
:10082000984207D0424B9033984203D0404BA833B4
:10083000984208D194F85C703F23A06D07F01F0721
:10084000BB40836007E094F85C30A06D03F01F03A9
:1008500001FA03F34360206890424DD0A8424BD088
:10086000B04249D0404547D0484545D0504543D097
:10087000584541D02D4A183290423DD02C4A9042E2
:100880003AD02B4A1832904236D0294A3032904220
:1008900032D0274A483290422ED0254A60329042C8
:1008A0002AD0234A7832904226D0214A9032904270
:1008B00022D01F4AA83290421ED01E4A90421BD01E
:1008C0001C4A1432904217D01A4A2832904213D050
:1008D000184A3C3290420FD0164A503290420BD008
:1008E000144A6432904207D0124A7832904203D0C0
:1008F000104A8C3290420BD1D4E919024260E06E6A
:1009000030B1026822F480720260D4E91C024260B5
:10091000002084F8340084F8351052E710000240BB
:10092000580002407000024088000240A0000240CF
:1009300010040240085402582DE9F05F28B190F8E5
:100940003510022904D0802141650120BDE8F09FC7
:10095000904C904B0168183C18338E4ADFF83C925B
:10096000A1428D4CDFF838E28E4FDFF83CB2DFF861
:100970003CA28F4D8F4E31D091422FD099422DD035
:10098000A1422BD0494529D0714527D0B94225D065
:10099000DFF810C20CF1180C61451FD0DFF808C257
:1009A000ACF1600C614519D0DFF8FCC1ACF1480C2A
:1009B000614513D0DFF8F0C1ACF1300C61450DD0CA
:1009C000DFF8E4C1ACF1180C614507D0594505D0FA
:1009D000514503D0A94201D0B1422CD1DFF8B4C1B6
:1009E0004FF0040880F83580ACF1180C61451DD03B
:1009F00091421BD0994219D0A14217D0494515D038
:100A0000714513D0B94211D06648183081420DD0DB
:100A100065486038814209D063484838814205D032
:100A200061483038814201D05F481838086820F0AA
:100A300001000860ABE0D1F800C02CF00E08DFF830
:100A400054C1C1F80080ACF1180C0168614527D091
:100A5000914225D0994223D0A14221D049451FD0AF
:100A600071451DD0B9421BD0DFF838C10CF1180C0C
:100A7000614515D0DFF830C1ACF1600C61450FD095
:100A8000DFF824C1ACF1480C614509D0DFF818C18A
:100A9000ACF1300C614503D0DFF80CC1ACF1180C9F
:100AA000D1F800C02CF0010CC1F800C0DFF8E480E0
:100AB0004FF0010C0168A8F11808414546D0914259
:100AC00044D0994242D0A14240D049453ED07145E0
:100AD0003CD0B9423AD0334A1832914236D0324AE9
:100AE000603A914232D0304A483A91422ED02E4A52
:100AF000303A91422AD02C4A183A914226D0594590
:100B000024D0514522D0A94220D0B1421ED02A4A39
:100B100091421BD0284A1432914217D0264A2832DB
:100B2000914213D0244A3C3291420FD0224A503293
:100B300091420BD0204A6432914207D01E4A78324B
:100B4000914203D01C4A8C32914218D1016E0A683E
:100B500022F480720A6090F85C20816D02F01F021E
:100B60000CFA02F24A60D0E919124A60C16E31B142
:100B70000A6822F480720A60D0E91C124A600022DE
:100B8000016D80F8342080F835C001B1884700201D
:100B9000DCE60000280002405800024070000240DD
:100BA00088000240A0000240700402408804024015
:100BB000A0040240B80402400854025870B504462C
:100BC00000F04EFA0546601C02D004480078044448
:100BD00000F046FA401BA042FAD370BD000000248A
:100BE0002DE9FC5FDFF8C0920027DFF8C0820D46D8
:100BF000DFF8BCA24845DFF8BCB204461FD054451C
:100C00001DD05C451BD0AC48844218D0AB48844210
:100C100015D0AB48844212D0AA4884420FD0AA48CB
:100C200084420CD0A948844209D0A948844206D005
:100C3000A848844203D0BB21A7A004F06FFC286819
:100C40000104090C01D0000C03D0BC21A2A004F0C7
:100C500065FC6868F8B101281DD011281BD0022856
:100C600019D0122817D0AB49884214D0AA4988421B
:100C700011D0AA4988420ED0A94988420BD0A9496F
:100C8000884208D0A849884205D0032803D0BD2156
:100C900091A004F043FCA868002807D00128FCD0EC
:100CA0000228FAD0BE218CA004F038FCF4E0012028
:100CB000B840064000907DD06868012805D0022821
:100CC00003D0112801D012281DD1E86848B10128AD
:100CD00007D0022805D0032803D0CE217EA004F03F
:100CE0001DFCA16803237A00E86893409040994373
:100CF0000843A06060682979009AC1F3001190430D
:100D0000B94001436160E16803207B000193AA6858
:100D10009840814300909A400A43E2606868022844
:100D200001D0122839D14C451FD054451DD05C4507
:100D30001BD06148844218D06048844215D0604876
:100D4000844212D05F4884420FD05F4884420CD066
:100D50005E48844209D05E48844206D05D488442A1
:100D600003D0E6215CA004F0D9FB28690F2803D941
:100D7000E72159A004F0D2FBF80829690F2304EBFE
:100D800080024FEA477C106A4FEADC6C03FA0CF3EE
:100D9000984301FA0CF10143116228792168009A05
:100DA00000F003009143019A904008432060686876
:100DB000C00000E06FE06ED55C48016841F00201C0
:100DC0000160006827F0030202F1B04200F0020067
:100DD0000090B8070F21030FD2F8080499404C4542
:100DE00020EA010001D100212BE0544501D101216D
:100DF00027E05C4501D1022123E02F498C4201D13B
:100E000003211EE02D498C4201D1042119E02C4917
:100E10008C4201D1052114E02A498C4201D10621DE
:100E20000FE029498C4201D107210AE027498C4271
:100E300001D1082105E026498C4201D1092100E0B9
:100E40000A2199400143C2F80814D8F800006968E3
:100E500020EA0600C90300D53043C8F80000D8F8DE
:100E60000400696820EA0600890300D53043C8F809
:100E700004004FF0B0406A680168D20221EA06011E
:100E800000D5314301606A684168920221EA060197
:100E900000D5314341607F1C2E6836FA07F07FF49D
:100EA00006AFBDE8FC9F000000000258800000581B
:100EB0000004025800080258000C025800100258A2
:100EC0000014025800180258001C02580020025852
:100ED00000240258002802582E2E2F44726976658D
:100EE00072732F53544D3332483778785F48414CF2
:100EF0005F4472697665722F5372632F73746D331A
:100F000032683778785F68616C5F6770696F2E63ED
:100F1000000000000000111100002111000031113B
:100F2000000012110000221100003211F444025896
:100F300070B50C00054604D104A040F28D1104F0F8
:100F4000EDFA2869204000D0012070BD2E2E2F44DC
:100F50007269766572732F53544D333248377878FF
:100F60005F48414C5F4472697665722F5372632FFC
:100F700073746D3332683778785F68616C5F67705F
:100F8000696F2E630000000070B50C00054604D1A7
:100F900006A040F2C51104F0C1FA696924EA010013
:100FA000214040EA0140A86170BD00002E2E2F4470
:100FB0007269766572732F53544D3332483778789F
:100FC0005F48414C5F4472697665722F5372632F9C
:100FD00073746D3332683778785F68616C5F6770FF
:100FE000696F2E630000000070B50C0015460646C0
:100FF00004D109A040F2AD1104F090FA45B1012DE1
:1010000004D005A04FF4D77104F088FAB46170BD24
:101010002004B06170BD00002E2E2F4472697665E9
:1010200072732F53544D3332483778785F48414CB0
:101030005F4472697665722F5372632F73746D33D8
:1010400032683778785F68616C5F6770696F2E63AC
:101050000000000001480068000C70470010005CB0
:101060000148806870470000000000240248816841
:10107000027811448160704700000024032010B5FD
:1010800000F0DAF801F08EFE0F4A10491468136878
:10109000C4F3032203F00F038A5CC95C02F01F0251
:1010A00001F01F01D0400A4A20FA01F111600949FC
:1010B0000860002000F010F808B1012010BD00F019
:1010C0002BF8002010BD000018440258D257000829
:1010D000100000240C00002470B50D4D0446287843
:1010E000A0B14FF47A71B1FBF0F00A490968B1FB85
:1010F000F0F002F075FA48B9102C07D20022214610
:10110000501E00F04BF800206C6070BD012070BDD7
:10111000000000240C000024064882B0016841F061
:1011200002010160006800F002000090052002B09A
:1011300000F082B8F444025810B5040003D5BE2173
:1011400007A004F0EBF9002C09DB60090121800005
:1011500004F01F0200F1E0209140C0F8001110BD22
:101160002E2E2F447269766572732F53544D33328D
:10117000483778785F48414C5F4472697665722FD2
:101180005372632F73746D3332683778785F686198
:101190006C5F636F727465782E63000070B5102AFF
:1011A00014460D46064603D3AA2113A004F0B6F94F
:1011B000102D03D3AB2110A004F0B0F91D48006836
:1011C000C0F30223C3F10702042A00D90422181D28
:1011D000072801D2002300E0DB1E012101FA02F002
:1011E0009940401E2840491E984021400143304606
:1011F000BDE8704004F081B92E2E2F4472697665E7
:1012000072732F53544D3332483778785F48414CCE
:101210005F4472697665722F5372632F73746D33F6
:1012200032683778785F68616C5F636F7274657875
:101230002E6300000CED00E070B5072804460BD0CB
:10124000062C09D0052C07D0042C05D0032C03D084
:10125000922108A004F062F9154904F007024FF644
:10126000FF050868134B284040EA02201843086035
:1012700070BD00002E2E2F447269766572732F5355
:10128000544D3332483778785F48414C5F44726937
:101290007665722F5372632F73746D3332683778AB
:1012A000785F68616C5F636F727465782E630000AD
:1012B0000CED00E00000FA0570B50228044606D0E7
:1012C000012C04D015A040F23F1104F027F9224868
:1012D0000168C943490705D5006800F00700A0422E
:1012E00013D118E0016821F0070121430160FFF7E5
:1012F000B7FE194D4FF47A760446083D07E000BF6B
:10130000FFF7AEFE001BB04201D9012070BD286876
:10131000C0438004F4D4002070BD00002E2E2F4462
:101320007269766572732F53544D3332483778782B
:101330005F48414C5F4472697665722F5372632F28
:1013400073746D3332683778785F68616C5F70777B
:10135000725F65782E6300000C4802582DE9F84F43
:1013600090460C460546FFF77BFE8346A0690028A1
:1013700017D0B0F5807F0CD0B0F5007F09D0B0F564
:10138000407F06D062A040F2163104F0C7F8A06991
:1013900038B12068FF2804D95DA040F2193104F06B
:1013A000BDF8E06900281FD0B0F5806F0CD0B0F513
:1013B000006F09D0B0F5406F06D04FF4477154A0CC
:1013C00004F0ACF8E06978B1E06868B1B0F5805F2E
:1013D0000AD0B0F5005F07D0B0F5405F04D04CA054
:1013E00040F21F3104F09AF8206AF8B1B0F5804F4E
:1013F0000CD0B0F5004F09D0B0F5404F06D044A056
:1014000040F2223104F08AF8206A78B1206968B18C
:10141000B0F5803F0AD0B0F5003F07D0B0F5403FAF
:1014200004D03BA040F2253104F078F860691F2811
:1014300004D94FF44A7136A004F070F8606A68B1BC
:10144000B0F1807F0AD0B0F1007F07D0B0F1407FCB
:1014500004D02FA040F2293104F060F8E06A38B1DE
:10146000B0F1004F04D02AA040F22B3104F056F81E
:10147000206B38B1B0F1804F04D04FF44B7124A0F1
:1014800004F04CF8606B38B1B0F1805F04D020A05C
:1014900040F22D3104F042F895F8400001280ED0BA
:1014A00001274FF0000985F8407095F841000128A8
:1014B00007D0022685F840903046BDE8F88F02201C
:1014C000FBE74FF0020AC5F8449085F841A00022DE
:1014D00020215B462846CDF8008003F0ABF80600DB
:1014E000E8D100222146284602F010FF606A60B968
:1014F00001225B4602212846CDF8008003F09AF8CD
:101500000600D7D12968C1F80CA085F84170D1E751
:101510002E2E2F447269766572732F53544D3332D9
:10152000483778785F48414C5F4472697665722F1E
:101530005372632F73746D3332683778785F6861E4
:101540006C5F717370692E6300000000F8B504468B
:10155000FFF786FD002C054668D058492068884270
:1015600004D057A04FF49F7103F0D8FF6068FF28A4
:1015700004D953A040F23F1103F0D0FFA068401EF1
:101580001F2804D94FF4A0714DA003F0C7FFE068F5
:1015900030B1102804D04AA040F2411103F0BEFF40
:1015A00020691F2804D946A04FF4A17103F0B6FFAB
:1015B0006069C8B1B0F5807F16D0B0F5007F13D058
:1015C000B0F5407F10D0B0F5806F0DD0B0F5A06FB2
:1015D0000AD0B0F5C06F07D0B0F5E06F04D038A0E6
:1015E00040F2431103F09AFFA06930B1012804D002
:1015F0004FF4A27132A003F091FF206A402811D06D
:1016000038B12FA040F2451103F088FF206A40282E
:1016100008D0E06930B1802804D029A040F24911F7
:1016200003F07CFF94F8410010B107E00120F8BD01
:10163000204600F067F841F28830A06420686FF01F
:10164000FF03A268016803EB022221F470611143D9
:101650000160A06C002220212B460090204602F061
:10166000E9FF0028E3D12268D4E907352679E1684B
:10167000176845EA0665DFF884C01943204B294303
:101680000025012607EA0C07394311602268D4E9D6
:101690000517B4F810C0D2F804E039430EEA030E7F
:1016A0004EEA0C431943516021680A6842F0010276
:1016B0000A60656484F84160F8BD00000050005283
:1016C0002E2E2F447269766572732F53544D333228
:1016D000483778785F48414C5F4472697665722F6D
:1016E0005372632F73746D3332683778785F686133
:1016F0006C5F717370692E63000000002FFFFF00A4
:10170000FEF8E0FFF0B5B5B0044614212FA8FEF7AF
:10171000B7FEBC216846FEF7B3FE2D49206888421B
:1017200054D10224049450260620CDE9026405AE6B
:10173000C021002586E82300012308954FF000779B
:10174000684620221292CDE9007300F05DFA08B1DC
:10175000FEF73DFF1F48016841F4804101600068C9
:1017600000F4804034901B480C30016841F01001B7
:101770000160016801F010013491016841F002013B
:101780000160016801F002013491016841F0080133
:10179000016000682FA9032600F008003490092793
:1017A000042081E8F1000C48FFF71AFA2FA940F253
:1017B000044081E8F1000948FFF712FA2FA94FF41D
:1017C000605081E8F1000648FFF70AFA35B0F0BD35
:1017D00000500052D444025800100258000402582D
:1017E000000C02582DE9F84F15460E460446FFF747
:1017F00037FC82462068816994F8403000F1200966
:10180000012B0DD001274FF0000884F8407094F8A8
:101810004120012A06D0022084F84080BDE8F88FDC
:101820000220FBE7C4F84480A6B3222284F84120BA
:101830000269521CA2630269521C626326634269F8
:1018400022F0406242F080624261206881610EE0D5
:101850000621204602F0EEFEC8B999F80000216B7F
:101860000870206B401C2063A06B401EA063A06B1F
:1018700053464FF0010200950028E9D14FF00201D4
:10188000204602F0D7FE10B922680221D16084F808
:101890004170C1E7FFE7616C012041F0080161641C
:1018A000BAE700002DE9F84F15460E460446FFF74B
:1018B000D7FB94F8401082462068012900F12009E6
:1018C0000ED001274FF0000884F8407094F84110C2
:1018D000012907D05FF0020084F84080BDE8F88F4E
:1018E0000220FBE7C4F8448086B3122184F841103B
:1018F0000169491CE1620169491CA1626662416992
:1019000021F0406141610EE00421204602F092FE88
:10191000C8B9606A017889F80010606A401C60628A
:10192000E06A401EE062E06A53464FF00102009513
:101930000028E9D14FF00201204602F07BFE10B9E9
:1019400022680221D16084F84170C5E7FFE7616C2D
:10195000012041F008016164BEE7000010B501F00C
:10196000DBF905490968054AC1F30211515C01F030
:101970001F01C84010BD000020440258D257000883
:10198000494930B5484C0B1D0A68143409681D6874
:10199000246802F00303C5F30012C1F30531C4F358
:1019A000CC04002914FB02F200EE102AF8EE400AE3
:1019B00075D03F4A9FED3D1AB7EE000A6BB1DFEDDF
:1019C0003D1A012B01D0022B64D002EE101A1168CF
:1019D000F8EE422A81EEA22A21E0334C283C23680B
:1019E0009B0612D5344B246801EE901A1168C4F39B
:1019F000C104F8EE612AE34001EE903AC1F3080118
:101A0000F8EE611A81EEA22A0BE001EE901ADFEDEA
:101A10002B2A00BFF8EE611A116882EEA12AC1F3E9
:101A2000080101EE901A1168F8EE611A40EE811A71
:101A300071EE800A62EE200AC1F3462101EE101A0F
:101A4000B8EE411A31EE001AC0EE811ABCEEE11A6E
:101A500080ED001A1168C1F3064101EE101AB8EECC
:101A6000411A31EE001AC0EE811ABCEEE11A80ED87
:101A7000011A1168C1F3066101EE101AB8EE411A9D
:101A800031EE000A80EE801ABCEEC10A80ED020A37
:101A900030BD04E001EE901ADFED092ABAE700211B
:101AA000016041608160F3E728440258000000397A
:101AB000384402580024744A0090D0030024744C27
:101AC000001B374B494930B5484C0B1D0A681C3484
:101AD00009681D68246802F00303C5F30022C1F3FE
:101AE0000551C4F3CC04002914FB02F200EE102AC5
:101AF000F8EE400A75D03F4A9FED3D1AB7EE000A56
:101B00006BB1DFED3D1A012B01D0022B64D002EE48
:101B1000101A1168F8EE422A81EEA22A21E0334C15
:101B2000283C23689B0612D5344B246801EE901A9A
:101B30001168C4F3C104F8EE612AE34001EE903A63
:101B4000C1F30801F8EE611A81EEA22A0BE001EE62
:101B5000901ADFED2B2A00BFF8EE611A116882EEB1
:101B6000A12AC1F3080101EE901A1168F8EE611A7A
:101B700040EE811A71EE800A62EE200AC1F346211E
:101B800001EE101AB8EE411A31EE001AC0EE811AB9
:101B9000BCEEE11A80ED001A1168C1F3064101EEB6
:101BA000101AB8EE411A31EE001AC0EE811ABCEEDE
:101BB000E11A80ED011A1168C1F3066101EE101AF5
:101BC000B8EE411A31EE000A80EE801ABCEEC10A6E
:101BD00080ED020A30BD04E001EE901ADFED092A23
:101BE000BAE70021016041608160F3E728440258B0
:101BF00000000039404402580024744A0090D00389
:101C00000024744C001B374B2DE9FC5F044650F850
:101C1000241B002500902E460801FE4FDFF8F893A4
:101C20001DD5606E50B1B0F5801F0CD0B0F5001F0F
:101C30000ED0B0F5401F1DD001250FE0386840F4EC
:101C40000030386016E00221201D02F017FD03E08D
:101C50000098022102F00AFE05000BD02E462088D3
:101C6000C00523D5606D05281ED2DFE800F00C11F9
:101C7000161B1B00626ED9F8001021F440111143AD
:101C8000C9F80010EBE7386840F40030386009E02C
:101C90000021201D02F0F2FC03E00098002102F078
:101CA000E5FD05466DB100E001252E462088800542
:101CB00028D5A06D80281ED00CDC90B140280ED114
:101CC00014E0626DD9F8001021F007011143C9F842
:101CD0000010EBE7C02813D0B0F5807F10D00125AD
:101CE0000FE0386840F40030386009E00021201D22
:101CF00002F0C4FC03E00098002102F0B7FD0546A5
:101D000095B12E462088DFF81083400508F10808B9
:101D10002CD5D4F8A400B0F5800F20D00DDCA0B1F4
:101D2000B0F5001F0FD115E0A26DD9F8001021F415
:101D3000E0711143C9F80010E4E7B0F5C00F13D00B
:101D4000B0F5000F10D001250FE0386840F40030E6
:101D5000386009E00021201D02F090FC03E00098AB
:101D6000002102F083FD054675B12E46208800054E
:101D70002DD5D4F8A800B0F1007F21D00EDCA8B199
:101D8000B0F1807F10D116E0D4F8A420D8F800106C
:101D900021F460011143C8F80010E7E7B0F1407F7B
:101DA00013D0B0F1806F10D001250FE0386840F4F7
:101DB0000030386009E00021201D02F05FFC03E0E4
:101DC0000098002102F052FD05466DB12E462068B4
:101DD00080011FD5A06CD8B110280FD0202812D0B8
:101DE000302815D0012514E0D4F8A820D8F8001028
:101DF00021F0E0611143C8F80010E8E7386840F4CA
:101E00000030386004E00221201D02F037FC054656
:101E10006DB12E462088C0042BD5E06DB0F5005F73
:101E200020D00DDCA0B1B0F5805F0FD115E07A486D
:101E3000A26C001F016821F0300111430160E9E745
:101E4000B0F5405F13D0B0F5804F10D001250FE002
:101E5000386840F40030386009E00021201D02F0AD
:101E60000DFC03E00098002102F000FD054685B15D
:101E70002E462088800429D5206EB0F5403F23D01F
:101E800010DC08B3B0F5803F14D0B0F5003F0FD19F
:101E900015E0E26DD9F8001021F4E0411143C9F8D2
:101EA0000010E6E7B0F5802F0ED0B0F5A02F0BD0D4
:101EB00001250AE00121201D02F0E0FB03E000986B
:101EC000012102F0D3FC05468DB12E462088400446
:101ED0002AD5D4F8AC00B0F1405F23D010DC08B3B1
:101EE000B0F1805F14D0B0F1005F0FD115E0226E29
:101EF000D9F8001021F4E0211143C9F80010E5E7FA
:101F0000B0F1804F0ED0B0F1A04F0BD001250AE008
:101F10000121201D02F0B2FB03E00098012102F034
:101F2000A5FC05466DB12E46208800041FD5E06E45
:101F3000D8B1B0F1805F0ED0B0F1005F10D00125B4
:101F400014E0D4F8AC20D8F8001021F0E04111439F
:101F5000C8F80010E8E7386840F40030386004E062
:101F60000121201D02F08AFB05466DB12E46206836
:101F7000C0011ED5606CD0B101280ED0022811D04E
:101F8000032814D0012513E0E26ED9F8001021F0E7
:101F900040511143C9F80010E9E7386840F40030B7
:101FA000386004E00221201D02F068FB0546ADB355
:101FB0002E462068DFF85CB04002ABF11C0B7DD5EB
:101FC000D4F8B000B0F5807F79D0B0F5007F76D03E
:101FD000B0F50C5F73D0B0F54C5F70D0B0F5864FA4
:101FE0006DD0B0F5A64F6AD0B0F5C64F67D0B0F54A
:101FF000E64F64D0B0F5034F61D0B0F5134F5ED01B
:10200000B0F5234F5BD0B0F5334F58D0B0F5434F08
:1020100055D004E02C44025850440258A9E0B0F5D1
:10202000534F4CD0B0F5634F49D0B0F5734F46D005
:10203000F749884243D0F749884240D0F649884260
:102040003DD0F64988423AD0F549884237D0F54923
:10205000884234D0F449884231D0F44988427FD054
:10206000F34988427CD0F349884279D0F2498842CA
:1020700076D0F249884273D0F149884270D0F14954
:1020800088426DD0F04988426AD0F049884267D0D2
:10209000EF49884264D0EF49884261D0EE498842D6
:1020A0005ED0EE4988425BD0ED49884258D0ED4978
:1020B000884255D0EC49884252D001E0A0E04FE080
:1020C000EA4988424CD0EA49884249D0E9498842E5
:1020D00046D0E949884243D0E849884240D0E8499F
:1020E00088423DD0E74988423AD0E749884237D014
:1020F000E649884234D0E649884231D0E5498842F1
:102100002ED0E54988422BD0E449884228D0E449C2
:10211000884225D0E349884222D0E34988421FD033
:10212000E24988421CD0E249884219D0E1498842FC
:1021300016D0E149884213D0E049884210D0E049E6
:1021400088420DD0DF4988420AD0DF49884207D053
:10215000DE49884204D0DEA040F27F3103F0DEF990
:10216000EA48016841F480710160FEF779FF824618
:102170000EE0E748626C016821F003011143016041
:1021800017E700BFFEF76CFFA0EB0A00642835D804
:10219000DE480068C005F5D58DBBDFF874A3B4F840
:1021A000B0100AF1240ADAF8000001F4407100F4DA
:1021B0004070884211D0DAF80010DAF8002021F4DB
:1021C000407142F48032CAF80020DAF8002022F48C
:1021D0008032CAF80020CAF80010D4F8B000B0F578
:1021E000807F22D1FEF73CFF01901AE0FEF738FF16
:1021F0000199411A41F28830814212D903252E46B5
:102200002078DFF80CA3C0070AF1080A3DD0A06FC0
:10221000182838D026DC80B3082829D0102825D1EA
:102220002CE0DAF800008007E0D5D4F8B010C1F354
:102230000120032858460DD0016821F47C5101602B
:10224000B4F8B020DAF80010C2F30B021143CAF858
:102250000010D5E7AF4A036802EA111223F47C515B
:102260001143ECE720280ED028280CD001250BE0E4
:102270000121201D02F002FA04E004E0009801218F
:1022800002F0F4FA05465DB12E46207880071ED58F
:10229000606F062819D2DFE800F0160C111616162A
:1022A000A26FDAF8001021F038011143CAF80010CB
:1022B000EBE70121201D02F0E1F903E00098012184
:1022C00002F0D4FA054675B100E001252E462078CB
:1022D00040071FD5D4F89000062819D2DFE800F097
:1022E000160C11161616626FDAF8001021F00701AD
:1022F0001143CAF80010EAE70121201D02F0BEF9DF
:1023000003E00098012102F0B1FA05469DB100E01A
:1023100001252E46207880062BD5D4F88C00B0F10C
:10232000405F24D011DC10B3B0F1805F15D0B0F164
:10233000005F10D116E0D4F89020D8F8001021F0FA
:1023400007011143C8F80010E4E7B0F1804F0ED048
:10235000B0F1A04F0BD001250AE00021201D02F0B2
:102360008DF903E00098022102F080FA05468DB154
:102370002E46207840062BD5D4F89800B0F5406F53
:1023800024D011DC10B3B0F5806F15D0B0F5006F1C
:1023900010D116E0D4F88C20DAF8001021F0E041DA
:1023A0001143CAF80010E4E7B0F5805F0ED0B0F535
:1023B000A05F0BD001250AE00021201D02F05EF98C
:1023C00003E00098022102F051FA05468DB12E4635
:1023D0002078000618D5D4F89C00B0F5C04F12D074
:1023E00013DC80B1B0F5005F10D0B0F5804F0ED196
:1023F0009FE0D4F89820D8F8001021F4E051114360
:10240000C8F80010E4E799E09AE085E08CE089E004
:10241000000301000013010000230100003301004C
:10242000004301000053010000630100007301003C
:10243000008301000093010000A3010000B301002C
:1024400000C3010000D3010000E3010000F301001C
:102450000003020000130200002302000033020008
:1024600000430200005302000063020000730200F8
:10247000008302000093020000A3020000B30200E8
:1024800000C3020000D3020000E3020000F30200D8
:1024900000030300001303000023030000330300C4
:1024A00000430300005303000063030000730300B4
:1024B000008303000093030000A3030000B30300A4
:1024C00000C3030000D3030000E3030000F3030094
:1024D0002E2E2F447269766572732F53544D33320A
:1024E000483778785F48414C5F4472697665722F4F
:1024F0005372632F73746D3332683778785F686115
:102500006C5F7263635F65782E6300000048025859
:102510004C440258CFFFFF00B0F5004F0ED0B0F58D
:10252000204F0BD001250AE00021201D02F0A6F863
:1025300003E00098022102F099F90546DDB12E462C
:102540002078000730D5D4F88000B0F5805F1CD02B
:10255000B0F5005F1FD0F0B1B0F5405F1BD040F286
:102560000F51AFF2940002F0D9FFD4F88000B0F51B
:10257000805F0AD00FE0D4F89C20D8F8001021F436
:1025800060411143C8F80010DAE70098022102F018
:102590006DF900B10126D4F88020DAF8001021F49A
:1025A00040511143CAF800102078C00625D5D4F850
:1025B0009400B0F5807F11D0B0F5007F14D098B1B1
:1025C000B0F5405F10D040F22251AFF2FC0002F0B3
:1025D000A5FFD4F89400B0F5807F05D100980221C2
:1025E00002F044F900B10126D4F89420D8F8001084
:1025F00021F440711143C8F800102068000316D57B
:10260000D4F8A00038B1B0F5803F09D0B0F5003F54
:102610000BD001250AE00021201D02F02FF803E075
:102620000098022102F022F9054685B12E46206865
:10263000400322D5D4F88400B0F5801F11D0B0F546
:10264000001F13D0B0F5401F15D0012514E0D4F8B9
:10265000A020D8F8001021F440311143C8F8001030
:10266000E5E7386840F40030386004E00098012164
:1026700002F0FCF80546ADB12E462068C00327D510
:10268000E06C40B1B0F5803F05D04FF4B161AFF2DE
:10269000C01002F043FFE06C70B1B0F5803F10D085
:1026A000012514E0D4F88420DAF8001021F4401158
:1026B0001143CAF80010E0E7386840F40030386091
:1026C00004E00221201D01F0D9FF0546CDB12E46C0
:1026D0002068800005D50098022102F0C7F800B1FB
:1026E0000126206880031AD5E06FB0B1B0F5807F75
:1026F0000FD0B0F5007F10D0B0F5407F0DD0012590
:102700000CE05948E26C016821F48031114301600A
:10271000DEE7386840F400303860EDB32E462068BC
:10272000C00212D5206F40B1B0F1004F05D040F289
:10273000E751AFF2642002F0F1FE226FD9F80010E9
:1027400021F000411143C9F800102068C00014D5E1
:10275000D4F8B40040B1B0F5804F05D040F2F1514B
:10276000AFF2942002F0DAFED4F8B420DBF80010C7
:1027700021F480411143CBF800102068800214D569
:10278000A06E40B1B0F1807F05D040F2FB51AFF2B6
:10279000C02002F0C3FE00E05AE0A26ED9F800109B
:1027A00021F080711143C9F800102068400018D54D
:1027B000D4F8B80040B1B0F5004F05D040F2116137
:1027C000AFF2F42002F0AAFEDBF8001021F4004181
:1027D000CBF80010DBF80010D4F8B8201143CBF888
:1027E00000102068002814DA206D58B1B0F1805F25
:1027F00008D0B0F1005F05D040F21B61AFF230307D
:1028000002F08CFE1848226D016821F040511143FE
:1028100001602068000217D5D4F8880058B1B0F5DF
:10282000800F08D0B0F5000F05D040F22561AFF25F
:10283000603002F073FED4F88820DAF8001021F43A
:1028400040011143CAF800105EB10120BDE8FC9FB1
:10285000E26FDAF8001021F440711143CAF8001059
:102860005DE70020F2E700004C4402582DE9F05FDC
:1028700004000D467ED02068401E3E2804D9FFA0EB
:1028800040F2863102F04AFE15B3012D20D0022D10
:102890001ED0032D1CD0042D1AD0052D18D0062DC6
:1028A00016D0072D14D0082D12D0092D10D00A2DC6
:1028B0000ED00B2D0CD00C2D0AD00D2D08D00E2DC6
:1028C00006D00F2D04D0EDA040F2873102F026FE95
:1028D000DFF8E083D8F8000000F00F00A8420CD227
:1028E000D8F8001021F00F012943C8F80010D8F8DB
:1028F000000000F00F00A8423CD12078EE4E4007C7
:1029000019D52069316801F07001884213D960B18E
:1029100040280AD0502808D0602806D0702804D05B
:10292000D6A040F2A33102F0F9FD2169306820F011
:102930007000084330602078DF4F3F1D00071BD533
:102940006069396801F07001884215D960B140288A
:102950000AD0502808D0602806D0702804D0C7A01C
:1029600040F2B53102F0DAFD6169386820F070009C
:10297000084300E00DE138602078C0061DD5A0694D
:10298000396801F4E061884217D980B1B0F5806FF1
:102990000DD0B0F5A06F0AD0B0F5C06F07D0B0F57C
:1029A000E06F04D0B5A040F2C63102F0B7FDA169D6
:1029B000386820F4E060084338602078DFF8F8A237
:1029C00080060AF1080A1CD5E069DAF8001001F067
:1029D0007001884215D960B140280AD0502808D02B
:1029E000602806D0702804D04FF47671A3A002F0BE
:1029F00095FDE269DAF8001021F070011143CAF880
:102A000000102078800721D5E068316801F00F01BF
:102A100088421BD9A0B1082812D0092810D00A2852
:102A20000ED00B280CD00C280AD00D2808D00E2868
:102A300006D00F2804D091A040F2EB3102F06EFDD9
:102A4000E168306820F00F00084330602078C0074C
:102A500069D0A068E0B1B0F5006F19D0B0F5106F83
:102A600016D0B0F5206F13D0B0F5306F10D0B0F5A0
:102A7000406F0DD0B0F5506F0AD0B0F5606F07D041
:102A8000B0F5706F04D07DA040F2FB3102F046FD3E
:102A90006068012809D040B1022806D0032804D07C
:102AA0004FF47F7175A002F039FD8349A268306848
:102AB000183920F47060104330606068022816D026
:102AC000032817D00968012817D04907002960DAC0
:102AD000DFF8E4B1ABF1080BDBF8002022F00702CD
:102AE0000243CBF80020FEF7BBFA814613E00968E9
:102AF0008903EBE709688901E8E7C905E6E700BF54
:102B0000FEF7AEFAA0EB090141F28830814202D90A
:102B10000320BDE8F09F6168DBF8000000F038009A
:102B2000B0EBC10FECD12078800721D5E068316887
:102B300001F00F0188421BD2A0B1082812D0092849
:102B400010D00A280ED00B280CD00C280AD00D2843
:102B500008D00E2806D00F2804D048A040F23D41EE
:102B600002F0DCFCE168306820F00F0008433060C0
:102B7000D8F80010404601F00F01A9420BD90168B6
:102B800021F00F0129430160006800F00F00A84206
:102B900001D00120BDE72078400719D520693168B0
:102BA00001F07001884213D260B140280AD0502849
:102BB00008D0602806D0702804D030A040F25E41D2
:102BC00002F0ACFC2169306820F0700008433060EE
:102BD0002078000719D56069396801F070018842D2
:102BE00013D260B140280AD0502808D0602806D0FF
:102BF000702804D04FF48E6120A002F08FFC616930
:102C0000386820F07000084338602078C0061DD571
:102C1000A069396801F4E061884217D280B1B0F54B
:102C2000806F0DD0B0F5A06F0AD0B0F5C06F07D09F
:102C3000B0F5E06F04D011A040F2824102F06EFCCA
:102C4000A169386820F4E060084338602078800685
:102C50003DD5E0695546DAF8001001F07001884270
:102C600035D258B340282CD050282AD0602828D0FC
:102C7000702826D001A040F2944120E02E2E2F444F
:102C80007269766572732F53544D333248377878B2
:102C90005F48414C5F4472697665722F5372632FAF
:102CA00073746D3332683778785F68616C5F726314
:102CB000632E6300002000521844025801E002F025
:102CC0002DFCE169286820F070000843286000F0BE
:102CD00069F80D4933683268C3F3032302F00F0229
:102CE000CB5C895C03F01F0201F01F01D040074A52
:102CF00020FA01F111600649086006480068BDE845
:102D0000F05FFEF7E9B90000D25700081000002478
:102D10000C0000240400002430B500F043F80B4AF6
:102D20000B490C4B15681468C5F3032204F00F041B
:102D30008A5C095D02F01F0201F01F01D040064AC3
:102D400020FA01F119601060084630BD184402589D
:102D5000D2570008100000240C00002400B5FFF733
:102D6000DBFF05490968054AC1F30211515C01F016
:102D70001F01C84000BD00001C440258D257000883
:102D800000B5FFF7C9FF05490968054AC1F30221EB
:102D9000515C01F01F01C84000BD00001C440258F6
:102DA000D2570008454970B545480968434B103B68
:102DB00011F0380208D00111082A03D0102A0BD0D4
:102DC000182A0BD0084670BD19688906FBD519680A
:102DD000C1F3C101C84070BD3A4870BD3749374D95
:102DE00018310C1D24350A68096826682D6802F020
:102DF000030406F00102C1F30511C5F3CC0515FB70
:102E000002F200EE102AB8EE400AE9B32F4ADFEDD5
:102E10002E0AB7EE001A6CB1DFED2D1A012C01D08D
:102E2000022C43D002EE101A1068F8EE422A81EE0E
:102E3000A22A1EE01C68A40611D51B6801EE901A98
:102E40001168C3F3C103F8EE612AD84001EE900A7D
:102E5000C1F30800F8EE611A81EEA22A0BE001EE40
:102E6000901ADFED1C2A00BFF8EE611A106882EE9E
:102E7000A12AC0F3080001EE900AF8EE611A40EEB4
:102E8000201A31EE810A00E015E022EE000A1068F7
:102E9000C0F34620401C00EE900AF8EE600A80EE77
:102EA000201ABCEEC10A10EE100A70BD01EE901A95
:102EB000DFED092AD8E7002070BD00001044025859
:102EC0000090D003001BB7000000003930440258C6
:102ED0000024744A0024744C001B374B2DE9F05F2A
:102EE00004006FD0FE4E41F20308DFF8F493FC4F6C
:102EF000A6F10405206809F10C09243780B1C10747
:102F000011D181076CD4C1067DD401077CD441075F
:102F10007BD480067AD4F3A040F2A31102F0FEFA2B
:102F20002078C00759D060684FF4803A4FF4A02B46
:102F300040B1504506D0584504D04FF4D471E9A0B3
:102F400002F0ECFAD9F80000396800F038001028D7
:102F50000CD0182803D101F00300022806D06068C5
:102F600050450AD1286840F4803010E0286880037A
:102F700033D560680028B4D02FE008B158450DD093
:102F8000286820F480302860286820F48020286099
:102F9000606898B1FEF764F882460BE0286840F458
:102FA00080202860DEE700BFFEF75AF8A0EB0A0099
:102FB000642873D828688003F6D50EE0FEF750F831
:102FC000824607E032E100BFFEF74AF8A0EB0A00B4
:102FD0006428EED828688003F6D42078800770D55E
:102FE000E06860B101280AD0092808D0112806D06D
:102FF000192804D04FF4EE71BAA002F08FFA2069BC
:103000007F2809D903E05FE0CFE0EEE004E1B5A05E
:1030100040F2DD1102F082FAD9F80000396810F0B0
:1030200038000ED0182801D188070AD0E068A0B374
:10303000296821F0190101432960FEF711F8824641
:103040001AE02868400702D5E068002893D0FEF710
:1030500001F840451AD82069402811D0316821F480
:103060007C3141EA003030602BE000BFFDF7F8FF13
:10307000A0EB0A0002289CD828684007F6D5E6E7AE
:10308000306820F47C3040F40030ECE7207C31687C
:1030900021F0FE4141EA0060E5E700E06BE22868CC
:1030A00020F001002860FDF7DBFF824606E000BF4C
:1030B000FDF7D6FFA0EB0A0002288AD8286840074F
:1030C000F6D42078C0066DD5E06930B1802804D0F0
:1030D00084A040F21F2102F021FA206A3F2804D97F
:1030E0004FF408717FA002F019FAD9F80000DFF858
:1030F000F0B1396800F038000BF1080B082810D047
:10310000182803D101F0030001280AD0E069002843
:10311000286837D040F080002860FDF7A1FF824684
:1031200022E02868C00522D5E06980287ED11EE013
:10313000206A202820D0316821F0F84141EA8060DF
:1031400030602FE094F82010DBF8002022F07C5251
:1031500042EA0161CBF8001024E000BFFDF780FFD8
:10316000A0EB0A00022886D82868C005F6D5FDF72E
:1031700071FF4045E6D8DBE7306820F0F84040F0CA
:103180008040DDE720F080002860FDF769FF0646FB
:1031900005E000BFFDF764FF801B02288DD828687A
:1031A000C005F7D42078000733D54D4E60697036DE
:1031B000E0B1012806D04BA040F2612102F0AEF947
:1031C000606998B13168B04641F001013160FDF7A6
:1031D00047FF064605E000BFFDF742FF801B0228BF
:1031E000C1D8D8F800008007F6D512E03168B046A3
:1031F00021F001013160FDF733FF064605E000BF15
:10320000FDF72EFF801B0228ADD8D8F800008007FC
:10321000F6D4207880062FD5A069E0B1012808D027
:103220004FF423712FA002F079F900E0D2E1A069F8
:1032300088B1286840F480502860FDF711FF0646E9
:1032400005E000BFFDF70CFF801B02288BD8286823
:103250008004F7D510E0286820F480502860FDF73E
:10326000FFFE064605E000BFFDF7FAFE801B0228C0
:1032700094D828688004F7D42078400779D5A068CE
:1032800040B1012806D0052804D016A040F2B6218E
:1032900002F044F9DFF88480D8F8001041F480711E
:1032A000C8F80010FDF7DCFE064604E0FDF7D8FE86
:1032B000801B642894D8D8F80000C005F6D5084EC5
:1032C000A0686C3601282BD008B1052834D03068AE
:1032D00020F001003060306820F0040023E000009E
:1032E000044402582E2E2F447269766572732F5350
:1032F000544D3332483778785F48414C5F447269A7
:103300007665722F5372632F73746D33326837781A
:10331000785F68616C5F7263632E630000480258D7
:10332000306840F001003060A06841F2883A98B1FE
:10333000FDF796FE80460BE0306840F004003060F8
:10334000EEE700BFFDF78CFEA0EB080151458FD8DA
:1033500030688007F6D50CE0FDF782FE804605E078
:10336000FDF77EFEA0EB08015145A3D83068800729
:10337000F6D4606A00287DD001280AD0022808D03F
:103380004FF43A71AFF2A40002F0C8F8606A002866
:10339000F1D0DFF84882D9F80000C0F3C20003285A
:1033A00069D0606A022807D0286820F08070286001
:1033B000FDF756FE0446E1E0A06A01280AD048B1B4
:1033C000032807D0022805D040F2F121AFF2EC002B
:1033D00002F0A4F8206C58B1042809D0082807D0BE
:1033E0000C2805D040F2F221AFF2081002F096F856
:1033F000606C38B1022805D040F2F321AFF21C1006
:1034000002F08CF8E06A401E3E2805D94FF43D7169
:10341000AFF2301002F082F8206B001FB0F5FE7F93
:1034200005D940F2F521AFF2441002F077F8606B55
:10343000401E7F2805D940F2F621AFF2581002F065
:103440006DF8A06B401E7F2805D940F2F721AFF23E
:103450006C1002F063F8E06B401E7F2805D94FF432
:103460003E71AFF2801002F059F8A06CB0F5005F29
:1034700008D301E0B0E085E040F2F921AFF29C1002
:1034800002F04CF8286820F080702860FDF7E8FD15
:10349000064604E0FDF7E4FD801B02286BD828688F
:1034A0008001F7D4E26A40F2F331386854F8283FDB
:1034B000884340EA021018433860267B434621893E
:1034C0004FF4FE0C208A4FF0FE47491E227D760203
:1034D000401EA6F50076C1F30808B1B2521E0CEAF0
:1034E000004041EA080101433C4807EA02621143F7
:1034F0003A4A001F1960121D016821F001010160A4
:1035000011684FF6F876236AB14341EAC3011160AE
:103510000168A26921F00C01114301600168E269B0
:1035200021F0020111430160016841F48031016022
:10353000016841F400310160016841F480210160BB
:10354000016841F001010160286840F08070286046
:10355000FDF786FD044604E0FDF782FD001B02280E
:1035600009D828688001F7D536E000BFFDF778FD5F
:10357000001B022802D90320BDE8F09F28688001C3
:10358000F4D429E0626A3968D8F80000012A21D011
:10359000A26A01F0030393421CD1E26AC1F3051150
:1035A0008A4217D1216BC0F30802491E8A4211D109
:1035B000616BC0F34622491E91420BD1A16BC0F34F
:1035C0000642491E914205D1E16BC0F30660491ED7
:1035D000814201D00120CFE70020CDE730440258DE
:1035E000401EB0F1807F10B501D3012010BD4FF017
:1035F000E02460610F21601701F07FFF0020A061CF
:103600000721216110BD000070B51F490446006804
:10361000884219D01D49884216D01D49884213D0CE
:103620001C49884210D01C4988420DD01B49884251
:103630000AD01B49884207D01A49884204D04FF467
:103640000D7119A001F06AFF94F88000012818D0CC
:10365000012184F880102420C4F884000021202354
:1036600054F8640B0268056822F0005225F0010549
:103670000560216054F8640C0260236208462177DB
:1036800070BD022070BD00000010014000440040E9
:1036900000480040004C0040005000400014014031
:1036A00000780040007C00402E2E2F447269766521
:1036B00072732F53544D3332483778785F48414CFA
:1036C0005F4472697665722F5372632F73746D3322
:1036D00032683778785F68616C5F756172745F65B6
:1036E000782E63007047704770B50D462B4904462D
:1036F0000068884219D02A49884216D02949884250
:1037000013D02949884210D0284988420DD0284931
:1037100088420AD02749884207D02749884204D0E6
:1037200026A040F2932101F0F9FE9DB1B5F1007F92
:1037300010D0B5F1806F0DD0B5F1C06F0AD0B5F1E2
:10374000006F07D0B5F1206F04D04FF425711BA096
:1037500001F0E4FE94F8800001281DD0012184F8D6
:1037600080102420C4F8840020680668016821F0D5
:10377000010101602068816821F060612943816056
:10378000204601F03FFA2268202100201660C4F88C
:10379000841084F8800070BD022070BD00100140CC
:1037A0000044004000480040004C004000500040F1
:1037B0000014014000780040007C00402E2E2F4471
:1037C0007269766572732F53544D33324837787867
:1037D0005F48414C5F4472697665722F5372632F64
:1037E00073746D3332683778785F68616C5F7561C8
:1037F00072745F65782E630070B50D462B490446E0
:103800000068884219D02A49884216D0294988423E
:1038100013D02949884210D0284988420DD0284920
:1038200088420AD02749884207D02749884204D0D5
:1038300026A040F2622101F071FE9DB1B5F1005F5A
:1038400010D0B5F1804F0DD0B5F1C04F0AD0B5F111
:10385000004F07D0B5F1204F04D01CA040F26321E7
:1038600001F05CFE94F8800001281DD0012184F84D
:1038700080102420C4F8840020680668016821F0C4
:10388000010101602068816821F060412943816065
:10389000204601F0B7F92268202100201660C4F804
:1038A000841084F8800070BD022070BD00100140BB
:1038B0000044004000480040004C004000500040E0
:1038C0000014014000780040007C00402E2E2F4460
:1038D0007269766572732F53544D33324837787856
:1038E0005F48414C5F4472697665722F5372632F53
:1038F00073746D3332683778785F68616C5F7561B7
:1039000072745F65782E63007047704770470000DF
:103910002DE9F04103680446002540F60F06D869FA
:1039200019689A68304209D186067DD501F02006D3
:1039300002F080573E4377D0216F39E1AF4EB04F50
:1039400016400F4037436FD0C70709D0CF0507D5C2
:1039500001271F62D4F88C3043F00103C4F88C3087
:1039600083070AD5D30708D0276802233B62D4F81F
:103970008C3043F00403C4F88C3043070AD5D307D6
:1039800008D0276804233B62D4F88C3043F002034C
:10399000C4F88C3003070CD501F02003334308D062
:1039A000266808233362D4F88C3043F00803C4F847
:1039B0008C3003050BD54B0109D526684FF4006305
:1039C0003362D4F88C3043F02003C4F88C30D4F840
:1039D0008C30002B34D0800609D501F0200002F095
:1039E0008051084303D0216F09B1204688472168E0
:1039F000D4F88C008968490602D410F0280F21D031
:103A0000204601F075FA20688168490615D581685D
:103A100021F040018160E06F78B17A490165E06F83
:103A2000FCF78AFF002800E012E009D0E06F016D8A
:103A300000E02046BDE8F04108472046FFF766FF5A
:103A4000BDE8F0812046FFF761FFC4F88C50F7E72E
:103A5000E76E2026012F71D1C7066FD5CF066DD531
:103A60001020186222689068400669D5E16F664BA5
:103A70000868984234D0644B1833984230D0624B77
:103A8000303398422CD0604B4833984228D05E4B5C
:103A90006033984224D05C4B7833984220D05A4B04
:103AA000903398421CD0584BA833984218D0574BAB
:103AB000984215D0554B1833984211D0534B3033A0
:103AC00098420DD0514B4833984209D04F4B603348
:103AD000984205D04D4B7833984201D04B4B9033F0
:103AE00040680004000CABD0B4F85C308342A7D926
:103AF000A4F85E00C869B0F5807F18D0106820F483
:103B0000807010602068816821F001018160206868
:103B1000816821F040018160C4F88860E566206812
:103B2000016821F010010160E06FFCF753FDB4F86B
:103B30005C00B4F85E10401A81B220E023E0FFE799
:103B4000B4F85C00B4F85E10B4F85E30401A81B28C
:103B5000002BC8D00029C6D010682D4B20F49070DF
:103B600010602068826802EA03028260C4F88860FC
:103B7000E56625672068026822F010020260204690
:103B8000FFF7B0FD5CE7C70209D5570207D54FF430
:103B9000801018622046BDE8F041FFF7B6BE070668
:103BA0000AD501F0800702F40002174304D0616FC8
:103BB00000297FF43EAF43E742060CD54A060AD5FA
:103BC0001968204621F040011960C4F884606567D7
:103BD00000F06BF934E7020206D54A0004D520460E
:103BE000BDE8F041FFF790BEC001CBD50029C9DA8E
:103BF0002046BDE8F041FFF776BD0000010000104F
:103C000020010004DD4E00081000024010040240B4
:103C1000FEFFFFEF2DE9F047040024D0A0693649EC
:103C2000364A0028364B374D374E384FDFF8E0C064
:103C3000DFF8E080DFF8E090206817D088422CD0D1
:103C400090422AD0984228D0A84226D0B04224D010
:103C5000B84222D0604520D040451ED048451CD0F7
:103C60004FF49F7116E00120BDE8F087884214D020
:103C7000904212D0984210D0A8420ED0B0420CD040
:103C8000B8420AD0604508D0404506D0484504D027
:103C900040F2431121A001F041FCD4F8840028B97E
:103CA000002084F88000204600F056F82420C4F854
:103CB00084002068016821F001010160204601F0C4
:103CC00033F90128D0D0A06A10B1204600F0BCFF23
:103CD0002068416821F4904141602068816821F0AA
:103CE0002A0181602068016841F0010101602046DD
:103CF000BDE8F04701F0C2B80010014000440040A8
:103D000000480040004C00400050004000140140BA
:103D100000780040007C0040000C00582E2E2F44FC
:103D20007269766572732F53544D33324837787801
:103D30005F48414C5F4472697665722F5372632FFE
:103D400073746D3332683778785F68616C5F756162
:103D500072742E630000000010B5B6B00446142142
:103D60002FA8FCF78DFBBC216846FCF789FB1C499A
:103D70002068884231D100241E94012000906846BA
:103D8000FDF742FF08B1FCF722FC1648016841F03C
:103D900010010160006800F01000349011481038E4
:103DA000016841F00101016000682FAB022100F0C1
:103DB000010034904FF4C060072283E813000A48E2
:103DC0002FA9CDE93242FCF70BFF00222520114636
:103DD000FDF7E4F92520FDF7AFF936B010BD00007E
:103DE00000100140F0440258000002582DE9F84349
:103DF0000446D0F884001F4616460D46202852D1AE
:103E0000DDB1D6B194F8800001284CD0012084F8AF
:103E1000800021224FF00008C4F88C80C4F8842070
:103E20001834FDF71DF9814654F8100CA687E68773
:103E3000183CB0F5805F03D004E00120BDE8F883B2
:103E4000206920B12E46002584F8808010E00026ED
:103E5000FAE78021204601F0F7FAB8B9C6B116F8A2
:103E6000010B21688862B4F85600401EA4F8560081
:103E7000B4F856004B464FF0000200970028E8D1F6
:103E80004FF04001204601F0DFFA38B10320D5E7BA
:103E900035F8020B2168C0F30800E3E72020C4F8DE
:103EA00084000020CAE70220C8E77047FEE7000050
:103EB000F0B587B014216846FCF7E2FA3C48016887
:103EC00041F010010160016801F0100105910168E5
:103ED00041F004010160016801F0040105910168ED
:103EE00041F080010160016801F0800105910168E5
:103EF00041F001010160016801F0010105910168D3
:103F000041F002010160016801F0020105910168C0
:103F100041F00801016000680122264F072100F0EE
:103F2000080005903846FDF75FF803254FF6FB7053
:103F3000002469460294CDE900051F48FCF750FEB5
:103F40000126694670038DE851003846FCF748FEAB
:103F500007206946CDE90006CDE902643846FCF742
:103F60003FFE41F6F8706946CDE9000538460294F7
:103F7000FCF736FE49F6FF106946CDE900050F480B
:103F80000294FCF72DFE4FF6FB306946CDE90005A3
:103F90000B480294FCF724FE4CF2FF706946CDE911
:103FA000000508480294FCF71BFE07B0F0BD0000B6
:103FB000E04402580008025800100258000002585D
:103FC00000040258000C02582DE9F0410C48002171
:103FD00002230A4A04245E02C0E90561C16110257A
:103FE0001827016280E8BC00FDF7B0FA002803D072
:103FF000BDE8F041FCF7EBBABDE8F081005000529B
:104000001C0000241848002110B5164C0C224FF457
:10401000E1330460C0E90131C160C0E9041281618B
:10402000C161016241628162FFF7F4FD08B1FCF7F2
:10403000CEFA0D480021FFF7DFFB08B1FCF7C7FA05
:1040400009480021FFF750FB08B1FCF7C0FA064809
:10405000FFF7DAFA002803D0BDE81040FCF7B7BA42
:1040600010BD00000010014068000024FEE7FEE7DC
:1040700010B5040300F0E8F800F08CF800232146A6
:104080002F22202000F04EFABDE8104000F082B848
:1040900008B500F01BF800F041F80B49A0F56F429D
:1040A000163A48800ED100F0CFF80023C3221946FB
:1040B000C02000F037FA30208DF80000012168465A
:1040C00000F0A6FA08BD000018000024022010B578
:1040D00000F03CF80446800706D400F0B5F8022052
:1040E00044F0020100F0F2F80023012219463820C2
:1040F00000F018FA01490120087010BD18000024D2
:1041000070B508231546EF2204460B2000F00AFA8A
:1041100029462046BDE8704000F0F2B90A4808B5CB
:104120004FF00003007808B1EF2200E06522002183
:10413000902000F0F7F90221684600F0E1F9BDF89F
:10414000000040BA08BD00001800002408B5002196
:1041500001288DF8001003D0022803D0032803D0D3
:10416000052002E0352000E0152009494FF000034A
:10417000097809B1C32200E04122002100F0D2F900
:104180000121684600F0BCF99DF8000008BD000060
:104190001800002410B50120FFF7D8FFC007FAD19E
:1041A00010BD00002DE9F05FC1F30B06DFF894802D
:1041B0000F0B8946C6F580548246A242154600D8A8
:1041C0001446404639034FF480528B46FFF798FF60
:1041D000002006E0321818F80210FF2903D1401C15
:1041E00080B2A042F6D3A04223D23846FFF740FF68
:1041F000002006E083191AF80020401C80B208F85D
:104200000320A042F6D34FF4805259464FEA0800EB
:1042100000F028F8A54212D0291B4FF000068DB2FD
:104220007F1C4FF480508542A244A14405D9044626
:10423000C7E7224649465046EAE72C46C1E7BDE8B3
:10424000F09F0000F800002405484FF000030078BC
:1042500008B1032200E001220021062000F062B92B
:10426000180000242DE9F04107460E46C8B2154655
:10427000C0F58074A24200D814464FF480782246DC
:104280003146384600F00EF8A54209D0291B8DB200
:1042900045452744264401D94446F0E72C46EEE73D
:1042A000BDE8F08170B516460C460546FFF7CCFF19
:1042B00000232146EF22022000F034F9314628463F
:1042C00000F0A6F9BDE87040FFF764BF13B5012800
:1042D00004D0022809D0032809D0012009494FF051
:1042E0000003097829B1C32204E03120F6E7112048
:1042F000F4E74122002100F015F9012101A800F0A6
:1043000087F91CBD18000024704700002DE9F04714
:1043100015000C464FF0406706460CD0B5F1806F93
:1043200009D0B5F1006F06D0BD4204D065A040F6BB
:10433000C21101F0F3F8606A28B1BD4203D03168C0
:10434000A06A401E0861A169206A002963D0C0B339
:104350003068A168C161E169E9B1D4E90B08D4F81A
:1043600024C0626BA38A40EA080042EA0C021043B0
:10437000226A40EA8340D4E9033C40EA0C0010433F
:10438000A269184323680843104331E0316860682C
:104390008861BDE8F087D4E90B03676A616BA28A84
:1043A0001843394323690843216A40EA8240A269DD
:1043B000184308432168104332680843284350617A
:1043C000E7E7FFE7E069626BB0F1000917D0D4E9D5
:1043D0000B08636AB4F814C01A43236840EA080063
:1043E0001043E26840EA8C40104340EA0900084369
:1043F000316818432843BD424861C7D1C9E7D4E9B1
:104400000B03676AB4F814C018433A431043226898
:1044100040EA8C402CE088B33068A168C161E16952
:10442000C1B1D4E90B08D4F824C0626BA38A40EA76
:10443000080042EA0C021043226A40EA8340D4E9B1
:10444000033C40EA0C001043A2691843084331685A
:104450001043CFE7D4E90B03676A616BA28A184364
:10446000394323690843216A40EA8240A26918431C
:10447000084331681043284348618AE7FFE7E16950
:1044800081B1D4E90B08636A626BB4F814C040EAE6
:1044900008001A431043E26840EA8C401043084386
:1044A0003168A7E7616A00298AD0D4E90B07626BFB
:1044B000A48A336838430A43104340EA84402843BF
:1044C000586166E72E2E2F447269766572732F53FA
:1044D000544D3332483778785F48414C5F447269B5
:1044E0007665722F5372632F73746D333268377829
:1044F000785F68616C5F717370692E630000000003
:10450000074A491E10B51268116141F2883201460E
:104510000348FDF767F9002800D0012010BD000016
:104520001C00002410B58EB094070593CDE900015E
:104530004FF0000009D002F00301012907D0022941
:1045400008D0D143890708D00AE0069008E04FF46C
:10455000807104E04FF4007101E04FF44071069166
:10456000910889070AD0C2F38101012908D00229E4
:1045700009D06FEA9201890708D00AE0079008E0A5
:104580004FF4806104E04FF4006101E04FF44061BA
:104590000791110989070AD0C2F30111012908D036
:1045A000022909D06FEA1211890708D00AE00390A6
:1045B00008E04FF4805104E04FF4005101E04FF463
:1045C00040510391910905D00121B1EB921F03D114
:1045D00009060DE009900CE00221B1EB921F01D118
:1045E000090605E06FEA9211890702D14FF0407188
:1045F00009910D9041F28832089069460B900C9019
:104600000248FCF7ABFE0EB010BD00001C000024F9
:10461000074A491E10B51268116141F288320146FD
:104620000348FDF73FF9002800D0012010BD00002D
:104630001C0000242DE9F041984616460F4604461A
:10464000069D08E0681C06D0FCF70AFDA0EB0800F8
:10465000A8420AD84DB120688068384000D00120B7
:10466000B042EFD10020BDE8F081042084F8410081
:10467000606C40F0010060640120F4E72DE9F04730
:104680008946016804464FF0000A491E3E2904D9B4
:1046900066A040F6C25100F041FF6068001FB0F50F
:1046A000FE7F04D961A040F6C35100F037FFA06837
:1046B000401E7F2804D95DA040F6C45100F02EFFB3
:1046C0002069401E7F2804D958A040F6C55100F04B
:1046D00025FFE068401E7F2804D954A040F6C6514B
:1046E00000F01CFF606950B1402808D0802806D037
:1046F000C02804D04DA040F6C75100F00FFFA069BC
:1047000030B1202804D049A040F6C85100F006FF7F
:10471000E069B0F5005F04D344A040F6C95100F051
:10472000FDFE514F3868C04380070AD04E4D283DEA
:10473000286820F080602860FCF792FC0646A846B6
:1047400007E00120BDE8F087FCF78AFC801B022807
:1047500065D8D8F800000001F6D4206839684FF415
:10476000FE0C4FF0FE4621F47C3141EA0030386007
:10477000217AA788A38949023B4D7F1E3A485B1ED8
:10478000227C1035001DA1F5007189B2521EC7F3BD
:10479000080739430CEA0343194306EA026211434E
:1047A00029600168626921F0C0011143016002685B
:1047B000A16922F020020A430260291D026822F04A
:1047C000100202600A684FF6F873E4699A4342EAFD
:1047D000C4020A600168B9F1000F41F010020260E2
:1047E00011D00168B9F1010F11D041F4001101603D
:1047F000D8F80000444640F08060C8F80000FCF79C
:104800002FFC05460DE0016841F40021EFE741F47B
:104810008011ECE7FCF724FC401B022801D903209F
:1048200090E720680001F5D550468BE72E2E2F44E7
:104830007269766572732F53544D333248377878E6
:104840005F48414C5F4472697665722F5372632FE3
:1048500073746D3332683778785F68616C5F726348
:10486000635F65782E630000284402582DE9F04705
:104870008946016804464FF0000A491E3E2904D9C2
:1048800068A040F62A6100F049FE6068001FB0F59C
:10489000FE7F04D963A040F62B6100F03FFEA068C4
:1048A000401E7F2804D95FA040F62C6100F036FE40
:1048B0002069401E7F2804D95AA040F62D6100F0DF
:1048C0002DFEE068401E7F2804D956A040F62E61D8
:1048D00000F024FE606968B1B0F5806F0AD0B0F5D1
:1048E000006F07D0B0F5406F04D04EA040F62F61A6
:1048F00000F014FEA06938B1B0F5007F04D04FF489
:10490000636148A000F00AFEE069B0F5005F04D3DF
:1049100044A040F6316100F001FE514F3868C043B9
:1049200080070AD04E4D283D286820F0805028602E
:10493000FCF796FB0646A84607E00120BDE8F08795
:10494000FCF78EFB801B022865D8D8F80000800099
:10495000F6D4208839684FF4FE0C4FF0FE4621F063
:104960007C7141EA00503860217AA788A389490206
:104970003B4D7F1E3A485B1E227C1835001DA1F579
:10498000007189B2521EC7F3080739430CEA03438A
:10499000194306EA0262114329600168626921F441
:1049A0004061114301600268A16922F400720A4368
:1049B0000260291D026822F4807202600A684FF6C4
:1049C000F873E4699A4342EAC4020A600168B9F1E3
:1049D000000F41F48072026011D00168B9F1010F3B
:1049E00011D041F080710160D8F80000444640F0D9
:1049F0008050C8F80000FCF733FB05460DE0016865
:104A000041F48001EFE741F40001ECE7FCF728FBFB
:104A1000401B022801D9032090E720688000F5D5CB
:104A200050468BE72E2E2F447269766572732F5392
:104A3000544D3332483778785F48414C5F4472694F
:104A40007665722F5372632F73746D3332683778C3
:104A5000785F68616C5F7263635F65782E630000E6
:104A6000284402587047FCF701BB000070B59CB0A9
:104A70004C216846FBF704FD202113A8FBF700FD3D
:104A80000220FCF719FC234800242349026842F461
:104A90004042026002680A6842F001020A60096846
:104AA00001F001011B9101688904FCD51B49012219
:104AB0000B6802205026C50323F003039B1C0B60E8
:104AC0000AAB0990CDE900250C2183E845000FAA27
:104AD0000D900E9082E8130068461294FEF7FEF9DE
:104AE00008B172B6FEE740201A9008230501CDE90F
:104AF000163013ABCDE918053F21032283E81600D9
:104B0000042113A8FDF7B2FE002801D072B6FEE71B
:104B10001CB070BD184802582C0400582844025894
:104B20002E48F0B52E4A016841F47001016010680A
:104B300000F00F00072804D2106820F00F00C01DFD
:104B4000106028490020274C10340B68264D43F094
:104B500001030B6020600B682B400B60136803F0AF
:104B60000F03072B04D9136823F00F03DB1D136019
:104B70001C4C1E4A18341E4B261D371D2060194C34
:104B80001C4D28343060261D3860371D23603B1DC6
:104B900035601C1D3A60251D2E1D1860331D2260D6
:104BA0002860326018600A680E4B134C22F4802291
:104BB00060330A60186020686FF30F00B0F1005F87
:104BC00003D20E490120C1F8080143F2D2000C497A
:104BD000024B4A03803B08601A60F0BD88ED00E09C
:104BE00000200052004402587FEDF6EA80020101E5
:104BF000000202020000FF010010005C0080005172
:104C00000040005230B5416EB9B101680D4B03F15F
:104C100008048A688968C2F34262490F5D5C615C7E
:104C20002D01B5FBF1F1A0F86A10995CA25C0901B5
:104C3000B1FBF2F1A0F8681030BD0121A0F86A10B4
:104C4000F8E70000C257000870B50446806AFF28E4
:104C500004D973A040F6CF4100F060FC94F828001E
:104C6000C00710D0E06A38B1B0F5003F04D06CA0A6
:104C700040F6D44100F052FC2068E26A416821F419
:104C800000311143416094F82800800710D5206B53
:104C900038B1B0F5803F04D061A040F6DB4100F0B0
:104CA0003DFC2068226B416821F480311143416052
:104CB00094F82800400710D5606B38B1B0F5802F0C
:104CC00004D057A040F6E24100F028FC2068626B57
:104CD000416821F480211143416094F828000007C5
:104CE00010D5A06B38B1B0F5004F04D04CA040F601
:104CF000E94100F013FC2068A26B416821F40041F7
:104D00001143416094F82800C00610D5E06B38B11B
:104D1000B0F5805F04D04FF44F6141A000F0FEFB7E
:104D20002068E26B816821F480511143816094F81E
:104D30002800800610D5206C38B1B0F5005F04D093
:104D400037A040F6F74100F0E9FB2068226C81684B
:104D500021F400511143816094F82800400649D5A0
:104D60003E492068884219D03D49884216D03D49C5
:104D7000884213D03C49884210D03C4988420DD02B
:104D80003B4988420AD03B49884207D03A49884289
:104D900004D023A040F6FE4100F0C0FB606C4FF44D
:104DA000801530B1A84204D01DA040F6FF4100F0AC
:104DB000B5FB2068626C416821F4801111434160A9
:104DC000606CA84216D1A06C68B1B0F5001F0AD083
:104DD000B0F5800F07D0B0F5C00F04D010A040F69A
:104DE000045100F09BFB2068A26C416821F4C001D3
:104DF0001143416094F82800000610D5E06C38B1EA
:104E0000B0F5002F04D006A040F60C5100F086FB50
:104E10002068E26C416821F400211143416070BDBB
:104E20002E2E2F447269766572732F53544D333290
:104E3000483778785F48414C5F4472697665722FD5
:104E40005372632F73746D3332683778785F68619B
:104E50006C5F756172742E630000000000100140E9
:104E60000044004000480040004C0040005000401A
:104E70000014014000780040007C0040F8B5002696
:104E80000446C0F88C60FCF7EBF8054620686FF02C
:104E90007E470068000708D500222B464FF400111A
:104EA0002046009700F0D0FA60B9206800684007FB
:104EB0000AD500222B464FF480012046009700F0CF
:104EC000C3FA08B10320F8BD2020C4F88400C4F858
:104ED0008800E666002084F88060F8BD10B5806B1D
:104EE0000021A0F85E10A0F85610FEF70FFD10BDCF
:104EF00001680C4B0A6822F490720A6001688A68A3
:104F00001A408A60C16E012904D101680A6822F042
:104F100010020A6000212022C0F88820C1660167C3
:104F200070470000FEFFFFEF2DE9F047FB49044604
:104F3000406886B04FF00006884204D3F8A040F6DF
:104F4000D13100F0EBFAA0684FF48055B0F1805FEA
:104F500007D030B1A84204D0F1A040F6D23100F021
:104F6000DDFAFE4F4FF400512068B842E06806D1E8
:104F700000281BD0884219D040F6D53113E0A84252
:104F80000AD048B1B0F5405F06D0884204D0E4A012
:104F900040F6D93100F0C2FA206A38B1B0F5006F9E
:104FA00004D040F6DA31DEA000F0B8FA206950B142
:104FB000B0F5806F07D0B0F5C06F04D0D8A040F630
:104FC000DD3100F0ABFA606930F00C0100D120B99E
:104FD000D3A040F6DE3100F0A1FAA06968B1B0F5C7
:104FE000807F0AD0B0F5007F07D0B0F5407F04D0B5
:104FF000CBA040F6DF3100F091FAE0694FF40045B4
:1050000030B1A84204D04FF43E61C5A000F086FA4A
:10501000606AD0B1012818D0022816D0032814D015
:10502000042812D0052810D006280ED007280CD04E
:1050300008280AD0092808D00A2806D00B2804D04E
:10504000B7A040F6E13100F069FA2168D4E90483A1
:10505000D4F81CC0A0680A6843EA0C0340EA0800C0
:10506000DFF8FC82184302EA080202430A60206863
:10507000E268416821F44051114341602268A1690E
:10508000BA4201D0206A01439368DFF8D882DFF882
:10509000D8C2B64803EA08030B4393602168636AE9
:1050A000CA6A22F00F021A43CA62226862450ED110
:1050B000006800F03800182873D047DCB8B308281F
:1050C00079D010286FD178E028287ED17BE0A849DC
:1050D0008A4209D1006800F00700062875D2DFE88F
:1050E00000F0546A6C6E7072A2498A4209D100685D
:1050F00000F00700062868D2DFE800F0475D5F6136
:1051000063659D498A4209D1006800F007000628BE
:105110005BD2DFE800F03A505254565897498A4221
:105120000BD1006800F0070006284ED200E010E026
:10513000DFE800F02B414345474991498A420AD1B3
:10514000006800F03800182839D0B7DD2028BBD11E
:105150003CE001203AE08B498A4209D1006800F026
:105160000700062831D2DFE800F01026282A2C2E6E
:1051700085498A420BD1006800F00700062824D236
:10518000DFE800F003191B1D1F2100201EE0BA42BA
:105190001BD17648001D006800F00700062814D2D5
:1051A00002E00CE007E010E0DFE800F0030507098B
:1051B0000B0D02200AE0042008E0082006E0102081
:1051C00004E0202002E0402000E080206F49DFF86A
:1051D000C081BA426F4A4FF000094FEA21134ED105
:1051E000102819D006DC022809D004280AD0082883
:1051F0007ED10CE020283ED0402879D13DE0FCF75C
:10520000ADFB11E06846FCF7BBFB01980CE003A87E
:10521000FCF758FC049807E010688006084604D59F
:105220001168C1F3C101C840B8B3616A676838F852
:10523000112007EB4703B0FBF2F18B4258D8B1EBDA
:10524000073F55D80023C8461946FBF795F8024694
:105250007808130E120243EA012110183A4600237F
:1052600041EB0801FBF788F84B4AA0F540719142E9
:105270003ED821684BE01846D7E72846D5E7E769CE
:105280004FF6EF7AAF4247D1082819D006DC60B15B
:1052900001280DD004282BD10DE039E0102814D0BE
:1052A00020283AD0402823D187E0FDF757FD14E0AD
:1052B000FDF766FD11E06846FCF762FB01980CE023
:1052C00003A8FCF7FFFB049807E01068800670D580
:1052D0001068C0F3C10021FA00F0C8B1636A6168C8
:1052E00038F81330B0FBF3F0400000EB510000E061
:1052F00075E0B0FBF1F080B2A0F1100151456ED81D
:105300004FF6F0732168C0F3420218401043C860A2
:105310000120A4F86A0042E051E04CE021BCBE004C
:105320002E2E2F447269766572732F53544D33328B
:10533000483778785F48414C5F4472697665722FD0
:105340005372632F73746D3332683778785F686196
:105350006C5F756172742E6300000000000C0058D1
:10536000F369FFCFFFF4FF110010014054440258CD
:105370000044004000480040004C00400050004005
:105380000014014000780040007C00400090D003F1
:10539000AA57000800440258FFFC0F0009E0A4F8D7
:1053A00068003046C4F87090C4F8749006B0BDE848
:1053B000F087084692E7184690E728468EE70828C7
:1053C00019D005DC60B101280DD0042833D10DE0DF
:1053D000102815D0202832D040282CD131E02AE0E6
:1053E000FDF7BCFC14E0FDF7CBFC11E06846FCF7D0
:1053F000C7FA01980CE003A8FCF764FB049807E0E7
:105400001068800619D51068C0F3C10021FA00F0B9
:1054100000283FF47DAF636A616838F81330B0FB51
:10542000F3F000EB5100B0FBF1F080B2A0F11001FD
:1054300051457FF61EAF01266AE70846EBE718469E
:10544000E9E72846E7E700002DE9F0479A461746C6
:105450000E460446089D4FF000094FF0200839E041
:10546000681C37D0FBF7FCFDA0EB0A00A84222D84D
:105470000DB32068016849072CD5C069C0430005F9
:1054800028D423684FF40061196221680B6823F463
:10549000D0730B6021688B6823F001038B60C4F824
:1054A0008480C4F88880C4F88C8000BF032084F80E
:1054B0008090BDE8F08721680B6823F4D0730B60FF
:1054C00021688B6823F001038B60C4F88480C4F8E2
:1054D0008880EBE72068C06936EA000004D000202D
:1054E000B842BDD00020E4E70120F9E70148FEF70B
:1054F0000FBA000068000024FEE7090700284FEA01
:10550000116104DB00F1E02080F80014704700F026
:105510000F0000F1E02080F8141D70477047000074
:105520000349CA695206FCD5C2B28A6270470000BC
:1055300000100140DFF89C81002086B08146D8F839
:1055400000100546890313D4BFF34F8FBFF36F8F4D
:1055500061490860BFF34F8FBFF36F8FD8F8001019
:1055600041F40031C8F80010BFF34F8FBFF36F8FC5
:10557000D8F80010C90325D4564970310860BFF32C
:105580004F8F081F43F6FF7A0068534B1033C0F368
:105590004E31C0F3C9020AEA4117104647EA807C3F
:1055A000C3F800C0401EF9D2491EF4D2BFF34F8F9A
:1055B000D8F8000040F48030C8F80000BFF34F8FE7
:1055C000BFF36F8FFBF75AFDFFF750FAFEF770FC41
:1055D000FEF718FDFEF7F8FCFEF75AFDDFF8FC8039
:1055E0004EF616770FE03EA0FAF73EFF6420FBF779
:1055F000E5FA41A0FAF738FF6420FBF7DFFA012152
:105600004046FBF7C1FCFEF789FDB842EBD13EA056
:10561000FAF72AFF3FA0FAF727FF4FF4005047465A
:10562000804604E0B9F1000F01D0012400E02CB164
:1056300026B941463846FBF77BFC48B1414638461F
:10564000FBF776FC012811D0BCB1012E10D014E07C
:105650000024012631A0FAF707FF3648182200215E
:10566000FEF7A0FD34A0FAF7FFFE06E00124ECE708
:1056700041463846FBF75CFC30B141463846FBF703
:1056800057FC012818D018E0002431A02646FAF76C
:10569000EBFE182268460021FEF732FD32A0FAF731
:1056A000E3FE384818224FF47A736946FEF79EFBF2
:1056B00018A0FAF7D9FE00E001246D1CADB20A2053
:1056C000FBF77CFA642DADD102213846FBF75CFC78
:1056D0000025A7E714ED00E050EF00E000080258B5
:1056E0005153504920436865636B204661696C657E
:1056F00064210D0A00000000506C65617365204351
:105700006865636B210D0A00515350492052656151
:10571000647900000D0A0D0A0000000053746172E4
:105720007420577269746520515350492E2E2E2EC5
:105730000D0A0000925700085153504920577269D2
:1057400074652046696E6973686564210D0A0000FE
:105750005374617274205265616420515350492E14
:105760002E2E2E200D0A00005468652044617461BD
:10577000205265616465642049733A2020200D0A37
:1057800000000000680000244FF04070E1EE100AB5
:10579000704753544D3332483734335649543620CA
:1057A0005153504920544553540001000200040055
:1057B000060008000A000C001000200040008000D5
:1057C00000010101010307010000080402040801AF
:1057D00001010000000001020304010203040607A6
:1057E0000809000004580008000000241C00000004
:1057F000D4020008205800081C0000243C210000AE
:10580000F00200080100000010000000000000008D
:105810000090D0030090D00300000000010016EFBC
:040000050800029954
:00000001FF
