:020000040800F2
:100000004012002459030008EB7700083F750008F0
:10001000E9770008091900086D8600080000000053
:10002000000000000000000000000000D97B000874
:10003000751D000800000000ED770008DB7B00085C
:1000400073030008730300087303000873030008B8
:1000500073030008730300087303000873030008A8
:100060007303000873030008730300080D190008E8
:100070007303000873030008730300087303000888
:100080007303000873030008730300087303000878
:100090007303000873030008730300087303000868
:1000A0007303000873030008730300087303000858
:1000B0007303000873030008730300087303000848
:1000C0007303000873030008730300087303000838
:1000D00073030008618600087303000873030008B7
:1000E0007303000873030008000000007303000896
:1000F0007303000873030008730300087303000808
:1001000073030008730300087303000873030008F7
:1001100073030008730300087303000873030008E7
:1001200073030008730300087303000873030008D7
:1001300073030008730300087303000873030008C7
:1001400000000000000000000000000000000000AF
:1001500073030008730300087303000873030008A7
:100160007303000873030008730300087303000897
:100170007303000873030008730300087303000887
:100180007303000873030008730300087303000877
:100190007303000873030008730300087303000867
:1001A0007303000873030008730300087303000857
:1001B0007303000873030008730300087303000847
:1001C0007303000873030008730300087303000837
:1001D0007303000873030008730300087303000827
:1001E0007303000873030008730300087303000817
:1001F0007303000873030008730300087303000807
:1002000073030008730300087303000873030008F6
:1002100073030008730300087303000873030008E6
:100220007303000873030008730300080000000054
:100230007303000873030008000000007303000844
:1002400073030008730300087303000873030008B6
:1002500073030008730300087303000873030008A6
:100260007303000873030008730300087303000896
:100270007303000873030008730300080000000004
:1002800073030008730300087303000800000000F4
:10029000000000007303000800F002F800F04CF8C2
:1002A0000AA090E8000C82448344AAF10107DA45D1
:1002B00001D100F041F8AFF2090EBAE80F0013F0D7
:1002C000010F18BFFB1A43F0010318476C860000AA
:1002D0008C860000103A24BF78C878C1FAD852073B
:1002E00024BF30C830C144BF04680C6070470000B0
:1002F0000023002400250026103A28BF78C1FBD82F
:10030000520728BF30C148BF0B607047662908F00C
:10031000A682642900F0EC80002070471FB508F029
:1003200099FA00F04DFC04000020002108F07CFA4E
:10033000E0601FBD10B510BD00F05EFD1146FFF777
:10034000EDFF08F0CFF900F07CFD03B4FFF7F2FFFA
:1003500003BC00F0B3FD000009488047094800478E
:10036000FEE7FEE7FEE7FEE7FEE7FEE7FEE7FEE765
:10037000FEE7FEE704480549054A064B70470000C2
:10038000957C0008990200084002002440120024D5
:10039000400A0024400A002453EA020C00F069805D
:1003A0002DE9F04B4FF00006002B1FBFB3FA83F589
:1003B00003FA05F424FA05F65E4012BF1643B2FABA
:1003C00082F502FA05F4C5F120051EBF22FA05FCEC
:1003D00044EA0C04203556EA044C4FEA144418BF92
:1003E000641C4FF000084FF00009904271EB030CC1
:1003F00039D3002919BFB1FA81F701FA07F6B0FA2B
:1004000080F700FA07F6C7F120071EBF20FA07FCA5
:1004100046EA0C062037B6FBF4FCA7EB0507103FB5
:1004200007F01F0BCBF120060CFA0BFB2CFA06F69B
:1004300044BFB3460026202FA4BF5E464FF0000BFA
:100440005BEA060C08BF4FF0010B19EB0B09ABFB85
:10045000027C48EB0608C01B06FB02CC0BFB03CC5E
:1004600071EB0C01C1E70B46024641464846BDE828
:10047000F08B13B54FF000004FF00001AFF3008098
:10048000BDE81C40704700000FB4044910B503AA32
:10049000029800F083FB10BC5DF814FB1C000024E4
:1004A00070B5044685690068C10601D5302600E0B4
:1004B0002026C00707D070BDD4E9012130469047FF
:1004C000206A401C20626D1EF6D570BD70B50446D2
:1004D00085690078C00707D170BDD4E901212020CB
:1004E0009047206A401C20626D1EF6D570BD00004A
:1004F0002DE9F0410646002410687529314616A5FD
:1005000010D0AFF30080002802DA404213A507E0C4
:1005100031688A0701D512A502E0490704D511A563
:10052000012401E0AFF3008000210A2206F1240734
:1005300009E0B0FBF2FCB0FBF2F302FB1C00303030
:1005400078541846491C0028F3D123462A463046E1
:10055000BDE8F04100F0B9B8000000002D00000037
:100560002B000000200000002DE9F0474FF0000AAA
:1005700089460446C0F820A02046E1688847002844
:1005800076D0252806D0D4E901219047206A401C66
:100590002062F1E7E168204600258847C4F81CA0E6
:1005A00006460027C4F818A02A2E09D0304608F0C5
:1005B00087F838B304EB8708303EC8F8186019E0B4
:1005C00059F8041B204604EB87029161E1688847D3
:1005D000012F064618D1E069002820DA25F0200511
:1005E0001DE0D8F8180000EB800006EB4000303822
:1005F000C8F818002046E1688847064608F060F809
:100600000028EED1012F0AD02E2E08D12046E16815
:1006100088477F1C0646022F45F02005C4DBA069F1
:10062000002803DA404245F00105A061E80701D047
:1006300025F01005B6B1A6F14100192802D82036E0
:1006400045F400654A463146204625604D46FFF791
:100650005DFE58B1012806D0ED1D25F0070000F120
:10066000080989E704E005F1040985E730468AE7CF
:10067000206ABDE8F0874FF0000200B513469446AB
:100680009646203922BFA0E80C50A0E80C50B1F1EA
:100690002001BFF4F7AF090728BFA0E80C5048BFFE
:1006A0000CC05DF804EB890028BF40F8042B08BF9C
:1006B000704748BF20F8022B11F0804F18BF00F898
:1006C000012B70477047704770472DE9F0470D4682
:1006D00099469246044600F124080168880604D52C
:1006E000E06921F01001216000E00120A84201DD55
:1006F000471B00E00027A1697A1902EB0900081ADC
:10070000A0612078C00602D42046FFF7C9FE00266B
:1007100008E0D4E901211AF806009047206A401C3D
:10072000761C20624E45F4DB2078C0060AD52046B0
:10073000FFF7B6FE06E0D4E9012130209047206A99
:10074000401C2062381EA7F10107F4DC07E0D4E961
:10075000012118F805009047206A401C2062281EDD
:10076000A5F10105F3DC2046FFF7B0FE2078000676
:1007700002D50220BDE8F0870120FBE770472DE994
:10078000FF4F0C461E464FF0FF378BB0D2E90001F9
:10079000DDF860800A908A46C1F30A5505B93D46E6
:1007A000002108464FF00000BAF1000F00F44000AD
:1007B00005DA00EB80004FF4400101EA50004FEAF7
:1007C0009059B9F1010F00DDB9460A9850EA4A0084
:1007D0000ED044F61050A5F2FF3545432F14B8F162
:1007E000000F1ED07542291E1EDDC9F100021CE05B
:1007F000B8F1010F4FF0000001D0302103E0F243C7
:1008000005E02154401CB042FBDB304600220021B1
:1008100021540B99C1F80880C1E900200FB0BDE850
:10082000F08FBD1B6D1CDEE74A4600DA694206A860
:1008300000F068FA06AB93E8070003AB83E8070013
:1008400050460A9900F041FB8DE80700A0F50050E2
:100850001F3800900398002D0ADD42F21F014A461E
:100860000844002303A90390684600F0AAFD09E0AC
:10087000A0F500504A461F38002303A9039068469C
:1008800000F0B4FD8DE807000004000C03D04FF029
:10089000FF30410800E01046B8F1000F03D00022FD
:1008A000009215461EE0751E05D400F08DF9303219
:1008B00062556D1EF9D5B3460122084302D00022CD
:1008C0007F1C04E02078302801D100227F1E002AFE
:1008D000099784D01DE0112D07DA00F075F9303248
:1008E00062556D1C50EA0102F5D1084302D0009810
:1008F000C8B10EE00021681E05E0235C625C635411
:100900002254401E491C8142F7DBAB46A81B401E07
:100910000990002004F80B000B98099AC0F8088091
:10092000C0E9002B7AE711264FF0000857E72DE9C0
:10093000F04F88460446D21D22F0070191B0D1E95C
:100940000001CDE90A0107F092FE02460B98C00FA4
:1009500001D02D2007E02068810701D52B2002E07F
:10096000202101EAC000032A099001D0072A05DBF3
:1009700003464146204600F085F90BE120788006C9
:1009800001D5E06900E00620B8F1650F814606D088
:10099000B8F1660F18D0B8F1670F70D131E00020C0
:1009A000B9F1110F009001DB112301E009F10103FE
:1009B0000AAA01A90CA8FFF7E2FEDDE90C700026E7
:1009C00009F10105834647E001204B4600904FF0B6
:1009D00000470AAA01A90CA8FFF7D1FEDDE90DB076
:1009E0000C995D46002610B909F101000D18B9EB0C
:1009F000050003D4C0F1FF3609F10105A5EB09009C
:100A00002BE0B9F1010F01DA4FF001090020B9F133
:100A1000110F0090484601DD112300E003460AAAA9
:100A200001A90CA8FFF7ABFEDDE90C704D460026CE
:100A30008346207800070AD4AB4500DA5D4601A85A
:100A4000012D04DD411911F8011C302907D04F4553
:100A500002DA17F1040F04DA012082460FE06D1E5E
:100A6000EEE7002F02DCED1B3E4403E0781CA842B9
:100A700000DD7D1CB81B00F1010A4FF00047207813
:100A8000000703D4AA4501DB4FF0FF3A0021B7F17C
:100A9000004F0DF143088DF8431024D002202B2382
:100AA000002F01DA7F422D230A21021EA0F101004E
:100AB00000DC5FB197FBF1FC97FBF1F201FB1C7CC2
:100AC00017460CF1300C08F801CDEEE7A8F1010053
:100AD00003702188090501D5452100E06521A0F1B9
:100AE000010800F8011C09980FA9A1EB0807FF1DD8
:100AF00000B10120411901EBEA70A1693844081ADC
:100B0000401EA0612078C00602D42046FFF7C8FC32
:100B1000099828B1D4E901219047206A401C20623D
:100B20002078C00622D52046FFF7BAFC1EE0002E32
:100B300004DBB34502DD01A8805D00E03020D4E98C
:100B400001219047206A401C2062761CAAF1010016
:100B50005FEA000A0AD100F033F8C0680168405C1F
:100B6000D4E901219047206A401C2062281EA5F18B
:100B70000105DCDC07E0D4E9012118F8010B9047FE
:100B8000206A401C2062381EA7F10107F3DC2046D2
:100B9000FFF79CFC032011B041E60000074B70B545
:100BA0000D467B4400F05BF80446284600F01CF933
:100BB00010B14FF0FF3070BD204670BD2B7B0000A0
:100BC000004870470002002430B5B0F10A024FEA35
:100BD000900E71F100034EEA817EB0EB0E0061EBE6
:100BE00091014FEA101E4EEA017E10EB0E0041EB20
:100BF00011114FEA102E4EEA016E10EB0E0041EB80
:100C000011214FEA104E4EEA014E10EB0E0041EB5F
:100C10001141401841F100014FEAD00040EA417013
:100C20004FEAD10110EB80054FEA810444EA907449
:100C300044EB01046D1944EB0404521BA3414FF033
:100C4000000348BF0A3200D530BD401C41F100010D
:100C500030BD000001694A1C02610878704700B588
:100C60008FB0CDE901310021059105497944CDE9E5
:100C7000031011466846FFF777FC0FB000BD000077
:100C8000E5FFFFFF2DE9F0411F46044603260168FA
:100C9000072A01F4006004DB08B116A505E016A5DB
:100CA00003E008B115A500E015A521F010002060B3
:100CB000A069C01EA0610FB1401EA0612046FFF7D1
:100CC000EFFB4FB1D4E9012138469047206A401C20
:100CD0002062C01C206206E0206AFAE7D4E9012104
:100CE00015F8010B9047761EF8D22046FFF7EEFB71
:100CF000BDE8F0814E414E006E616E00494E4600E7
:100D0000696E66002DE9F047814616468AB035487F
:100D100078440DC88DE80D0032487844801C03AC3F
:100D20000DC884E80D0041F69B300844372190FB44
:100D3000F1F290FBF1F5A5F1800501FB12041B3CDB
:100D400002D56442012000E00020DFF898A0804630
:100D50000027FA44AAF1BE0A0EE0E0070AD03246A4
:100D6000684607EB470101230AEB810100F03EFBD7
:100D70008DE8070064107F1C002CEED1194F7F44D2
:100D8000AE3F19E0E80715D007EB04100DF1180A83
:100D900090E80E008AE80E00C068F04201D1981970
:100DA00008903246012306A903A800F01FFB03ABFD
:100DB00083E807006D10641C002DE3D14FF00103A0
:100DC00032466946B8F1000F03A802D000F0F9FAE4
:100DD00001E000F00BFBC9E90001C9F808200AB0E6
:100DE000BDE8F0870C7C0000007B00F080007047BD
:100DF00000487047E00100247546FFF7F9FFAE4652
:100E000005006946534620F00700854618B020B516
:100E1000FFF7B0FABDE820404FF000064FF00007A2
:100E20004FF000084FF0000B21F00701AC46ACE892
:100E3000C009ACE8C009ACE8C009ACE8C0098D46FF
:100E4000704710B50446AFF300802046BDE810405F
:100E5000FFF77BBA4FF0013C50F8042B51F8043BEC
:100E60009A4215D1A2EB0C03934313EACC130BD196
:100E700050F8042B51F8043B9A4209D1A2EB0C0321
:100E8000934313EACC13E7D04FF00000704700BF44
:100E9000D01A01BAB1FA81F101F0180122FA01F079
:100EA000CB40C1F12001DBB2C0B2C01A2CFA01F371
:100EB000D11A914311EAC311E6D1704701491820B4
:100EC000ABBEFEE72600020070475FEA400C08BF99
:100ED00091F0000F4FEA8C234FEAC12243EA5151AF
:100EE0004FEA1C5018BF00F5F0404FEA300018BF21
:100EF00041F000415FEA6C5C00F02980BCF1FF3FEB
:100F000008BF40F080407047130C06BF12044FF03A
:100F1000100C4FF0000C130E04BF12020CF1080C61
:100F2000130F04BF12010CF1040C930F04BF9200C5
:100F30000CF1020CD30F04BF52000CF1010C11464E
:100F40004FF00002A0F11F00A0EB0C00704711F061
:100F5000004F08BF704731F000413FF4D5AF0B0C94
:100F600006BF09044FF0100C4FF0000C0B0E04BF2D
:100F700009020CF1080C0B0F04BF09010CF1040C61
:100F80008B0F04BF89000CF1020CCB0F04BF49008A
:100F90000CF1010CCCF12003A0EB0C0022FA03F3BE
:100FA00002FA0CF241EA030100F10100704720F05F
:100FB0007F4C80EA030023F07F47ACEB070303F587
:100FC0007C5300F0004003F1FF032DE980494FEA14
:100FD000154B09B44FEA144325EA0B4E24EA0348A3
:100FE0000FF2042606EB132749083E785FEA320227
:100FF00003FB0667C7F5000707FB06F64FEA543701
:101000004FEAD64606F1020607FB066CCCF1005CFF
:101010004FEA1C472CEA074C07FB06F40CFB06F5CD
:1010200004EB15464FEA961634BF00204FF00040FF
:101030004FEAD13706FB07FC4FEA1C4C0CFB0BF7C1
:10104000D21B03FB0CF761EB07010CFB0EF7B0EBB7
:10105000074072EB17420CFB08F734BFA2EB0742C4
:10106000B2EB074261EB17414FEA0C444FEA91079C
:1010700006FB07FC4FEA1C4C0CFB0BF7B0EBC74020
:1010800072EB573203FB0CF734BFA2EBC742B2EB53
:10109000C74261EB57310CFB0EF7B0EBC70072EBA8
:1010A00057720CFB08F734BFA2EBC702B2EBC702C2
:1010B00061EB5771039F4FEA816141EA921104EBA2
:1010C000CC044FEAD1374FEA826206FB07FC42EAC2
:1010D00090124FEA80604FEA1C4C0CFB0BF7D21BBE
:1010E00003FB0CF761EB07010CFB0EF7B0EB0740BD
:1010F00072EB17420CFB08F734BFA2EB0742B2EBCE
:10110000074261EB17414FEA8C554FEA910704EB18
:101110009C2406FB07FC4FEA1C4C0CFB0BF7B0EBC6
:10112000C74072EB573203FB0CF734BFA2EBC74248
:10113000B2EBC74261EB57310CFB0EF7B0EBC700C7
:1011400072EB57720CFB08F734BFA2EBC702B2EB8D
:10115000C70261EB577115EB4C254FEA816141EAFB
:1011600092114FEA82624FEAD13742EA901206FBAF
:1011700007FC44F100044FEA80604FEA1C4C0CFB72
:101180000BF7D21B03FB0CF761EB07010CFB0EF70F
:10119000B0EB074072EB17420CFB08F734BFA2EB31
:1011A0000742B2EB074261EB174115EB1C154FEA02
:1011B000813141EA92414FEA823242EA90424FEA5B
:1011C00080304FEA0C7644F1000448EA03434EEACB
:1011D0000B484FF0000EB2EB080C71EB030724BF75
:1011E000624639464EEB0E0E4FF0000B001852418E
:1011F00049414BEB0B0BB2EB080C71EB03077BF196
:10120000000B24BF624639464EEB0E0E4FF0000B2A
:101210000018524149414BEB0B0BB2EB080C71EB40
:1012200003077BF1000B24BF624639464EEB0E0EDE
:1012300051EA020718BF46F0010616EB0E7655F18B
:10124000000254F1000103D5BDE88901BDE8008822
:10125000BDE88901BDE80048B619524141EB0101E2
:10126000A3F10103704780807F7E7D7C7B7A797853
:10127000777676757473727171706F6E6E6D6C6C5B
:101280006B6A6A69686867666665646463636261FD
:101290006160605F5F5E5E5D5D5C5C5B5B5A5A597E
:1012A00059585857575656555555545453535252EA
:1012B0005251515050504F4F4F4E4E4D4D4D4C4C42
:1012C0004C4B4B4B4A4A4A4949494848484747478B
:1012D00047464646454545444444444343434342C8
:1012E000424242414141002B9C4630D477002BD0F2
:1012F0001CB54FEA370703B44FF010004FF0100150
:10130000BAF1000F06D0BCF1000FDCBF40F00800BE
:1013100040F008014FF000000FBCBDE810400BF199
:10132000010BBBF1010F08BF5FEA170722BF12F1E3
:10133000010211F101014FF0004143F1000300F0FF
:10134000004043EA00007047F9D35708D0E746EA67
:10135000064613F1400F4FEA16461FDD13F1200F2A
:10136000DFBF16430A46002120335B42BED0C3F1E3
:10137000200746EA064602FA07F74FEA164646EA0B
:101380000706C3F1200722FA03F201FA07F721FA50
:1013900003F14FF0000342EA0702A7E746EA02061C
:1013A00046EA06464FEA164646EA0106BCBF46EA4A
:1013B0000646360C4FF000034FF000024FF00001DC
:1013C00094E72DE9804C9A46934670B491E8380032
:1013D00007C831EA400C48BF34EA430C03D5FFF795
:1013E000E6FDFFF780FFF0BCBDE8008C2DE9804CE6
:1013F0009A46934670B491E8380007C810F0804FC1
:1014000008BF13F0804F03D100F005F8FFF76BFF22
:10141000F0BCBDE8008C20F07F4780EA030023F099
:101420007F4C07EB0C03A3F57C5300F00040A3F1C5
:10143000FE0392F0000F00F0B38095F0000F00F073
:1014400077802DE901494FEA11404FEA144621EA1D
:10145000004800FB06FC24EA064708FB06F607FBEB
:1014600008F800FB07F718EB06484CEB164C4FEA60
:10147000124B18EB07484FEA15464CEB174022EA8F
:101480000B4E0BFB06FC25EA06470EFB06F607FB98
:101490000EFE0BFB07F71EEB064E4CEB164C4FF007
:1014A00000061EEB074E4CEB174B18EB0B0840F1F8
:1014B000000018EB0E0B58EB000840F100008F1AEB
:1014C0004FF000013CBFC943661B14BFB5EB040CD1
:1014D00000213CBFC943F61B4FEA17444EEA8E0E6B
:1014E00027EA04454FEA1C4704FB07622CEA074C35
:1014F00005FB07F70CFB05F604FB0CFC16EB074697
:1015000042EB174216EB0C4642EB1C421BEB060665
:1015100058EB0202414146EA9E0601D5BDE8018929
:10152000B619524141EB0101A3F10103BDE8018964
:101530004FEA14454FEA114724EA054621EA074CD1
:1015400005FB07F406FB07F70CFB06F105FB0CFC9B
:1015500011EB074144EB17444FEA124711EB0C41E2
:1015600044EB1C4422EA074C05FB07F206FB07F795
:101570000CFB06F605FB0CFC16EB074642EB17428C
:1015800016EB0C4642EB1C456A1854F1000148BFAB
:101590007047B619524141EB0101A3F101037047B5
:1015A00095F0000F37D04FEA11424FEA144721EA75
:1015B000024624EA074C02FB07F106FB07F70CFB87
:1015C00006F402FB0CFC14EB074441EB17414FEA15
:1015D000154714EB0C4441EB1C4125EA074C02FB78
:1015E00007F506FB07F70CFB06F602FB0CFC16EBF7
:1015F000074645EB174516EB0C4645EB1C42121906
:1016000051F1000148BF7047B619524141EB010149
:10161000A3F1010370474FEA14454FEA114724EA4A
:10162000054621EA074C05FB07F106FB07F70CFB13
:1016300006F24FF0000605FB0CFC12EB074241EBF3
:10164000174112EB0C4251EB1C4148BF70479218F6
:1016500041EB0101A3F101037047000070B53A4965
:1016600005460068884202D0384A904202D1D1F83B
:10167000080302E03648D0F8080310F4403F11D0C8
:1016800004F0F2FE04466868B0F5803F06D0B0F57D
:10169000003F03D0B0F5403F26D101E0000C17E039
:1016A000A40821E04FF4002003F020FD0446686800
:1016B0008103890B18D181140C2915D2DFE801F0C0
:1016C000140606060606060B0D0F1113800C4000CB
:1016D000B4FBF0F408E0240906E0640904E0A4097E
:1016E00002E0E40900E0240A03F082F941F2030178
:1016F000884208D8174884422868816813D821F4A2
:101700008071816070BD14496008884204D82868DF
:10171000816821F44071F4E71049884206D82868AE
:10172000816821F4407141F48071EAE70C498842F4
:101730002868816804D821F4407141F40071E0E721
:1017400041F44071DDE7000000200240002102402A
:1017500000600258002D3101105E5F0020BCBE0009
:1017600040787D0110B5846B616D11F0500F06D08B
:10177000616DC90625D5204601F05EF810BD606D8B
:1017800040F40070606520680168090707D505F01E
:10179000F7FE90B12068C068800403D50DE0C068F2
:1017A00080070AD1606D20F480706065606DC004B0
:1017B00003D4606D40F001006065204601F010F830
:1017C00010BDE16CC96CBDE81040084710B5806BD6
:1017D000416D41F040014165816D41F00401816539
:1017E00001F02AF810BD10B5806B01F00FF810BDA4
:1017F00070B50446006881688268C1F3400112F048
:10180000010F28D039BB816801F00D01012914D1E5
:101810008168124A1140891C816021680320086098
:1018200003F0ECF8054612E003F0E8F8401B02284C
:101830000DD920688068C00709D0606D40F01000A5
:101840006065A06D40F00100A065012070BD2068BA
:101850008068C007E8D1002070BD0000C0FFFF7F96
:1018600070B504460068816811F0010F40D18168AD
:10187000204A11422DD18168D5432940491C8160FD
:1018800003F0BCF81C49064620681C4B884201D076
:10189000984201D11A4A00E01A4A9268984202F02E
:1018A0001F0200D0014681421DD0E2B120E08168D4
:1018B00011F0010F03D181682940491C816003F0B8
:1018C0009DF8801B02280ED920680068C043C0071D
:1018D00009D0606D40F010006065A06D40F001001F
:1018E000A065012070BD20680168C943C907DED129
:1018F000002070BD3F000080002002400021024017
:101900000023024000630258FEE70000014801F096
:1019100047BE000084000024294A016891423AD061
:10192000274A1832914236D0254A3032914232D07D
:10193000234A483291422ED0214A603291422AD025
:101940001F4A7832914226D01D4A9032914222D0CD
:101950001B4AA83291421ED01A4A91421BD0194A02
:101960001832914217D0174A3032914213D0154A9B
:10197000483291420FD0134A603291420BD0114A43
:101980007832914207D00F4A9032914203D00D4AEB
:10199000A832914211D1CAB21823103AB2FBF3F225
:1019A0006FF30901032A02F00703074AD25CC265FC
:1019B00000D9091D81650846704721F0FF01F9E74C
:1019C00010000240100402406288000830B5224A2C
:1019D000012301689142CAB21BD01F4C1434A142AA
:1019E00017D01D4C2834A14213D01B4C3C34A142CB
:1019F0000FD0194C5034A1420BD0174C6434A14283
:101A000007D0154C7834A14203D0134C8C34A1423A
:101A10000CD11421114C083AB2FBF1F10F4A80327B
:101A200001F01F0504EB8101AB4010E00C4D1824C0
:101A3000103A0D44B2FBF4F1A82D00D80831094A40
:101A400001F01F0402EB8101064AA340803260309E
:101A500080E80E0030BD00000854025800580258BB
:101A6000F0FBFDBF0008024010B50279531E072BA2
:101A70002DD8174C0168A1421BD0154C1434A1423B
:101A800017D0134C2834A14213D0114C3C34A1423E
:101A90000FD00F4C5034A1420BD00D4C6434A142F6
:101AA00007D00B4C7834A14203D0094C8C34A142AE
:101AB00003D10849074C443102E00749064C443140
:101AC00004EB8202C0E91B2101219940416710BD4E
:101AD00008540258FC580258FC08024010B58369AB
:101AE0004FF0C074826A0146002053B1B3F5005F25
:101AF00015D072B1012A0CD0022A0AD0032A09D1CA
:101B000004E01AB1012A06D0022A03D1C96AC90128
:101B100000D5012010BDC96AA142FAD010BD002A2B
:101B2000F7D0012AF2D0022AF3D0032AF3D010BD55
:101B30002DE9F04F804E804FDFF8FC911836DFF82A
:101B4000F8A148370468856D0AF1300ADFF8ECB176
:101B50004C45DFF8ECC1DFF8ECE16DD0B4426BD05E
:101B6000544569D0BC4267D0DFF8D081A8F118088D
:101B7000444561D05C455FD064455DD074455BD021
:101B8000DFF8C481444557D0DFF8BC8108F118085C
:101B9000444551D0DFF8B08108F1300844454BD0BE
:101BA000DFF8A48108F14808444545D0DFF8988162
:101BB00008F1600844453FD0DFF88C8108F17808CF
:101BC000444539D0DFF8808108F19008444533D08E
:101BD000DFF8748108F1A80844452DD0DFF86C8146
:101BE000444529D0DFF8648108F11408444523D026
:101BF000DFF8588108F1280844451DD0DFF84C81F2
:101C000008F13C08444517D0DFF8408108F150083E
:101C1000444511D0DFF8348108F1640844450BD005
:101C2000DFF8288108F17808444505D0DFF81C81E9
:101C300008F18C08444509D1D0E91948C4F804805A
:101C4000C46E1CB1D0E91C48C4F8048004684C453B
:101C50002ED0B4422CD054452AD0BC4228D0374E86
:101C6000183EB44224D05C4522D0644520D074454F
:101C70001ED0354EB4421BD0334E1836B44217D066
:101C8000314E3036B44213D02F4E4836B4420FD0C6
:101C90002D4E6036B4420BD02B4E7836B44207D06E
:101CA000294E9036B44203D0274EA836B44215D1FF
:101CB00090F85C603F2406F01F06B440AC600468F6
:101CC000256825F4802525602EE09A600068C160B3
:101CD000BDE8F08F99600068C260F9E71B4EB4421E
:101CE0001BD01A4E1436B44217D0184E2836B442C0
:101CF00013D0164E3C36B4420FD0144E5036B44278
:101D00000BD0124E6436B44207D0104E7836B4422F
:101D100003D00E4E8C36B442DAD190F85C600124C8
:101D200006F01F06B4406C60046863608368402B53
:101D30000368CFD1C9E700001000024088000240CC
:101D4000A0000240B80002401004024008540258AB
:101D50000648002140F2FF7210B500F00FF8BDE810
:101D6000104003492022014801F076B820000024E9
:101D7000A0010024704772B6FEE70000F8B5002706
:101D80000E462F490446009715460068884209D040
:101D90002C49884206D02C49884203D08E212BA0A2
:101DA00006F095FCA5F5E060FF3806D03648854280
:101DB00003D08F2125A006F08AFC94F8500001285A
:101DC0000BD0012084F850002046FFF711FD0100E0
:101DD000606D04D040F010002DE00220F8BD20F42A
:101DE000885040F002006065206806F4803205F0FB
:101DF0008043264D1A4383682B401A4342F0004229
:101E00008260234A20680EE0009B5B1C0093934293
:101E100009D3606D84F8507020F0020040F010008B
:101E200060650120F8BD8368DB0FEDD1606D20F0A7
:101E3000020040F001006065084684F85070F8BD6B
:101E40000020024000210240006002582E2E2F4444
:101E50007269766572732F53544D333248377878F0
:101E60005F48414C5F4472697665722F5372632FED
:101E700073746D3332683778785F68616C5F616462
:101E8000635F65782E6300000000FF47C0FFFE3FE0
:101E900000F8C3252DE9F047684E0D4601689AB059
:101EA00004464FF00009B14204D065A040F61F116E
:101EB00006F00DFC286800283ED0012813D0022827
:101EC00011D003280FD005280DD006280BD00728E5
:101ED00009D0092807D04FF4126159A006F0F7FB8A
:101EE0002868002828D0686850B1B0F5004F07D0A6
:101EF000B0F5404F04D052A040F6231106F0E7FBA6
:101F0000A868C8B1B0F5807F16D0B0F5007F13D0B7
:101F1000B0F5407F10D0B0F5806F0DD0B0F5A06F58
:101F20000AD0B0F5E06F07D0B0F5006F04D044A040
:101F300040F6241106F0CBFB94F85000012814D091
:101F40000027B046012084F85000159716972168A5
:101F500041450ED1494E0096304605F00DFB8246B4
:101F6000206805F009FB60B10EE002201AB0BDE860
:101F7000F087606D84F8507040F0200060650120AB
:101F8000F4E7BAF1000F09D0616D4FF0010941F09B
:101F900020006065484684F85070E7E720684146B5
:101FA000884201D0B04201D1354800E0354840F6C2
:101FB0001F72D5F800C0344BBCF1000F23D0D0F80D
:101FC00008C0D5F804802CF4404C4CEA080CC0F84A
:101FD00008C0D4F800C08C4501D0B44507D1896849
:101FE000B36801F0010103F00103194302E09968AD
:101FF00001F001010029CDD12968AD68836829432A
:102000009343194317E0856825F4404585602568AA
:102010008D4201D0B54207D18968B36801F0010152
:1020200003F00103194302E0996801F0010100295E
:10203000B0D1816891438160ACE70000002002408C
:102040002E2E2F447269766572732F53544D33329E
:10205000483778785F48414C5F4472697665722FE3
:102060005372632F73746D3332683778785F6861A9
:102070006C5F6164635F65782E630000002102403D
:102080000023024000630258006002582DE9F84F17
:1020900005460C460020FF49009082462868FE4E07
:1020A000DFF8F893884208D0B04206D0484504D003
:1020B000FBA040F6143106F00AFB6068062831D018
:1020C0000C282FD012282DD018282BD0B0F5807FC7
:1020D00028D0B0F5837F25D0B0F5867F22D0B0F52B
:1020E000897F1FD0B0F58C7F1CD0B0F5007F19D050
:1020F000A0F50071063915D0B0F5037F12D0A0F518
:10210000007112390ED0B0F5067F0BD0B0F5407FCC
:1021100008D0A0F54071063904D0E1A040F6153191
:1021200006F0D5FAA06890B1012810D002280ED090
:1021300003280CD004280AD0052808D0062806D089
:10214000072804D0D6A040F6163106F0C0FAE068A1
:10215000DFF884B3A0F5E061FF3906D0584504D01C
:10216000CFA040F6173106F0B2FA206904280BD050
:1021700050B1012808D0022806D0032804D0C8A0F6
:1021800040F6183106F0A3FA95F838004FF6FF78BC
:10219000012815D0286805F0D3F94108626928FAAA
:1021A00001F0904204D240F62831BDA006F08FFA2B
:1021B0002069042819D095F83800012815D10FE0BE
:1021C000E86B6169401CB1FBF0F7286805F0B8F9CD
:1021D000410828FA01F08742EAD940F61C31E4E7C9
:1021E000AFA040F62E3106F072FABB48E168BC4F52
:1021F000DFF8F0B28142B9494FEA47084AD0206877
:1022000001287DD0B842FCD04045FAD05845F8D0DE
:10221000A0F18652103AF4D0B34A9042F1D0A0F126
:10222000C952403AEDD0B14A9042EAD0B04A904209
:10223000E7D0B04A9042E4D0AF4A904260D0AF4A73
:1022400090425DD0AE4A90425AD0AE4A904257D0AA
:10225000AD4A904254D0AD4A904251D088424FD0BE
:10226000AB4988424CD0AB49884249D0AA49884200
:102270007ED0AA4988427BD0A949884278D0A94A11
:10228000904275D0884273D0A749884270D040F6FA
:1022900033316AE07F482A68824220D12068B84200
:1022A0001DD040451BD0584519D0A0F18652103A98
:1022B00015D08D4A904212D08F4A90420FD08F4A4B
:1022C00090420CD08E4A904209D0884207D0914962
:1022D000884204D072A040F6393106F0F8F9286837
:1022E000B04220D12068B8421DD040451BD058458F
:1022F00019D0A0F18651103915D07B49884200E0F1
:1023000036E010D07C4988420DD07C4988420AD002
:102310007B49884207D07F49884204D060A040F6BC
:102320003D3106F0D4F92968494521D12068B842E9
:102330001ED040451CD058451AD0A0F18651103906
:1023400016D06949884213D06B49884210D06B4936
:1023500088420DD06B4988420AD06B49884207D029
:102360006A49884204D040F643314DA006F0AFF9E7
:1023700095F85000012808D04FF0010885F85080EA
:10238000286805F0F5F818B1C5E10220BDE8F88F1E
:1023900029682068CA69030326D090FAA0F0B0FA31
:1023A00080F000BF00F01F0308FA03F00243CA6187
:1023B000D4E900210C2728681F23C2F3846207EAAE
:1023C000911701F01F0138448B408A40016B9943FB
:1023D00011430163286805F0CBF80746286805F02B
:1023E000C3F8384303D0E1E0C0F38460DAE728683B
:1023F000A268216805F0CCF84C490968B8EB117F58
:1024000006D129686069C968C1F38201490008E002
:102410002868C168C906C1686069F5D501F0100176
:10242000490888402169042932D02B68226803EBCF
:10243000810102F0F8420B6E024303F000401043AA
:102440000866607E30B1012804D015A040F68F31B7
:1024500006F03DF9617E2A682069012970D00021CB
:1024600002EB8000026E22F000420A430266207EE8
:1024700030B1012804D00AA040F6933106F027F9C4
:10248000217E2868226901295DD0002103694FE07F
:102490005CE055E00020024000210240006002584C
:1024A0002E2E2F447269766572732F53544D33323A
:1024B000483778785F48414C5F4472697665722F7F
:1024C0005372632F73746D3332683778785F686145
:1024D0006C5F6164632E63000000FF4700002143CE
:1024E000020030040800900C2000F0148000501D01
:1024F000000180210002B0250004002A0008302ECF
:1025000000106032002090360040C03A0080F03E5B
:10251000000052470000844B0000B84F000084CBFD
:10252000000052C7000021C30000B8CF0010005CBB
:1025300002F01F02914023F4F0420A43026135E0A9
:102540004FF000418CE74FF400619FE72868217845
:10255000026E02F0F842B2EB816F03D1016E21F0FE
:102560000041016628682178426E02F0F842B2EB21
:10257000816F03D1416E21F00041416628682178C6
:10258000826E02F0F842B2EB816F03D1816E21F0CE
:102590000041816628682178C26E02F0F842B2EBF1
:1025A000816F03D1C16E21F00041C1662868816846
:1025B00011F0010F74D150F8C01F237B7D4F2268AA
:1025C00003F0180C27FA0CF7C2F3130399431740D2
:1025D000394301607848E168814277D1206801037E
:1025E0001BD090FAA0F1B1FA81F1491C01F01F0152
:1025F00009294FEA003131D8002911D090FAA0F111
:10260000B1FA81F101F1010101F01F0108FA01F2B3
:1026100009D100BFC0F3846109E0C0F38461E4E73D
:10262000C0F38461EEE790FAA0F1B1FA81F101F113
:10263000010101F01F0142EA816102D1C0F384600F
:1026400003E090FAA0F0B0FA80F000F1010000F091
:102650001F0000EB400041EA005133E000290ED09A
:1026600090FAA0F1B1FA81F101F1010101F01F012D
:1026700008FA01F206D100BFC0F3846106E0C0F39E
:102680008461F1E790FAA0F1B1FA81F101F1010161
:1026900001F01F0142EA816103D1C0F3846004E0CC
:1026A0003FE090FAA0F0B0FA80F0444A00F1010057
:1026B00000F01F0000EB400002EB005041EA000177
:1026C00041F00071A268286804F062FF2768002FBB
:1026D00027DA3B4B28683B49DFF8ECC0984201D031
:1026E000B04201D10A4600E062469268984202F088
:1026F000E07201D0B04209D19C68D6F8088004F09D
:10270000010408F0010844EA080403E0D9F808408D
:1027100004F0010454B1696D4FF0010A41F020004A
:102720006865002085F8500050462FE6274CA742E8
:102730001CD114021AD44845F3D1984202D0B042B9
:1027400000D061468B6842F4000023F0E07202433F
:102750008A6020491E480968B1FBF0F04000801CE7
:1027600000E0401E00900028FBD1DAE71A4CA74297
:102770000CD1D4010AD44845D3D1984202D0B042FA
:1027800000D061468B6842F080700EE0134CA74287
:10279000C7D15402C5D44845C3D1984202D0B042F3
:1027A00000D061468B6842F4800023F0E07202435F
:1027B0008A60B6E7FFFF0F000000FF47000020FE21
:1027C000002002400023024000630258000084CB36
:1027D000400D030014000024000052C70000B8CFD1
:1027E000084800F01F012031BFF34F8F064A1060E8
:1027F000203020390029FADCBFF34F8FBFF36F8FF1
:1028000070470000C00100245CEF00E0084800F0C1
:102810001F012031BFF34F8F064A1060203020394E
:102820000029FADCBFF34F8FBFF36F8F70470000B2
:10283000A00100245CEF00E0704700002DE9F84F94
:102840004FF0000804004646CDF800807DD0FB4DD7
:102850002068DFF8EC93FB4FA84208D0B84206D0BE
:10286000484504D04FF4D871F7A005F030FF6068F8
:10287000B0F5803F2CD0B0F5003F29D0B0F5403FF7
:1028800026D028B3B0F5802F22D0B0F5002F1FD06E
:10289000B0F5402F1CD0B0F5801F19D0B0F5A01FA7
:1028A00016D0B0F5C01F13D0B0F5E01F10D0B0F5B2
:1028B000001F0DD0B0F5101F0AD0B0F5201F07D0B3
:1028C000B0F5301F04D0E0A040F2B11105F0FFFEDA
:1028D000A06880B104280ED014280CD008280AD093
:1028E000182808D00C2806D0102804D0D6A04FF401
:1028F000D97105F0ECFEE06830B1012804D0D2A017
:1029000040F2B31105F0E3FE607D30B1012804D040
:102910004FF4DA71CCA005F0DAFEA06A4FF4806AB9
:1029200060B150450AD0B0F5006F07D0B0F5406FE8
:1029300004D0C5A040F2B51105F0C9FE606A50454B
:1029400043D0B0F5846F40D000E08AE0B0F5886FE6
:102950003BD0B0F58C6F38D0B0F5906F35D0B0F576
:10296000946F32D0B0F5986F2FD0B0F59C6F2CD00B
:10297000B0F5A06F29D0B0F5A46F26D0B0F5A86F40
:1029800023D0B0F5AC6F20D0B0F5B06F1DD0B0F54E
:10299000B46F1AD0B0F5B86F17D0B0F5BC6F14D0C3
:1029A000B0F5C06F11D0B0F5C46F0ED0B0F5C86FE0
:1029B0000BD0B0F5CC6F08D0B0F5D06F05D020B1FA
:1029C000A1A04FF4DB7105F082FEE06A50B102284D
:1029D00008D0012806D0032804D09BA040F2B711EC
:1029E00005F075FE2069042806D0082804D04FF4AD
:1029F000DC7195A005F06BFE206B38B1B0F5805FFF
:102A000004D091A040F2B91105F061FE207D30B1F3
:102A1000012804D08CA04FF4DD7105F058FE94F825
:102A2000380030B1012804D087A040F2BB1105F076
:102A30004EFEE06808B3A069401E0F2804D982A0AA
:102A400040F2BF1105F043FE207F08B301280BD0F0
:102A50004FF4E0717CA005F03AFE207F012803D0FE
:102A600016E00120BDE8F88F206A401E072807D92C
:102A70004FF4E27174A005F02AFE207F012807D1EF
:102A8000607D012804D170A040F2C91105F01FFE3D
:102A9000606D30B9204600F073F9C4F8588084F8AE
:102AA000508020688168C1F3407119B18168744A0F
:102AB0001140816020688168C1F3007181B981682B
:102AC000704A114041F08051816070496E48096838
:102AD000B1FBF0F0401C00E0401E00900028FBD14C
:102AE00020688168C1F3007141B9616D012641F030
:102AF00010016165A16D41F00101A16504F038FD8F
:102B0000616DC90600D420B1606D012640F010004F
:102B100091E0606D20F4807040F0020060652068F4
:102B2000816811F0010F1DD1A84201D0B84207D130
:102B3000A968BA6801F0010102F00102114303E043
:102B4000D9F8081001F0010161B9A84201D0B842DA
:102B500001D14F4800E04F488268616822F47C123E
:102B60000A43826001F044FF41F20301884202D926
:102B7000A06810280CD0617D237FA268206B4903D8
:102B800041EA034110430843217F01290CD010E0A2
:102B9000617D227F206B490341EA024140F0100031
:102BA000084340F00C00EFE7218C3B4A02EB414127
:102BB0000843616A29B1A26A01F47871014342EACB
:102BC00001002168354BCA681A400243CA60206878
:102BD00004F0CEFC0546206804F0C6FC28431DD155
:102BE000216844F20303257DE26AC86842EA85321F
:102BF00098431043C86094F83800012850D02068EA
:102C0000016921F0010101612068626B016921F015
:102C10007041114301612046FEF720FDE068012864
:102C200020687CD0016B21F00F010163606D20F002
:102C3000020040F001006065304613E700200240CA
:102C400000600258002102402E2E2F4472697665E2
:102C500072732F53544D3332483778785F48414C64
:102C60005F4472697665722F5372632F73746D338C
:102C700032683778785F68616C5F6164632E6300E7
:102C8000C0FFFF5FC0FFFF7F400D03001400002462
:102C900000230240006302580000FEFF03C0F0FF63
:102CA000E06B401E504505D340F2C921AFF26800E9
:102CB00005F00DFD206CF8B120281DD040281BD058
:102CC000602819D0802817D0A02815D0C02813D08C
:102CD000E02811D0B0F5807F0ED0B0F5907F0BD0FA
:102CE000B0F5A07F08D0B0F5B07F05D040F2CB2181
:102CF000AFF2AC0005F0EBFC606C40B1B0F5007FCA
:102D000005D04FF43371AFF2C00005F0E0FCA06CC9
:102D100001280BD0A0F58061013907D000E023E045
:102D200040F2CD21AFF2E00005F0D1FC606A08B1BD
:102D3000A06A38B9606C28B140F2D321AFF2F80034
:102D400005F0C5FC2168A38F0B4FD4E9100C0B4D87
:102D500007EB0347A26C0B6940EA0C003A431043AF
:102D60002B40184308614FE7A269016B521E21F006
:102D70000F01114359E700000100FFFF1EF800FC9E
:102D8000F0B5B5B0064614212FA8FDF774FCBC21A0
:102D90006846FDF770FC2B49306888424FD102200D
:102DA0004FF0500C4FF40024009401270997CDE90F
:102DB0000AC00DF1300C102200254FF440638CE85E
:102DC0002D00C10368461095289102F0C5FA08B19C
:102DD000FEF7D1FF1C48016841F020010160006846
:102DE00000F02000349018480830016841F00101DB
:102DF000016000682FAA032100F001003490202018
:102E000082E8230011482FA901F0E4FB104C0921AE
:102E100010484FF4807C021584E82300D700C4E9F1
:102E20000352C3142046C4E907C56562C4E90537E7
:102E300000F02EFF08B1FEF79EFFF464A66335B0E4
:102E4000F0BD000000200240D844025800000258A3
:102E500084000024100002402DE9F0478A463F49D3
:102E6000044600683E4F9146884201D0B84201D1E5
:102E70003C4A00E03C4A92688846404502F01F0503
:102E800009D0B84207D03949884204D038A040F66A
:102E90004F0105F01CFC206804F06AFB00285BD1A0
:102EA00094F85000012857D001204FF0000684F814
:102EB000500025B1052D02D0092D00D003E0204699
:102EC000FEF7CEFC18B184F85060BDE8F087616D64
:102ED00040F6016220689143B84241F48071616517
:102EE00001D1414600E00146814200D01DB9606D2C
:102EF00020F480106065606DC00404D5A06D20F0E2
:102F00000600A06500E0A6651C20E16C264ACA63A5
:102F1000E26C26491164E26C2549D164216808609D
:102F200084F850602068416841F0100141602068D9
:102F3000E16AC26822F003020A43C26021684B467C
:102F4000E06C5246403101F0BBF92168194B8A68A8
:102F50001A40121D8A60B8E70220B6E7002002403E
:102F60000021024000230240006302580060025822
:102F70002E2E2F447269766572732F53544D33325F
:102F8000483778785F48414C5F4472697665722FA4
:102F90005372632F73746D3332683778785F68616A
:102FA0006C5F6164632E630065170008E717000813
:102FB000CD170008C0FFFF7F2DE9F84F044601F050
:102FC0001DFD002C009008D094F83500022805D093
:102FD00080216165002084F83400E3E0C84DC84ECC
:102FE000C749183520683036DFF81883DFF81893A2
:102FF0008842DFF818A3DFF818B32ED0A8422CD0EF
:10300000B0422AD0404528D0484526D0504524D04B
:10301000584522D0BE4A183290421ED0BD4A904236
:103020001BD0BC4A1832904217D0BA4A3032904274
:1030300013D0B84A483290420FD0B64A603290421C
:103040000BD0B44A7832904207D0B24A90329042C4
:1030500003D0B04AA832904209D1026822F01E0281
:1030600002602068426922F08002426103E0026847
:1030700022F00E02026027688F4238464DD0A842E7
:103080004BD0B04249D0404547D0484545D0504547
:1030900043D0584541D09E4A183290423DD09D4A77
:1030A00090423AD09B4A1832904236D0994A3032F8
:1030B000904232D0974A483290422ED0954A6032A0
:1030C00090422AD0934A7832904226D0914A903248
:1030D000904222D08F4AA83290421ED08E4A90420F
:1030E0001BD08D4A1432904217D08B4A283290421E
:1030F00013D0894A3C3290420FD0874A50329042D6
:103100000BD0854A6432904207D0834A783290428D
:1031100003D0814A8C32974204D1206E026822F497
:103120008072026076492068884228D0A84226D062
:10313000B04224D0404522D0484520D050451ED032
:1031400058451CD072491831884218D071498842BC
:1031500015D070491831884211D06E4930318842FB
:103160000DD06C494831884209D06A4960318842A3
:1031700005D068497831884201D0664990310168AC
:1031800021F00101016010E001F038FC0099401AC3
:1031900005280AD9202262650020032184F8340022
:1031A00084F835100120BDE8F88F3868C007EBD1EE
:1031B000534A0121206890422ED0A8422CD0B04220
:1031C0002AD0404528D0484526D0504524D05845DF
:1031D00022D04F4B183398421ED04E4B98421BD0F2
:1031E0004C4B1833984217D04A4B3033984213D087
:1031F000484B483398420FD0464B603398420BD02F
:10320000444B7833984207D0424B9033984203D0D6
:10321000404BA833984208D194F85C703F23A06DCE
:1032200007F01F07BB40836007E094F85C30A06D97
:1032300003F01F0301FA03F34360206890424DD06E
:10324000A8424BD0B04249D0404547D0484545D030
:10325000504543D0584541D02D4A183290423DD078
:103260002C4A90423AD02B4A1832904236D0294A02
:103270003032904232D0274A483290422ED0254AEE
:10328000603290422AD0234A7832904226D0214A96
:103290009032904222D01F4AA83290421ED01E4A3D
:1032A00090421BD01C4A1432904217D01A4A28323E
:1032B000904213D0184A3C3290420FD0164A5032F6
:1032C00090420BD0144A6432904207D0124A7832AE
:1032D000904203D0104A8C3290420BD1D4E91902AB
:1032E0004260E06E30B1026822F480720260D4E97C
:1032F0001C024260002084F8340084F8351052E744
:103300001000024058000240700002408800024055
:10331000A000024010040240085402582DE9F05F5A
:1033200028B190F83510022904D080214165012090
:10333000BDE8F09F904C904B0168183C18338E4AC2
:10334000DFF83C92A1428D4CDFF838E28E4FDFF877
:103350003CB2DFF83CA28F4D8F4E31D091422FD03E
:1033600099422DD0A1422BD0494529D0714527D073
:10337000B94225D0DFF810C20CF1180C61451FD0FE
:10338000DFF808C2ACF1600C614519D0DFF8FCC170
:10339000ACF1480C614513D0DFF8F0C1ACF1300C52
:1033A00061450DD0DFF8E4C1ACF1180C614507D0E0
:1033B000594505D0514503D0A94201D0B1422CD185
:1033C000DFF8B4C14FF0040880F83580ACF1180C78
:1033D00061451DD091421BD0994219D0A14217D00E
:1033E000494515D0714513D0B94211D066481830FF
:1033F00081420DD065486038814209D06348483821
:10340000814205D061483038814201D05F48183888
:10341000086820F001000860ABE0D1F800C02CF093
:103420000E08DFF854C1C1F80080ACF1180C016837
:10343000614527D0914225D0994223D0A14221D085
:1034400049451FD071451DD0B9421BD0DFF838C1A6
:103450000CF1180C614515D0DFF830C1ACF1600CEF
:1034600061450FD0DFF824C1ACF1480C614509D0AB
:10347000DFF818C1ACF1300C614503D0DFF80CC1A6
:10348000ACF1180CD1F800C02CF0010CC1F800C050
:10349000DFF8E4804FF0010C0168A8F118084145FD
:1034A00046D0914244D0994242D0A14240D04945B1
:1034B0003ED071453CD0B9423AD0334A183291429D
:1034C00036D0324A603A914232D0304A483A91423C
:1034D0002ED02E4A303A91422AD02C4A183A9142A4
:1034E00026D0594524D0514522D0A94220D0B142FE
:1034F0001ED02A4A91421BD0284A1432914217D03A
:10350000264A2832914213D0244A3C3291420FD0AD
:10351000224A503291420BD0204A6432914207D065
:103520001E4A7832914203D01C4A8C32914218D103
:10353000016E0A6822F480720A6090F85C20816D46
:1035400002F01F020CFA02F24A60D0E919124A6036
:10355000C16E31B10A6822F480720A60D0E91C128F
:103560004A600022016D80F8342080F835C001B136
:1035700088470020DCE60000280002405800024096
:103580007000024088000240A00002407004024027
:1035900088040240A0040240B804024008540258C3
:1035A0002DE9FC5F0446FA4E0020DFF8E48300902A
:1035B0004FF41652F74808F11808A56DDFF8D0A3AC
:1035C000DFF8CCB301680AF1300A20680BF1480B30
:1035D000B1FBF2F1B04201912F68D5F800C0DFF8DD
:1035E000B89336D04146884233D0504531D0584503
:1035F0002FD0E749603188422BD0E54978318842A5
:1036000027D0E3499031884223D0E149A83188424C
:103610001FD048451DD0E0491831884219D0DE49F5
:103620003031884215D0DC4A4832904211D0DA4914
:10363000603188420DD0DFF860E30EF1780E7045FE
:1036400007D0D54B9033984203D0D349A831884254
:103650007ED194F85C20082102F01F0201FA02F2E8
:103660003A424BD0B04233D0404531D050452FD0B4
:1036700058452DD0C64A6032904229D0C44A78328B
:10368000904225D0C24A9032904221D0C04AA832FE
:1036900090421DD048451BD0BF4A1832904217D0E7
:1036A000BD4A3032904213D0BB4A483290420FD0CC
:1036B000B94A603290420BD0B74A7832904207D074
:1036C000B54A9032904203D0B34AA832904203D117
:1036D000026802F0040202E0026802F008026AB125
:1036E000026822F00402026094F85C0000F01F00FF
:1036F0008140A960606D40F00100606594F85C0055
:10370000012100F01F008140394241D02068B042C1
:1037100035D0404533D0504531D058452FD09C4A04
:10372000603290422BD09A4A7832904227D0984A01
:103730009032904223D0964AA83290421FD04845FA
:103740001DD0954A1832904219D0934A303200E089
:10375000B2E1904213D0904A483290420FD08E4A44
:10376000603290420BD08C4A7832904207D08A4A1D
:103770009032904203D0884AA83290427ED140696C
:1037800010F0800F04D0A960606D40F00200606509
:1037900094F85C00042100F01F00814039423FD0C2
:1037A0002068B04233D0404531D050452FD05845E5
:1037B0002DD0774A6032904229D0754A78329042B3
:1037C00025D0734A9032904221D0714AA83290425B
:1037D0001DD048451BD0704A1832904217D06E4A0F
:1037E0003032904213D06C4A483290420FD06A4A2D
:1037F000603290420BD0684A7832904207D0664AD5
:103800009032904203D0644AA83290424FD100686F
:1038100010F0020F04D0A960606D40F004006065F4
:1038200094F85C00102100F01F008140394259D00B
:103830002068B04235D0404533D0504531D058454E
:103840002FD0534A603290422BD0514A7832904266
:1038500027D04F4A9032904223D04D4AA83290420E
:103860001FD048451DD04C4A1832904219D04A4AC0
:103870003032904215D0484A483200E015E090427C
:103880000FD0454A603290420BD0434A7832904282
:1038900007D0414A9032904203D03F4AA83290422A
:1038A00007D1006800F0080006E0006870E70068D3
:1038B000B6E7006800F00400A0B1A96020680168C4
:1038C000490304D50068000308D5A16C07E001682E
:1038D000C90503D4016821F008010160216C09B118
:1038E0002046884794F85C00202100F01F008140AA
:1038F000394278D02068B04233D0404531D050456D
:103900002FD058452DD0224A6032904229D0204AEB
:103910007832904225D01E4A9032904221D01C4AE3
:10392000A83290421DD048451BD01B4A1832904205
:1039300017D0194A3032904213D0174A4832904279
:103940000FD0154A603290420BD0134A7832904221
:1039500007D0114A9032904203D00F4AA8329042C9
:1039600003D1006800F0100002E0006800F00200DF
:10397000A0B3A96094F835000428206801680DD030
:1039800049037DD50068000329D4616C28E000005C
:1039900010000240140000241004024021F016011F
:1039A00001602068416921F080014161206C08B903
:1039B000A06C20B12068016821F00801016094F832
:1039C0005C303F21002203F01F0301209940A960D1
:1039D00084F8342084F83500216D66E003E0E16B63
:1039E00009B120468847606D00287DD0606DC00712
:1039F0005AD02068042184F83510B0422BD04045BD
:103A000029D0504527D0584525D09E49884222D0FC
:103A10009C49183188421ED09A49303188421AD0C8
:103A200098494831884216D0484514D09649884272
:103A300011D09549183188420DD0934930318842D0
:103A400009D091494831884205D08F496031884278
:103A500001D08D497831016821F0010101602068B1
:103A60000099019A491C0091914202D80168C90746
:103A7000F6D1002184F834100068C00711D000E0AE
:103A800001E003200EE00168C905A8D40368002204
:103A9000012123F01003036084F8342084F83510EA
:103AA0009DE7012084F83500E16C00291CD002B0AC
:103AB0002046BDE8F05F0847744988421DD073492D
:103AC0001431884219D071492831884215D06F4984
:103AD0003C31884211D06D49503188420DD06B493C
:103AE0006431884209D000E086E068497831884234
:103AF00003D066498C3188427ED194F85C800427DB
:103B0000016808F01F0807FA08F717EA0C0F00977A
:103B100046D04F0744D500980F04686003D5C8030A
:103B20003CD4A16CC1E7880638D42068B0422DD0BF
:103B300054494839884229D0504527D0584525D086
:103B40005049884222D04F49183188421ED04D49F1
:103B5000303188421AD04B494831884216D0484506
:103B600014D04949884211D04749183188420DD0B4
:103B700090420BD044494831884207D0704505D067
:103B8000984203D040499031884203D1016821F026
:103B9000080102E0016821F004010160216C84E762
:103BA000022707FA08F717EA0C0F00974ED08F0785
:103BB0004CD500980F04686003D5C80344D4616CE9
:103BC00073E7880640D42068B0422FD02D49483989
:103BD00088422BD0504529D0584527D029498842C2
:103BE00024D028491831884220D0264930318842D3
:103BF0001CD02449483100E041E0884216D04845B5
:103C000014D02149884211D01F49183188420DD063
:103C100090420BD01C494831884207D0704505D0EE
:103C2000984203D018499031884203D1016821F0AD
:103C3000140102E0016821F00A010160002184F80A
:103C40003410012084F83500E16B2EE7082202FAD7
:103C500008F212EA0C0F12D0090710D5016821F002
:103C60000E01016094F85C100120002201F01F0198
:103C700000FA01F16960606584F8342012E7BDE85C
:103C8000FC9F0000700002402804024008540258C3
:103C90002DE9F05F044600F0B1FE002C80467DD097
:103CA000FE4EFE4DDFF8F49318362068DFF8F0A3DF
:103CB00009F13009DFF8ECB3A84255D0B04253D037
:103CC000484551D050454FD058454DD0F549183151
:103CD000884249D0F3493031884245D0F1494831D2
:103CE000884241D0F04988423ED0EF49183188429D
:103CF0003AD0ED493031884236D0EB4948318842DC
:103D000032D0E949603188422ED0E7497831884283
:103D10002AD0E5499031884226D0E349A83188422B
:103D200022D0E24988421FD0E049143188421BD09A
:103D3000DE492831884217D0DC493C31884213D013
:103D4000DA49503188420FD0D849643188420BD0CB
:103D5000D6497831884207D0D4498C31884203D083
:103D6000E121D3A004F0B3FCA06838B1402805D00D
:103D7000802803D0E221CEA004F0A9FCE068B0F5D1
:103D8000007F04D018B1E321C9A004F0A0FC206991
:103D9000B0F5806F06D028B1E42100E065E2C4A050
:103DA00004F095FC606948B1B0F5006F06D0B0F53D
:103DB000805F03D0E521BEA004F089FCA06948B172
:103DC000B0F5005F06D0B0F5804F03D0E621B8A073
:103DD00004F07DFCE06970B1B0F5807F0BD0202845
:103DE00009D0B0F5802F06D0B0F5402F03D0E721E1
:103DF000AFA004F06CFC206A60B1B0F5803F09D040
:103E0000B0F5003F06D0B0F5403F03D0E821A8A0B0
:103E100004F05DFCA149022720684FF000058842AC
:103E200032D0B04230D048452ED050452CD05845E5
:103E30002AD09C491831884226D09A49303188428C
:103E400022D09849483188421ED0974988421BD0D9
:103E500095491831884217D093493031884213D0A0
:103E60009149483188420FD08F49603188420BD048
:103E70008D497831884207D08B499031884203D0F0
:103E80008949A831884275D16068732803D9EC212B
:103E900087A004F01CFC606A002831D0042805D0FB
:103EA000ED2183A004F013FC606A48B3A06A48B116
:103EB000012807D0022805D0032803D0F2217CA0D6
:103EC00004F005FCE06A60B1B0F5000F09D0B0F174
:103ED000807F06D0B0F1C07F03D0F32174A004F03E
:103EE000F6FB206B60B1B0F5001F09D0B0F5800F74
:103EF00006D0B0F5C00F03D0F4216DA004F0E7FBAD
:103F00002068664984F8345084F8357088422CD093
:103F1000B0422AD0484528D0504526D0584524D014
:103F200060491831884220D05E49303188421CD027
:103F30005C494831884218D05B49884215D05A49BB
:103F40001831884211D05849303188420DD0564935
:103F50004831884209D054496031884205D05249DD
:103F60007831884201D050499031016821F0010137
:103F7000016009E066E000BF00F040FDA0EB080032
:103F8000052801D920216CE120680068C007F3D121
:103F900004F108002168D4E9053C8E4685C809680B
:103FA0001043D4E907281F43636A38434E4F40EA61
:103FB0000C001043394040EA0800042B40EA01009D
:103FC00003D1D4E90B1211430843484909686FF340
:103FD0000F01B1F1005F0FD36168A1F12902052A39
:103FE00008D9163A032A05D9083A012A02D94F39C5
:103FF000032901D840F48010CEF800002068676AD9
:104000004069042F20F0070047EA00070DD1D4E9EA
:104010000A01074349B12046FDF760FD28B1402061
:104020006065012184F835101FE120684761204652
:10403000FDF772FC94F85C203F2102F01F029140D2
:104040008160A8E0194988421BD0184A1432904276
:1040500017D0164A2832904213D0144A3C3290426C
:104060000FD0124A503290420BD0104A6432904224
:1040700007D00E4A7832904203D00C4A8C329042DC
:104080007ED1884245D009491431884241D0074940
:10409000283188423DD005493C3129E010000240DA
:1040A00058000240700002401004024008540258B8
:1040B0002E2E2F447269766572732F53544D33320E
:1040C000483778785F48414C5F4472697665722F53
:1040D0005372632F73746D3332683778785F686119
:1040E0006C5F646D612E63003F8010FE0010005C09
:1040F00088420ED06D4988420BD06C4914318842F9
:1041000007D06A492831884203D068493C31884247
:1041100008D16068112805D94FF4B371AFF270006F
:1041200004F0D5FA84F8345084F835702068A1681A
:104130008646006840295E4A00EA02007ED0802957
:104140007DD00022D4E90378D4E9053142EAD702D0
:1041500042EAD808574AD4E9077C48EAD30848EA33
:10416000D10141EAD701142341EA1C110143CEF8E1
:10417000001020681044B0FBF3F08000E06500E020
:104180006EE02046FDF7C8FB94F85C20012102F0A8
:104190001F029140416048492068884254D0B04293
:1041A00052D0484550D050454ED058454CD0424949
:1041B0007831884248D040499031884244D03E49C5
:1041C000A831884240D03D4988423DD03B49183112
:1041D000884239D039493031884235D03749483161
:1041E000884231D03549603188422DD03349783109
:1041F000884229D031499031884225D02F49A831B1
:10420000884221D02949503988421DD027493C395C
:10421000884219D025492839884215D023491439B4
:10422000884211D0214988420ED020491431884259
:104230000AD01E492831884206D001E00BE00CE08C
:104240001A493C3188422AD12046FDF7BFFBA068BD
:1042500080280DD00DE0102274E74FF4804271E702
:1042600040216165032084F835000120BDE8F09FFE
:104270006560216E20790860D4E9190141606068A9
:10428000401E072808D82046FDF7EEFBE06E0560CB
:10429000D4E91C01416002E0E566256765670120FD
:1042A000656584F835000020E0E7000058540258A6
:1042B0000F00FEFFF8ABFDA7100002401004024003
:1042C0002DE9FF4F81B0044600214FF6FF7204989C
:1042D0000091401E904204D39DA040F2A92104F019
:1042E000F6F9A4B194F83400012812D094F83520DE
:1042F0000120002184F83400012A0CD084F8341005
:10430000C20200906265009805B0BDE8F08F012000
:10431000FAE70220F8E79C4A0223206884F8353047
:1043200090429A4D61659A4E9A4FDFF86C82DFF8A1
:104330006C92DFF86CA2DFF86CB226D0A84224D0D1
:10434000B04222D0B84220D040451ED048451CD0B3
:1043500050451AD0584518D09349884215D09249F3
:104360001831884211D09049303188420DD08E49A1
:104370004831884209D08C496031884205D08A4949
:104380007831884201D088499031016821F00101DB
:1043900001600DF1080C20469CE80E00FDF7C8FBFB
:1043A0007949206888422CD0A8422AD0B04228D02F
:1043B000B84226D0404524D0484522D0504520D090
:1043C00058451ED0784A90421BD0774A1832904206
:1043D00017D0754A3032904213D0734A4832904217
:1043E0000FD0714A603290420BD06F4A78329042BF
:1043F00007D06D4A9032904203D06B4AA832904267
:104400000CD1026822F01E0242F016020260206CFB
:1044100088B12068026842F008020BE0026822F0CE
:104420000E0242F00A020260206C20B1206802688D
:1044300042F004020260206888424BD0A84249D072
:10444000B04247D0B84245D0404543D0484541D01E
:1044500050453FD058453DD0534A90423AD0524AF9
:104460001832904236D0504A3032904232D04E4AC2
:10447000483290422ED04C4A603290422AD04A4A6A
:104480007832904226D0484A9032904222D0464A12
:10449000A83290421ED0454A90421BD0434A143263
:1044A000904217D0414A2832904213D03F4A3C32C2
:1044B00090420FD03D4A503290420BD03B4A64327A
:1044C000904207D0394A7832904203D0374A8C3232
:1044D00090420DD1206E0268D20303D5026842F4E7
:1044E00080720260E06E18B1026842F4807202606D
:1044F0002068884226D0A84224D0B04222D0B842B8
:1045000020D040451ED048451CD050451AD05845B3
:1045100018D02549884215D023491831884211D036
:104520002149303188420DD01F494831884209D095
:104530001D496031884205D01B497831884201D03D
:1045400019499031016841F001010160DBE600008A
:104550002E2E2F447269766572732F53544D333269
:10456000483778785F48414C5F4472697665722FAE
:104570005372632F73746D3332683778785F686174
:104580006C5F646D612E63001000024028000240E1
:104590004000024058000240700002408800024083
:1045A000A0000240B8000240100402400854025823
:1045B00070B5044600F022FA0546601C02D004489B
:1045C0000078044400F01AFA401BA042FAD370BDF0
:1045D000080000242DE9FC5FDFF8C0920027DFF817
:1045E000C0820D46DFF8BCA24845DFF8BCB20446E5
:1045F0001FD054451DD05C451BD0AC48844218D018
:10460000AB48844215D0AB48844212D0AA488442B9
:104610000FD0AA4884420CD0A948844209D0A948A6
:10462000844206D0A848844203D0BB21A7A004F04E
:104630004EF828680104090C01D0000C03D0BC21FD
:10464000A2A004F044F86868F8B101281DD0112830
:104650001BD0022819D0122817D0AB49884214D099
:10466000AA49884211D0AA4988420ED0A949884255
:104670000BD0A949884208D0A849884205D0032810
:1046800003D0BD2191A004F022F8A868002807D02B
:104690000128FCD00228FAD0BE218CA004F017F823
:1046A000F4E00120B840064000907DD06868012801
:1046B00005D0022803D0112801D012281DD1E868A6
:1046C00048B1012807D0022805D0032803D0CE2105
:1046D0007EA003F0FCFFA16803237A00E868934002
:1046E000904099430843A06060682979009AC1F31B
:1046F00000119043B94001436160E16803207B00F1
:104700000193AA689840814300909A400A43E2606E
:104710006868022801D0122839D14C451FD0544571
:104720001DD05C451BD06148844218D0604884424B
:1047300015D06048844212D05F4884420FD05F4851
:1047400084420CD05E48844209D05E48844206D040
:104750005D48844203D0E6215CA003F0B8FF2869DD
:104760000F2803D9E72159A003F0B1FFF808296900
:104770000F2304EB80024FEA477C106A4FEADC6C9F
:1047800003FA0CF3984301FA0CF101431162287902
:104790002168009A00F003009143019A9040084379
:1047A00020606868C00000E06FE06ED55C4801687A
:1047B00041F002010160006827F0030202F1B042FB
:1047C00000F002000090B8070F21030FD2F8080490
:1047D00099404C4520EA010001D100212BE05445CD
:1047E00001D1012127E05C4501D1022123E02F49BD
:1047F0008C4201D103211EE02D498C4201D10421BC
:1048000019E02C498C4201D1052114E02A498C423F
:1048100001D106210FE029498C4201D107210AE08C
:1048200027498C4201D1082105E026498C4201D15B
:10483000092100E00A2199400143C2F80814D8F880
:104840000000696820EA0600C90300D53043C8F8B3
:104850000000D8F80400696820EA0600890300D542
:104860003043C8F804004FF0B0406A680168D202D3
:1048700021EA060100D5314301606A68416892026D
:1048800021EA060100D5314341607F1C2E6836FACB
:1048900007F07FF406AFBDE8FC9F0000000002585F
:1048A000800000580004025800080258000C02580A
:1048B000001002580014025800180258001C025838
:1048C0000020025800240258002802582E2E2F449F
:1048D0007269766572732F53544D33324837787846
:1048E0005F48414C5F4472697665722F5372632F43
:1048F00073746D3332683778785F68616C5F6770A6
:10490000696F2E63000000000000111100002111EA
:1049100000003111000012110000221100003211BC
:10492000F444025870B50C00054604D106A040F2CC
:10493000C51103F0CCFE696924EA0100214040EA78
:104940000140A86170BD00002E2E2F44726976656B
:1049500072732F53544D3332483778785F48414C47
:104960005F4472697665722F5372632F73746D336F
:1049700032683778785F68616C5F6770696F2E6343
:104980000000000070B50C001546064604D109A0D1
:1049900040F2AD1103F09BFE45B1012D04D005A0FE
:1049A0004FF4D77103F093FEB46170BD2004B06181
:1049B00070BD00002E2E2F447269766572732F53DE
:1049C000544D3332483778785F48414C5F447269C0
:1049D0007665722F5372632F73746D333268377834
:1049E000785F68616C5F6770696F2E63000000001C
:1049F00001480068000C70470010005C01488068A6
:104A000070470000080000240248816802781144C1
:104A10008160704708000024032010B500F0DAF828
:104A200001F068FD0F4A104914681368C4F30322AB
:104A300003F00F038A5CC95C02F01F0201F01F0142
:104A4000D0400A4A20FA01F11160094908600020AB
:104A500000F010F808B1012010BD00F02BF8002084
:104A600010BD000018440258928800081800002465
:104A70001400002470B50D4D04462878A0B14FF401
:104A80007A71B1FBF0F00A490968B1FBF0F002F06D
:104A90004FF948B9102C07D200222146501E00F0D1
:104AA0004BF800206C6070BD012070BD0800002430
:104AB00014000024064882B0016841F00201016040
:104AC000006800F002000090052002B000F082B8FB
:104AD000F444025810B5040003D5BE2107A003F02A
:104AE000F6FD002C09DB60090121800004F01F02A3
:104AF00000F1E0209140C0F8001110BD2E2E2F448F
:104B00007269766572732F53544D33324837787813
:104B10005F48414C5F4472697665722F5372632F10
:104B200073746D3332683778785F68616C5F636F78
:104B3000727465782E63000070B5102A14460D4615
:104B4000064603D3AA2113A003F0C1FD102D03D301
:104B5000AB2110A003F0BBFD1D480068C0F3022389
:104B6000C3F10702042A00D90422181D072801D224
:104B7000002300E0DB1E012101FA02F09940401EF3
:104B80002840491E9840214001433046BDE870400E
:104B900003F085BD2E2E2F447269766572732F53F4
:104BA000544D3332483778785F48414C5F447269DE
:104BB0007665722F5372632F73746D333268377852
:104BC000785F68616C5F636F727465782E63000054
:104BD0000CED00E070B5072804460BD0062C09D078
:104BE000052C07D0042C05D0032C03D0922108A05B
:104BF00003F06DFD154904F007024FF6FF05086844
:104C0000134B284040EA02201843086070BD0000A2
:104C10002E2E2F447269766572732F53544D3332A2
:104C2000483778785F48414C5F4472697665722FE7
:104C30005372632F73746D3332683778785F6861AD
:104C40006C5F636F727465782E6300000CED00E09A
:104C50000000FA0570B50228044606D0012C04D0E5
:104C600015A040F23F1103F032FD22480168C9430C
:104C7000490705D5006800F00700A04213D118E0ED
:104C8000016821F0070121430160FFF7B7FE194DCC
:104C90004FF47A760446083D07E000BFFFF7AEFE0A
:104CA000001BB04201D9012070BD2868C0438004B8
:104CB000F4D4002070BD00002E2E2F44726976655A
:104CC00072732F53544D3332483778785F48414CD4
:104CD0005F4472697665722F5372632F73746D33FC
:104CE00032683778785F68616C5F7077725F65787B
:104CF0002E6300000C48025810B501F0B5FB0549C1
:104D00000968054AC1F30211515C01F01F01C84056
:104D100010BD000020440258928800084A4930B56E
:104D2000494C0B1D0A680C3409681D68246802F0A0
:104D3000030305F00102C1F30511C4F3CC040029FB
:104D400014FB02F200EE102AF8EE400A76D0414A37
:104D50009FED3E1ADFED3E1AB7EE000A23B1012B9C
:104D60005AD0022B18D15CE0374C283C23689B06B4
:104D700012D5394B246801EE901A1168C4F3C104AE
:104D8000F8EE612AE34001EE903AC1F30801F8EE33
:104D9000611A81EEA22A07E002EE101A1168F8EEFD
:104DA000422A81EEA22A45E001EE901A1168F8EE3F
:104DB000611A40EE811A71EE800A62EE200AC1F398
:104DC000462101EE101AB8EE411A31EE001AC0EE7B
:104DD000811ABCEEE11A80ED001A1168C1F3064198
:104DE00001EE101AB8EE411A31EE001AC0EE811A27
:104DF000BCEEE11A80ED011A1168C1F3066101EE03
:104E0000101AB8EE411A31EE000A80EE801ABCEE9C
:104E1000C10A80ED020A30BD01EE901ADFED0F2AC3
:104E200003E001EE901ADFED0E2A1168F8EE611A28
:104E300082EEA12AC1F30801B6E7FFE70021016075
:104E40004160816030BD00002844025800000039F4
:104E50000024744C304402580090D0030024744A5B
:104E6000001B374B494930B5484C0B1D0A681434B8
:104E700009681D68246802F00303C5F30012C1F33A
:104E80000531C4F3CC04002914FB02F200EE102A11
:104E9000F8EE400A75D03F4A9FED3D1AB7EE000A82
:104EA0006BB1DFED3D1A012B01D0022B64D002EE75
:104EB000101A1168F8EE422A81EEA22A21E0334C42
:104EC000283C23689B0612D5344B246801EE901AC7
:104ED0001168C4F3C104F8EE612AE34001EE903A90
:104EE000C1F30801F8EE611A81EEA22A0BE001EE8F
:104EF000901ADFED2B2A00BFF8EE611A116882EEDE
:104F0000A12AC1F3080101EE901A1168F8EE611AA6
:104F100040EE811A71EE800A62EE200AC1F346214A
:104F200001EE101AB8EE411A31EE001AC0EE811AE5
:104F3000BCEEE11A80ED001A1168C1F3064101EEE2
:104F4000101AB8EE411A31EE001AC0EE811ABCEE0A
:104F5000E11A80ED011A1168C1F3066101EE101A21
:104F6000B8EE411A31EE000A80EE801ABCEEC10A9A
:104F700080ED020A30BD04E001EE901ADFED092A4F
:104F8000BAE70021016041608160F3E728440258DC
:104F900000000039384402580024744A0090D003BD
:104FA0000024744C001B374B494930B5484C0B1D4D
:104FB0000A681C3409681D68246802F00303C5F3FD
:104FC0000022C1F30551C4F3CC04002914FB02F202
:104FD00000EE102AF8EE400A75D03F4A9FED3D1AC8
:104FE000B7EE000A6BB1DFED3D1A012B01D0022BA9
:104FF00064D002EE101A1168F8EE422A81EEA22A5D
:1050000021E0334C283C23689B0612D5344B24689E
:1050100001EE901A1168C4F3C104F8EE612AE3406E
:1050200001EE903AC1F30801F8EE611A81EEA22A6E
:105030000BE001EE901ADFED2B2A00BFF8EE611AAB
:10504000116882EEA12AC1F3080101EE901A1168DD
:10505000F8EE611A40EE811A71EE800A62EE200AC3
:10506000C1F3462101EE101AB8EE411A31EE001AD2
:10507000C0EE811ABCEEE11A80ED001A1168C1F38E
:10508000064101EE101AB8EE411A31EE001AC0EED8
:10509000811ABCEEE11A80ED011A1168C1F30661B4
:1050A00001EE101AB8EE411A31EE000A80EE801AB5
:1050B000BCEEC10A80ED020A30BD04E001EE901A98
:1050C000DFED092ABAE70021016041608160F3E762
:1050D0002844025800000039404402580024744A11
:1050E0000090D0030024744C001B374B2DE9F04F87
:1050F000944A4FF48079DFF848824845924B89B052
:10510000924EA8F1040592494FF080574FEA2214BD
:105110004FF0005C2ED1D8F8000000F00700052801
:1051200024D2DFE800F09BB58425AA0003A8FFF78E
:10513000F5FD049809B0BDE8F08F6846FFF792FED0
:105140000098F7E706A8FFF72FFF0698F2E7086830
:10515000C0F3C10022FA00F0ECE70A68D2057CD562
:10516000B8427AD12046E5E71846E3E70020E1E7B8
:105170003046DFE7B0F5007F1AD0DFF8D891B0F500
:10518000806F26D0B0F5006F37D04FF4805A50456D
:105190004FF4804B4FD1D8F8000000F4E040B0F558
:1051A000005F44D03DDC002858D05045DED16FE090
:1051B000D8F8000000F4E070802838D004DC002823
:1051C0004CD04028D2D163E0C028D1D04845CDD1C1
:1051D00053E0D9F8000000F46000B0F5800F26D04D
:1051E00004DCD8B3B0F5001FC0D151E0B0F5C00F5A
:1051F000BED0B0F5000FB9D13FE0D9F8000000F003
:10520000E060B0F1007F12D004DC38B3B0F1807FF1
:10521000ACD13DE0B0F1407FAAD0B0F1806FA5D114
:105220002BE0B0F5405FA3D058459FD125E008683A
:1052300080009BD586E7B0F5002F4FF4803612D062
:10524000B04237D1286810F4803075D0B0428DD18B
:10525000086800018AD5684601E025E06CE0FFF7A8
:1052600001FE029866E7D9F8000010F440300FD034
:10527000B04211D0B0F5003F98D128680D6800F019
:1052800040506D077FF569AF00287FF466AF5EE799
:1052900008680001CDD550E708688000C9D506A888
:1052A000FFF782FE089845E709688903C1D5604584
:1052B00088D159E758452BD1D9F8000000F0E040DB
:1052C000B0F1405F1CD00CDC90B1B8422CD06045EE
:1052D0008AD108688000ACD506A8FFF765FE07985C
:1052E00028E7B0F1804F0FD0B0F1A04F90D11FE070
:1052F000FFF702FD1EE76846FFF7B4FD019819E7C6
:105300000868400795D522E70868C00591D529E7C8
:10531000B0F5004F89D1D8F8000010F0405007D008
:10532000B84209D0604592D108680001E3D41DE776
:1053300008688003FBD517E708688001F7D5F5E614
:10534000504402580090D003001BB7000080BB00FF
:1053500000440258584402582DE9FC5F044650F8B6
:10536000241B002500902E460801FE4FDFF8F8931D
:105370001DD5606E50B1B0F5801F0CD0B0F5001F88
:105380000ED0B0F5401F1DD001250FE0386840F465
:105390000030386016E00221201D02F029FA03E0F7
:1053A0000098022102F01CFB05000BD02E4620883D
:1053B000C00523D5606D05281ED2DFE800F00C1172
:1053C000161B1B00626ED9F8001021F44011114326
:1053D000C9F80010EBE7386840F40030386009E0A5
:1053E0000021201D02F004FA03E00098002102F0E1
:1053F000F7FA05466DB100E001252E4620888005AC
:1054000028D5A06D80281ED00CDC90B140280ED18C
:1054100014E0626DD9F8001021F007011143C9F8BA
:105420000010EBE7C02813D0B0F5807F10D0012525
:105430000FE0386840F40030386009E00021201D9A
:1054400002F0D6F903E00098002102F0C9FA0546FF
:1054500095B12E462088DFF81083400508F1080832
:105460002CD5D4F8A400B0F5800F20D00DDCA0B16D
:10547000B0F5001F0FD115E0A26DD9F8001021F48E
:10548000E0711143C9F80010E4E7B0F5C00F13D084
:10549000B0F5000F10D001250FE0386840F400305F
:1054A000386009E00021201D02F0A2F903E0009815
:1054B000002102F095FA054675B12E4620880005B8
:1054C0002DD5D4F8A800B0F1007F21D00EDCA8B112
:1054D000B0F1807F10D116E0D4F8A420D8F80010E5
:1054E00021F460011143C8F80010E7E7B0F1407FF4
:1054F00013D0B0F1806F10D001250FE0386840F470
:105500000030386009E00021201D02F071F903E04D
:105510000098002102F064FA05466DB12E4620681D
:1055200080011FD5A06CD8B110280FD0202812D030
:10553000302815D0012514E0D4F8A820D8F80010A0
:1055400021F0E0611143C8F80010E8E7386840F442
:105550000030386004E00221201D02F049F90546C0
:105560006DB12E462088C0042BD5E06DB0F5005FEC
:1055700020D00DDCA0B1B0F5805F0FD115E07A48E6
:10558000A26C001F016821F0300111430160E9E7BE
:10559000B0F5405F13D0B0F5804F10D001250FE07B
:1055A000386840F40030386009E00021201D02F026
:1055B0001FF903E00098002102F012FA054685B1B8
:1055C0002E462088800429D5206EB0F5403F23D098
:1055D00010DC08B3B0F5803F14D0B0F5003F0FD118
:1055E00015E0E26DD9F8001021F4E0411143C9F84B
:1055F0000010E6E7B0F5802F0ED0B0F5A02F0BD04D
:1056000001250AE00121201D02F0F2F803E00098D4
:10561000012102F0E5F905468DB12E4620884004AF
:105620002AD5D4F8AC00B0F1405F23D010DC08B329
:10563000B0F1805F14D0B0F1005F0FD115E0226EA1
:10564000D9F8001021F4E0211143C9F80010E5E772
:10565000B0F1804F0ED0B0F1A04F0BD001250AE081
:105660000121201D02F0C4F803E00098012102F09E
:10567000B7F905466DB12E46208800041FD5E06EAF
:10568000D8B1B0F1805F0ED0B0F1005F10D001252D
:1056900014E0D4F8AC20D8F8001021F0E041114318
:1056A000C8F80010E8E7386840F40030386004E0DB
:1056B0000121201D02F09CF805466DB12E462068A0
:1056C000C0011ED5606CD0B101280ED0022811D0C7
:1056D000032814D0012513E0E26ED9F8001021F060
:1056E00040511143C9F80010E9E7386840F4003030
:1056F000386004E00221201D02F07AF80546ADB3BF
:105700002E462068DFF85CB04002ABF11C0B7DD563
:10571000D4F8B000B0F5807F79D0B0F5007F76D0B6
:10572000B0F50C5F73D0B0F54C5F70D0B0F5864F1C
:105730006DD0B0F5A64F6AD0B0F5C64F67D0B0F5C2
:10574000E64F64D0B0F5034F61D0B0F5134F5ED093
:10575000B0F5234F5BD0B0F5334F58D0B0F5434F81
:1057600055D004E02C44025850440258A9E0B0F54A
:10577000534F4CD0B0F5634F49D0B0F5734F46D07E
:10578000F749884243D0F749884240D0F6498842D9
:105790003DD0F64988423AD0F549884237D0F5499C
:1057A000884234D0F449884231D0F44988427FD0CD
:1057B000F34988427CD0F349884279D0F249884243
:1057C00076D0F249884273D0F149884270D0F149CD
:1057D00088426DD0F04988426AD0F049884267D04B
:1057E000EF49884264D0EF49884261D0EE4988424F
:1057F0005ED0EE4988425BD0ED49884258D0ED49F1
:10580000884255D0EC49884252D001E0A0E04FE0F8
:10581000EA4988424CD0EA49884249D0E94988425D
:1058200046D0E949884243D0E849884240D0E84917
:1058300088423DD0E74988423AD0E749884237D08C
:10584000E649884234D0E649884231D0E549884269
:105850002ED0E54988422BD0E449884228D0E4493B
:10586000884225D0E349884222D0E34988421FD0AC
:10587000E24988421CD0E249884219D0E149884275
:1058800016D0E149884213D0E049884210D0E0495F
:1058900088420DD0DF4988420AD0DF49884207D0CC
:1058A000DE49884204D0DEA040F27F3102F00FFFD3
:1058B000EA48016841F480710160FFF79FF8824671
:1058C0000EE0E748626C016821F0030111430160BA
:1058D00017E700BFFFF792F8A0EB0A00642835D85D
:1058E000DE480068C005F5D58DBBDFF874A3B4F8B9
:1058F000B0100AF1240ADAF8000001F4407100F453
:105900004070884211D0DAF80010DAF8002021F453
:10591000407142F48032CAF80020DAF8002022F404
:105920008032CAF80020CAF80010D4F8B000B0F5F0
:10593000807F22D1FFF762F801901AE0FFF75EF84E
:105940000199411A41F28830814212D903252E462D
:105950002078DFF80CA3C0070AF1080A3DD0A06F39
:10596000182838D026DC80B3082829D0102825D163
:105970002CE0DAF800008007E0D5D4F8B010C1F3CD
:105980000120032858460DD0016821F47C510160A4
:10599000B4F8B020DAF80010C2F30B021143CAF8D1
:1059A0000010D5E7AF4A036802EA111223F47C51D4
:1059B0001143ECE720280ED028280CD001250BE05D
:1059C0000121201D01F014FF04E004E000980121F2
:1059D00002F006F805465DB12E46207880071ED5F8
:1059E000606F062819D2DFE800F0160C11161616A3
:1059F000A26FDAF8001021F038011143CAF8001044
:105A0000EBE70121201D01F0F3FE03E000980121E6
:105A100001F0E6FF054675B100E001252E4620782D
:105A200040071FD5D4F89000062819D2DFE800F00F
:105A3000160C11161616626FDAF8001021F0070125
:105A40001143CAF80010EAE70121201D01F0D0FE41
:105A500003E00098012101F0C3FF05469DB100E07D
:105A600001252E46207880062BD5D4F88C00B0F185
:105A7000405F24D011DC10B3B0F1805F15D0B0F1DD
:105A8000005F10D116E0D4F89020D8F8001021F073
:105A900007011143C8F80010E4E7B0F1804F0ED0C1
:105AA000B0F1A04F0BD001250AE00021201D01F02C
:105AB0009FFE03E00098022101F092FF05468DB1A0
:105AC0002E46207840062BD5D4F89800B0F5406FCC
:105AD00024D011DC10B3B0F5806F15D0B0F5006F95
