:020000040800F2
:1000000050110024390300085F47000843450008E9
:100010005D4700082F050008D95C000800000000BB
:100020000000000000000000000000004D4B000830
:100030003105000800000000614700084F4B000830
:100040005303000853030008530300085303000838
:100050005303000853030008530300085303000828
:100060005303000853030008530300085303000818
:100070005303000853030008530300085303000808
:1000800053030008530300085303000853030008F8
:1000900053030008530300085303000853030008E8
:1000A00053030008530300085303000853030008D8
:1000B00053030008530300085303000853030008C8
:1000C00053030008530300085303000853030008B8
:1000D00053030008CD5C00085303000853030008D5
:1000E00053030008530300080000000053030008F6
:1000F0005303000853030008530300085303000888
:100100005303000853030008530300085303000877
:100110005303000853030008530300085303000867
:100120005303000853030008530300085303000857
:100130005303000853030008530300085303000847
:1001400000000000000000000000000000000000AF
:100150005303000853030008530300085303000827
:100160005303000853030008530300085303000817
:100170005303000853030008530300085303000807
:1001800053030008530300085303000853030008F7
:1001900053030008530300085303000853030008E7
:1001A00053030008530300085303000853030008D7
:1001B00053030008530300085303000853030008C7
:1001C00053030008530300085303000853030008B7
:1001D00053030008530300085303000853030008A7
:1001E0005303000853030008530300085303000897
:1001F0005303000853030008530300085303000887
:100200005303000853030008530300085303000876
:100210005303000853030008530300085303000866
:1002200053030008530300085303000800000000B4
:1002300053030008530300080000000053030008A4
:100240005303000853030008530300085303000836
:100250005303000853030008530300085303000826
:100260005303000853030008530300085303000816
:100270005303000853030008530300080000000064
:100280005303000853030008530300080000000054
:10029000000000005303000800F002F800F03CF8F2
:1002A0000AA090E8000C82448344AAF10107DA45D1
:1002B00001D100F031F8AFF2090EBAE80F0013F0E7
:1002C000010F18BFFB1A43F001031847545B0000ED
:1002D000745B0000103A24BF78C878C1FAD852077E
:1002E00024BF30C830C144BF04680C6070470000B0
:1002F0000023002400250026103A28BF78C1FBD82F
:10030000520728BF30C148BF0B6070471FB505F0CA
:1003100065FD1FBD10B510BD00F0CFF81146FFF709
:10032000F5FF05F0EDFC00F0EDF803B4FFF7F2FF88
:1003300003BC00F0F5F80000094880470948004771
:10034000FEE7FEE7FEE7FEE7FEE7FEE7FEE7FEE785
:10035000FEE7FEE704480549054A064B70470000E2
:10036000F94B0008990200085001002450110024A4
:10037000500900245009002453EA020C00F069805F
:100380002DE9F04B4FF00006002B1FBFB3FA83F5A9
:1003900003FA05F424FA05F65E4012BF1643B2FADA
:1003A00082F502FA05F4C5F120051EBF22FA05FC0C
:1003B00044EA0C04203556EA044C4FEA144418BFB2
:1003C000641C4FF000084FF00009904271EB030CE1
:1003D00039D3002919BFB1FA81F701FA07F6B0FA4B
:1003E00080F700FA07F6C7F120071EBF20FA07FCC6
:1003F00046EA0C062037B6FBF4FCA7EB0507103FD6
:1004000007F01F0BCBF120060CFA0BFB2CFA06F6BB
:1004100044BFB3460026202FA4BF5E464FF0000B1A
:100420005BEA060C08BF4FF0010B19EB0B09ABFBA5
:10043000027C48EB0608C01B06FB02CC0BFB03CC7E
:1004400071EB0C01C1E70B46024641464846BDE848
:10045000F08B13B54FF000004FF00001AFF30080B8
:10046000BDE81C4070474FF0000200B513469446AB
:100470009646203922BFA0E80C50A0E80C50B1F1FC
:100480002001BFF4F7AF090728BFA0E80C5048BF10
:100490000CC05DF804EB890028BF40F8042B08BFAE
:1004A000704748BF20F8022B11F0804F18BF00F8AA
:1004B000012B7047704770477047754600F02CF865
:1004C000AE4605006946534620F00700854618B041
:1004D00020B5FFF73FFFBDE820404FF000064FF08A
:1004E00000074FF000084FF0000B21F00701AC4669
:1004F000ACE8C009ACE8C009ACE8C009ACE8C00988
:100500008D46704710B50446AFF300802046BDE825
:100510001040FFF70ABF000000487047F0000024B9
:1005200001491820ABBEFEE7260002007047FEE737
:10053000704772B6FEE700002DE9F84F044600F060
:10054000E5FC002C009008D094F83500022805D076
:1005500080216165002084F83400E3E0C84DC84E76
:10056000C749183520683036DFF81883DFF818934C
:100570008842DFF818A3DFF818B32ED0A8422CD099
:10058000B0422AD0404528D0484526D0504524D0F6
:10059000584522D0BE4A183290421ED0BD4A9042E1
:1005A0001BD0BC4A1832904217D0BA4A303290421F
:1005B00013D0B84A483290420FD0B64A60329042C7
:1005C0000BD0B44A7832904207D0B24A903290426F
:1005D00003D0B04AA832904209D1026822F01E022C
:1005E00002602068426922F08002426103E00268F2
:1005F00022F00E02026027688F4238464DD0A84292
:100600004BD0B04249D0404547D0484545D05045F1
:1006100043D0584541D09E4A183290423DD09D4A21
:1006200090423AD09B4A1832904236D0994A3032A2
:10063000904232D0974A483290422ED0954A60324A
:1006400090422AD0934A7832904226D0914A9032F2
:10065000904222D08F4AA83290421ED08E4A9042B9
:100660001BD08D4A1432904217D08B4A28329042C8
:1006700013D0894A3C3290420FD0874A5032904280
:100680000BD0854A6432904207D0834A7832904238
:1006900003D0814A8C32974204D1206E026822F442
:1006A0008072026076492068884228D0A84226D00D
:1006B000B04224D0404522D0484520D050451ED0DD
:1006C00058451CD072491831884218D07149884267
:1006D00015D070491831884211D06E4930318842A6
:1006E0000DD06C494831884209D06A49603188424E
:1006F00005D068497831884201D066499031016857
:1007000021F00101016010E000F000FC0099401AA6
:1007100005280AD9202262650020032184F83400CC
:1007200084F835100120BDE8F88F3868C007EBD198
:10073000534A0121206890422ED0A8422CD0B042CA
:100740002AD0404528D0484526D0504524D0584589
:1007500022D04F4B183398421ED04E4B98421BD09C
:100760004C4B1833984217D04A4B3033984213D031
:10077000484B483398420FD0464B603398420BD0D9
:10078000444B7833984207D0424B9033984203D081
:10079000404BA833984208D194F85C703F23A06D79
:1007A00007F01F07BB40836007E094F85C30A06D42
:1007B00003F01F0301FA03F34360206890424DD019
:1007C000A8424BD0B04249D0404547D0484545D0DB
:1007D000504543D0584541D02D4A183290423DD023
:1007E0002C4A90423AD02B4A1832904236D0294AAD
:1007F0003032904232D0274A483290422ED0254A99
:10080000603290422AD0234A7832904226D0214A40
:100810009032904222D01F4AA83290421ED01E4AE7
:1008200090421BD01C4A1432904217D01A4A2832E8
:10083000904213D0184A3C3290420FD0164A5032A0
:1008400090420BD0144A6432904207D0124A783258
:10085000904203D0104A8C3290420BD1D4E9190255
:100860004260E06E30B1026822F480720260D4E926
:100870001C024260002084F8340084F8351052E7EE
:100880001000024058000240700002408800024000
:10089000A000024010040240085402582DE9F05F05
:1008A00028B190F83510022904D08021416501203B
:1008B000BDE8F09F904C904B0168183C18338E4A6D
:1008C000DFF83C92A1428D4CDFF838E28E4FDFF822
:1008D0003CB2DFF83CA28F4D8F4E31D091422FD0E9
:1008E00099422DD0A1422BD0494529D0714527D01E
:1008F000B94225D0DFF810C20CF1180C61451FD0A9
:10090000DFF808C2ACF1600C614519D0DFF8FCC11A
:10091000ACF1480C614513D0DFF8F0C1ACF1300CFC
:1009200061450DD0DFF8E4C1ACF1180C614507D08A
:10093000594505D0514503D0A94201D0B1422CD12F
:10094000DFF8B4C14FF0040880F83580ACF1180C22
:1009500061451DD091421BD0994219D0A14217D0B8
:10096000494515D0714513D0B94211D066481830A9
:1009700081420DD065486038814209D063484838CB
:10098000814205D061483038814201D05F48183833
:10099000086820F001000860ABE0D1F800C02CF03E
:1009A0000E08DFF854C1C1F80080ACF1180C0168E2
:1009B000614527D0914225D0994223D0A14221D030
:1009C00049451FD071451DD0B9421BD0DFF838C151
:1009D0000CF1180C614515D0DFF830C1ACF1600C9A
:1009E00061450FD0DFF824C1ACF1480C614509D056
:1009F000DFF818C1ACF1300C614503D0DFF80CC151
:100A0000ACF1180CD1F800C02CF0010CC1F800C0FA
:100A1000DFF8E4804FF0010C0168A8F118084145A7
:100A200046D0914244D0994242D0A14240D049455B
:100A30003ED071453CD0B9423AD0334A1832914247
:100A400036D0324A603A914232D0304A483A9142E6
:100A50002ED02E4A303A91422AD02C4A183A91424E
:100A600026D0594524D0514522D0A94220D0B142A8
:100A70001ED02A4A91421BD0284A1432914217D0E4
:100A8000264A2832914213D0244A3C3291420FD058
:100A9000224A503291420BD0204A6432914207D010
:100AA0001E4A7832914203D01C4A8C32914218D1AE
:100AB000016E0A6822F480720A6090F85C20816DF1
:100AC00002F01F020CFA02F24A60D0E919124A60E1
:100AD000C16E31B10A6822F480720A60D0E91C123A
:100AE0004A600022016D80F8342080F835C001B1E1
:100AF00088470020DCE60000280002405800024041
:100B00007000024088000240A000024070040240D1
:100B100088040240A0040240B8040240085402586D
:100B200070B5044600F0F2F90546601C02D0044896
:100B30000078044400F0EAF9401BA042FAD370BDEB
:100B4000000000242DE9FC5FDFF8C0920027DFF8E9
:100B5000C0820D46DFF8BCA24845DFF8BCB20446AF
:100B60001FD054451DD05C451BD0AC48844218D0E2
:100B7000AB48844215D0AB48844212D0AA48844284
:100B80000FD0AA4884420CD0A948844209D0A94871
:100B9000844206D0A848844203D0BB21A7A005F018
:100BA000ADF828680104090C01D0000C03D0BC2169
:100BB000A2A005F0A3F86868F8B101281DD011289B
:100BC0001BD0022819D0122817D0AB49884214D064
:100BD000AA49884211D0AA4988420ED0A949884220
:100BE0000BD0A949884208D0A849884205D00328DB
:100BF00003D0BD2191A005F081F8A868002807D096
:100C00000128FCD00228FAD0BE218CA005F076F88D
:100C1000F4E00120B840064000907DD068680128CB
:100C200005D0022803D0112801D012281DD1E86870
:100C300048B1012807D0022805D0032803D0CE21CF
:100C40007EA005F05BF8A16803237A00E868934072
:100C5000904099430843A06060682979009AC1F3E5
:100C600000119043B94001436160E16803207B00BB
:100C70000193AA689840814300909A400A43E26039
:100C80006868022801D0122839D14C451FD054453C
:100C90001DD05C451BD06148844218D06048844216
:100CA00015D06048844212D05F4884420FD05F481C
:100CB00084420CD05E48844209D05E48844206D00B
:100CC0005D48844203D0E6215CA005F017F828694E
:100CD0000F2803D9E72159A005F010F8F808296971
:100CE0000F2304EB80024FEA477C106A4FEADC6C6A
:100CF00003FA0CF3984301FA0CF1014311622879CD
:100D00002168009A00F003009143019A9040084343
:100D100020606868C00000E06FE06ED55C48016844
:100D200041F002010160006827F0030202F1B042C5
:100D300000F002000090B8070F21030FD2F808045A
:100D400099404C4520EA010001D100212BE0544597
:100D500001D1012127E05C4501D1022123E02F4987
:100D60008C4201D103211EE02D498C4201D1042186
:100D700019E02C498C4201D1052114E02A498C420A
:100D800001D106210FE029498C4201D107210AE057
:100D900027498C4201D1082105E026498C4201D126
:100DA000092100E00A2199400143C2F80814D8F84B
:100DB0000000696820EA0600C90300D53043C8F87E
:100DC0000000D8F80400696820EA0600890300D50D
:100DD0003043C8F804004FF0B0406A680168D2029E
:100DE00021EA060100D5314301606A684168920238
:100DF00021EA060100D5314341607F1C2E6836FA96
:100E000007F07FF406AFBDE8FC9F00000000025829
:100E1000800000580004025800080258000C0258D4
:100E2000001002580014025800180258001C025802
:100E30000020025800240258002802582E2E2F4469
:100E40007269766572732F53544D33324837787810
:100E50005F48414C5F4472697665722F5372632F0D
:100E600073746D3332683778785F68616C5F677070
:100E7000696F2E63000000000000111100002111B5
:100E80000000311100001211000022110000321187
:100E9000F444025870B50C001546064604D109A06A
:100EA00040F2AD1104F02AFF45B1012D04D005A098
:100EB0004FF4D77104F022FFB46170BD2004B0611B
:100EC00070BD00002E2E2F447269766572732F5309
:100ED000544D3332483778785F48414C5F447269EB
:100EE0007665722F5372632F73746D33326837785F
:100EF000785F68616C5F6770696F2E630000000047
:100F000001480068000C70470010005C01488068D0
:100F100070470000000000240248816802781144F4
:100F20008160704700000024032010B500F0DAF85B
:100F300001F08EFB0F4A104914681368C4F30322B2
:100F400003F00F038A5CC95C02F01F0201F01F016D
:100F5000D0400A4A20FA01F11160094908600020D6
:100F600000F010F808B1012010BD00F02BF80020AF
:100F700010BD0000184402580E5E00081000002446
:100F80000C00002470B50D4D04462878A0B14FF434
:100F90007A71B1FBF0F00A490968B1FBF0F001F099
:100FA00075FF48B9102C07D200222146501E00F0D0
:100FB0004BF800206C6070BD012070BD0000002463
:100FC0000C000024064882B0016841F00201016073
:100FD000006800F002000090052002B000F082B826
:100FE000F444025810B5040003D5BE2107A004F054
:100FF00085FE002C09DB60090121800004F01F023E
:1010000000F1E0209140C0F8001110BD2E2E2F44B9
:101010007269766572732F53544D3332483778783E
:101020005F48414C5F4472697665722F5372632F3B
:1010300073746D3332683778785F68616C5F636FA3
:10104000727465782E63000070B5102A14460D4640
:10105000064603D3AA2113A004F050FE102D03D39B
:10106000AB2110A004F04AFE1D480068C0F3022323
:10107000C3F10702042A00D90422181D072801D24F
:10108000002300E0DB1E012101FA02F09940401E1E
:101090002840491E9840214001433046BDE8704039
:1010A00004F01BBE2E2E2F447269766572732F5387
:1010B000544D3332483778785F48414C5F44726909
:1010C0007665722F5372632F73746D33326837787D
:1010D000785F68616C5F636F727465782E6300007F
:1010E0000CED00E070B5072804460BD0062C09D0A3
:1010F000052C07D0042C05D0032C03D0922108A086
:1011000004F0FCFD154904F007024FF6FF050868DE
:10111000134B284040EA02201843086070BD0000CD
:101120002E2E2F447269766572732F53544D3332CD
:10113000483778785F48414C5F4472697665722F12
:101140005372632F73746D3332683778785F6861D8
:101150006C5F636F727465782E6300000CED00E0C5
:101160000000FA0570B50228044606D0012C04D010
:1011700015A040F23F1104F0C1FD22480168C943A7
:10118000490705D5006800F00700A04213D118E018
:10119000016821F0070121430160FFF7B7FE194DF7
:1011A0004FF47A760446083D07E000BFFFF7AEFE35
:1011B000001BB04201D9012070BD2868C0438004E3
:1011C000F4D4002070BD00002E2E2F447269766585
:1011D00072732F53544D3332483778785F48414CFF
:1011E0005F4472697665722F5372632F73746D3327
:1011F00032683778785F68616C5F7077725F6578A6
:101200002E6300000C48025810B501F0DBF90549C7
:101210000968054AC1F30211515C01F01F01C84081
:1012200010BD0000204402580E5E0008494930B548
:10123000484C0B1D0A68143409681D68246802F0C4
:101240000303C5F30012C1F30531C4F3CC04002934
:1012500014FB02F200EE102AF8EE400A75D03F4A65
:101260009FED3D1AB7EE000A6BB1DFED3D1A012B81
:1012700001D0022B64D002EE101A1168F8EE422A57
:1012800081EEA22A21E0334C283C23689B0612D52C
:10129000344B246801EE901A1168C4F3C104F8EECF
:1012A000612AE34001EE903AC1F30801F8EE611AB9
:1012B00081EEA22A0BE001EE901ADFED2B2A00BF8F
:1012C000F8EE611A116882EEA12AC1F3080101EE5D
:1012D000901A1168F8EE611A40EE811A71EE800AD8
:1012E00062EE200AC1F3462101EE101AB8EE411A4F
:1012F00031EE001AC0EE811ABCEEE11A80ED001A40
:101300001168C1F3064101EE101AB8EE411A31EE30
:10131000001AC0EE811ABCEEE11A80ED011A1168C4
:10132000C1F3066101EE101AB8EE411A31EE000A5F
:1013300080EE801ABCEEC10A80ED020A30BD04E0E6
:1013400001EE901ADFED092ABAE700210160416041
:101350008160F3E7284402580000003938440258FD
:101360000024744A0090D0030024744C001B374BB7
:10137000494930B5484C0B1D0A681C3409681D6882
:10138000246802F00303C5F30022C1F30551C4F33E
:10139000CC04002914FB02F200EE102AF8EE400AF9
:1013A00075D03F4A9FED3D1AB7EE000A6BB1DFEDF5
:1013B0003D1A012B01D0022B64D002EE101A1168E5
:1013C000F8EE422A81EEA22A21E0334C283C236821
:1013D0009B0612D5344B246801EE901A1168C4F3B1
:1013E000C104F8EE612AE34001EE903AC1F308012E
:1013F000F8EE611A81EEA22A0BE001EE901ADFED01
:101400002B2A00BFF8EE611A116882EEA12AC1F3FF
:10141000080101EE901A1168F8EE611A40EE811A87
:1014200071EE800A62EE200AC1F3462101EE101A25
:10143000B8EE411A31EE001AC0EE811ABCEEE11A84
:1014400080ED001A1168C1F3064101EE101AB8EEE2
:10145000411A31EE001AC0EE811ABCEEE11A80ED9D
:10146000011A1168C1F3066101EE101AB8EE411AB3
:1014700031EE000A80EE801ABCEEC10A80ED020A4D
:1014800030BD04E001EE901ADFED092ABAE7002131
:10149000016041608160F3E7284402580000003990
:1014A000404402580024744A0090D0030024744C35
:1014B000001B374B2DE9FC5F044650F8241B002528
:1014C00000902E460801FE4FDFF8F8931DD5606EA0
:1014D00050B1B0F5801F0CD0B0F5001F0ED0B0F5A4
:1014E000401F1DD001250FE0386840F400303860FF
:1014F00016E00221201D03F035F903E000980221D7
:1015000003F028FA05000BD02E462088C00523D50D
:10151000606D05281ED2DFE800F00C11161B1B00C1
:10152000626ED9F8001021F440111143C9F800107F
:10153000EBE7386840F40030386009E00021201DF6
:1015400003F010F903E00098002103F003FA0546C8
:101550006DB100E001252E462088800528D5A06DBC
:1015600080281ED00CDC90B140280ED114E0626DB2
:10157000D9F8001021F007011143C9F80010EBE77A
:10158000C02813D0B0F5807F10D001250FE0386857
:1015900040F40030386009E00021201D03F0E2F83B
:1015A00003E00098002103F0D5F9054695B12E46D9
:1015B0002088DFF81083400508F108082CD5D4F8FE
:1015C000A400B0F5800F20D00DDCA0B1B0F5001F55
:1015D0000FD115E0A26DD9F8001021F4E07111438C
:1015E000C9F80010E4E7B0F5C00F13D0B0F5000F54
:1015F00010D001250FE0386840F40030386009E071
:101600000021201D03F0AEF803E00098002103F054
:10161000A1F9054675B12E46208800052DD5D4F8D0
:10162000A800B0F1007F21D00EDCA8B1B0F1807F1E
:1016300010D116E0D4F8A420D8F8001021F46001ED
:101640001143C8F80010E7E7B0F1407F13D0B0F1C4
:10165000806F10D001250FE0386840F4003038600A
:1016600009E00021201D03F07DF803E0009800212F
:1016700003F070F905466DB12E46206880011FD534
:10168000A06CD8B110280FD0202812D0302815D047
:10169000012514E0D4F8A820D8F8001021F0E0616A
:1016A0001143C8F80010E8E7386840F400303860AB
:1016B00004E00221201D03F055F805466DB12E46C9
:1016C0002088C0042BD5E06DB0F5005F20D00DDC84
:1016D000A0B1B0F5805F0FD115E07A48A26C001F71
:1016E000016821F0300111430160E9E7B0F5405F86
:1016F00013D0B0F5804F10D001250FE0386840F4CA
:101700000030386009E00021201D03F02BF803E0D1
:101710000098002103F01EF9054685B12E46208869
:10172000800429D5206EB0F5403F23D010DC08B3EB
:10173000B0F5803F14D0B0F5003F0FD115E0E26D59
:10174000D9F8001021F4E0411143C9F80010E6E790
:10175000B0F5802F0ED0B0F5A02F0BD001250AE0F8
:101760000121201D02F0FEFF03E00098012103F09B
:10177000F1F805468DB12E46208840042AD5D4F8CC
:10178000AC00B0F1405F23D010DC08B3B0F1805F53
:1017900014D0B0F1005F0FD115E0226ED9F800101F
:1017A00021F4E0211143C9F80010E5E7B0F1804FC2
:1017B0000ED0B0F1A04F0BD001250AE00121201D71
:1017C00002F0D0FF03E00098012103F0C3F80546C2
:1017D0006DB12E46208800041FD5E06ED8B1B0F15F
:1017E000805F0ED0B0F1005F10D0012514E0D4F876
:1017F000AC20D8F8001021F0E0411143C8F80010E7
:10180000E8E7386840F40030386004E00121201D2A
:1018100002F0A8FF05466DB12E462068C0011ED516
:10182000606CD0B101280ED0022811D0032814D04A
:10183000012513E0E26ED9F8001021F04051114368
:10184000C9F80010E9E7386840F40030386004E077
:101850000221201D02F086FF0546ADB32E4620680A
:10186000DFF85CB04002ABF11C0B7DD5D4F8B000C2
:10187000B0F5807F79D0B0F5007F76D0B0F50C5F01
:1018800073D0B0F54C5F70D0B0F5864F6DD0B0F529
:10189000A64F6AD0B0F5C64F67D0B0F5E64F64D01A
:1018A000B0F5034F61D0B0F5134F5ED0B0F5234FC4
:1018B0005BD0B0F5334F58D0B0F5434F55D004E06E
:1018C0002C44025850440258A9E0B0F5534F4CD074
:1018D000B0F5634F49D0B0F5734F46D0F749884211
:1018E00043D0F749884240D0F64988423DD0F64976
:1018F00088423AD0F549884237D0F549884234D0F9
:10190000F449884231D0F44988427FD0F349884273
:101910007CD0F349884279D0F249884276D0F249A6
:10192000884273D0F149884270D0F14988426DD025
:10193000F04988426AD0F049884267D0EF4988422E
:1019400064D0EF49884261D0EE4988425ED0EE49CA
:1019500088425BD0ED49884258D0ED49884255D045
:10196000EC49884252D001E0A0E04FE0EA498842C9
:101970004CD0EA49884249D0E949884246D0E949F1
:10198000884243D0E849884240D0E84988423DD067
:10199000E74988423AD0E749884237D0E649884249
:1019A00034D0E649884231D0E54988422ED0E54915
:1019B00088422BD0E449884228D0E449884225D087
:1019C000E349884222D0E34988421FD0E249884255
:1019D0001CD0E249884219D0E149884216D0E14939
:1019E000884213D0E049884210D0E04988420DD0A7
:1019F000DF4988420AD0DF49884207D0DE49884261
:101A000004D0DEA040F27F3104F078F9EA480168A2
:101A100041F480710160FFF779FA82460EE0E748F1
:101A2000626C016821F003011143016017E700BFF8
:101A3000FFF76CFAA0EB0A00642835D8DE4800688E
:101A4000C005F5D58DBBDFF874A3B4F8B0100AF16A
:101A5000240ADAF8000001F4407100F44070884272
:101A600011D0DAF80010DAF8002021F4407142F4C5
:101A70008032CAF80020DAF8002022F48032CAF856
:101A80000020CAF80010D4F8B000B0F5807F22D151
:101A9000FFF73CFA01901AE0FFF738FA0199411A72
:101AA00041F28830814212D903252E462078DFF892
:101AB0000CA3C0070AF1080A3DD0A06F182838D03F
:101AC00026DC80B3082829D0102825D12CE0DAF8AC
:101AD00000008007E0D5D4F8B010C1F3012003283E
:101AE00058460DD0016821F47C510160B4F8B02053
:101AF000DAF80010C2F30B021143CAF80010D5E760
:101B0000AF4A036802EA111223F47C511143ECE757
:101B100020280ED028280CD001250BE00121201D03
:101B200002F020FE04E004E00098012102F012FF20
:101B300005465DB12E46207880071ED5606F0628C9
:101B400019D2DFE800F0160C11161616A26FDAF89B
:101B5000001021F038011143CAF80010EBE7012111
:101B6000201D02F0FFFD03E00098012102F0F2FECB
:101B7000054675B100E001252E46207840071FD5A7
:101B8000D4F89000062819D2DFE800F0160C1116E0
:101B90001616626FDAF8001021F007011143CAF837
:101BA0000010EAE70121201D02F0DCFD03E00098AF
:101BB000012102F0CFFE05469DB100E001252E4631
:101BC000207880062BD5D4F88C00B0F1405F24D06B
:101BD00011DC10B3B0F1805F15D0B0F1005F10D10F
:101BE00016E0D4F89020D8F8001021F00701114336
:101BF000C8F80010E4E7B0F1804F0ED0B0F1A04F6C
:101C00000BD001250AE00021201D02F0ABFD03E00E
:101C10000098022102F09EFE05468DB12E462078E6
:101C200040062BD5D4F89800B0F5406F24D011DCD5
:101C300010B3B0F5806F15D0B0F5006F10D116E07D
:101C4000D4F88C20DAF8001021F0E0411143CAF8F2
:101C50000010E4E7B0F5805F0ED0B0F5A05F0BD0C8
:101C600001250AE00021201D02F07CFD03E0009820
:101C7000022102F06FFE05468DB12E462078000647
:101C800018D5D4F89C00B0F5C04F12D013DC80B149
:101C9000B0F5005F10D0B0F5804F0ED19FE0D4F8C2
:101CA0009820D8F8001021F4E0511143C8F8001032
:101CB000E4E799E09AE085E08CE089E00003010028
:101CC0000013010000230100003301000043010064
:101CD0000053010000630100007301000083010054
:101CE0000093010000A3010000B3010000C3010044
:101CF00000D3010000E3010000F301000003020033
:101D0000001302000023020000330200004302001F
:101D1000005302000063020000730200008302000F
:101D20000093020000A3020000B3020000C30200FF
:101D300000D3020000E3020000F3020000030300EE
:101D400000130300002303000033030000430300DB
:101D500000530300006303000073030000830300CB
:101D60000093030000A3030000B3030000C30300BB
:101D700000D3030000E3030000F303002E2E2F44E2
:101D80007269766572732F53544D333248377878C1
:101D90005F48414C5F4472697665722F5372632FBE
:101DA00073746D3332683778785F68616C5F726323
:101DB000635F65782E630000004802584C44025867
:101DC000CFFFFF00B0F5004F0ED0B0F5204F0BD085
:101DD00001250AE00021201D02F0C4FC03E0009868
:101DE000022102F0B7FD0546DDB12E46207800073E
:101DF00030D5D4F88000B0F5805F1CD0B0F5005F1E
:101E00001FD0F0B1B0F5405F1BD040F20F51AFF2E0
:101E1000940003F073FFD4F88000B0F5805F0AD01F
:101E20000FE0D4F89C20D8F8001021F46041114351
:101E3000C8F80010DAE70098022102F08BFD00B12B
:101E40000126D4F88020DAF8001021F44051114323
:101E5000CAF800102078C00625D5D4F89400B0F553
:101E6000807F11D0B0F5007F14D098B1B0F5405FFD
:101E700010D040F22251AFF2FC0003F03FFFD4F843
:101E80009400B0F5807F05D10098022102F062FD38
:101E900000B10126D4F89420D8F8001021F4407144
:101EA0001143C8F800102068000316D5D4F8A0002C
:101EB00038B1B0F5803F09D0B0F5003F0BD0012517
:101EC0000AE00021201D02F04DFC03E000980221F1
:101ED00002F040FD054685B12E462068400322D51C
:101EE000D4F88400B0F5801F11D0B0F5001F13D0D6
:101EF000B0F5401F15D0012514E0D4F8A020D8F883
:101F0000001021F440311143C8F80010E5E73868AB
:101F100040F40030386004E00098012102F01AFD1E
:101F20000546ADB12E462068C00327D5E06C40B110
:101F3000B0F5803F05D04FF4B161AFF2C01003F0AF
:101F4000DDFEE06C70B1B0F5803F10D0012514E0EB
:101F5000D4F88420DAF8001021F440111143CAF8B3
:101F60000010E0E7386840F40030386004E00221F7
:101F7000201D02F0F7FB0546CDB12E4620688000FB
:101F800005D50098022102F0E5FC00B10126206889
:101F900080031AD5E06FB0B1B0F5807F0FD0B0F5F7
:101FA000007F10D0B0F5407F0DD001250CE05948DE
:101FB000E26C016821F4803111430160DEE738688A
:101FC00040F400303860EDB32E462068C00212D5D0
:101FD000206F40B1B0F1004F05D040F2E751AFF2B1
:101FE000642003F08BFE226FD9F8001021F000412D
:101FF0001143C9F800102068C00014D5D4F8B4000B
:1020000040B1B0F5804F05D040F2F151AFF29420CD
:1020100003F074FED4F8B420DBF8001021F4804102
:102020001143CBF800102068800214D5A06E40B197
:10203000B0F1807F05D040F2FB51AFF2C02003F039
:102040005DFE00E05AE0A26ED9F8001021F0807128
:102050001143C9F800102068400018D5D4F8B80022
:1020600040B1B0F5004F05D040F21161AFF2F4205D
:1020700003F044FEDBF8001021F40041CBF800101F
:10208000DBF80010D4F8B8201143CBF8001020681A
:10209000002814DA206D58B1B0F1805F08D0B0F19B
:1020A000005F05D040F21B61AFF2303003F026FE36
:1020B0001848226D016821F04051114301602068E9
:1020C000000217D5D4F8880058B1B0F5800F08D0B9
:1020D000B0F5000F05D040F22561AFF2603003F09B
:1020E0000DFED4F88820DAF8001021F440011143E5
:1020F000CAF800105EB10120BDE8FC9FE26FDAF87B
:10210000001021F440711143CAF800105DE700206F
:10211000F2E700004C4402582DE9F05F04000D4640
:102120007ED02068401E3E2804D9FFA040F28631B0
:1021300003F0E4FD15B3012D20D0022D1ED0032D98
:102140001CD0042D1AD0052D18D0062D16D0072D21
:1021500014D0082D12D0092D10D00A2D0ED00B2D21
:102160000CD00C2D0AD00D2D08D00E2D06D00F2D21
:1021700004D0EDA040F2873103F0C0FDDFF8E0832A
:10218000D8F8000000F00F00A8420CD2D8F80010D8
:1021900021F00F012943C8F80010D8F8000000F022
:1021A0000F00A8423CD12078EE4E400719D5206997
:1021B000316801F07001884213D960B140280AD01B
:1021C000502808D0602806D0702804D0D6A040F24D
:1021D000A33103F093FD2169306820F070000843BB
:1021E00030602078DF4F3F1D00071BD560693968DC
:1021F00001F07001884215D960B140280AD05028FA
:1022000008D0602806D0702804D0C7A040F2B531AD
:1022100003F074FD6169386820F07000084300E045
:102220000DE138602078C0061DD5A069396801F439
:10223000E061884217D980B1B0F5806F0DD0B0F55C
:10224000A06F0AD0B0F5C06F07D0B0F5E06F04D032
:10225000B5A040F2C63103F051FDA169386820F401
:10226000E060084338602078DFF8F8A280060AF1C1
:10227000080A1CD5E069DAF8001001F07001884204
:1022800015D960B140280AD0502808D0602806D05F
:10229000702804D04FF47671A3A003F02FFDE269FB
:1022A000DAF8001021F070011143CAF8001020780C
:1022B000800721D5E068316801F00F0188421BD901
:1022C000A0B1082812D0092810D00A280ED00B2857
:1022D0000CD00C280AD00D2808D00E2806D00F28C4
:1022E00004D091A040F2EB3103F008FDE1683068C2
:1022F00020F00F00084330602078C00769D0A06844
:10230000E0B1B0F5006F19D0B0F5106F16D0B0F590
:10231000206F13D0B0F5306F10D0B0F5406F0DD0F6
:10232000B0F5506F0AD0B0F5606F07D0B0F5706FA0
:1023300004D07DA040F2FB3103F0E0FC606801288E
:1023400009D040B1022806D0032804D04FF47F7191
:1023500075A003F0D3FC8349A2683068183920F4D3
:102360007060104330606068022816D0032817D0D0
:102370000968012817D04907002960DADFF8E4B1BD
:10238000ABF1080BDBF8002022F007020243CBF888
:102390000020FEF7BBFD814613E009688903EBE7E7
:1023A00009688901E8E7C905E6E700BFFEF7AEFD69
:1023B000A0EB090141F28830814202D90320BDE837
:1023C000F09F6168DBF8000000F03800B0EBC10F4F
:1023D000ECD12078800721D5E068316801F00F0149
:1023E00088421BD2A0B1082812D0092810D00A2890
:1023F0000ED00B280CD00C280AD00D2808D00E289F
:1024000006D00F2804D048A040F23D4103F076FCEE
:10241000E168306820F00F0008433060D8F8001001
:10242000404601F00F01A9420BD9016821F00F01CC
:1024300029430160006800F00F00A84201D001208C
:10244000BDE72078400719D52069316801F0700197
:10245000884213D260B140280AD0502808D06028A2
:1024600006D0702804D030A040F25E4103F046FC54
:102470002169306820F07000084330602078000740
:1024800019D56069396801F07001884213D260B1D2
:1024900040280AD0502808D0602806D0702804D0E0
:1024A0004FF48E6120A003F029FC6169386820F0A8
:1024B0007000084338602078C0061DD5A0693968CF
:1024C00001F4E061884217D280B1B0F5806F0DD081
:1024D000B0F5A06F0AD0B0F5C06F07D0B0F5E06FCF
:1024E00004D011A040F2824103F008FCA1693868D1
:1024F00020F4E06008433860207880063DD5E0692C
:102500005546DAF8001001F07001884235D258B310
:1025100040282CD050282AD0602828D0702826D0D7
:1025200001A040F2944120E02E2E2F44726976657E
:1025300072732F53544D3332483778785F48414C8B
:102540005F4472697665722F5372632F73746D33B3
:1025500032683778785F68616C5F7263632E6300FE
:10256000002000521844025801E003F0C7FBE16963
:10257000286820F070000843286000F069F80D49D1
:1025800033683268C3F3032302F00F02CB5C895C2B
:1025900003F01F0201F01F01D040074A20FA01F1A9
:1025A00011600649086006480068BDE8F05FFEF764
:1025B000E9BC00000E5E0008100000240C0000249E
:1025C0000400002430B500F043F80B4A0B490C4BD3
:1025D00015681468C5F3032204F00F048A5C095DD2
:1025E00002F01F0201F01F01D040064A20FA01F15B
:1025F00019601060084630BD184402580E5E00088D
:10260000100000240C00002400B5FFF7DBFF054993
:102610000968054AC1F30211515C01F01F01C8406D
:1026200000BD00001C4402580E5E000800B5FFF714
:10263000C9FF05490968054AC1F30221515C01F04F
:102640001F01C84000BD00001C4402580E5E000877
:10265000454970B545480968434B103B11F03802B5
:1026600008D00111082A03D0102A0BD0182A0BD049
:10267000084670BD19688906FBD51968C1F3C10108
:10268000C84070BD3A4870BD3749374D18310C1DF0
:1026900024350A68096826682D6802F0030406F0EC
:1026A0000102C1F30511C5F3CC0515FB02F200EEE2
:1026B000102AB8EE400AE9B32F4ADFED2E0AB7EE32
:1026C000001A6CB1DFED2D1A012C01D0022C43D081
:1026D00002EE101A1068F8EE422A81EEA22A1EE0DD
:1026E0001C68A40611D51B6801EE901A1168C3F38B
:1026F000C103F8EE612AD84001EE900AC1F3080048
:10270000F8EE611A81EEA22A0BE001EE901ADFEDDD
:102710001C2A00BFF8EE611A106882EEA12AC0F3ED
:10272000080001EE900AF8EE611A40EE201A31EE30
:10273000810A00E015E022EE000A1068C0F346208E
:10274000401C00EE900AF8EE600A80EE201ABCEE03
:10275000C10A10EE100A70BD01EE901ADFED092AD1
:10276000D8E7002070BD0000104402580090D0034C
:10277000001BB70000000039304402580024744A9E
:102780000024744C001B374B2DE9F05F04006FD020
:10279000FE4E41F20308DFF8F493FC4FA6F1040566
:1027A000206809F10C09243780B1C10711D18107D4
:1027B0006CD4C1067DD401077CD441077BD480064C
:1027C0007AD4F3A040F2A31103F098FA2078C0075E
:1027D00059D060684FF4803A4FF4A02B40B1504577
:1027E00006D0584504D04FF4D471E9A003F086FA1E
:1027F000D9F80000396800F0380010280CD01828EB
:1028000003D101F00300022806D0606850450AD1C8
:10281000286840F4803010E02868800333D5606871
:102820000028B4D02FE008B158450DD0286820F416
:1028300080302860286820F480202860606898B183
:10284000FEF764FB82460BE0286840F48020286095
:10285000DEE700BFFEF75AFBA0EB0A00642873D83E
:1028600028688003F6D50EE0FEF750FB824607E0AD
:1028700032E100BFFEF74AFBA0EB0A006428EED865
:1028800028688003F6D42078800770D5E06860B1AE
:1028900001280AD0092808D0112806D0192804D008
:1028A0004FF4EE71BAA003F029FA20697F2809D904
:1028B00003E05FE0CFE0EEE004E1B5A040F2DD111F
:1028C00003F01CFAD9F80000396810F038000ED077
:1028D000182801D188070AD0E068A0B3296821F040
:1028E000190101432960FEF711FB82461AE02868AE
:1028F000400702D5E068002893D0FEF701FB404571
:102900001AD82069402811D0316821F47C3141EA7D
:10291000003030602BE000BFFEF7F8FAA0EB0A00B1
:1029200002289CD828684007F6D5E6E7306820F4EE
:102930007C3040F40030ECE7207C316821F0FE412F
:1029400041EA0060E5E700E06BE2286820F0010062
:102950002860FEF7DBFA824606E000BFFEF7D6FAF3
:10296000A0EB0A0002288AD828684007F6D420780D
:10297000C0066DD5E06930B1802804D084A040F253
:102980001F2103F0BBF9206A3F2804D94FF40871D6
:102990007FA003F0B3F9D9F80000DFF8F0B139688F
:1029A00000F038000BF1080B082810D0182803D1CC
:1029B00001F0030001280AD0E0690028286837D018
:1029C00040F080002860FEF7A1FA824622E02868E5
:1029D000C00522D5E06980287ED11EE0206A20282B
:1029E00020D0316821F0F84141EA806030602FE06A
:1029F00094F82010DBF8002022F07C5242EA0161BA
:102A0000CBF8001024E000BFFEF780FAA0EB0A002C
:102A1000022886D82868C005F6D5FEF771FA404529
:102A2000E6D8DBE7306820F0F84040F08040DDE792
:102A300020F080002860FEF769FA064605E000BF36
:102A4000FEF764FA801B02288DD82868C005F7D4E9
:102A50002078000733D54D4E60697036E0B101280B
:102A600006D04BA040F2612103F048F9606998B1AB
:102A70003168B04641F001013160FEF747FA064681
:102A800005E000BFFEF742FA801B0228C1D8D8F843
:102A900000008007F6D512E03168B04621F0010150
:102AA0003160FEF733FA064605E000BFFEF72EFA66
:102AB000801B0228ADD8D8F800008007F6D4207813
:102AC00080062FD5A069E0B1012808D04FF423710A
:102AD0002FA003F013F900E0D2E1A06988B12868C3
:102AE00040F480502860FEF711FA064605E000BF6A
:102AF000FEF70CFA801B02288BD828688004F7D5D3
:102B000010E0286820F480502860FEF7FFF90646A0
:102B100005E000BFFEF7FAF9801B022894D8286868
:102B20008004F7D42078400779D5A06840B1012807
:102B300006D0052804D016A040F2B62103F0DEF836
:102B4000DFF88480D8F8001041F48071C8F80010D4
:102B5000FEF7DCF9064604E0FEF7D8F9801B64288E
:102B600094D8D8F80000C005F6D5084EA0686C3699
:102B700001282BD008B1052834D0306820F001009E
:102B80003060306820F0040023E000000444025864
:102B90002E2E2F447269766572732F53544D333243
:102BA000483778785F48414C5F4472697665722F88
:102BB0005372632F73746D3332683778785F68614E
:102BC0006C5F7263632E630000480258306840F007
:102BD00001003060A06841F2883A98B1FEF796F99A
:102BE00080460BE0306840F004003060EEE700BF44
:102BF000FEF78CF9A0EB080151458FD830688007AB
:102C0000F6D50CE0FEF782F9804605E0FEF77EF986
:102C1000A0EB08015145A3D830688007F6D4606A5C
:102C200000287DD001280AD0022808D04FF43A713C
:102C3000AFF2A40003F062F8606A0028F1D0DFF878
:102C40004882D9F80000C0F3C200032869D0606A46
:102C5000022807D0286820F080702860FEF756F917
:102C60000446E1E0A06A01280AD048B1032807D051
:102C7000022805D040F2F121AFF2EC0003F03EF85B
:102C8000206C58B1042809D0082807D00C2805D09A
:102C900040F2F221AFF2081003F030F8606C38B166
:102CA000022805D040F2F321AFF21C1003F026F801
:102CB000E06A401E3E2805D94FF43D71AFF2301056
:102CC00003F01CF8206B001FB0F5FE7F05D940F221
:102CD000F521AFF2441003F011F8606B401E7F281D
:102CE00005D940F2F621AFF2581003F007F8A06BB7
:102CF000401E7F2805D940F2F721AFF26C1002F098
:102D0000FDFFE06B401E7F2805D94FF43E71AFF206
:102D1000801002F0F3FFA06CB0F5005F08D301E073
:102D2000B0E085E040F2F921AFF29C1002F0E6FF3E
:102D3000286820F080702860FEF7E8F8064604E076
:102D4000FEF7E4F8801B02286BD828688001F7D4CE
:102D5000E26A40F2F331386854F8283F884340EA89
:102D6000021018433860267B434621894FF4FE0C3D
:102D7000208A4FF0FE47491E227D7602401EA6F5AE
:102D80000076C1F30808B1B2521E0CEA004041EAD5
:102D9000080101433C4807EA026211433A4A001F16
:102DA0001960121D016821F00101016011684FF6E0
:102DB000F876236AB14341EAC30111600168A26950
:102DC00021F00C01114301600168E26921F0020168
:102DD00011430160016841F480310160016841F4F0
:102DE00000310160016841F480210160016841F017
:102DF00001010160286840F080702860FEF786F8C5
:102E0000044604E0FEF782F8001B022809D828686F
:102E10008001F7D536E000BFFEF778F8001B0228E6
:102E200002D90320BDE8F09F28688001F4D429E08E
:102E3000626A3968D8F80000012A21D0A26A01F03C
:102E4000030393421CD1E26AC1F305118A4217D1F0
:102E5000216BC0F30802491E8A4211D1616BC0F395
:102E60004622491E91420BD1A16BC0F30642491E76
:102E7000914205D1E16BC0F30660491E814201D049
:102E80000120CFE70020CDE730440258401EB0F1CA
:102E9000807F10B501D3012010BD4FF0E0246061A8
:102EA0000F21601702F019FF0020A06107212161A6
:102EB00010BD00002DE9F05F5D4E044600680D4630
:102EC000DFF870A15C4FB0421ED0B0F1804F1BD034
:102ED000504519D05949884216D05949884213D0D3
:102EE0004FEAB64188420FD0564988420CD0B842CA
:102EF0000AD05549884207D05449884204D054A08A
:102F000040F2867102F0FAFE286890B1102810D0C5
:102F100020280ED030280CD040280AD0502808D0C5
:102F2000602806D0702804D049A040F2877102F0D2
:102F3000E5FEA868802805D020B145A04FF4F161D6
:102F400002F0DCFE94F83C0001286FD04FF0010B3A
:102F500084F83CB00221B14684F83D1020684668F0
:102F60004845D0F8088001D0B84238D1686888B3A5
:102F7000B0F5801F2ED0B0F5001F2BD0B0F5401F4C
:102F800028D0B0F5800F25D0B0F5A00F22D0B0F535
:102F9000C00F1FD0B0F5E00F1CD0B0F5000F19D056
:102FA000B0F5100F16D0B0F5200F13D0B0F5300FDC
:102FB00010D0B0F5400F0DD0B0F5500F0AD0B0F5DD
:102FC000600F07D0B0F5700F04D021A040F29A71C5
:102FD00002F094FE696826F4700041EA0006236856
:102FE000286826F0700108435860206848450FD0D3
:102FF000B0F1804F0CD050450AD01049884207D01C
:103000000F49884204D0B84202D00F49884204D107
:10301000A96828F0800211438160002184F83DB046
:10302000084684F83C10BDE8F09FFFE70220FAE76D
:10303000000001400004004000040140000800407E
:10304000000C004000140040001800400040014007
:103050002E2E2F447269766572732F53544D33327E
:10306000483778785F48414C5F4472697665722FC3
:103070005372632F73746D3332683778785F686189
:103080006C5F74696D5F65782E63000010B5040095
:1030900058D04149206888422BD0B0F1804F28D0C9
:1030A0003E49884225D03E49884222D03D49884247
:1030B0001FD03D4988421CD03C49884219D03C4928
:1030C000884216D03B49884213D03B49884210D0F1
:1030D0003A4988420DD03A4988420AD03949884253
:1030E00007D03949884204D038A04FF48B7102F0E0
:1030F00005FEA06860B110280AD0202808D040281A
:1031000006D0602804D031A040F2171102F0F6FD7D
:10311000206950B1B0F5807F07D0B0F5007F04D0B2
:103120004FF48C7129A002F0E9FDA06930B180282C
:1031300004D026A040F2191102F0E0FD94F83D0001
:1031400010B107E0012010BD002084F83C002046AB
:1031500000F058F8022084F83D002068211D01F09D
:10316000BDFD012084F8480084F83E0084F83F004B
:1031700084F8400084F8410084F8420084F8430059
:1031800084F8440084F8450084F8460084F8470039
:1031900084F83D00002010BD000001400004004004
:1031A00000080040000C00400010004000140040E7
:1031B0000004014000180040001C004000200040B6
:1031C0000040014000440140004801402E2E2F44A1
:1031D0007269766572732F53544D3332483778785D
:1031E0005F48414C5F4472697665722F5372632F5A
:1031F00073746D3332683778785F68616C5F7469B7
:103200006D2E630008B500680649884208D106485B
:10321000016841F002010160006800F002000090C6
:1032200008BD000000040040E84402582DE9F05FAA
:10323000054690F83C000C4601283FD002210120B1
:1032400085F83C0085F83D104FF4805B20685845B8
:1032500016D0B0F5005F13D090B1102810D0202800
:103260000ED030280CD040280AD0502808D0602832
:1032700006D0702804D0D5A041F2AF4102F03EFD47
:1032800028684FF0804CDFF87C83DF498646DF4AB0
:1032900080684FF4004ADE4BDE4E00EA0800DE4F45
:1032A00020F47F48DFF87493CEF8088020687028F7
:1032B00053D011DC10F00F0F04D036E14FF00200B4
:1032C000BDE8F09F4FEA20100728F6D2DFE800F0B3
:1032D00011111111FAC8FB00B0F1101F09D009DC5F
:1032E000584510D04FF40058404578D0B0F5801FB5
:1032F000E3D153E12038B0F58010FAD01028F8D08F
:103300002028DAD14AE128688842D6D06045D4D056
:103310009042D2D09842D0D0B042CED0C04988425C
:10332000CBD0C0498842C8D0B842C6D0BE49884236
:10333000C3D0BE498842C0D0BD498842BDD04845AF
:10334000BBD0BC498842B8D0BB498842B5D09FA009
:1033500041F2BB4102F0D2FCE7E0286888420ED07F
:1033600060450CD090420AD0984208D0B04206D0B6
:10337000B84204D095A041F2C24102F0BFFCA0685F
:1033800060B158450AD0B0F5005F07D0B0F5405F96
:1033900004D08EA041F2C54102F0B0FC60685045F7
:1033A00009D040B1022806D00A2804D087A041F2F3
:1033B000C64102F0A3FCE0680F2804D983A041F2C3
:1033C000C74102F09BFCE3682868D4E9012101F0C1
:1033D00065FD2868816841F077013FE0FFE72868D4
:1033E00088420ED060450CD090420AD0984208D056
:1033F000B04206D0B84204D074A041F2DA4102F0E3
:103400007DFCA06858B1584509D0404507D0B0F5BB
:10341000405F04D06DA041F2DD4102F06FFC6068B6
:10342000504509D040B1022806D00A2804D067A030
:1034300041F2DE4102F062FCE0680F2804D963A08B
:1034400041F2DF4102F05AFCE3682868D4E9012127
:1034500001F024FD2868816841F48041816064E0C6
:103460002868884210D060450ED090420CD0984217
:103470000AD0B04208D0B84206D0484504D053A084
:1034800041F2EE4102F03AFC6068504509D040B18B
:10349000022806D00A2804D04CA041F2F14102F0E3
:1034A0002DFCE0680F2804D948A041F2F24102F057
:1034B00025FCE2686168286801F070FF28685021E7
:1034C00031E000E039E02868884210D060450ED035
:1034D00090420CD098420AD0B04208D0B84206D0F0
:1034E000484504D039A041F2FE4102F007FC606873
:1034F000504509D040B1022806D00A2804D033A094
:1035000041F2015102F0FAFBE0680F2804D92FA024
:1035100041F2025102F0F2FBE2686168286801F0B2
:103520004EFF2868602101F0C3FC012085F83D00B2
:10353000002185F83C100846C2E62868884210D071
:1035400060450ED090420CD098420AD0B04208D0CC
:10355000B84206D0484504D01CA041F20E5102F0FA
:10356000CDFB6068504509D040B1022806D00A283A
:1035700004D016A041F2115102F0C0FBE0680F2800
:1035800004D912A041F2125102F0B8FBE26861685E
:10359000286801F003FF28684021C4E728688842B2
:1035A00010D060450ED090420CD098420AD0B04264
:1035B00008D0B84206D0484504D004A041F22651B4
:1035C00002F09CFB21682868ADE700002E2E2F44F6
:1035D0007269766572732F53544D33324837787859
:1035E0005F48414C5F4472697665722F5372632F56
:1035F00073746D3332683778785F68616C5F7469B3
:103600006D2E630088FFCEFF0000014000040040E3
:1036100000080040000C0040000401400040014050
:10362000001000400014004000180040001C004042
:1036300000200040004401400048014010B586B021
:10364000044614216846FCF70EFF0D4920688842A5
:1036500014D10C48016841F00101016000680021AB
:10366000402200F00100059002200092CDE9010106
:10367000CDE9031004486946FDF764FA06B010BDB1
:1036800000040040E0440258000002582DE9F047D1
:103690005FEA020A0D46044616D0BAF1040F13D0B1
:1036A000BAF1080F10D0BAF10C0F0DD0BAF1100F0B
:1036B0000AD0BAF1140F07D0BAF13C0F04D0A4A07D
:1036C00041F2470102F01AFB2868602816D07028E2
:1036D00014D0A0F58031403910D0A0F58031503998
:1036E0000CD0A0F58031603908D0A0F58031703958
:1036F00004D097A041F2480102F000FBA86830B165
:10370000022804D092A041F2490102F0F7FA286998
:1037100030B1042804D08EA041F24A0102F0EEFA42
:1037200094F83C0001281BD097490120974EBAF12C
:103730000C0F974F4FF08048DFF858C2964B84F833
:103740003C0077D00FDCDFF85492BAF1000F944AB6
:1037500010D0BAF1040F42D0BAF1080F69D16AE073
:103760000220BDE8F087BAF1100F7DD0BAF1140F36
:10377000F4D1CBE0206888421ED040451CD0B04236
:103780001AD0B84218D0604516D0984214D0484597
:1037900012D0844988420FD0834988420CD090428D
:1037A0000AD08249884207D08149884204D068A063
:1037B00041F2540102F0A2FA2068294601F082FB8E
:1037C0002068816941F0080181612068816921F0E8
:1037D0000401816120682A698169114328E0206819
:1037E000884212D0404510D0B0420ED0B8420CD022
:1037F00060450AD0984208D0484506D0904204D08F
:1038000053A041F2650102F079FA2068294601F0DF
:10381000E9FB2068816941F4006181612068816968
:1038200021F48061816120682969826942EA01216D
:10383000816189E026E0206888420ED040450CD0A6
:10384000B0420AD0B84208D0604506D0984204D0B1
:103850003FA041F2760102F051FA2068294601F0BA
:103860004BFC2068C16900E033E041F00801C16110
:103870002068C16921F00401C16120682A69C16919
:10388000114324E0206888420ED040450CD0B0425D
:103890000AD0B84208D0604506D0984204D02CA087
:1038A00041F2870102F02AFA2068294601F0A8FCBB
:1038B0002068C16941F40061C1612068C16921F4D7
:1038C0008061C16120682969C26942EA0121C16140
:1038D0003AE02068884206D0984204D01CA041F209
:1038E000980102F00BFA2068294601F0EBFC2068F1
:1038F000416D41F0080141652068416D21F00401EE
:10390000416520682A69416D11431CE020688842A6
:1039100006D0984204D00EA041F2A90102F0EEF9BF
:103920002068294601F004FD2068416D41F40061E2
:1039300041652068416D21F48061416520682969F5
:10394000426D42EA01214165002084F83C0008E70D
:103950002E2E2F447269766572732F53544D333275
:10396000483778785F48414C5F4472697665722FBA
:103970005372632F73746D3332683778785F686180
:103980006C5F74696D2E630000000140000400400C
:1039900000080040000C00400004014000180040F6
:1039A00000400140001C0040002000400044014055
:1039B0000048014010B5040058D0414920688842B1
:1039C0002BD0B0F1804F28D03E49884225D03E49C7
:1039D000884222D03D4988421FD03D4988421CD0B0
:1039E0003C49884219D03C49884216D03B4988421C
:1039F00013D03B49884210D03A4988420DD03A4909
:103A000088420AD03949884207D03949884204D0CF
:103A100038A040F2155102F071F9A06860B1102889
:103A20000AD0202808D0402806D0602804D031A031
:103A300040F2165102F062F9206950B1B0F5807F72
:103A400007D0B0F5007F04D02AA040F2175102F051
:103A500055F9A06930B1802804D026A04FF4A361A5
:103A600002F04CF994F83D0010B107E0012010BDC0
:103A7000002084F83C00204600F058F8022084F82A
:103A80003D002068211D01F029F9012084F848003B
:103A900084F83E0084F83F0084F8400084F8410038
:103AA00084F8420084F8430084F8440084F8450018
:103AB00084F8460084F8470084F83D00002010BDDB
:103AC000000001400004004000080040000C0040DD
:103AD00000100040001400400004014000180040A5
:103AE000001C004000200040004001400044014014
:103AF000004801402E2E2F447269766572732F5351
:103B0000544D3332483778785F48414C5F4472698E
:103B10007665722F5372632F73746D333268377802
:103B2000785F68616C5F74696D2E63007047000098
:103B30002DE9F05FDFF8BC81054600680226DFF85A
:103B4000B8A10C46DFF8B4B14045DFF8B4916D4F31
:103B50000BD1002C7AD0042C7FD0082C74D00C2CE4
:103B60006AD0102C71D0142C58D0B0F1804F5CD09A
:103B7000504507D1002C69D0042C6ED0082C73D08E
:103B80000C2C59D06049884207D1002C5ED0042CFF
:103B900063D0082C68D00C2C4ED05C49884206D1EA
:103BA0007CB3042C59D0082C5ED00C2C44D0B842E5
:103BB0000AD134B3042C50D0082C55D00C2C3BD057
:103BC000102C58D0142C29D05149884202D1C4B1AC
:103BD000042C42D04F49884200D194B14E498842CA
:103BE00000D174B1584502D15CB1042C35D04B4999
:103BF000884200D12CB1484500D114B140F29D510A
:103C000000E023E046A002F079F8FCB1042C24D0B7
:103C1000082C29D00C2C0FD0102C2CD095F8430058
:103C200001282FD00120BDE8F09F7CB1042C14D0D6
:103C3000082C19D00C2CE1D195F841000128F1D1C4
:103C400085F8416020E008E00EE014E095F83E00C1
:103C50000128E7D185F83E6016E095F83F0001287D
:103C6000E0D185F83F600FE095F840000128D9D1F8
:103C700085F8406008E095F842000128D2D185F827
:103C8000426001E085F8436001222868214601F086
:103C900087F82868404508D0B84206D0584504D077
:103CA0001E4A904201D0484503D1426C42F4004282
:103CB0004264286840450FD0B0F1804F0CD0504589
:103CC0000AD01149884207D01049884204D0B8422E
:103CD00002D00F49884207D181681F4A1140062946
:103CE00006D0B1F5803F03D0016841F001010160C9
:103CF000002098E70000014000040040004001401F
:103D0000004801400004014000080040000C004051
:103D100000180040001C004000200040004401400A
:103D20002E2E2F447269766572732F53544D3332A1
:103D3000483778785F48414C5F4472697665722FE6
:103D40005372632F73746D3332683778785F6861AC
:103D50006C5F74696D2E63000700010070B51F4928
:103D600004460068884219D01D49884216D01D4972
:103D7000884213D01C49884210D01C4988420DD07B
:103D80001B4988420AD01B49884207D01A498842F9
:103D900004D04FF40D7119A001F0B0FF94F8800029
:103DA000012818D0012184F880102420C4F8840050
:103DB0000021202354F8640B0268056822F00052A9
:103DC00025F001050560216054F8640C026023624F
:103DD0000846217770BD022070BD00000010014030
:103DE0000044004000480040004C004000500040AB
:103DF0000014014000780040007C00402E2E2F442B
:103E00007269766572732F53544D33324837787820
:103E10005F48414C5F4472697665722F5372632F1D
:103E200073746D3332683778785F68616C5F756181
:103E300072745F65782E63007047704770B50D46E9
:103E40002B4904460068884219D02A49884216D076
:103E50002949884213D02949884210D028498842EC
:103E60000DD0284988420AD02749884207D02749DF
:103E7000884204D026A040F2932101F03FFF9DB17B
:103E8000B5F1007F10D0B5F1806F0DD0B5F1C06FE6
:103E90000AD0B5F1006F07D0B5F1206F04D04FF410
:103EA00025711BA001F02AFF94F8800001281DD085
:103EB000012184F880102420C4F88400206806685A
:103EC000016821F0010101602068816821F06061D2
:103ED00029438160204601F085FA226820210020D4
:103EE0001660C4F8841084F8800070BD022070BD94
:103EF000001001400044004000480040004C0040D9
:103F0000005000400014014000780040007C004058
:103F10002E2E2F447269766572732F53544D3332AF
:103F2000483778785F48414C5F4472697665722FF4
:103F30005372632F73746D3332683778785F6861BA
:103F40006C5F756172745F65782E630070B50D46A5
:103F50002B4904460068884219D02A49884216D065
:103F60002949884213D02949884210D028498842DB
:103F70000DD0284988420AD02749884207D02749CE
:103F8000884204D026A040F2622101F0B7FE9DB124
:103F9000B5F1005F10D0B5F1804F0DD0B5F1C04F35
:103FA0000AD0B5F1004F07D0B5F1204F04D01CA0C6
:103FB00040F2632101F0A2FE94F8800001281DD098
:103FC000012184F880102420C4F884002068066849
:103FD000016821F0010101602068816821F06041E1
:103FE00029438160204601F0FDF92268202100204C
:103FF0001660C4F8841084F8800070BD022070BD83
:10400000001001400044004000480040004C0040C7
:10401000005000400014014000780040007C004047
:104020002E2E2F447269766572732F53544D33329E
:10403000483778785F48414C5F4472697665722FE3
:104040005372632F73746D3332683778785F6861A9
:104050006C5F756172745F65782E6300704770479E
:10406000704700002DE9F04103680446002540F642
:104070000F06D86919689A68304209D186067DD53D
:1040800001F0200602F080573E4377D0216F39E1DE
:10409000AF4EB04F16400F4037436FD0C70709D01F
:1040A000CF0507D501271F62D4F88C3043F00103F8
:1040B000C4F88C3083070AD5D30708D027680223B9
:1040C0003B62D4F88C3043F00403C4F88C304307CF
:1040D0000AD5D30708D0276804233B62D4F88C3074
:1040E00043F00203C4F88C3003070CD501F0200321
:1040F000334308D0266808233362D4F88C3043F069
:104100000803C4F88C3003050BD54B0109D526688C
:104110004FF400633362D4F88C3043F02003C4F8CA
:104120008C30D4F88C30002B34D0800609D501F0C7
:10413000200002F08051084303D0216F09B12046CE
:1041400088472168D4F88C008968490602D410F0A9
:10415000280F21D0204601F0BBFA2068816849066B
:1041600015D5816821F040018160E06F78B17A490E
:104170000165E06FFCF792FB002800E012E009D037
:10418000E06F016D00E02046BDE8F04108472046A1
:10419000FFF766FFBDE8F0812046FFF761FFC4F836
:1041A0008C50F7E7E76E2026012F71D1C7066FD537
:1041B000CF066DD51020186222689068400669D538
:1041C000E16F664B0868984234D0644B18339842CC
:1041D00030D0624B303398422CD0604B48339842F9
:1041E00028D05E4B6033984224D05C4B78339842A1
:1041F00020D05A4B903398421CD0584BA833984249
:1042000018D0574B984215D0554B1833984211D0BF
:10421000534B303398420DD0514B4833984209D01C
:104220004F4B6033984205D04D4B7833984201D0C4
:104230004B4B903340680004000CABD0B4F85C30BA
:104240008342A7D9A4F85E00C869B0F5807F18D072
:10425000106820F4807010602068816821F00101EE
:1042600081602068816821F040018160C4F8886025
:10427000E5662068016821F010010160E06FFCF73D
:104280005BF9B4F85C00B4F85E10401A81B220E02B
:1042900023E0FFE7B4F85C00B4F85E10B4F85E30D9
:1042A000401A81B2002BC8D00029C6D010682D4B0F
:1042B00020F4907010602068826802EA0302826035
:1042C000C4F88860E56625672068026822F010025D
:1042D00002602046FFF7B0FD5CE7C70209D5570230
:1042E00007D54FF4801018622046BDE8F041FFF773
:1042F000B6BE07060AD501F0800702F40002174394
:1043000004D0616F00297FF43EAF43E742060CD52D
:104310004A060AD51968204621F040011960C4F800
:104320008460656700F00CF934E7020206D54A00A4
:1043300004D52046BDE8F041FFF790BEC001CBD5C3
:104340000029C9DA2046BDE8F041FFF776BD00003C
:104350000100001020010004BD56000810000240BA
:1043600010040240FEFFFFEF2DE9F047040024D0C7
:10437000A0693649364A0028364B374D374E384FFC
:10438000DFF8E0C0DFF8E080DFF8E090206817D0C9
:1043900088422CD090422AD0984228D0A84226D0D9
:1043A000B04224D0B84222D0604520D040451ED033
:1043B00048451CD04FF49F7116E00120BDE8F087FE
:1043C000884214D0904212D0984210D0A8420ED009
:1043D000B0420CD0B8420AD0604508D0404506D063
:1043E000484504D040F2431121A001F087FCD4F8E5
:1043F000840028B9002084F88000204600F056F898
:104400002420C4F884002068016821F001010160C3
:10441000204601F079F90128D0D0A06A10B12046D9
:1044200001F002F82068416821F490414160206861
:10443000816821F02A0181602068016841F0010152
:1044400001602046BDE8F04701F008B900100140C6
:104450000044004000480040004C00400050004034
:104460000014014000780040007C0040000C00581F
:104470002E2E2F447269766572732F53544D33324A
:10448000483778785F48414C5F4472697665722F8F
:104490005372632F73746D3332683778785F686155
:1044A0006C5F756172742E630000000010B5B6B0C9
:1044B000044614212FA8FBF7D6FFBC216846FBF762
:1044C000D2FF1C492068884231D100241E9401206B
:1044D00000906846FCF7EEFF08B1FCF72AF8164892
:1044E000016841F010010160006800F01000349094
:1044F00011481038016841F00101016000682FABDC
:10450000022100F0010034904FF4C060072283E8DC
:1045100013000A482FA9CDE93242FCF713FB002211
:1045200025201146FCF790FD2520FCF75BFD36B0F9
:1045300010BD000000100140F04402580000025875
:104540007047FEE72DE9F04186B014216846FBF77D
:104550008AFF3B48016841F010010160016801F0E9
:1045600010010591016841F004010160016801F04A
:1045700004010591016841F080010160016801F0CA
:1045800080010591016841F001010160016801F0BD
:1045900001010591016841F002010160016801F02B
:1045A00002010591016841F00801016000680122E3
:1045B000DFF89080072100F0080005904046FCF7E6
:1045C00069FC00244FF6FF76032500961E486946D5
:1045D000CDE90154FCF7B6FA0127694678038DE866
:1045E00091004046FCF7AEFA07206946CDE9000786
:1045F000CDE902744046FCF7A5FA41F6F870694629
:10460000CDE9000540460294FCF79CFA49F6BF103C
:104610006946CDE900050D480294FCF793FA00962F
:1046200069460B48CDE90154FCF78CFA00966946BF
:104630000848CDE90154FCF785FA06B0BDE8F081E1
:10464000E0440258000802580010025800000258C6
:1046500000040258000C025810B58EB000241C2132
:10466000009407A80194029403940494059406947A
:10467000FBF7F9FE1E4840F2F311C7221B4BC0E9BD
:10468000024104618461C0E90032FEF7FFFC08B119
:10469000FBF74FFF4FF48050009015486946FEF736
:1046A000C5FD08B1FBF745FF1148FFF783F908B1D5
:1046B000FBF73FFF0E4804A904940694FEF7FAFBAB
:1046C00008B1FBF736FF07AA6020F92182E8130042
:1046D0000748002207A90B94FEF7D8FF08B1FBF7A3
:1046E00028FF0348FEF7AAFF0EB010BD00040040EB
:1046F000140000241848002110B5164C0C224FF469
:10470000E1330460C0E90131C160C0E90412816194
:10471000C161016241628162FFF726FE08B1FBF7C9
:1047200008FF0D480021FFF711FC08B1FBF701FF5E
:1047300009480021FFF782FB08B1FBF7FAFE0648A3
:10474000FFF70CFB002803D0BDE81040FBF7F1BEDB
:1047500010BD00000010014060000024FEE7FEE7ED
:10476000704700002DE9F0478946016804464FF084
:10477000000A491E3E2904D966A040F6C25101F044
:10478000BDFA6068001FB0F5FE7F04D961A040F655
:10479000C35101F0B3FAA068401E7F2804D95DA080
:1047A00040F6C45101F0AAFA2069401E7F2804D9BE
:1047B00058A040F6C55101F0A1FAE068401E7F28DC
:1047C00004D954A040F6C65101F098FA606950B17E
:1047D000402808D0802806D0C02804D04DA040F63C
:1047E000C75101F08BFAA06930B1202804D049A04C
:1047F00040F6C85101F082FAE069B0F5005F04D3D9
:1048000044A040F6C95101F079FA514F3868C043CD
:1048100080070AD04E4D283D286820F0806028602F
:10482000FCF774FB0646A84607E00120BDE8F087C8
:10483000FCF76CFB801B022865D8D8F8000000014B
:10484000F6D4206839684FF4FE0C4FF0FE4621F490
:104850007C3141EA00303860217AA788A389490277
:104860003B4D7F1E3A485B1E227C1035001DA1F592
:10487000007189B2521EC7F3080739430CEA03439B
:10488000194306EA0262114329600168626921F056
:10489000C001114301600268A16922F020020A43AD
:1048A0000260291D026822F0100202600A684FF6B9
:1048B000F873E4699A4342EAC4020A600168B9F1F4
:1048C000000F41F01002026011D00168B9F1010F30
:1048D00011D041F400110160D8F80000444640F0C6
:1048E0008060C8F80000FCF711FB05460DE0016888
:1048F00041F40021EFE741F48011ECE7FCF706FBFF
:10490000401B022801D9032090E720680001F5D55B
:1049100050468BE72E2E2F447269766572732F53A3
:10492000544D3332483778785F48414C5F44726960
:104930007665722F5372632F73746D3332683778D4
:10494000785F68616C5F7263635F65782E630000F7
:10495000284402582DE9F0478946016804464FF083
:10496000000A491E3E2904D968A040F62A6101F0D8
:10497000C5F96068001FB0F5FE7F04D963A040F65A
:104980002B6101F0BBF9A068401E7F2804D95FA00D
:1049900040F62C6101F0B2F92069401E7F2804D94D
:1049A0005AA040F62D6101F0A9F9E068401E7F2869
:1049B00004D956A040F62E6101F0A0F9606968B1F3
:1049C000B0F5806F0AD0B0F5006F07D0B0F5406F3A
:1049D00004D04EA040F62F6101F090F9A06938B1E3
:1049E000B0F5007F04D04FF4636148A001F086F970
:1049F000E069B0F5005F04D344A040F6316101F0F6
:104A00007DF9514F3868C04380070AD04E4D283D8C
:104A1000286820F080502860FCF778FA0646A846FF
:104A200007E00120BDE8F087FCF770FA801B022840
:104A300065D8D8F800008000F6D4208839684FF493
:104A4000FE0C4FF0FE4621F07C7141EA00503860C8
:104A5000217AA788A38949023B4D7F1E3A485B1EF5
:104A6000227C1835001DA1F5007189B2521EC7F3D2
:104A7000080739430CEA0343194306EA026211436B
:104A800029600168626921F4406111430160026894
:104A9000A16922F400720A430260291D026822F40F
:104AA000807202600A684FF6F873E4699A4342EA3A
:104AB000C4020A600168B9F1000F41F4807202601B
:104AC00011D00168B9F1010F11D041F0807101607E
:104AD000D8F80000444640F08050C8F80000FCF7C9
:104AE00015FA05460DE0016841F48001EFE741F455
:104AF0000001ECE7FCF70AFA401B022801D9032069
:104B000090E720688000F5D550468BE72E2E2F4485
:104B10007269766572732F53544D33324837787803
:104B20005F48414C5F4472697665722F5372632F00
:104B300073746D3332683778785F68616C5F726365
:104B4000635F65782E630000284402587047FCF7C5
:104B5000E3B9000030B59DB04C216846FBF783FCFB
:104B6000202113A8FBF77FFC0220FCF7FBFA20486A
:104B700000242049026842F44042026002680A6848
:104B800042F001020A60096801F001011B9101680D
:104B90008904FCD5022009900121C20350230C2571
:104BA000CDE900120AAA82E80B000D90CDE910545D
:104BB0000E900F9068461294FDF7E6FD08B172B6AC
:104BC000FEE740201A9008230501CDE9163013AB0B
:104BD000CDE918053F21032283E81600042113A81C
:104BE000FDF79AFA002801D072B6FEE71DB030BD7D
:104BF000184802582C0400582E48F0B52E4A016877
:104C000041F470010160106800F00F00072804D221
:104C1000106820F00F00C01D106028490020274CAC
:104C200010340B68264D43F001030B6020600B68C5
:104C30002B400B60136803F00F03072B04D9136894
:104C400023F00F03DB1D13601C4C1E4A18341E4B4F
:104C5000261D371D2060194C1C4D28343060261D40
:104C60003860371D23603B1D35601C1D3A60251DD3
:104C70002E1D1860331D22602860326018600A689B
:104C80000E4B134C22F4802260330A6018602068B7
:104C90006FF30F00B0F1005F03D20E490120C1F89D
:104CA000080143F2D2000C49024B4A03803B0860E2
:104CB0001A60F0BD88ED00E0002000520044025868
:104CC0007FEDF6EA80020101000202020000FF010E
:104CD0000010005C00800051004000522DE9F047B8
:104CE000274B4FF0804A274D02689842264E274FA7
:104CF000274C09D0504507D0A84205D0B04203D078
:104D0000B84201D0A04205D1D1F804C022F070020F
:104D10004CEA0202DFF87CC0DFF87C809842DFF8C2
:104D20007C900FD050450DD0A8420BD0B04209D096
:104D3000B84207D0A04205D0604503D0404501D01D
:104D4000484503D1CD6822F440722A434D6922F0D0
:104D500080022A43026098428A68C2620A688262BC
:104D600007D0A04205D0604503D0404501D048455A
:104D700001D10969016301214161BDE8F0870000AB
:104D8000000001400004004000080040000C00400A
:104D9000000401400040014000440140004801403F
:104DA00070B50446244816460D46844225D0B4F119
:104DB000804F22D0214884421FD0214884421CD0F9
:104DC0002048844219D02048844216D01F4884428B
:104DD00013D01F48844210D01E4884420DD01E4874
:104DE00084420AD01D48844207D01D48844204D022
:104DF0001CA041F6F25100F081FF85B1042D0ED0C8
:104E0000082D0CD00C2D0AD0102D08D0142D06D052
:104E10003C2D04D013A041F6F35100F06FFF226A3D
:104E2000012005F01F018840824322628E40206AE3
:104E30003043206270BD00000000014000040040CB
:104E400000080040000C0040000401400018004031
:104E5000001C004000200040004001400044014090
:104E6000004801402E2E2F447269766572732F53CD
:104E7000544D3332483778785F48414C5F4472690B
:104E80007665722F5372632F73746D33326837787F
:104E9000785F68616C5F74696D2E630042EA03227B
:104EA00083680A4323F47F410A438260704700000D
:104EB000034B82681A400A4342F007018160704741
:104EC0008FFFCFFF2DE9F05F0446006A0D46DFF843
:104ED000C4A0DFF8C4B020F00100DFF8C090206269
:104EE000DFF8BCC0226A6768A06922F00202096884
:104EF0004C45AE6800EA0C0020F0030046EA0206CA
:104F000041EA000809D0544507D05C4505D0254842
:104F1000844202D0244884420ED1E86830B1082887
:104F200004D022A041F6A42100F0E8FEE86826F0B3
:104F30000801084320F004064C4509D0544507D029
:104F40005C4505D01748844202D01748844219D1E5
:104F5000A869B0F5007F05D020B114A041F6B121B9
:104F600000F0CCFE6869B0F5807F05D020B10FA0BD
:104F700041F6B22100F0C2FE27F44071D5E90507E1
:104F8000084307436760C4F8188068686063266256
:104F9000BDE8F09F000401400040014000000140D6
:104FA0008FFFFEFF00440140004801402E2E2F4499
:104FB0007269766572732F53544D3332483778785F
:104FC0005F48414C5F4472697665722F5372632F5C
:104FD00073746D3332683778785F68616C5F7469B9
:104FE0006D2E63002DE9F0470446006A0D46DFF898
:104FF000B8C0DFF8B89020F01000DFF8B4A020624D
:10500000216A6768A06921F02001AE684C452B68D1
:1050100000EA0C0020F4407041EA061640EA03283A
:1050200001D054450FD1E86830B1082804D021A040
:1050300041F6EF2100F062FEE96826F0800040EAC8
:10504000011020F040064C450AD0544508D02748AE
:10505000844205D02648844202D0264884421BD18F
:10506000A869B0F5007F05D020B112A041F6FD215E
:1050700000F044FE6869B0F5807F05D020B10DA036
:1050800041F6FE2100F03AFED5E9051227F4406012
:1050900040EA810040EA82076760C4F818806868C7
:1050A000A0632662BDE8F087FF8FFFFE000001408D
:1050B000000401402E2E2F447269766572732F53BF
:1050C000544D3332483778785F48414C5F447269B9
:1050D0007665722F5372632F73746D33326837782D
:1050E000785F68616C5F74696D2E630000400140F9
:1050F00000440140004801402DE9F0470D46016A97
:105100000446DFF8B090DFF8B0A021F48071484584
:105110000162016A4768C26921F40071AB682868BE
:1051200022F0730241EA032640EA020801D0544506
:105130000FD1E86830B1082804D020A041F63A31F8
:1051400000F0DCFDE96826F4006040EA012020F46C
:1051500080664C450AD0544508D02648844205D084
:105160002548844202D0254884421BD1A869B0F565
:10517000007F05D020B111A041F6473100F0BEFDFF
:105180006869B0F5807F05D020B10CA041F64831A8
:1051900000F0B4FDD5E9051227F4405040EA0110B3
:1051A00040EA02176760C4F81C806868E063266202
:1051B000BDE8F08700000140000401402E2E2F447E
:1051C0007269766572732F53544D3332483778784D
:1051D0005F48414C5F4472697665722F5372632F4A
:1051E00073746D3332683778785F68616C5F7469A7
:1051F0006D2E630000400140004401400048014022
:105200002DE9F0410446006A0D461B4920F4805008
:105210008C422062216A6668E06921F40051AB6823
:105220002A6820F4E64041EA033840EA02270BD01E
:105230001248844208D01248844205D01148844262
:1052400002D0114884420ED16869B0F5807F05D044
:1052500020B10EA041F6863100F050FD696926F4B8
:10526000804040EA81166660E76168682064C4F89F
:105270002080BDE8F08100000000014000040140F2
:105280000040014000440140004801402E2E2F44C0
:105290007269766572732F53544D3332483778787C
:1052A0005F48414C5F4472697665722F5372632F79
:1052B00073746D3332683778785F68616C5F7469D6
:1052C0006D2E6300F0B5026A22F480320262134F41
:1052D000056A4268446D25F400350E89B8420B68B2
:1052E00024F0700445EA064543EA04030BD00C4C55
:1052F000A04208D00B4CA04205D00B4CA04202D0DB
:105300000A4CA04204D14C6922F4803242EA0422C1
:1053100042604365496881650562F0BD0000014057
:1053200000040140004001400044014000480140A9
:10533000F0B5026A22F480120262134F046A4268D6
:10534000436D24F400140E89B8420D6823F4E04341
:1053500044EA065443EA05230BD00C4DA84208D07A
:105360000B4DA84205D00B4DA84202D00A4DA842D1
:1053700004D14D6922F4003242EA8522426043653D
:105380004968C1650462F0BD0000014000040140AD
:1053900000400140004401400048014010B5036A4C
:1053A000046A23F00A0324F00104046284690B43B5
:1053B00024F0F00141EA02118161036210BD10B5D1
:1053C000036A23F0100303628369046A23F47043C1
:1053D00024F0A00443EA0232826144EA011101622E
:1053E00010BD000030B5416EB9B101680D4B03F13D
:1053F00008048A688968C2F34262490F5D5C615C97
:105400002D01B5FBF1F1A0F86A10995CA25C0901CD
:10541000B1FBF2F1A0F8681030BD0121A0F86A10CC
:10542000F8E70000FE5D000870B50446806AFF28BA
:1054300004D973A040F6CF4100F060FC94F8280036
:10544000C00710D0E06A38B1B0F5003F04D06CA0BE
:1054500040F6D44100F052FC2068E26A416821F431
:1054600000311143416094F82800800710D5206B6B
:1054700038B1B0F5803F04D061A040F6DB4100F0C8
:105480003DFC2068226B416821F48031114341606A
:1054900094F82800400710D5606B38B1B0F5802F24
:1054A00004D057A040F6E24100F028FC2068626B6F
:1054B000416821F480211143416094F828000007DD
:1054C00010D5A06B38B1B0F5004F04D04CA040F619
:1054D000E94100F013FC2068A26B416821F400410F
:1054E0001143416094F82800C00610D5E06B38B134
:1054F000B0F5805F04D04FF44F6141A000F0FEFB97
:105500002068E26B816821F480511143816094F836
:105510002800800610D5206C38B1B0F5005F04D0AB
:1055200037A040F6F74100F0E9FB2068226C816863
:1055300021F400511143816094F82800400649D5B8
:105540003E492068884219D03D49884216D03D49DD
:10555000884213D03C49884210D03C4988420DD043
:105560003B4988420AD03B49884207D03A498842A1
:1055700004D023A040F6FE4100F0C0FB606C4FF465
:10558000801530B1A84204D01DA040F6FF4100F0C4
:10559000B5FB2068626C416821F4801111434160C1
:1055A000606CA84216D1A06C68B1B0F5001F0AD09B
:1055B000B0F5800F07D0B0F5C00F04D010A040F6B2
:1055C000045100F09BFB2068A26C416821F4C001EB
:1055D0001143416094F82800000610D5E06C38B102
:1055E000B0F5002F04D006A040F60C5100F086FB69
:1055F0002068E26C416821F400211143416070BDD4
:105600002E2E2F447269766572732F53544D3332A8
:10561000483778785F48414C5F4472697665722FED
:105620005372632F73746D3332683778785F6861B3
:105630006C5F756172742E63000000000010014001
:105640000044004000480040004C00400050004032
:105650000014014000780040007C0040F8B50026AE
:105660000446C0F88C60FBF751FC054620686FF0DB
:105670007E470068000708D500222B464FF4001132
:105680002046009700F0D0FA60B920680068400713
:105690000AD500222B464FF480012046009700F0E7
:1056A000C3FA08B10320F8BD2020C4F88400C4F870
:1056B0008800E666002084F88060F8BD10B5806B35
:1056C0000021A0F85E10A0F85610FEF7C9FC10BD2E
:1056D00001680C4B0A6822F490720A6001688A68BB
:1056E0001A408A60C16E012904D101680A6822F05B
:1056F00010020A6000212022C0F88820C1660167DC
:1057000070470000FEFFFFEF2DE9F047FB4904461C
:10571000406886B04FF00006884204D3F8A040F6F7
:10572000D13100F0EBFAA0684FF48055B0F1805F02
:1057300007D030B1A84204D0F1A040F6D23100F039
:10574000DDFAFE4F4FF400512068B842E06806D100
:1057500000281BD0884219D040F6D53113E0A8426A
:105760000AD048B1B0F5405F06D0884204D0E4A02A
:1057700040F6D93100F0C2FA206A38B1B0F5006FB6
:1057800004D040F6DA31DEA000F0B8FA206950B15A
:10579000B0F5806F07D0B0F5C06F04D0D8A040F648
:1057A000DD3100F0ABFA606930F00C0100D120B9B6
:1057B000D3A040F6DE3100F0A1FAA06968B1B0F5DF
:1057C000807F0AD0B0F5007F07D0B0F5407F04D0CD
:1057D000CBA040F6DF3100F091FAE0694FF40045CC
:1057E00030B1A84204D04FF43E61C5A000F086FA63
:1057F000606AD0B1012818D0022816D0032814D02E
:10580000042812D0052810D006280ED007280CD066
:1058100008280AD0092808D00A2806D00B2804D066
:10582000B7A040F6E13100F069FA2168D4E90483B9
:10583000D4F81CC0A0680A6843EA0C0340EA0800D8
:10584000DFF8FC82184302EA080202430A6020687B
:10585000E268416821F44051114341602268A16926
:10586000BA4201D0206A01439368DFF8D882DFF89A
:10587000D8C2B64803EA08030B4393602168636A01
:10588000CA6A22F00F021A43CA62226862450ED128
:10589000006800F03800182873D047DCB8B3082837
:1058A00079D010286FD178E028287ED17BE0A849F4
:1058B0008A4209D1006800F00700062875D2DFE8A7
:1058C00000F0546A6C6E7072A2498A4209D1006875
:1058D00000F00700062868D2DFE800F0475D5F614E
:1058E00063659D498A4209D1006800F007000628D7
:1058F0005BD2DFE800F03A505254565897498A423A
:105900000BD1006800F0070006284ED200E010E03E
:10591000DFE800F02B414345474991498A420AD1CB
:10592000006800F03800182839D0B7DD2028BBD136
:105930003CE001203AE08B498A4209D1006800F03E
:105940000700062831D2DFE800F01026282A2C2E86
:1059500085498A420BD1006800F00700062824D24E
:10596000DFE800F003191B1D1F2100201EE0BA42D2
:105970001BD17648001D006800F00700062814D2ED
:1059800002E00CE007E010E0DFE800F003050709A3
:105990000B0D02200AE0042008E0082006E0102099
:1059A00004E0202002E0402000E080206F49DFF882
:1059B000C081BA426F4A4FF000094FEA21134ED11D
:1059C000102819D006DC022809D004280AD008289B
:1059D0007ED10CE020283ED0402879D13DE0FBF775
:1059E00013FC11E06846FBF721FC01980CE003A8CA
:1059F000FBF7BEFC049807E010688006084604D553
:105A00001168C1F3C101C840B8B3616A676838F86A
:105A1000112007EB4703B0FBF2F18B4258D8B1EBF2
:105A2000073F55D80023C8461946FAF7A5FC024699
:105A30007808130E120243EA012110183A46002397
:105A400041EB0801FAF798FC4B4AA0F540719142EE
:105A50003ED821684BE01846D7E72846D5E7E769E6
:105A60004FF6EF7AAF4247D1082819D006DC60B173
:105A700001280DD004282BD10DE039E0102814D0D6
:105A800020283AD0402823D187E0FCF7BDFD14E060
:105A9000FCF7CCFD11E06846FBF7C8FB01980CE071
:105AA00003A8FBF765FC049807E01068800670D532
:105AB0001068C0F3C10021FA00F0C8B1636A6168E0
:105AC00038F81330B0FBF3F0400000EB510000E079
:105AD00075E0B0FBF1F080B2A0F1100151456ED835
