:020000040800F2
:100000004816002441030008CB4600081B400008A6
:10001000C9460008230800084D56000800000000EB
:10002000000000000000000000000000CB4B0008B2
:100030002508000800000000CD460008CD4B000850
:100040005B0300085B0300085B0300085B03000818
:100050005B0300085B0300085B0300085B03000808
:100060005B0300085B0300085B0300085B030008F8
:100070005B0300085B0300085B0300085B030008E8
:100080005B0300085B0300085B0300085B030008D8
:100090005B0300085B0300085B0300085B030008C8
:1000A0005B0300085B0300085B0300085B030008B8
:1000B0005B0300085B0300085B0300085B030008A8
:1000C0005B0300085B0300085B0300085B03000898
:1000D0005B030008415600085B0300085B0300084F
:1000E0005B0300085B030008000000005B030008DE
:1000F0005B0300085B0300085B0300085B03000868
:100100005B0300085B0300085B0300085B03000857
:100110005B0300085B0300085B0300085B03000847
:100120005B0300085B0300085B0300085B03000837
:100130005B0300085B0300085B0300085B03000827
:1001400000000000000000000000000000000000AF
:100150005B0300085B0300085B0300085B03000807
:100160005B0300085B0300085B0300085B030008F7
:100170005B0300085B0300085B0300085B030008E7
:100180005B0300085B0300085B0300085B030008D7
:100190005B0300085B0300085B0300085B030008C7
:1001A0005B0300085B0300085B0300085B030008B7
:1001B0005B0300085B0300085B0300085B030008A7
:1001C0005B0300085B0300085B0300085B03000897
:1001D0005B0300085B0300085B0300085B03000887
:1001E0005B0300085B0300085B0300085B03000877
:1001F0005B0300085B0300085B0300085B03000867
:100200005B0300085B0300085B0300085B03000856
:100210005B0300085B0300085B0300085B03000846
:100220005B0300085B0300085B030008000000009C
:100230005B0300085B030008000000005B0300088C
:100240005B0300085B0300085B0300085B03000816
:100250005B0300085B0300085B0300085B03000806
:100260005B0300085B0300085B0300085B030008F6
:100270005B0300085B0300085B030008000000004C
:100280005B0300085B0300085B030008000000003C
:10029000000000005B03000800F002F800F041F8E5
:1002A0000AA090E8000C82448344AAF10107DA45D1
:1002B00001D100F036F8AFF2090EBAE80F0013F0E2
:1002C000010F18BFFB1A43F001031847CCA100002F
:1002D000ECA10000103A24BF78C878C1FAD85207C0
:1002E00024BF30C830C144BF04680C6070470000B0
:1002F0000023002400250026103A28BF78C1FBD82F
:10030000520728BF30C148BF0B607047642900F016
:10031000EB80002070471FB505F0C2FA1FBD10B575
:1003200010BD00F044FA1146FFF7F5FF05F0A8F9FB
:1003300000F062FA03B4FFF7F2FF03BC00F06AFAC0
:100340000948804709480047FEE7FEE7FEE7FEE769
:10035000FEE7FEE7FEE7FEE7FEE7FEE704480549A5
:10036000054A064B70470000754C000899020008CA
:100370004806002448160024480E0024480E002495
:1003800053EA020C00F069802DE9F04B4FF00006B3
:10039000002B1FBFB3FA83F503FA05F424FA05F620
:1003A0005E4012BF1643B2FA82F502FA05F4C5F1B7
:1003B00020051EBF22FA05FC44EA0C04203556EA4B
:1003C000044C4FEA144418BF641C4FF000084FF06F
:1003D0000009904271EB030C39D3002919BFB1FA1F
:1003E00081F701FA07F6B0FA80F700FA07F6C7F1CD
:1003F00020071EBF20FA07FC46EA0C062037B6FB92
:10040000F4FCA7EB0507103F07F01F0BCBF120060C
:100410000CFA0BFB2CFA06F644BFB3460026202F3D
:10042000A4BF5E464FF0000B5BEA060C08BF4FF01E
:10043000010B19EB0B09ABFB027C48EB0608C01B58
:1004400006FB02CC0BFB03CC71EB0C01C1E70B46A6
:10045000024641464846BDE8F08B13B54FF0000018
:100460004FF00001AFF30080BDE81C407047000072
:100470000FB41CB5074B06AA7B446946009005984B
:1004800000F07DF90020694600F08CF91CBC5DF895
:1004900014FB00002903000070B50446856900685C
:1004A000C10601D5302600E02026C00707D070BD68
:1004B000D4E9012130469047206A401C20626D1E1D
:1004C000F6D570BD70B5044685690078C00707D1C0
:1004D00070BDD4E9012120209047206A401C206291
:1004E0006D1EF6D570BD00002DE9F04106460024D2
:1004F00010687529314616A510D0AFF3008000288A
:1005000002DA404213A507E031688A0701D512A537
:1005100002E0490704D511A5012401E0AFF30080F2
:1005200000210A2206F1240709E0B0FBF2FCB0FB2F
:10053000F2F302FB1C00303078541846491C0028A6
:10054000F3D123462A463046BDE8F04100F0B9B861
:10055000000000002D0000002B0000002000000023
:100560002DE9F0474FF0000A89460446C0F820A064
:100570002046E1688847002876D0252806D0D4E9AF
:1005800001219047206A401C2062F1E7E168204683
:1005900000258847C4F81CA006460027C4F818A008
:1005A0002A2E09D0304605F063F838B304EB8708EB
:1005B000303EC8F8186019E059F8041B204604EBD7
:1005C00087029161E1688847012F064618D1E069EA
:1005D000002820DA25F020051DE0D8F8180000EBEF
:1005E000800006EB40003038C8F818002046E1686B
:1005F0008847064605F03CF80028EED1012F0AD0C6
:100600002E2E08D12046E16888477F1C0646022F1F
:1006100045F02005C4DBA069002803DA404245F01C
:100620000105A061E80701D025F01005B6B1A6F1DB
:100630004100192802D8203645F400654A46314663
:10064000204625604D46FFF761FE58B1012806D0CF
:10065000ED1D25F0070000F1080989E704E005F128
:10066000040985E730468AE7206ABDE8F0874FF045
:10067000000200B5134694469646203922BFA0E8F2
:100680000C50A0E80C50B1F12001BFF4F7AF0907FE
:1006900028BFA0E80C5048BF0CC05DF804EB8900EF
:1006A00028BF40F8042B08BF704748BF20F8022B32
:1006B00011F0804F18BF00F8012B7047704770474A
:1006C00070472DE9F0470D4699469246044600F1E1
:1006D00024080168880604D5E06921F01001216032
:1006E00000E00120A84201DD471B00E00027A169CE
:1006F0007A1902EB0900081AA0612078C00602D41A
:100700002046FFF7C9FE002608E0D4E901211AF8C7
:1007100006009047206A401C761C20624E45F4DBA0
:100720002078C0060AD52046FFF7B6FE06E0D4E9D9
:10073000012130209047206A401C2062381EA7F11A
:100740000107F4DC07E0D4E9012118F8050090471F
:10075000206A401C2062281EA5F10105F3DC20461A
:10076000FFF7B0FE2078000602D50220BDE8F08732
:100770000120FBE701694A1C02610878704700B557
:100780008FB0CDE901310021059105497944CDE9CA
:10079000031011466846FFF7E3FE0FB000BD0000EE
:1007A000E5FFFFFF0A6802F8010B0A607047754613
:1007B00000F02CF8AE4605006946534620F00700CD
:1007C000854618B020B5FFF7C9FDBDE820404FF0C1
:1007D00000064FF000074FF000084FF0000B21F02B
:1007E0000701AC46ACE8C009ACE8C009ACE8C009F8
:1007F000ACE8C0098D46704710B50446AFF30080E1
:100800002046BDE81040FFF795BD00000048704746
:10081000E805002401491820ABBEFEE726000200CF
:100820007047FEE7704772B6FEE700002DE9F84F0B
:10083000044600F0E5FC002C009008D094F8350048
:10084000022805D080216165002084F83400E3E0AF
:10085000C84DC84EC749183520683036DFF81883B0
:10086000DFF818938842DFF818A3DFF818B32ED00A
:10087000A8422CD0B0422AD0404528D0484526D0A6
:10088000504524D0584522D0BE4A183290421ED03E
:10089000BD4A90421BD0BC4A1832904217D0BA4A87
:1008A0003032904213D0B84A483290420FD0B64A04
:1008B000603290420BD0B44A7832904207D0B24AAC
:1008C0009032904203D0B04AA832904209D10268D7
:1008D00022F01E0202602068426922F0800242611A
:1008E00003E0026822F00E02026027688F42384659
:1008F0004DD0A8424BD0B04249D0404547D04845A2
:1009000045D0504543D0584541D09E4A1832904278
:100910003DD09D4A90423AD09B4A1832904236D000
:10092000994A3032904232D0974A483290422ED083
:10093000954A603290422AD0934A7832904226D02B
:10094000914A9032904222D08F4AA83290421ED0D3
:100950008E4A90421BD08D4A1432904217D08B4A57
:100960002832904213D0894A3C3290420FD0874AB5
:10097000503290420BD0854A6432904207D0834A6D
:100980007832904203D0814A8C32974204D1206E53
:10099000026822F48072026076492068884228D07A
:1009A000A84226D0B04224D0404522D0484520D08D
:1009B00050451ED058451CD072491831884218D075
:1009C0007149884215D070491831884211D06E495A
:1009D000303188420DD06C494831884209D06A498B
:1009E0006031884205D068497831884201D0664933
:1009F0009031016821F00101016010E000F000FC7D
:100A00000099401A05280AD9202262650020032196
:100A100084F8340084F835100120BDE8F88F386878
:100A2000C007EBD1534A0121206890422ED0A84242
:100A30002CD0B0422AD0404528D0484526D0504539
:100A400024D0584522D04F4B183398421ED04E4BDD
:100A500098421BD04C4B1833984217D04A4B303336
:100A6000984213D0484B483398420FD0464B6033DE
:100A700098420BD0444B7833984207D0424B903386
:100A8000984203D0404BA833984208D194F85C7048
:100A90003F23A06D07F01F07BB40836007E094F879
:100AA0005C30A06D03F01F0301FA03F3436020687C
:100AB00090424DD0A8424BD0B04249D0404547D09B
:100AC000484545D0504543D0584541D02D4A18326D
:100AD00090423DD02C4A90423AD02B4A1832904254
:100AE00036D0294A3032904232D0274A483290429A
:100AF0002ED0254A603290422AD0234A7832904242
:100B000026D0214A9032904222D01F4AA8329042E9
:100B10001ED01E4A90421BD01C4A1432904217D05D
:100B20001A4A2832904213D0184A3C3290420FD0D1
:100B3000164A503290420BD0144A6432904207D089
:100B4000124A7832904203D0104A8C3290420BD134
:100B5000D4E919024260E06E30B1026822F480727A
:100B60000260D4E91C024260002084F8340084F85A
:100B7000351052E710000240580002407000024059
:100B800088000240A00002401004024008540258AD
:100B90002DE9F05F28B190F83510022904D08021AA
:100BA00041650120BDE8F09F904C904B0168183CD6
:100BB00018338E4ADFF83C92A1428D4CDFF838E2C0
:100BC0008E4FDFF83CB2DFF83CA28F4D8F4E31D014
:100BD00091422FD099422DD0A1422BD0494529D006
:100BE000714527D0B94225D0DFF810C20CF1180C9E
:100BF00061451FD0DFF808C2ACF1600C614519D027
:100C0000DFF8FCC1ACF1480C614513D0DFF8F0C14E
:100C1000ACF1300C61450DD0DFF8E4C1ACF1180C3B
:100C2000614507D0594505D0514503D0A94201D0AF
:100C3000B1422CD1DFF8B4C14FF0040880F8358000
:100C4000ACF1180C61451DD091421BD0994219D0CE
:100C5000A14217D0494515D0714513D0B94211D0E2
:100C60006648183081420DD065486038814209D00D
:100C700063484838814205D061483038814201D00C
:100C80005F481838086820F001000860ABE0D1F830
:100C900000C02CF00E08DFF854C1C1F80080ACF1A0
:100CA000180C0168614527D0914225D0994223D084
:100CB000A14221D049451FD071451DD0B9421BD05A
:100CC000DFF838C10CF1180C614515D0DFF830C1E0
:100CD000ACF1600C61450FD0DFF824C1ACF1480CD9
:100CE000614509D0DFF818C1ACF1300C614503D083
:100CF000DFF80CC1ACF1180CD1F800C02CF0010CDD
:100D0000C1F800C0DFF8E4804FF0010C0168A8F1E1
:100D10001808414546D0914244D0994242D0A14260
:100D200040D049453ED071453CD0B9423AD0334AD3
:100D30001832914236D0324A603A914232D0304A2B
:100D4000483A91422ED02E4A303A91422AD02C4A2B
:100D5000183A914226D0594524D0514522D0A94273
:100D600020D0B1421ED02A4A91421BD0284A1432C8
:100D7000914217D0264A2832914213D0244A3C325D
:100D800091420FD0224A503291420BD0204A643215
:100D9000914207D01E4A7832914203D01C4A8C32CD
:100DA000914218D1016E0A6822F480720A6090F8AC
:100DB0005C20816D02F01F020CFA02F24A60D0E959
:100DC00019124A60C16E31B10A6822F480720A6059
:100DD000D0E91C124A600022016D80F8342080F8AE
:100DE00035C001B188470020DCE600002800024041
:100DF000580002407000024088000240A0000240FB
:100E00007004024088040240A0040240B80402407A
:100E10000854025870B5044600F0F2F90546601C0B
:100E200002D004480078044400F0EAF9401BA042D4
:100E3000FAD370BD040000242DE9FC5FDFF8C092F6
:100E40000027DFF8C0820D46DFF8BCA24845DFF876
:100E5000BCB204461FD054451DD05C451BD0AC48E5
:100E6000844218D0AB48844215D0AB48844212D09B
:100E7000AA4884420FD0AA4884420CD0A948844290
:100E800009D0A948844206D0A848844203D0BB2197
:100E9000A7A004F0F4FB28680104090C01D0000CA1
:100EA00003D0BC21A2A004F0EAFB6868F8B10128D5
:100EB0001DD011281BD0022819D0122817D0AB49F9
:100EC000884214D0AA49884211D0AA4988420ED03B
:100ED000A94988420BD0A949884208D0A84988422C
:100EE00005D0032803D0BD2191A004F0C8FBA86859
:100EF000002807D00128FCD00228FAD0BE218CA0FF
:100F000004F0BDFBF4E00120B840064000907DD025
:100F10006868012805D0022803D0112801D01228C2
:100F20001DD1E86848B1012807D0022805D0032860
:100F300003D0CE217EA004F0A2FBA16803237A0097
:100F4000E8689340904099430843A060606829791D
:100F5000009AC1F300119043B94001436160E16818
:100F600003207B000193AA689840814300909A4037
:100F70000A43E2606868022801D0122839D14C4542
:100F80001FD054451DD05C451BD06148844218D009
:100F90006048844215D06048844212D05F48844241
:100FA0000FD05F4884420CD05E48844209D05E482E
:100FB000844206D05D48844203D0E6215CA004F060
:100FC0005EFB28690F2803D9E72159A004F057FBDD
:100FD000F80829690F2304EB80024FEA477C106A66
:100FE0004FEADC6C03FA0CF3984301FA0CF101436D
:100FF000116228792168009A00F003009143019A58
:101000009040084320606868C00000E06FE06ED543
:101010005C48016841F002010160006827F00302AA
:1010200002F1B04200F002000090B8070F21030F58
:10103000D2F8080499404C4520EA010001D1002172
:101040002BE0544501D1012127E05C4501D102216B
:1010500023E02F498C4201D103211EE02D498C420F
:1010600001D1042119E02C498C4201D1052114E061
:101070002A498C4201D106210FE029498C4201D135
:1010800007210AE027498C4201D1082105E02649C1
:101090008C4201D1092100E00A2199400143C2F8A4
:1010A0000814D8F80000696820EA0600C90300D5D2
:1010B0003043C8F80000D8F80400696820EA060048
:1010C000890300D53043C8F804004FF0B0406A6887
:1010D0000168D20221EA060100D5314301606A6845
:1010E0004168920221EA060100D5314341607F1C2C
:1010F0002E6836FA07F07FF406AFBDE8FC9F0000CB
:1011000000000258800000580004025800080258ED
:10111000000C02580010025800140258001802581F
:10112000001C0258002002580024025800280258CF
:101130002E2E2F447269766572732F53544D3332BD
:10114000483778785F48414C5F4472697665722F02
:101150005372632F73746D3332683778785F6861C8
:101160006C5F6770696F2E63000000000000111152
:1011700000002111000031110000121100002211A5
:1011800000003211F444025870B50C0015460646B2
:1011900004D109A040F2AD1104F071FA45B1012D5E
:1011A00004D005A04FF4D77104F069FAB46170BDA2
:1011B0002004B06170BD00002E2E2F447269766548
:1011C00072732F53544D3332483778785F48414C0F
:1011D0005F4472697665722F5372632F73746D3337
:1011E00032683778785F68616C5F6770696F2E630B
:1011F0000000000001480068000C70470010005C0F
:10120000014880687047000004000024024881689B
:10121000027811448160704704000024032010B557
:1012200000F0DAF801F08EFB0F4A104914681368D9
:10123000C4F3032203F00F038A5CC95C02F01F02AF
:1012400001F01F01D0400A4A20FA01F1116009495A
:101250000860002000F010F808B1012010BD00F077
:101260002BF8002010BD000018440258D258000886
:10127000140000241000002470B50D4D0446287899
:10128000A0B14FF47A71B1FBF0F00A490968B1FBE3
:10129000F0F002F0BBFA48B9102C07D20022214628
:1012A000501E00F04BF800206C6070BD012070BD36
:1012B0000400002410000024064882B0016841F0B8
:1012C00002010160006800F002000090052002B0F9
:1012D00000F082B8F444025810B5040003D5BE21D2
:1012E00007A004F0CCF9002C09DB60090121800083
:1012F00004F01F0200F1E0209140C0F8001110BD81
:101300002E2E2F447269766572732F53544D3332EB
:10131000483778785F48414C5F4472697665722F30
:101320005372632F73746D3332683778785F6861F6
:101330006C5F636F727465782E63000070B5102A5D
:1013400014460D46064603D3AA2113A004F097F9CC
:10135000102D03D3AB2110A004F091F91D480068B3
:10136000C0F30223C3F10702042A00D90422181D86
:10137000072801D2002300E0DB1E012101FA02F060
:101380009940401E2840491E984021400143304664
:10139000BDE8704004F05BB92E2E2F44726976656B
:1013A00072732F53544D3332483778785F48414C2D
:1013B0005F4472697665722F5372632F73746D3355
:1013C00032683778785F68616C5F636F72746578D4
:1013D0002E6300000CED00E070B5072804460BD02A
:1013E000062C09D0052C07D0042C05D0032C03D0E3
:1013F000922108A004F043F9154904F007024FF6C2
:10140000FF050868134B284040EA02201843086093
:1014100070BD00002E2E2F447269766572732F53B3
:10142000544D3332483778785F48414C5F44726995
:101430007665722F5372632F73746D333268377809
:10144000785F68616C5F636F727465782E6300000B
:101450000CED00E00000FA0570B50228044606D045
:10146000012C04D015A040F23F1104F008F92248E5
:101470000168C943490705D5006800F00700A0428C
:1014800013D118E0016821F0070121430160FFF743
:10149000B7FE194D4FF47A760446083D07E000BFC9
:1014A000FFF7AEFE001BB04201D9012070BD2868D5
:1014B000C0438004F4D4002070BD00002E2E2F44C1
:1014C0007269766572732F53544D3332483778788A
:1014D0005F48414C5F4472697665722F5372632F87
:1014E00073746D3332683778785F68616C5F7077DA
:1014F000725F65782E6300000C48025810B501F049
:10150000DBF905490968054AC1F30211515C01F094
:101510001F01C84010BD000020440258D2580008E6
:10152000494930B5484C0B1D0A68143409681D68D8
:10153000246802F00303C5F30012C1F30531C4F3BC
:10154000CC04002914FB02F200EE102AF8EE400A47
:1015500075D03F4A9FED3D1AB7EE000A6BB1DFED43
:101560003D1A012B01D0022B64D002EE101A116833
:10157000F8EE422A81EEA22A21E0334C283C23686F
:101580009B0612D5344B246801EE901A1168C4F3FF
:10159000C104F8EE612AE34001EE903AC1F308017C
:1015A000F8EE611A81EEA22A0BE001EE901ADFED4F
:1015B0002B2A00BFF8EE611A116882EEA12AC1F34E
:1015C000080101EE901A1168F8EE611A40EE811AD6
:1015D00071EE800A62EE200AC1F3462101EE101A74
:1015E000B8EE411A31EE001AC0EE811ABCEEE11AD3
:1015F00080ED001A1168C1F3064101EE101AB8EE31
:10160000411A31EE001AC0EE811ABCEEE11A80EDEB
:10161000011A1168C1F3066101EE101AB8EE411A01
:1016200031EE000A80EE801ABCEEC10A80ED020A9B
:1016300030BD04E001EE901ADFED092ABAE700217F
:10164000016041608160F3E72844025800000039DE
:10165000384402580024744A0090D0030024744C8B
:10166000001B374B494930B5484C0B1D0A681C34E8
:1016700009681D68246802F00303C5F30022C1F362
:101680000551C4F3CC04002914FB02F200EE102A29
:10169000F8EE400A75D03F4A9FED3D1AB7EE000ABA
:1016A0006BB1DFED3D1A012B01D0022B64D002EEAD
:1016B000101A1168F8EE422A81EEA22A21E0334C7A
:1016C000283C23689B0612D5344B246801EE901AFF
:1016D0001168C4F3C104F8EE612AE34001EE903AC8
:1016E000C1F30801F8EE611A81EEA22A0BE001EEC7
:1016F000901ADFED2B2A00BFF8EE611A116882EE16
:10170000A12AC1F3080101EE901A1168F8EE611ADE
:1017100040EE811A71EE800A62EE200AC1F3462182
:1017200001EE101AB8EE411A31EE001AC0EE811A1D
:10173000BCEEE11A80ED001A1168C1F3064101EE1A
:10174000101AB8EE411A31EE001AC0EE811ABCEE42
:10175000E11A80ED011A1168C1F3066101EE101A59
:10176000B8EE411A31EE000A80EE801ABCEEC10AD2
:1017700080ED020A30BD04E001EE901ADFED092A87
:10178000BAE70021016041608160F3E72844025814
:1017900000000039404402580024744A0090D003ED
:1017A0000024744C001B374B2DE9FC5F044650F8B5
:1017B000241B002500902E460801FE4FDFF8F89309
:1017C0001DD5606E50B1B0F5801F0CD0B0F5001F74
:1017D0000ED0B0F5401F1DD001250FE0386840F451
:1017E0000030386016E00221201D02F071FF03E096
:1017F0000098022103F064F805000BD02E462088E3
:10180000C00523D5606D05281ED2DFE800F00C115D
:10181000161B1B00626ED9F8001021F44011114311
:10182000C9F80010EBE7386840F40030386009E090
:101830000021201D02F04CFF03E00098002103F07E
:101840003FF805466DB100E001252E462088800551
:1018500028D5A06D80281ED00CDC90B140280ED178
:1018600014E0626DD9F8001021F007011143C9F8A6
:101870000010EBE7C02813D0B0F5807F10D0012511
:101880000FE0386840F40030386009E00021201D86
:1018900002F01EFF03E00098002103F011F8054656
:1018A00095B12E462088DFF81083400508F108081E
:1018B0002CD5D4F8A400B0F5800F20D00DDCA0B159
:1018C000B0F5001F0FD115E0A26DD9F8001021F47A
:1018D000E0711143C9F80010E4E7B0F5C00F13D070
:1018E000B0F5000F10D001250FE0386840F400304B
:1018F000386009E00021201D02F0EAFE03E00098B4
:10190000002102F0DDFF054675B12E462088000556
:101910002DD5D4F8A800B0F1007F21D00EDCA8B1FD
:10192000B0F1807F10D116E0D4F8A420D8F80010D0
:1019300021F460011143C8F80010E7E7B0F1407FDF
:1019400013D0B0F1806F10D001250FE0386840F45B
:101950000030386009E00021201D02F0B9FE03E0EC
:101960000098002102F0ACFF05466DB12E462068BC
:1019700080011FD5A06CD8B110280FD0202812D01C
:10198000302815D0012514E0D4F8A820D8F800108C
:1019900021F0E0611143C8F80010E8E7386840F42E
:1019A0000030386004E00221201D02F091FE05465F
:1019B0006DB12E462088C0042BD5E06DB0F5005FD8
:1019C00020D00DDCA0B1B0F5805F0FD115E07A48D2
:1019D000A26C001F016821F0300111430160E9E7AA
:1019E000B0F5405F13D0B0F5804F10D001250FE067
:1019F000386840F40030386009E00021201D02F012
:101A000067FE03E00098002102F05AFF054685B109
:101A10002E462088800429D5206EB0F5403F23D083
:101A200010DC08B3B0F5803F14D0B0F5003F0FD103
:101A300015E0E26DD9F8001021F4E0411143C9F836
:101A40000010E6E7B0F5802F0ED0B0F5A02F0BD038
:101A500001250AE00121201D02F03AFE03E0009872
:101A6000012102F02DFF05468DB12E46208840044D
:101A70002AD5D4F8AC00B0F1405F23D010DC08B315
:101A8000B0F1805F14D0B0F1005F0FD115E0226E8D
:101A9000D9F8001021F4E0211143C9F80010E5E75E
:101AA000B0F1804F0ED0B0F1A04F0BD001250AE06D
:101AB0000121201D02F00CFE03E00098012102F03C
:101AC000FFFE05466DB12E46208800041FD5E06E4E
:101AD000D8B1B0F1805F0ED0B0F1005F10D0012519
:101AE00014E0D4F8AC20D8F8001021F0E041114304
:101AF000C8F80010E8E7386840F40030386004E0C7
:101B00000121201D02F0E4FD05466DB12E4620683E
:101B1000C0011ED5606CD0B101280ED0022811D0B2
:101B2000032814D0012513E0E26ED9F8001021F04B
:101B300040511143C9F80010E9E7386840F400301B
:101B4000386004E00221201D02F0C2FD0546ADB35D
:101B50002E462068DFF85CB04002ABF11C0B7DD54F
:101B6000D4F8B000B0F5807F79D0B0F5007F76D0A2
:101B7000B0F50C5F73D0B0F54C5F70D0B0F5864F08
:101B80006DD0B0F5A64F6AD0B0F5C64F67D0B0F5AE
:101B9000E64F64D0B0F5034F61D0B0F5134F5ED07F
:101BA000B0F5234F5BD0B0F5334F58D0B0F5434F6D
:101BB00055D004E02C44025850440258A9E0B0F536
:101BC000534F4CD0B0F5634F49D0B0F5734F46D06A
:101BD000F749884243D0F749884240D0F6498842C5
:101BE0003DD0F64988423AD0F549884237D0F54988
:101BF000884234D0F449884231D0F44988427FD0B9
:101C0000F34988427CD0F349884279D0F24988422E
:101C100076D0F249884273D0F149884270D0F149B8
:101C200088426DD0F04988426AD0F049884267D036
:101C3000EF49884264D0EF49884261D0EE4988423A
:101C40005ED0EE4988425BD0ED49884258D0ED49DC
:101C5000884255D0EC49884252D001E0A0E04FE0E4
:101C6000EA4988424CD0EA49884249D0E949884249
:101C700046D0E949884243D0E849884240D0E84903
:101C800088423DD0E74988423AD0E749884237D078
:101C9000E649884234D0E649884231D0E549884255
:101CA0002ED0E54988422BD0E449884228D0E44927
:101CB000884225D0E349884222D0E34988421FD098
:101CC000E24988421CD0E249884219D0E149884261
:101CD00016D0E149884213D0E049884210D0E0494B
:101CE00088420DD0DF4988420AD0DF49884207D0B8
:101CF000DE49884204D0DEA040F27F3103F0BFFC11
:101D0000EA48016841F480710160FFF779FA824680
:101D10000EE0E748626C016821F0030111430160A5
:101D200017E700BFFFF76CFAA0EB0A00642835D86C
:101D3000DE480068C005F5D58DBBDFF874A3B4F8A4
:101D4000B0100AF1240ADAF8000001F4407100F43E
:101D50004070884211D0DAF80010DAF8002021F43F
:101D6000407142F48032CAF80020DAF8002022F4F0
:101D70008032CAF80020CAF80010D4F8B000B0F5DC
:101D8000807F22D1FFF73CFA01901AE0FFF738FA82
:101D90000199411A41F28830814212D903252E4619
:101DA0002078DFF80CA3C0070AF1080A3DD0A06F25
:101DB000182838D026DC80B3082829D0102825D14F
:101DC0002CE0DAF800008007E0D5D4F8B010C1F3B9
:101DD0000120032858460DD0016821F47C51016090
:101DE000B4F8B020DAF80010C2F30B021143CAF8BD
:101DF0000010D5E7AF4A036802EA111223F47C51C0
:101E00001143ECE720280ED028280CD001250BE048
:101E10000121201D02F05CFC04E004E00098012197
:101E200002F04EFD05465DB12E46207880071ED596
:101E3000606F062819D2DFE800F0160C111616168E
:101E4000A26FDAF8001021F038011143CAF800102F
:101E5000EBE70121201D02F03BFC03E0009801218B
:101E600002F02EFD054675B100E001252E462078D2
:101E700040071FD5D4F89000062819D2DFE800F0FB
:101E8000160C11161616626FDAF8001021F0070111
:101E90001143CAF80010EAE70121201D02F018FCE6
:101EA00003E00098012102F00BFD05469DB100E022
:101EB00001252E46207880062BD5D4F88C00B0F171
:101EC000405F24D011DC10B3B0F1805F15D0B0F1C9
:101ED000005F10D116E0D4F89020D8F8001021F05F
:101EE00007011143C8F80010E4E7B0F1804F0ED0AD
:101EF000B0F1A04F0BD001250AE00021201D02F017
:101F0000E7FB03E00098022102F0DAFC05468DB100
:101F10002E46207840062BD5D4F89800B0F5406FB7
:101F200024D011DC10B3B0F5806F15D0B0F5006F80
:101F300010D116E0D4F88C20DAF8001021F0E0413E
:101F40001143CAF80010E4E7B0F5805F0ED0B0F599
:101F5000A05F0BD001250AE00021201D02F0B8FB94
:101F600003E00098022102F0ABFC05468DB12E463D
:101F70002078000618D5D4F89C00B0F5C04F12D0D8
:101F800013DC80B1B0F5005F10D0B0F5804F0ED1FA
:101F90009FE0D4F89820D8F8001021F4E0511143C4
:101FA000C8F80010E4E799E09AE085E08CE089E069
:101FB00000030100001301000023010000330100B1
:101FC00000430100005301000063010000730100A1
:101FD000008301000093010000A3010000B3010091
:101FE00000C3010000D3010000E3010000F3010081
:101FF000000302000013020000230200003302006D
:10200000004302000053020000630200007302005C
:10201000008302000093020000A3020000B302004C
:1020200000C3020000D3020000E3020000F302003C
:102030000003030000130300002303000033030028
:102040000043030000530300006303000073030018
:10205000008303000093030000A3030000B3030008
:1020600000C3030000D3030000E3030000F30300F8
:102070002E2E2F447269766572732F53544D33326E
:10208000483778785F48414C5F4472697665722FB3
:102090005372632F73746D3332683778785F686179
:1020A0006C5F7263635F65782E63000000480258BE
:1020B0004C440258CFFFFF00B0F5004F0ED0B0F5F2
:1020C000204F0BD001250AE00021201D02F000FB6B
:1020D00003E00098022102F0F3FB0546DDB12E4635
:1020E0002078000730D5D4F88000B0F5805F1CD090
:1020F000B0F5005F1FD0F0B1B0F5405F1BD040F2EB
:102100000F51AFF2940003F0BAFAD4F88000B0F5A2
:10211000805F0AD00FE0D4F89C20D8F8001021F49A
:1021200060411143C8F80010DAE70098022102F07C
:10213000C7FB00B10126D4F88020DAF8001021F4A2
:1021400040511143CAF800102078C00625D5D4F8B4
:102150009400B0F5807F11D0B0F5007F14D098B115
:10216000B0F5405F10D040F22251AFF2FC0003F016
:1021700086FAD4F89400B0F5807F05D1009802214A
:1021800002F09EFB00B10126D4F89420D8F800108C
:1021900021F440711143C8F800102068000316D5DF
:1021A000D4F8A00038B1B0F5803F09D0B0F5003FB9
:1021B0000BD001250AE00021201D02F089FA03E07E
:1021C0000098022102F07CFB054685B12E4620686E
:1021D000400322D5D4F88400B0F5801F11D0B0F5AB
:1021E000001F13D0B0F5401F15D0012514E0D4F81E
:1021F000A020D8F8001021F440311143C8F8001095
:10220000E5E7386840F40030386004E000980121C8
:1022100002F056FB0546ADB12E462068C00327D517
:10222000E06C40B1B0F5803F05D04FF4B161AFF242
:10223000C01003F024FAE06C70B1B0F5803F10D00C
:10224000012514E0D4F88420DAF8001021F44011BC
:102250001143CAF80010E0E7386840F400303860F5
:1022600004E00221201D02F033FA0546CDB12E46CE
:102270002068800005D50098022102F021FB00B102
:102280000126206880031AD5E06FB0B1B0F5807FD9
:102290000FD0B0F5007F10D0B0F5407F0DD00125F4
:1022A0000CE05948E26C016821F48031114301606F
:1022B000DEE7386840F400303860EDB32E46206821
:1022C000C00212D5206F40B1B0F1004F05D040F2EE
:1022D000E751AFF2642003F0D2F9226FD9F8001071
:1022E00021F000411143C9F800102068C00014D546
:1022F000D4F8B40040B1B0F5804F05D040F2F151B0
:10230000AFF2942003F0BBF9D4F8B420DBF800104E
:1023100021F480411143CBF800102068800214D5CD
:10232000A06E40B1B0F1807F05D040F2FB51AFF21A
:10233000C02003F0A4F900E05AE0A26ED9F8001022
:1023400021F080711143C9F800102068400018D5B1
:10235000D4F8B80040B1B0F5004F05D040F211619B
:10236000AFF2F42003F08BF9DBF8001021F4004108
:10237000CBF80010DBF80010D4F8B8201143CBF8EC
:1023800000102068002814DA206D58B1B0F1805F89
:1023900008D0B0F1005F05D040F21B61AFF23030E1
:1023A00003F06DF91848226D016821F04051114386
:1023B00001602068000217D5D4F8880058B1B0F544
:1023C000800F08D0B0F5000F05D040F22561AFF2C4
:1023D000603003F054F9D4F88820DAF8001021F4C2
:1023E00040011143CAF800105EB10120BDE8FC9F16
:1023F000E26FDAF8001021F440711143CAF80010BE
:102400005DE70020F2E700004C4402582DE9F05F40
:1024100004000D467ED02068401E3E2804D9FFA04F
:1024200040F2863103F02BF915B3012D20D0022D97
:102430001ED0032D1CD0042D1AD0052D18D0062D2A
:1024400016D0072D14D0082D12D0092D10D00A2D2A
:102450000ED00B2D0CD00C2D0AD00D2D08D00E2D2A
:1024600006D00F2D04D0EDA040F2873103F007F91C
:10247000DFF8E083D8F8000000F00F00A8420CD28B
:10248000D8F8001021F00F012943C8F80010D8F83F
:10249000000000F00F00A8423CD12078EE4E40072B
:1024A00019D52069316801F07001884213D960B1F3
:1024B00040280AD0502808D0602806D0702804D0C0
:1024C000D6A040F2A33103F0DAF82169306820F099
:1024D0007000084330602078DF4F3F1D00071BD598
:1024E0006069396801F07001884215D960B14028EF
:1024F0000AD0502808D0602806D0702804D0C7A081
:1025000040F2B53103F0BBF86169386820F0700023
:10251000084300E00DE138602078C0061DD5A069B1
:10252000396801F4E061884217D980B1B0F5806F55
:102530000DD0B0F5A06F0AD0B0F5C06F07D0B0F5E0
:10254000E06F04D0B5A040F2C63103F098F8A1695D
:10255000386820F4E060084338602078DFF8F8A29B
:1025600080060AF1080A1CD5E069DAF8001001F0CB
:102570007001884215D960B140280AD0502808D08F
:10258000602806D0702804D04FF47671A3A003F021
:1025900076F8E269DAF8001021F070011143CAF808
:1025A00000102078800721D5E068316801F00F0124
:1025B00088421BD9A0B1082812D0092810D00A28B7
:1025C0000ED00B280CD00C280AD00D2808D00E28CD
:1025D00006D00F2804D091A040F2EB3103F04FF861
:1025E000E168306820F00F00084330602078C007B1
:1025F00069D0A068E0B1B0F5006F19D0B0F5106FE8
:1026000016D0B0F5206F13D0B0F5306F10D0B0F504
:10261000406F0DD0B0F5506F0AD0B0F5606F07D0A5
:10262000B0F5706F04D07DA040F2FB3103F027F8C5
:102630006068012809D040B1022806D0032804D0E0
:102640004FF47F7175A003F01AF88349A2683068CF
:10265000183920F47060104330606068022816D08A
:10266000032817D00968012817D04907002960DA24
:10267000DFF8E4B1ABF1080BDBF8002022F0070231
:102680000243CBF80020FEF7BBFD814613E009684A
:102690008903EBE709688901E8E7C905E6E700BFB8
:1026A000FEF7AEFDA0EB090141F28830814202D96C
:1026B0000320BDE8F09F6168DBF8000000F03800FF
:1026C000B0EBC10FECD12078800721D5E0683168EC
:1026D00001F00F0188421BD2A0B1082812D00928AE
:1026E00010D00A280ED00B280CD00C280AD00D28A8
:1026F00008D00E2806D00F2804D048A040F23D4153
:1027000002F0BDFFE168306820F00F000843306040
:10271000D8F80010404601F00F01A9420BD901681A
:1027200021F00F0129430160006800F00F00A8426A
:1027300001D00120BDE72078400719D52069316814
:1027400001F07001884213D260B140280AD05028AD
:1027500008D0602806D0702804D030A040F25E4136
:1027600002F08DFF2169306820F07000084330606E
:102770002078000719D56069396801F07001884236
:1027800013D260B140280AD0502808D0602806D063
:10279000702804D04FF48E6120A002F070FF6169B0
:1027A000386820F07000084338602078C0061DD5D6
:1027B000A069396801F4E061884217D280B1B0F5B0
:1027C000806F0DD0B0F5A06F0AD0B0F5C06F07D004
:1027D000B0F5E06F04D011A040F2824102F04FFF4B
:1027E000A169386820F4E0600843386020788006EA
:1027F0003DD5E0695546DAF8001001F070018842D5
:1028000035D258B340282CD050282AD0602828D060
:10281000702826D001A040F2944120E02E2E2F44B3
:102820007269766572732F53544D33324837787816
:102830005F48414C5F4472697665722F5372632F13
:1028400073746D3332683778785F68616C5F726378
:10285000632E6300002000521844025801E002F089
:102860000EFFE169286820F070000843286000F03E
:1028700069F80D4933683268C3F3032302F00F028D
:10288000CB5C895C03F01F0201F01F01D040074AB6
:1028900020FA01F111600649086006480068BDE8A9
:1028A000F05FFEF7E9BC0000D258000814000024D5
:1028B000100000240800002430B500F043F80B4A53
:1028C0000B490C4B15681468C5F3032204F00F0480
:1028D0008A5C095D02F01F0201F01F01D040064A28
:1028E00020FA01F119601060084630BD1844025802
:1028F000D2580008140000241000002400B5FFF78F
:10290000DBFF05490968054AC1F30211515C01F07A
:102910001F01C84000BD00001C440258D2580008E6
:1029200000B5FFF7C9FF05490968054AC1F302214F
:10293000515C01F01F01C84000BD00001C4402585A
:10294000D2580008454970B545480968434B103BCB
:1029500011F0380208D00111082A03D0102A0BD038
:10296000182A0BD0084670BD19688906FBD519686E
:10297000C1F3C101C84070BD3A4870BD3749374DF9
:1029800018310C1D24350A68096826682D6802F084
:10299000030406F00102C1F30511C5F3CC0515FBD4
:1029A00002F200EE102AB8EE400AE9B32F4ADFED3A
:1029B0002E0AB7EE001A6CB1DFED2D1A012C01D0F2
:1029C000022C43D002EE101A1068F8EE422A81EE73
:1029D000A22A1EE01C68A40611D51B6801EE901AFD
:1029E0001168C3F3C103F8EE612AD84001EE900AE2
:1029F000C1F30800F8EE611A81EEA22A0BE001EEA5
:102A0000901ADFED1C2A00BFF8EE611A106882EE02
:102A1000A12AC0F3080001EE900AF8EE611A40EE18
:102A2000201A31EE810A00E015E022EE000A10685B
:102A3000C0F34620401C00EE900AF8EE600A80EEDB
:102A4000201ABCEEC10A10EE100A70BD01EE901AF9
:102A5000DFED092AD8E7002070BD000010440258BD
:102A60000090D003001BB70000000039304402582A
:102A70000024744A0024744C001B374B2DE9F05F8E
:102A800004006FD0FE4E41F20308DFF8F493FC4FD0
:102A9000A6F10405206809F10C09243780B1C107AB
:102AA00011D181076CD4C1067DD401077CD44107C4
:102AB0007BD480067AD4F3A040F2A31102F0DFFDAC
:102AC0002078C00759D060684FF4803A4FF4A02BAB
:102AD00040B1504506D0584504D04FF4D471E9A018
:102AE00002F0CDFDD9F80000396800F03800102858
:102AF0000CD0182803D101F00300022806D060682A
:102B000050450AD1286840F4803010E028688003DE
:102B100033D560680028B4D02FE008B158450DD0F7
:102B2000286820F480302860286820F480202860FD
:102B3000606898B1FEF764FB82460BE0286840F4B9
:102B400080202860DEE700BFFEF75AFBA0EB0A00FA
:102B5000642873D828688003F6D50EE0FEF750FB92
:102B6000824607E032E100BFFEF74AFBA0EB0A0015
:102B70006428EED828688003F6D42078800770D5C2
:102B8000E06860B101280AD0092808D0112806D0D1
:102B9000192804D04FF4EE71BAA002F070FD20693C
:102BA0007F2809D903E05FE0CFE0EEE004E1B5A0C3
:102BB00040F2DD1102F063FDD9F80000396810F031
:102BC00038000ED0182801D188070AD0E068A0B3D9
:102BD000296821F0190101432960FEF711FB8246A3
:102BE0001AE02868400702D5E068002893D0FEF775
:102BF00001FB40451AD82069402811D0316821F4E2
:102C00007C3141EA003030602BE000BFFEF7F8FA7B
:102C1000A0EB0A0002289CD828684007F6D5E6E712
:102C2000306820F47C3040F40030ECE7207C3168E0
:102C300021F0FE4141EA0060E5E700E06BE2286830
:102C400020F001002860FEF7DBFA824606E000BFB4
:102C5000FEF7D6FAA0EB0A0002288AD828684007B7
:102C6000F6D42078C0066DD5E06930B1802804D054
:102C700084A040F21F2102F002FD206A3F2804D9FF
:102C80004FF408717FA002F0FAFCD9F80000DFF8D9
:102C9000F0B1396800F038000BF1080B082810D0AB
:102CA000182803D101F0030001280AD0E0690028A8
:102CB000286837D040F080002860FEF7A1FA8246ED
:102CC00022E02868C00522D5E06980287ED11EE078
:102CD000206A202820D0316821F0F84141EA806044
:102CE00030602FE094F82010DBF8002022F07C52B6
:102CF00042EA0161CBF8001024E000BFFEF780FA41
:102D0000A0EB0A00022886D82868C005F6D5FEF791
:102D100071FA4045E6D8DBE7306820F0F84040F033
:102D20008040DDE720F080002860FEF769FA064663
:102D300005E000BFFEF764FA801B02288DD82868E2
:102D4000C005F7D42078000733D54D4E6069703642
:102D5000E0B1012806D04BA040F2612102F08FFCC7
:102D6000606998B13168B04641F001013160FEF709
:102D700047FA064605E000BFFEF742FA801B02282C
:102D8000C1D8D8F800008007F6D512E03168B04607
:102D900021F001013160FEF733FA064605E000BF7D
:102DA000FEF72EFA801B0228ADD8D8F80000800765
:102DB000F6D4207880062FD5A069E0B1012808D08C
:102DC0004FF423712FA002F05AFC00E0D2E1A06979
:102DD00088B1286840F480502860FEF711FA064652
:102DE00005E000BFFEF70CFA801B02288BD828688C
:102DF0008004F7D510E0286820F480502860FEF7A2
:102E0000FFF9064605E000BFFEF7FAF9801B02282D
:102E100094D828688004F7D42078400779D5A06832
:102E200040B1012806D0052804D016A040F2B621F2
:102E300002F025FCDFF88480D8F8001041F480719E
:102E4000C8F80010FEF7DCF9064604E0FEF7D8F9F2
:102E5000801B642894D8D8F80000C005F6D5084E29
:102E6000A0686C3601282BD008B1052834D0306812
:102E700020F001003060306820F0040023E0000002
:102E8000044402582E2E2F447269766572732F53B4
:102E9000544D3332483778785F48414C5F4472690B
:102EA0007665722F5372632F73746D33326837787F
:102EB000785F68616C5F7263632E6300004802583C
:102EC000306840F001003060A06841F2883A98B163
:102ED000FEF796F980460BE0306840F00400306061
:102EE000EEE700BFFEF78CF9A0EB080151458FD843
:102EF00030688007F6D50CE0FEF782F9804605E0E1
:102F0000FEF77EF9A0EB08015145A3D83068800791
:102F1000F6D4606A00287DD001280AD0022808D0A3
:102F20004FF43A71AFF2A40002F0A9FB606A0028E6
:102F3000F1D0DFF84882D9F80000C0F3C2000328BE
:102F400069D0606A022807D0286820F08070286065
:102F5000FEF756F90446E1E0A06A01280AD048B11C
:102F6000032807D0022805D040F2F121AFF2EC008F
:102F700002F085FB206C58B1042809D0082807D03E
:102F80000C2805D040F2F221AFF2081002F077FBD6
:102F9000606C38B1022805D040F2F321AFF21C106A
:102FA00002F06DFBE06A401E3E2805D94FF43D71EA
:102FB000AFF2301002F063FB206B001FB0F5FE7F14
:102FC00005D940F2F521AFF2441002F058FB606BD6
:102FD000401E7F2805D940F2F621AFF2581002F0CA
:102FE0004EFBA06B401E7F2805D940F2F721AFF2BF
:102FF0006C1002F044FBE06B401E7F2805D94FF4B3
:103000003E71AFF2801002F03AFBA06CB0F5005FA9
:1030100008D301E0B0E085E040F2F921AFF29C1066
:1030200002F02DFB286820F080702860FEF7E8F899
:10303000064604E0FEF7E4F8801B02286BD82868F7
:103040008001F7D4E26A40F2F331386854F8283F3F
:10305000884340EA021018433860267B43462189A2
:103060004FF4FE0C208A4FF0FE47491E227D760267
:10307000401EA6F50076C1F30808B1B2521E0CEA54
:10308000004041EA080101433C4807EA026211435B
:103090003A4A001F1960121D016821F00101016008
:1030A00011684FF6F876236AB14341EAC301116013
:1030B0000168A26921F00C01114301600168E26915
:1030C00021F0020111430160016841F48031016087
:1030D000016841F400310160016841F48021016020
:1030E000016841F001010160286840F080702860AB
:1030F000FEF786F8044604E0FEF782F8001B02287B
:1031000009D828688001F7D536E000BFFEF778F8C7
:10311000001B022802D90320BDE8F09F2868800127
:10312000F4D429E0626A3968D8F80000012A21D075
:10313000A26A01F0030393421CD1E26AC1F30511B4
:103140008A4217D1216BC0F30802491E8A4211D16D
:10315000616BC0F34622491E91420BD1A16BC0F3B3
:103160000642491E914205D1E16BC0F30660491E3B
:10317000814201D00120CFE70020CDE73044025842
:103180002DE9F05F04007DD0C94D2068C94ECA4FBB
:10319000A84210D0B0420ED0B8420CD0C7498842E5
:1031A00009D0C749884206D0C649884203D0FB21CE
:1031B000C5A002F064FA606830B1B0F5800F03D0AA
:1031C000FC21C1A002F05BFAA06860B1B0F5802FCD
:1031D00009D0B0F5C02F06D0B0F5003F03D0FD21D7
:1031E000B9A002F04CFAE0681F283BD01E2839D065
:1031F0001D2837D01C2835D01B2833D01A2831D0B1
:1032000019282FD018282DD017282BD0162829D0D0
:10321000152827D0142825D0132823D0122821D0F0
:1032200011281FD010281DD00F281BD00E2819D010
:103230000D2817D00C2815D00B2813D00A2811D030
:1032400009280FD008280DD007280BD0062809D050
:10325000052807D0042805D0032803D0FE219AA012
:1032600002F00DFAE06B4FF4807950B3202828D09B
:10327000402826D0602824D0802822D0A02820D022
:10328000C02800E0A1E01CD0E0281AD0484518D0A2
:10329000B0F5907F15D0B0F5A07F12D0B0F5B07F1B
:1032A0000FD0B0F5C07F0CD0B0F5D07F09D0B0F50D
:1032B000E07F06D0B0F5F07F03D0FF2182A002F0BE
:1032C000DEF9A0694FF00058B0F1806F06D028B148
:1032D000404503D07CA0494602F0D1F9606B4FF025
:1032E0008049484505D020B177A040F2011102F095
:1032F000C6F9E0694FF0805BB0B1584514D0404545
:1033000012D0B0F1405F0FD048450DD0B0F1A04FC2
:103310000AD0B0F1C04F07D0B0F1E04F04D06AA09E
:103320004FF4817102F0ABF9206A38B1B0F5000FAB
:1033300004D065A040F2031102F0A1F9606A48B11F
:10334000B0F5002F1AD04FF482715FA002F097F908
:10335000606A98B9206938B1B0F1007F04D05AA0F2
:1033600040F2071102F08BF9606938B1B0F1807F4B
:1033700004D04FF4847154A002F081F920684FF01A
:103380000009C4F82890A84206D0B04204D0B84240
:1033900002D0E1680F2918D8E1684FF0010AE36B09
:1033A0000831C9080AEB53125143A84205D0B04274
:1033B00003D0B84201D0082907D8A84203D0B042B0
:1033C00001D0B84204D1102902D90120BDE8F09FF4
:1033D00094F8810020B9204684F8809000F090F89D
:1033E000022084F881002068016821F00101016059
:1033F000A069B0F1806F10D16068B0F5800F01D086
:1034000018B10AE0A06B18B107E0A06B584504D1D1
:103410002068016841F480510160A56AE069236871
:10342000E16B2843E268084310439860D4E90D013A
:10343000D4E90582656A23691143D4F820C0284382
:10344000256808431843A36DD4E90171D4E9122615
:1034500040EA080040EA0C00384330430843104378
:103460001843E860606868B92068816821F4C05139
:1034700041F4006181602068816821F4C06141F4F9
:10348000806181602068016D21F001010165606843
:10349000400206D52068626DC16821F000411143E9
:1034A000C160C4F8849084F881A000208EE70000F9
:1034B0000030014000380040003C00400034014032
:1034C00000500140001400582E2E2F44726976657A
:1034D00072732F53544D3332483778785F48414CDC
:1034E0005F4472697665722F5372632F73746D3304
:1034F00032683778785F68616C5F7370692E63003B
:1035000010B5B6B0044614212FA8FDF7B0F8BC21C1
:103510006846FDF7ACF818492068884229D14FF475
:1035200080400090002468462B94FEF73DF908B1D6
:10353000FDF779F91148016841F020010160006848
:1035400000F0200034900D481438016841F0020169
:10355000016000682FAB022100F0020034902820A7
:10356000082283E8130006482FA9CDE93242FDF76F
:1035700063FC36B010BD000000140058F44402583B
:10358000000402582DE9FC5F8A4601680446806801
:103590002031009100211D464FF4C02B17460191A8
:1035A00048B1584507D0B0F5003F04D089A040F29B
:1035B0001E3102F064F894F8800001280DD04FF01D
:1035C000010884F88080FDF71BFE814694F8810095
:1035D0000026012804D0022031E00220BDE8FC9F33
:1035E000BAF1000F2AD04FB3A1680320C4F85CA041
:1035F000A4F8607084F88100C4F88460A4F8627054
:103600006666A4F86860A4F86A605945666726672C
:1036100004D12068016841F40061016020684168BC
:103620006FF30F01394341602068016841F00101E7
:1036300001606068B0F5800F04D008E0012084F8D4
:103640008060CBE72068016841F400710160E068A8
:103650000F281AD82CE02068416989070BD5E16D45
:1036600009680162E06D001DE065B4F86200401E6B
:10367000A4F8620009E0FDF7C3FDA0EB0900A84231
:1036800002D3681C01D005E025B1B4F8620000281F
:10369000E1D183E0204601F019FAD4F8841084F8CF
:1036A000806041F48071C4F8841084F881808DE0DA
:1036B00007282CD86EE02068416989071CD5B4F82A
:1036C000621001290BD9E16B49B1E16D0968016212
:1036D000E06D001DE065B4F86200801E09E0E06D59
:1036E000018800980180E06D801CE065B4F86200FC
:1036F000401EA4F862000AE0FDF782FDA0EB09007D
:10370000A84202D3681C02D0C4E7002DC2D0B4F88E
:1037100062000028CFD141E02068416989072ED599
:10372000B4F8621003290CD9E16B402909D9E16D85
:1037300009680162E06D001DE065B4F86200001FD9
:103740001AE0B4F8621001290CD9E16B51B1E06DB7
:10375000018800980180E06D801CE065B4F862008B
:10376000801E09E0E16D097880F82010E06D401CB2
:10377000E065B4F86200401EA4F862000AE0FDF7BC
:103780003FFDA0EB0900A84202D3681C02D081E7EC
:10379000002DB9D0B4F862000028BDD100224B46FC
:1037A00008212046009501F0EFF928B1D4F88400F3
:1037B00040F02000C4F88400204601F087F984F826
:1037C0008180D4F8840084F8806008B1012005E786
:1037D000019803E72E2E2F447269766572732F537A
:1037E000544D3332483778785F48414C5F447269B2
:1037F0007665722F5372632F73746D333268377826
:10380000785F68616C5F7370692E6300401EB0F171
:10381000807F10B501D3012010BD4FF0E02460611E
:103820000F21601701F013FF0020A0610721216123
:1038300010BD000070B51F4904460068884219D0C9
:103840001D49884216D01D49884213D01C49884220
:1038500010D01C4988420DD01B4988420AD01B4910
:10386000884207D01A49884204D04FF40D7119A03C
:1038700001F005FF94F88000012818D0012184F898
:1038800080102420C4F884000021202354F8640B05
:103890000268056822F0005225F0010505602160EC
:1038A00054F8640C026023620846217770BD022040
:1038B00070BD00000010014000440040004800407E
:1038C000004C0040005000400014014000780040CF
:1038D000007C00402E2E2F447269766572732F5340
:1038E000544D3332483778785F48414C5F447269B1
:1038F0007665722F5372632F73746D333268377825
:10390000785F68616C5F756172745F65782E6300C3
:103910007047704770B50D462B49044600688842D1
:1039200019D02A49884216D02949884213D02949FA
:10393000884210D0284988420DD0284988420AD0B0
:103940002749884207D02749884204D026A040F260
:10395000932101F094FE9DB1B5F1007F10D0B5F137
:10396000806F0DD0B5F1C06F0AD0B5F1006F07D0F0
:10397000B5F1206F04D04FF425711BA001F07FFE3C
:1039800094F8800001281DD0012184F880102420A3
:10399000C4F8840020680668016821F00101016014
:1039A0002068816821F0606129438160204601F030
:1039B000D3F92268202100201660C4F8841084F80E
:1039C000800070BD022070BD001001400044004026
:1039D00000480040004C00400050004000140140EE
:1039E00000780040007C00402E2E2F4472697665DE
:1039F00072732F53544D3332483778785F48414CB7
:103A00005F4472697665722F5372632F73746D33DE
:103A100032683778785F68616C5F756172745F6572
:103A2000782E630070B50D462B4904460068884225
:103A300019D02A49884216D02949884213D02949E9
:103A4000884210D0284988420DD0284988420AD09F
:103A50002749884207D02749884204D026A040F24F
:103A6000622101F00CFE9DB1B5F1005F10D0B5F1FF
:103A7000804F0DD0B5F1C04F0AD0B5F1004F07D03F
:103A8000B5F1204F04D01CA040F2632101F0F7FDF6
:103A900094F8800001281DD0012184F88010242092
:103AA000C4F8840020680668016821F00101016003
:103AB0002068816821F0604129438160204601F03F
:103AC0004BF92268202100201660C4F8841084F885
:103AD000800070BD022070BD001001400044004015
:103AE00000480040004C00400050004000140140DD
:103AF00000780040007C00402E2E2F4472697665CD
:103B000072732F53544D3332483778785F48414CA5
:103B10005F4472697665722F5372632F73746D33CD
:103B200032683778785F68616C5F756172745F6561
:103B3000782E630070477047704700002DE9F04110
:103B400003680446002540F60F06D86919689A688C
:103B5000304209D186067DD501F0200602F080575B
:103B60003E4377D0216F39E1AF4EB04F16400F4042
:103B700037436FD0C70709D0CF0507D501271F628C
:103B8000D4F88C3043F00103C4F88C3083070AD595
:103B9000D30708D0276802233B62D4F88C3043F067
:103BA0000403C4F88C3043070AD5D30708D027682C
:103BB00004233B62D4F88C3043F00203C4F88C3009
:103BC00003070CD501F02003334308D026680823EF
:103BD0003362D4F88C3043F00803C4F88C3003050A
:103BE0000BD54B0109D526684FF400633362D4F836
:103BF0008C3043F02003C4F88C30D4F88C30002B88
:103C000034D0800609D501F0200002F0805108432D
:103C100003D0216F09B1204688472168D4F88C0071
:103C20008968490602D410F0280F21D0204601F0FF
:103C300009FA20688168490615D5816821F040019C
:103C40008160E06F78B17A490165E06FFCF7A0FF11
:103C5000002800E012E009D0E06F016D00E020468E
:103C6000BDE8F04108472046FFF766FFBDE8F08158
:103C70002046FFF761FFC4F88C50F7E7E76E202677
:103C8000012F71D1C7066FD5CF066DD510201862F0
:103C900022689068400669D5E16F664B08689842D3
:103CA00034D0644B1833984230D0624B3033984252
:103CB0002CD0604B4833984228D05E4B60339842FA
:103CC00024D05C4B7833984220D05A4B90339842A2
:103CD0001CD0584BA833984218D0574B984215D057
:103CE000554B1833984211D0534B303398420DD076
:103CF000514B4833984209D04F4B6033984205D01E
:103D00004D4B7833984201D04B4B903340680004C0
:103D1000000CABD0B4F85C308342A7D9A4F85E00A5
:103D2000C869B0F5807F18D0106820F480701060EA
:103D30002068816821F0010181602068816821F09C
:103D400040018160C4F88860E5662068016821F060
:103D500010010160E06FFCF769FDB4F85C00B4F895
:103D60005E10401A81B220E023E0FFE7B4F85C0067
:103D7000B4F85E10B4F85E30401A81B2002BC8D09F
:103D80000029C6D010682D4B20F490701060206878
:103D9000826802EA03028260C4F88860E5662567EB
:103DA0002068026822F0100202602046FFF7B0FD92
:103DB0005CE7C70209D5570207D54FF48010186297
:103DC0002046BDE8F041FFF7B6BE07060AD501F070
:103DD000800702F40002174304D0616F00297FF4CA
:103DE0003EAF43E742060CD54A060AD5196820467D
:103DF00021F040011960C4F88460656700F00CF997
:103E000034E7020206D54A0004D52046BDE8F04159
:103E1000FFF790BEC001CBD50029C9DA2046BDE826
:103E2000F041FFF776BD0000010000102001000402
:103E3000315000081000024010040240FEFFFFEF66
:103E40002DE9F047040024D0A0693649364A0028FD
:103E5000364B374D374E384FDFF8E0C0DFF8E080A3
:103E6000DFF8E090206817D088422CD090422AD00A
:103E7000984228D0A84226D0B04224D0B84222D0BE
:103E8000604520D040451ED048451CD04FF49F715E
:103E900016E00120BDE8F087884214D0904212D08D
:103EA000984210D0A8420ED0B0420CD0B8420AD0EE
:103EB000604508D0404506D0484504D040F2431143
:103EC00021A001F0DCFBD4F8840028B9002084F89C
:103ED0008000204600F056F82420C4F884002068B2
:103EE000016821F001010160204601F0C7F80128B6
:103EF000D0D0A06A10B1204600F050FF2068416881
:103F000021F4904141602068816821F02A0181609C
:103F10002068016841F0010101602046BDE8F047DA
:103F200001F056B800100140004400400048004035
:103F3000004C004000500040001401400078004058
:103F4000007C0040000C00582E2E2F4472697665CC
:103F500072732F53544D3332483778785F48414C51
:103F60005F4472697665722F5372632F73746D3379
:103F700032683778785F68616C5F756172742E6340
:103F80000000000010B5B6B0044614212FA8FCF7BD
:103F90006EFBBC216846FCF76AFB1C49206888421E
:103FA00031D100241E94012000906846FDF7FCFBEF
:103FB00008B1FCF738FC1648016841F010010160B7
:103FC000006800F01000349011481038016841F08A
:103FD0000101016000682FAB022100F00100349064
:103FE0004FF4C060072283E813000A482FA9CDE9E7
:103FF0003242FCF721FF002225201146FDF79EF9F1
:104000002520FDF769F936B010BD00000010014011
:10401000F0440258000002587047FEE72DE9F041D5
:104020001C4615460E4607462A2000F009FA283796
:10403000B8B200F021FA2835A8B200F01DFA2B2002
:1040400000F0FEF93536B0B200F016FA3534A0B201
:1040500000F012FABDE8F0412C2000F0F1B908B5EB
:1040600000218723F0220090084600F001F808BDE7
:104070002DE9F047141A5F1A641C089E7F1C002566
:104080007C434FF490686400444502D9A4F59065E0
:104090004446FFF7C3FFDFF85090370ADFF84CA023
:1040A000F6B20020494606E001EB4003421C01F84D
:1040B000107090B25E70B0EB540FF5D301225046F1
:1040C0001021FDF761F8A1B2074800F0F1F8002DCA
:1040D00007D0454502D9A5F59065E2E72C460025B5
:1040E000DFE7BDE8F0870000680100240004025803
:1040F00010B56E4C002208212046FDF745F87820C7
:10410000FCF788FE002220461021FDF73DF87820BC
:10411000FCF780FE012220461021FDF735F87820BB
:10412000FCF778FE112000F08BF97820FCF772FE86
:10413000362000F085F9702000F090F93A2000F068
:104140007FF9052000F08AF9B22000F079F90C20FF
:1041500000F084F90C2000F081F9002000F07EF9D5
:10416000332000F07BF9332000F078F9B72000F01D
:1041700067F9352000F072F9BB2000F061F91920D1
:1041800000F06CF9C02000F05BF92C2000F066F91B
:10419000C22000F055F9012000F060F9C32000F0C2
:1041A0004FF9122000F05AF9C42000F049F92020FC
:1041B00000F054F9C62000F043F90F2000F04EF94A
:1041C000D02000F03DF9A42000F048F9A12000F033
:1041D00045F9E02000F034F9D02000F03FF9042048
:1041E00000F03CF90D2000F039F9112000F036F90B
:1041F000132000F033F92B2000F030F93F2000F0BD
:104200002DF9542000F02AF94C2000F027F918204D
:1042100000F024F90D2000F021F90B2000F01EF928
:104220001F2000F01BF9232000F018F9E12000F016
:1042300007F9D02000F012F9042000F00FF90C204B
:1042400000F00CF9112000F009F9132000F006F934
:104250002C2000F003F93F2000F000F9442000F08A
:10426000FDF8512000F0FAF82F2000F0F7F81F2099
:1042700000F0F4F81F2000F0F1F8202000F0EEF834
:10428000232000F0EBF8212000F0DAF8292000F0DC
:10429000D7F8002186230846EF22FFF7BFFE012250
:1042A0002046BDE810400821FCF76EBF000C025804
:1042B00000F002BC2DE9F05F1C46F023203AA3EB8E
:1042C00054038342D7B25AD3C4F187028A4256DBE1
:1042D0000A19521E00EB540593B26D1EAAB2FFF7E5
:1042E0009DFE404E102C19D0202C17D00C2C48D0FD
:1042F000182C44D13C4A07EB470000244FF0300A09
:1043000002EB0019B046E10719F8046057D0002508
:104310000427300656D5B8F8000055E0600700D0F5
:10432000012032496308B14600EBD40201F5BE50CA
:1043300012FB03F2002501EB071A00EBC71B02F08A
:10434000FF081AE0102C09D0202C18D11BF80560AA
:104350000027300605D5B9F8000004E01AF805601A
:10436000F6E7B9F8020000F087F870067F1C060E29
:10437000FFB2082FEDD36D1CEDB24545E2D3BDE889
:10438000F09F1B4807EB47025FF000044FF00C0959
:1043900000EB8208002518F80470380601D5308833
:1043A00000E0708800F068F878066D1C070EEDB22A
:1043B000062DF2D3641CE4B24C45EBD3DFE70827AB
:1043C0000025A6E7B8F8020000F056F870066D1C4C
:1043D000060EEDB2BD429CD3641CE4B2544592D3A8
:1043E000CDE700001800002446630008565D000871
:1043F000E25800082DE9F0470D46044658191119F6
:1044000087B21FFA81F8DDE908A604F0FF0910E081
:10441000444503D305EB0A004C4685B2BD420DD29C
:10442000534629462046FFF745FF04EB5A0084B265
:10443000761C3278A2F120005E28E9D9BDE8F08729
:1044400001B5054800221021FCF79EFE01216846B7
:10445000FFF72EFF08BD00000004025801B5054813
:1044600001221021FCF790FE01216846FFF720FF92
:1044700008BD00000004025808B50021020A00919E
:1044800010218DF8002001228DF801000348FCF76F
:104490007BFE02216846FFF70BFF08BD00040258AF
:1044A0002DE9F04387B014216846FCF7E0F84D4849
:1044B000016841F010010160016801F010010591EF
:1044C000016841F004010160016801F004010591F7
:1044D000016841F080010160016801F080010591EF
:1044E000016841F001010160016801F001010591DD
:1044F000016841F002010160016801F002010591CB
:10450000016841F00801016000680122364F07216F
:1045100000F0080005903846FCF736FEDFF8CC8046
:10452000002218214046FCF72FFEDFF8C49000223D
:1045300010214846FCF728FE03264FF6FF700024A2
:1045400069460294CDE900062A48FCF775FC01256E
:10455000694668038DE831003846FCF76DFC07209A
:104560006946CDE90005CDE902543846FCF764FC04
:1045700041F6F8706946CDE9000638460294FCF72A
:104580005BFC49F6FF106946CDE900061A48029423
:10459000FCF752FC4FF6C7706946CDE90006484665
:1045A0000294FCF749FC4FF6E7706946CDE9000636
:1045B00040460294FCF740FC18206946CDE900050E
:1045C000CDE902544046FCF737FC10206946CDE99E
:1045D0000005CDE902544846FCF72EFC07B0BDE8C3
:1045E000F0830000E044025800080258000C025812
:1045F0000004025800100258000002582DE9F04152
:104600004FF480061548144A4FF4C027B5004FF008
:10461000070C4FF0007E0021AC0080E8C450A300DE
:10462000C0E90731416212058162C162C0E90D2112
:10463000C163016441648164C16401654165816550
:10464000C0E90554FEF79CFD002803D0BDE8F04109
:10465000FCF7E9B8BDE8F0810014005850000024D0
:104660001848002110B5164C0C224FF4E1330460B9
:10467000C0E90131C160C0E904128161C161016218
:1046800041628162FFF7DCFB08B1FCF7CCF80D4812
:104690000021FFF7C7F908B1FCF7C5F80948002168
:1046A000FFF738F908B1FCF7BEF80648FFF7C2F883
:1046B000002803D0BDE81040FCF7B5B810BD0000DD
:1046C00000100140D8000024FEE7FEE7704700001C
:1046D0002DE9F0478946016804464FF0000A491E5B
:1046E0003E2904D966A040F6C25100F0C8FF6068B8
:1046F000001FB0F5FE7F04D961A040F6C35100F061
:10470000BEFFA068401E7F2804D95DA040F6C451BA
:1047100000F0B5FF2069401E7F2804D958A040F65C
:10472000C55100F0ACFFE068401E7F2804D954A0BA
:1047300040F6C65100F0A3FF606950B1402808D090
:10474000802806D0C02804D04DA040F6C75100F004
:1047500096FFA06930B1202804D049A040F6C85186
:1047600000F08DFFE069B0F5005F04D344A040F68F
:10477000C95100F084FF514F3868C04380070AD008
:104780004E4D283D286820F080602860FCF738FDF9
:104790000646A84607E00120BDE8F087FCF730FD9B
:1047A000801B022865D8D8F800000001F6D42068E4
:1047B00039684FF4FE0C4FF0FE4621F47C3141EA9B
:1047C00000303860217AA788A38949023B4D7F1EBB
:1047D0003A485B1E227C1035001DA1F5007189B29C
:1047E000521EC7F3080739430CEA0343194306EA8C
:1047F0000262114329600168626921F0C00111431E
:1048000001600268A16922F020020A430260291DAA
:10481000026822F0100202600A684FF6F873E46939
:104820009A4342EAC4020A600168B9F1000F41F0FC
:104830001002026011D00168B9F1010F11D041F4EA
:1048400000110160D8F80000444640F08060C8F8CC
:104850000000FCF7D5FC05460DE0016841F400219D
:10486000EFE741F48011ECE7FCF7CAFC401B02289B
:1048700001D9032090E720680001F5D550468BE769
:104880002E2E2F447269766572732F53544D333236
:10489000483778785F48414C5F4472697665722F7B
:1048A0005372632F73746D3332683778785F686141
:1048B0006C5F7263635F65782E6300002844025862
:1048C0002DE9F0478946016804464FF0000A491E69
:1048D0003E2904D968A040F62A6100F0D0FE606845
:1048E000001FB0F5FE7F04D963A040F62B6100F0F5
:1048F000C6FEA068401E7F2804D95FA040F62C6148
:1049000000F0BDFE2069401E7F2804D95AA040F661
:104910002D6100F0B4FEE068401E7F2804D956A047
:1049200040F62E6100F0ABFE606968B1B0F5806FB3
:104930000AD0B0F5006F07D0B0F5406F04D04EA09C
:1049400040F62F6100F09BFEA06938B1B0F5007F02
:1049500004D04FF4636148A000F091FEE069B0F527
:10496000005F04D344A040F6316100F088FE514F4F
:104970003868C04380070AD04E4D283D286820F093
:1049800080502860FCF73CFC0646A84607E0012062
:10499000BDE8F087FCF734FC801B022865D8D8F806
:1049A00000008000F6D4208839684FF4FE0C4FF0E8
:1049B000FE4621F07C7141EA00503860217AA788D8
:1049C000A38949023B4D7F1E3A485B1E227C183565
:1049D000001DA1F5007189B2521EC7F308073943C3
:1049E0000CEA0343194306EA026211432960016895
:1049F000626921F44061114301600268A16922F4F7
:104A000000720A430260291D026822F4807202606B
:104A10000A684FF6F873E4699A4342EAC4020A60EE
:104A20000168B9F1000F41F48072026011D0016891
:104A3000B9F1010F11D041F080710160D8F8000088
:104A4000444640F08050C8F80000FCF7D9FB05460A
:104A50000DE0016841F48001EFE741F40001ECE76B
:104A6000FCF7CEFB401B022801D9032090E7206809
:104A70008000F5D550468BE72E2E2F44726976655F
:104A800072732F53544D3332483778785F48414C16
:104A90005F4472697665722F5372632F73746D333E
:104AA00032683778785F68616C5F7263635F6578DE
:104AB0002E630000284402580A46014602484FF47B
:104AC0007A73FEF75FBD00005000002410B5026845
:104AD00040F26F335169946944F0080494610268AC
:104AE000946944F0100494610268146824F001048D
:104AF0001460026814699C4314610268936823F48B
:104B00004043936090F88120042A0CD08A060AD58D
:104B1000D0F8842042F08002C0F8842002689369B3
:104B200043F02003936190F88120032A0CD04A06B9
:104B30000AD5D0F8842042F00402C0F8842002682C
:104B4000936943F0400393618A050AD5D0F8842025
:104B500042F00102C0F884200268936943F40073B4
:104B60009361C9050AD5D0F8841041F00801C0F856
:104B7000841001688A6942F480728A610021A0F879
:104B80006210A0F86A1010BD2DE9F0419846164653
:104B90000D460746069C09E0FCF732FBA0EB080037
:104BA000A04202D3601C01D00BE054B138684069C8
:104BB00035EA000007D00020B042EDD00020BDE86B
:104BC000F0810320FBE70120F6E77047FCF71EBBEE
:104BD00030B59DB04C216846FBF749FD202113A854
:104BE000FBF745FD0220FCF737FC20480024204954
:104BF000026842F44042026002680A6842F0010220
:104C00000A60096801F001011B9101688904FCD563
:104C1000022009900121C20350230C25CDE9001286
:104C20000AAA82E80B000D90CDE910540E900F9067
:104C300068461294FDF722FF08B172B6FEE74020E5
:104C40001A9008230501CDE9163013ABCDE91805FC
:104C50003F21032283E81600042113A8FDF7D6FBA9
:104C6000002801D072B6FEE71DB030BD18480258CA
:104C70002C0400582E48F0B52E4A016841F470010A
:104C80000160106800F00F00072804D2106820F0BF
:104C90000F00C01D106028490020274C10340B68FD
:104CA000264D43F001030B6020600B682B400B6026
:104CB000136803F00F03072B04D9136823F00F03C5
:104CC000DB1D13601C4C1E4A18341E4B261D371D5D
:104CD0002060194C1C4D28343060261D3860371D6B
:104CE00023603B1D35601C1D3A60251D2E1D18607C
:104CF000331D22602860326018600A680E4B134C26
:104D000022F4802260330A60186020686FF30F007D
:104D1000B0F1005F03D20E490120C1F8080143F24F
:104D2000D2000C49024B4A03803B08601A60F0BD78
:104D300088ED00E000200052004402587FEDF6EAC2
:104D400080020101000202020000FF010010005C6D
:104D5000008000510040005230B5416EB9B1016889
:104D60000D4B03F108048A688968C2F34262490F57
:104D70005D5C615C2D01B5FBF1F1A0F86A10995CF6
:104D8000A25C0901B1FBF2F1A0F8681030BD01216D
:104D9000A0F86A10F8E70000C258000870B5044691
:104DA000806AFF2804D973A040F6CF4100F067FC69
:104DB00094F82800C00710D0E06A38B1B0F5003F81
:104DC00004D06CA040F6D44100F059FC2068E26A9F
:104DD000416821F400311143416094F828008007B4
:104DE00010D5206B38B1B0F5803F04D061A040F6FB
:104DF000DB4100F044FC2068226B416821F48031E3
:104E00001143416094F82800400710D5606B38B119
:104E1000B0F5802F04D057A040F6E24100F02FFCFF
:104E20002068626B416821F480211143416094F84D
:104E30002800000710D5A06B38B1B0F5004F04D0A2
:104E40004CA040F6E94100F01AFC2068A26B4168D2
:104E500021F400411143416094F82800C00610D5A8
:104E6000E06B38B1B0F5805F04D04FF44F6141A0E2
:104E700000F005FC2068E26B816821F48051114349
:104E8000816094F82800800610D5206C38B1B0F508
:104E9000005F04D037A040F6F74100F0F0FB206837
:104EA000226C816821F400511143816094F828003C
:104EB000400649D53E492068884219D03D4988427C
:104EC00016D03D49884213D03C49884210D03C4915
:104ED00088420DD03B4988420AD03B49884207D0DE
:104EE0003A49884204D023A040F6FE4100F0C7FBB7
:104EF000606C4FF4801530B1A84204D01DA040F67C
:104F0000FF4100F0BCFB2068626C416821F4801115
:104F100011434160606CA84216D1A06C68B1B0F535
:104F2000001F0AD0B0F5800F07D0B0F5C00F04D035
:104F300010A040F6045100F0A2FB2068A26C41686A
:104F400021F4C0011143416094F82800000610D5F7
:104F5000E06C38B1B0F5002F04D006A040F60C513B
:104F600000F08DFB2068E26C416821F400211143C0
:104F7000416070BD2E2E2F447269766572732F5377
:104F8000544D3332483778785F48414C5F447269FA
:104F90007665722F5372632F73746D33326837786E
:104FA000785F68616C5F756172742E630000000049
:104FB000001001400044004000480040004C004008
:104FC000005000400014014000780040007C004088
:104FD000F8B500260446C0F88C60FCF711F90546C8
:104FE00020686FF07E470068000708D500222B4636
:104FF0004FF400112046009700F0D0FA60B9206805
:10500000006840070AD500222B464FF48001204655
:10501000009700F0C3FA08B10320F8BD2020C4F8BF
:105020008400C4F88800E666002084F88060F8BD3B
:1050300010B5806B0021A0F85E10A0F85610FEF7A6
:105040007BFD10BD01680C4B0A6822F490720A6067
:1050500001688A681A408A60C16E012904D101681A
:105060000A6822F010020A6000212022C0F888207D
:10507000C166016770470000FEFFFFEF2DE9F047B2
:10508000FB490446406886B04FF00006884204D3CE
:10509000F8A040F6D13100F0F2FAA0684FF4805544
:1050A000B0F1805F07D030B1A84204D0F1A040F643
:1050B000D23100F0E4FAFE4F4FF400512068B842BC
:1050C000E06806D100281BD0884219D040F6D531BF
:1050D00013E0A8420AD048B1B0F5405F06D088423C
:1050E00004D0E4A040F6D93100F0C9FA206A38B102
:1050F000B0F5006F04D040F6DA31DEA000F0BFFA60
:10510000206950B1B0F5806F07D0B0F5C06F04D002
:10511000D8A040F6DD3100F0B2FA606930F00C0141
:1051200000D120B9D3A040F6DE3100F0A8FAA06982
:1051300068B1B0F5807F0AD0B0F5007F07D0B0F538
:10514000407F04D0CBA040F6DF3100F098FAE06950
:105150004FF4004530B1A84204D04FF43E61C5A0E1
:1051600000F08DFA606AD0B1012818D0022816D05C
:10517000032814D0042812D0052810D006280ED0F9
:1051800007280CD008280AD0092808D00A2806D0F9
:105190000B2804D0B7A040F6E13100F070FA216886
:1051A000D4E90483D4F81CC0A0680A6843EA0C035D
:1051B00040EA0800DFF8FC82184302EA08020243D2
:1051C0000A602068E268416821F44051114341605F
:1051D0002268A169BA4201D0206A01439368DFF8CE
:1051E000D882DFF8D8C2B64803EA08030B439360BD
:1051F0002168636ACA6A22F00F021A43CA622268EF
:1052000062450ED1006800F03800182873D047DCE2
:10521000B8B3082879D010286FD178E028287ED13B
:105220007BE0A8498A4209D1006800F007000628FF
:1052300075D2DFE800F0546A6C6E7072A2498A423F
:1052400009D1006800F00700062868D2DFE800F006
:10525000475D5F6163659D498A4209D1006800F03E
:10526000070006285BD2DFE800F03A505254565847
:1052700097498A420BD1006800F0070006284ED2F9
:1052800000E010E0DFE800F02B4143454749914939
:105290008A420AD1006800F03800182839D0B7DDFA
:1052A0002028BBD13CE001203AE08B498A4209D159
:1052B000006800F00700062831D2DFE800F0102671
:1052C000282A2C2E85498A420BD1006800F007005D
:1052D000062824D2DFE800F003191B1D1F2100203F
:1052E0001EE0BA421BD17648001D006800F007009E
:1052F000062814D202E00CE007E010E0DFE800F03E
:10530000030507090B0D02200AE0042008E008202D
:1053100006E0102004E0202002E0402000E0802091
:105320006F49DFF8C081BA426F4A4FF000094FEA77
:1053300021134ED1102819D006DC022809D00428E8
:105340000AD008287ED10CE020283ED0402879D110
:105350003DE0FCF7D3F811E06846FCF7E1F801986E
:105360000CE003A8FCF77EF9049807E010688006BB
:10537000084604D51168C1F3C101C840B8B3616AD9
:10538000676838F8112007EB4703B0FBF2F18B4256
:1053900058D8B1EB073F55D80023C8461946FAF74D
:1053A000EFFF02467808130E120243EA012110189B
:1053B0003A46002341EB0801FAF7E2FF4B4AA0F519
:1053C000407191423ED821684BE01846D7E7284605
:1053D000D5E7E7694FF6EF7AAF4247D1082819D0F1
:1053E00006DC60B101280DD004282BD10DE039E096
:1053F000102814D020283AD0402823D187E0FDF788
:105400007DFA14E0FDF78CFA11E06846FCF788F8A5
:1054100001980CE003A8FCF725F9049807E0106850
:10542000800670D51068C0F3C10021FA00F0C8B141
:10543000636A616838F81330B0FBF3F0400000EBAA
:10544000510000E075E0B0FBF1F080B2A0F1100176
:1054500051456ED84FF6F0732168C0F342021840F0
:105460001043C8600120A4F86A0042E051E04CE01B
:1054700021BCBE002E2E2F447269766572732F53A5
:10548000544D3332483778785F48414C5F447269F5
:105490007665722F5372632F73746D333268377869
:1054A000785F68616C5F756172742E630000000044
:1054B000000C0058F369FFCFFFF4FF11001001400A
:1054C000544402580044004000480040004C004052
:1054D000005000400014014000780040007C004073
:1054E0000090D003AA58000800440258FFFC0F00A7
:1054F00009E0A4F868003046C4F87090C4F87490CD
:1055000006B0BDE8F087084692E7184690E72846BF
:105510008EE7082819D005DC60B101280DD00428D9
:1055200033D10DE0102815D0202832D040282CD1BE
:1055300031E02AE0FDF7E2F914E0FDF7F1F911E0BE
:105540006846FBF7EDFF01980CE003A8FCF78AF82A
:10555000049807E01068800619D51068C0F3C100F0
:1055600021FA00F000283FF47DAF636A616838F8E3
:105570001330B0FBF3F000EB5100B0FBF1F080B260
:10558000A0F1100151457FF61EAF01266AE70846DB
:10559000EBE71846E9E72846E7E700002DE9F04782
:1055A0009A4617460E460446089D4FF000094FF0F4
:1055B000200839E0681C37D0FBF722FEA0EB0A0078
:1055C000A84222D80DB32068016849072CD5C069CC
:1055D000C043000528D423684FF400611962216894
:1055E0000B6823F4D0730B6021688B6823F00103F0
:1055F0008B60C4F88480C4F88880C4F88C8000BFB5
:10560000032084F88090BDE8F08721680B6823F4BC
:10561000D0730B6021688B6823F001038B60C4F8A2
:105620008480C4F88880EBE72068C06936EA00000F
:1056300004D00020B842BDD00020E4E70120F9E703
:105640000148FEF77BBA0000D8000024FEE70907F6
:1056500000284FEA116104DB00F1E02080F800141B
:10566000704700F00F0000F1E02080F8141D704733
:1056700030380A2801D20120704700207047704757
:105680001CB56E4900252C460868800311D4BFF371
:105690004F8FBFF36F8F6A480560BFF34F8FBFF323
:1056A0006F8F086840F400300860BFF34F8FBFF37E
:1056B0006F8F0868C00323D4604870300560BFF363
:1056C0004F8F001F43F6FF7800685D4E1036C0F321
:1056D0004E32C0F3C90308EA4217184647EA807CF5
:1056E000C6F800C0401EF9D2521EF4D2BFF34F8F4D
:1056F000086840F480300860BFF34F8FBFF36F8FAE
:10570000FBF78CFDFFF764FAFEF7CAFEFEF7A8FF71
:10571000FEF774FF4B480068016841F00101016029
:10572000FEF7E6FC0020FEF79AFC4A4A46A147F63F
:10573000FF700C2633461580474A1080A022CDE921
:10574000006100210846FEF755FE44A00C23A0226C
:10575000CDE900600F210020FEF74CFE44A010238D
:10576000A022CDE900601E210020FEF743FE44A0E8
:105770000C23A022CDE900602D210020FEF73AFE87
:10578000424D0727DFF808814FF4FA7ADFF80491D9
:10579000B4FBF7F007FB1040072817D2DFE800F052
:1057A000040B2F31383F4100002228460121FBF72E
:1057B000EBFC012201E0012224E002212846FBF754
:1057C000E3FC012228460421FBF7DEFC641C98F868
:1057D0000020304830A1E4B2FAF74AFE0C23F02250
:1057E0003C210020CDE90069FEF704FE98F8000096
:1057F000401C88F800005046FBF70CFBC8E701226C
:1058000007E0002228460121FBF7BEFC0022D4E776
:10581000002228460121FBF7B7FC012207E0012204
:1058200000E0002228460121FBF7AEFC00222846BA
:105830000221FBF7A9FC0022C4E7000014ED00E000
:1058400050EF00E050000024426F72696E675F54B1
:10585000454348001A000024180000245446544CC4
:1058600043442054455354203234302A31333500D8
:1058700053544D33324837353056425436000000C9
:10588000323032312F382F323000000000080258F9
:10589000000000241C0000242534644142434400DD
:1058A0004FF04070E1EE100A704701000200040062
:1058B000060008000A000C001000200040008000D4
:1058C00000010101010307010000080402040801AE
:1058D00001010000000001020304010203040607A5
:1058E00008090000000000000000000000000000A7
:1058F0002020202020000020000028285000000048
:1059000000000000000000005050F85050F85050C7
:105910000000002070A8A0603028A87020000000BF
:1059200048A8B0A874345448000000002050506CBF
:10593000A8A894680000404080000000000000001B
:105940000000081010202020202010100800402007
:105950002010101010102020400000000020A8701F
:1059600070A82000000000000010107C1010000043
:105970000000000000000000000040408000000027
:10598000000000FC0000000000000000000000001B
:1059900000000040000000040808101020204040D3
:1059A0008000000070888888888888700000000067
:1059B00020602020202020700000000070888810C7
:1059C000204080F8000000007088083008088870C7
:1059D000000000001030305090F810380000000037
:1059E000F88080F08808887000000000304880B09F
:1059F000C88888700000000078081010202020203F
:105A0000000000007088887088888870000000009E
:105A100070888898680890600000000000002000EE
:105A20000000002000000000000000200000002016
:105A30002000000008102040402010080000000056
:105A40000000FC00FC0000000000000040201008E6
:105A500008102040000000007088881020200020DE
:105A600000000000384494B4B4B84438000000008A
:105A700020203050507848CC00000000F04848709A
:105A8000484848F000000000788880808080887056
:105A900000000000F0484848484848F00000000076
:105AA000F8485070504048F800000000F848507026
:105AB000504040E000000000384880809C8848301A
:105AC00000000000CC484878484848CC000000005E
:105AD000F8202020202020F8000000007C1010106A
