:020000040800F2
:1000000088110024510300087F5F00082D5D00085F
:100010007D5F0008F9160008697200080000000002
:100020000000000000000000000000006D630008F8
:10003000FB16000800000000815F00086F630008E5
:100040006B0300086B0300086B0300086B030008D8
:100050006B0300086B0300086B0300086B030008C8
:100060006B0300086B0300086B0300086B030008B8
:100070006B0300086B0300086B0300086B030008A8
:100080006B0300086B0300086B0300086B03000898
:100090006B0300086B0300086B0300086B03000888
:1000A0006B0300086B0300086B0300086B03000878
:1000B0006B0300086B0300086B0300086B03000868
:1000C0006B0300086B0300086B0300086B03000858
:1000D0006B0300085D7200086B0300086B030008E7
:1000E0006B0300086B030008000000006B030008AE
:1000F0006B0300086B0300086B0300086B03000828
:100100006B0300086B0300086B0300086B03000817
:100110006B0300086B0300086B0300086B03000807
:100120006B0300086B0300086B0300086B030008F7
:100130006B0300086B0300086B0300086B030008E7
:1001400000000000000000000000000000000000AF
:100150006B0300086B0300086B0300086B030008C7
:100160006B0300086B0300086B0300086B030008B7
:100170006B0300086B0300086B0300086B030008A7
:100180006B0300086B0300086B0300086B03000897
:100190006B0300086B0300086B0300086B03000887
:1001A0006B0300086B0300086B0300086B03000877
:1001B0006B0300086B0300086B0300086B03000867
:1001C0006B0300086B0300086B0300086B03000857
:1001D0006B0300086B0300086B0300086B03000847
:1001E0006B0300086B0300086B0300086B03000837
:1001F0006B0300086B0300086B0300086B03000827
:100200006B0300086B0300086B0300086B03000816
:100210006B0300086B0300086B0300086B03000806
:100220006B0300086B0300086B030008000000006C
:100230006B0300086B030008000000006B0300085C
:100240006B0300086B0300086B0300086B030008D6
:100250006B0300086B0300086B0300086B030008C6
:100260006B0300086B0300086B0300086B030008B6
:100270006B0300086B0300086B030008000000001C
:100280006B0300086B0300086B030008000000000C
:10029000000000006B03000800F002F800F049F8CD
:1002A0000AA090E8000C82448344AAF10107DA45D1
:1002B00001D100F03EF8AFF2090EBAE80F0013F0DA
:1002C000010F18BFFB1A43F0010318476C720000BE
:1002D0008C720000103A24BF78C878C1FAD852074F
:1002E00024BF30C830C144BF04680C6070470000B0
:1002F0000023002400250026103A28BF78C1FBD82F
:10030000520728BF30C148BF0B607047662907F00D
:10031000AA80002070471FB507F0A0F800F08EFB00
:1003200004000020002107F083F8E0601FBD10B535
:1003300010BD00F09FFC1146FFF7EDFF06F0D0FF67
:1003400000F0BDFC03B4FFF7F2FF03BC00F0F4FCC7
:100350000948804709480047FEE7FEE7FEE7FEE759
:10036000FEE7FEE7FEE7FEE7FEE7FEE70448054995
:10037000054A064B704700002964000899020008EE
:100380008801002488110024880900248809002499
:1003900053EA020C00F069802DE9F04B4FF00006A3
:1003A000002B1FBFB3FA83F503FA05F424FA05F610
:1003B0005E4012BF1643B2FA82F502FA05F4C5F1A7
:1003C00020051EBF22FA05FC44EA0C04203556EA3B
:1003D000044C4FEA144418BF641C4FF000084FF05F
:1003E0000009904271EB030C39D3002919BFB1FA0F
:1003F00081F701FA07F6B0FA80F700FA07F6C7F1BD
:1004000020071EBF20FA07FC46EA0C062037B6FB81
:10041000F4FCA7EB0507103F07F01F0BCBF12006FC
:100420000CFA0BFB2CFA06F644BFB3460026202F2D
:10043000A4BF5E464FF0000B5BEA060C08BF4FF00E
:10044000010B19EB0B09ABFB027C48EB0608C01B48
:1004500006FB02CC0BFB03CC71EB0C01C1E70B4696
:10046000024641464846BDE8F08B13B54FF0000008
:100470004FF00001AFF30080BDE81C407047000062
:100480000FB4044910B503AA029800F0C5FA10BCD5
:100490005DF814FB2C0000242DE9F0474FF0000A12
:1004A00089460446C0F820A02046E1688847002815
:1004B00076D0252806D0D4E901219047206A401C37
:1004C0002062F1E7E168204600258847C4F81CA0B7
:1004D00006460027C4F818A02A2E09D0304606F098
:1004E000EDFE38B304EB8708303EC8F8186019E019
:1004F00059F8041B204604EB87029161E1688847A4
:10050000012F064618D1E069002820DA25F02005E1
:100510001DE0D8F8180000EB800006EB40003038F2
:10052000C8F818002046E1688847064606F0C6FE6F
:100530000028EED1012F0AD02E2E08D12046E168E6
:1005400088477F1C0646022F45F02005C4DBA069C2
:10055000002803DA404245F00105A061E80701D018
:1005600025F01005B6B1A6F14100192802D82036B1
:1005700045F400654A463146204625604D46FFF762
:10058000C5FE58B1012806D0ED1D25F0070000F189
:10059000080989E704E005F1040985E730468AE7A0
:1005A000206ABDE8F0874FF0000200B5134694467C
:1005B0009646203922BFA0E80C50A0E80C50B1F1BB
:1005C0002001BFF4F7AF090728BFA0E80C5048BFCF
:1005D0000CC05DF804EB890028BF40F8042B08BF6D
:1005E000704748BF20F8022B11F0804F18BF00F869
:1005F000012B704770477047704770472DE9FF4FD8
:100600000C461E464FF0FF378BB0D2E90001DDF8F3
:1006100060800A908A46C1F30A5505B93D4600211B
:1006200008464FF00000BAF1000F00F4400005DA70
:1006300000EB80004FF4400101EA50004FEA90596E
:10064000B9F1010F00DDB9460A9850EA4A000ED010
:1006500044F61050A5F2FF3545432F14B8F1000FB2
:100660001ED07542291E1EDDC9F100021CE0B8F142
:10067000010F4FF0000001D0302103E0F24305E00C
:100680002154401CB042FBDB3046002200212154A3
:100690000B99C1F80880C1E900200FB0BDE8F08FC8
:1006A000BD1B6D1CDEE74A4600DA694206A800F071
:1006B00067FA06AB93E8070003AB83E807005046F0
:1006C0000A9900F040FB8DE80700A0F500501F38A4
:1006D00000900398002D0ADD42F21F014A460844AB
:1006E000002303A90390684600F0A9FD09E0A0F5E6
:1006F00000504A461F38002303A90390684600F0C3
:10070000B3FD8DE807000004000C03D04FF0FF306C
:10071000410800E01046B8F1000F03D0002200921B
:1007200015461EE0751E05D400F08CF93032625576
:100730006D1EF9D5B3460122084302D000227F1C6A
:1007400004E02078302801D100227F1E002A09977A
:1007500084D01DE0112D07DA00F074F930326255B3
:100760006D1C50EA0102F5D1084302D00098C8B1CF
:100770000EE00021681E05E0235C625C6354225495
:10078000401E491C8142F7DBAB46A81B401E099066
:10079000002004F80B000B98099AC0F80880C0E903
:1007A000002B7AE711264FF0000857E72DE9F04FAC
:1007B00088460446D21D22F0070191B0D1E900011C
:1007C000CDE90A0106F051FD02460B98C00F01D099
:1007D0002D2007E02068810701D52B2002E0202191
:1007E00001EAC000032A099001D0072A05DB03466D
:1007F0004146204600F084F90BE12078800601D5BF
:10080000E06900E00620B8F1650F814606D0B8F136
:10081000660F18D0B8F1670F70D131E00020B9F140
:10082000110F009001DB112301E009F101030AAA75
:1008300001A90CA8FFF7E2FEDDE90C70002609F122
:100840000105834647E001204B4600904FF00047EA
:100850000AAA01A90CA8FFF7D1FEDDE90DB00C9999
:100860005D46002610B909F101000D18B9EB05002D
:1008700003D4C0F1FF3609F10105A5EB09002BE017
:10088000B9F1010F01DA4FF001090020B9F1110FA0
:100890000090484601DD112300E003460AAA01A9A1
:1008A0000CA8FFF7ABFEDDE90C704D460026834631
:1008B000207800070AD4AB4500DA5D4601A8012D77
:1008C00004DD411911F8011C302907D04F4502DA27
:1008D00017F1040F04DA012082460FE06D1EEEE7E7
:1008E000002F02DCED1B3E4403E0781CA84200DD33
:1008F0007D1CB81B00F1010A4FF00047207800076B
:1009000003D4AA4501DB4FF0FF3A0021B7F1004FB5
:100910000DF143088DF8431024D002202B23002F23
:1009200001DA7F422D230A21021EA0F1010000DC22
:100930005FB197FBF1FC97FBF1F201FB1C7C1746C2
:100940000CF1300C08F801CDEEE7A8F101000370BE
:100950002188090501D5452100E06521A0F10108A4
:1009600000F8011C09980FA9A1EB0807FF1D00B1B1
:100970000120411901EBEA70A1693844081A401EB0
:10098000A0612078C00602D42046AFF30080099809
:1009900028B1D4E901219047206A401C20622078C8
:1009A000C00622D52046AFF300801EE0002E04DBF7
:1009B000B34502DD01A8805D00E03020D4E90121CB
:1009C0009047206A401C2062761CAAF101005FEA71
:1009D000000A0AD100F032F8C0680168405CD4E92E
:1009E00001219047206A401C2062281EA5F10105C4
:1009F000DCDC07E0D4E9012118F8010B9047206AFC
:100A0000401C2062381EA7F10107F3DC2046AFF33B
:100A10000080032011B041E6074B70B50D467B44C2
:100A200000F05BF80446284600F01CF910B14FF0C6
:100A3000FF3070BD204670BDAB68000000487047B5
:100A40004801002430B5B0F10A024FEA900E71F16E
:100A500000034EEA817EB0EB0E0061EB91014FEA9C
:100A6000101E4EEA017E10EB0E0041EB11114FEA11
:100A7000102E4EEA016E10EB0E0041EB11214FEAF1
:100A8000104E4EEA014E10EB0E0041EB11414018A2
:100A900041F100014FEAD00040EA41704FEAD10134
:100AA00010EB80054FEA810444EA907444EB0104A2
:100AB0006D1944EB0404521BA3414FF0000348BFDF
:100AC0000A3200D530BD401C41F1000130BD0000AC
:100AD00001694A1C02610878704700B58FB0CDE902
:100AE00001310021059105497944CDE903101146F2
:100AF0006846FFF7D1FC0FB000BD0000E5FFFFFF27
:100B00002DE9F0411F46044603260168072A01F437
:100B1000006004DB08B116A505E016A503E008B1E6
:100B200015A500E015A521F010002060A069C01EE9
:100B3000A0610FB1401EA0612046AFF300804FB10D
:100B4000D4E9012138469047206A401C2062C01C2D
:100B5000206206E0206AFAE7D4E9012115F8010BCA
:100B60009047761EF8D22046AFF30080BDE8F081B2
:100B70004E414E006E616E00494E4600696E660041
:100B80002DE9F047814616468AB0354878440DC8AD
:100B90008DE80D0032487844801C03AC0DC884E811
:100BA0000D0041F69B300844372190FBF1F290FB99
:100BB000F1F5A5F1800501FB12041B3C02D564424E
:100BC000012000E00020DFF898A080460027FA44CA
:100BD000AAF1BE0A0EE0E0070AD03246684607EBEB
:100BE000470101230AEB810100F03EFB8DE807007D
:100BF00064107F1C002CEED1194F7F44AE3F19E0EA
:100C0000E80715D007EB04100DF1180A90E80E0064
:100C10008AE80E00C068F04201D198190890324667
:100C2000012306A903A800F01FFB03AB83E807001C
:100C30006D10641C002DE3D14FF00103324669466C
:100C4000B8F1000F03A802D000F0F9FA01E000F0BB
:100C50000BFBC9E90001C9F808200AB0BDE8F0871C
:100C600090690000007B00F08000704700487047EA
:100C7000280100247546FFF7F9FFAE4605006946D6
:100C8000534620F00700854618B020B5FFF76EFBED
:100C9000BDE820404FF000064FF000074FF000087D
:100CA0004FF0000B21F00701AC46ACE8C009ACE8FE
:100CB000C009ACE8C009ACE8C0098D46704710B562
:100CC0000446AFF300802046BDE81040FFF73ABB72
:100CD0004FF0013C50F8042B51F8043B9A4215D1D7
:100CE000A2EB0C03934313EACC130BD150F8042B63
:100CF00051F8043B9A4209D1A2EB0C03934313EA47
:100D0000CC13E7D04FF00000704700BFD01A01BAF3
:100D1000B1FA81F101F0180122FA01F0CB40C1F1E2
:100D20002001DBB2C0B2C01A2CFA01F3D11A9143F0
:100D300011EAC311E6D1704701491820ABBEFEE7A6
:100D40002600020070475FEA400C08BF91F0000FD8
:100D50004FEA8C234FEAC12243EA51514FEA1C501B
:100D600018BF00F5F0404FEA300018BF41F00041D5
:100D70005FEA6C5C00F02980BCF1FF3F08BF40F0E7
:100D800080407047130C06BF12044FF0100C4FF058
:100D9000000C130E04BF12020CF1080C130F04BF59
:100DA00012010CF1040C930F04BF92000CF1020C21
:100DB000D30F04BF52000CF1010C11464FF000029A
:100DC000A0F11F00A0EB0C00704711F0004F08BF0E
:100DD000704731F000413FF4D5AF0B0C06BF09045A
:100DE0004FF0100C4FF0000C0B0E04BF09020CF179
:100DF000080C0B0F04BF09010CF1040C8B0F04BF8E
:100E000089000CF1020CCB0F04BF49000CF1010C5E
:100E1000CCF12003A0EB0C0022FA03F302FA0CF24F
:100E200041EA030100F10100704720F07F4C80EAA5
:100E3000030023F07F47ACEB070303F57C5300F07E
:100E4000004003F1FF032DE980494FEA154B09B437
:100E50004FEA144325EA0B4E24EA03480FF2042616
:100E600006EB132749083E785FEA320203FB066768
:100E7000C7F5000707FB06F64FEA54374FEAD64698
:100E800006F1020607FB066CCCF1005C4FEA1C473A
:100E90002CEA074C07FB06F40CFB06F504EB1546A1
:100EA0004FEA961634BF00204FF000404FEAD1378A
:100EB00006FB07FC4FEA1C4C0CFB0BF7D21B03FB99
:100EC0000CF761EB07010CFB0EF7B0EB074072EB80
:100ED00017420CFB08F734BFA2EB0742B2EB074204
:100EE00061EB17414FEA0C444FEA910706FB07FC00
:100EF0004FEA1C4C0CFB0BF7B0EBC74072EB5732C0
:100F000003FB0CF734BFA2EBC742B2EBC74261EB65
:100F100057310CFB0EF7B0EBC70072EB57720CFBAE
:100F200008F734BFA2EBC702B2EBC70261EB5771FF
:100F3000039F4FEA816141EA921104EBCC044FEA2E
:100F4000D1374FEA826206FB07FC42EA90124FEA71
:100F500080604FEA1C4C0CFB0BF7D21B03FB0CF719
:100F600061EB07010CFB0EF7B0EB074072EB174289
:100F70000CFB08F734BFA2EB0742B2EB074261EB70
:100F800017414FEA8C554FEA910704EB9C2406FB6E
:100F900007FC4FEA1C4C0CFB0BF7B0EBC74072EBA5
:100FA000573203FB0CF734BFA2EBC742B2EBC74288
:100FB00061EB57310CFB0EF7B0EBC70072EB5772C9
:100FC0000CFB08F734BFA2EBC702B2EBC70261EB20
:100FD000577115EB4C254FEA816141EA92114FEAB6
:100FE00082624FEAD13742EA901206FB07FC44F1D5
:100FF00000044FEA80604FEA1C4C0CFB0BF7D21B3D
:1010000003FB0CF761EB07010CFB0EF7B0EB07409D
:1010100072EB17420CFB08F734BFA2EB0742B2EBAE
:10102000074261EB174115EB1C154FEA813141EA8C
:1010300092414FEA823242EA90424FEA80304FEAD0
:101040000C7644F1000448EA03434EEA0B484FF0A3
:10105000000EB2EB080C71EB030724BF6246394661
:101060004EEB0E0E4FF0000B0018524149414BEB76
:101070000B0BB2EB080C71EB03077BF1000B24BFE9
:10108000624639464EEB0E0E4FF0000B00185241EF
:1010900049414BEB0B0BB2EB080C71EB03077BF1F7
:1010A000000B24BF624639464EEB0E0E51EA020792
:1010B00018BF46F0010616EB0E7655F1000254F10A
:1010C000000103D5BDE88901BDE80088BDE88901BC
:1010D000BDE80048B619524141EB0101A3F10103FB
:1010E000704780807F7E7D7C7B7A79787776767595
:1010F0007473727171706F6E6E6D6C6C6B6A6A690D
:101100006868676666656464636362616160605FA6
:101110005F5E5E5D5D5C5C5B5B5A5A59595858571F
:101120005756565555555454535352525251515087
:1011300050504F4F4F4E4E4D4D4D4C4C4C4B4B4BDA
:101140004A4A4A4949494848484747474746464620
:10115000454545444444444343434342424242415B
:101160004141002B9C4630D477002BD01CB54FEA70
:10117000370703B44FF010004FF01001BAF1000F21
:1011800006D0BCF1000FDCBF40F0080040F00801C1
:101190004FF000000FBCBDE810400BF1010BBBF19C
:1011A000010F08BF5FEA170722BF12F1010211F118
:1011B00001014FF0004143F1000300F0004043EA19
:1011C00000007047F9D35708D0E746EA064613F106
:1011D000400F4FEA16461FDD13F1200FDFBF164305
:1011E0000A46002120335B42BED0C3F1200746EA05
:1011F000064602FA07F74FEA164646EA0706C3F123
:10120000200722FA03F201FA07F721FA03F14FF05F
:10121000000342EA0702A7E746EA020646EA064654
:101220004FEA164646EA0106BCBF46EA0646360CB9
:101230004FF000034FF000024FF0000194E72DE95A
:10124000804C9A46934670B491E8380007C831EA5A
:10125000400C48BF34EA430C03D5FFF7E6FDFFF727
:1012600080FFF0BCBDE8008C2DE9804C9A46934687
:1012700070B491E8380007C810F0804F08BF13F031
:10128000804F03D100F005F8FFF76BFFF0BCBDE81D
:10129000008C20F07F4780EA030023F07F4C07EBAF
:1012A0000C03A3F57C5300F00040A3F1FE0392F081
:1012B000000F00F0B38095F0000F00F077802DE96B
:1012C00001494FEA11404FEA144621EA004800FB69
:1012D00006FC24EA064708FB06F607FB08F800FBB5
:1012E00007F718EB06484CEB164C4FEA124B18EB7D
:1012F00007484FEA15464CEB174022EA0B4E0BFB12
:1013000006FC25EA06470EFB06F607FB0EFE0BFB66
:1013100007F71EEB064E4CEB164C4FF000061EEB8B
:10132000074E4CEB174B18EB0B0840F1000018EB85
:101330000E0B58EB000840F100008F1A4FF000012F
:101340003CBFC943661B14BFB5EB040C00213CBF76
:10135000C943F61B4FEA17444EEA8E0E27EA0445AE
:101360004FEA1C4704FB07622CEA074C05FB07F712
:101370000CFB05F604FB0CFC16EB074642EB174290
:1013800016EB0C4642EB1C421BEB060658EB020226
:10139000414146EA9E0601D5BDE80189B619524190
:1013A00041EB0101A3F10103BDE801894FEA1445B6
:1013B0004FEA114724EA054621EA074C05FB07F4EA
:1013C00006FB07F70CFB06F105FB0CFC11EB0741D4
:1013D00044EB17444FEA124711EB0C4144EB1C4419
:1013E00022EA074C05FB07F206FB07F70CFB06F6A3
:1013F00005FB0CFC16EB074642EB174216EB0C46BE
:1014000042EB1C456A1854F1000148BF7047B619F9
:10141000524141EB0101A3F10103704795F0000F28
:1014200037D04FEA11424FEA144721EA024624EA34
:10143000074C02FB07F106FB07F70CFB06F402FB67
:101440000CFC14EB074441EB17414FEA154714EB32
:101450000C4441EB1C4125EA074C02FB07F506FB57
:1014600007F70CFB06F602FB0CFC16EB074645EBF8
:10147000174516EB0C4645EB1C42121951F10001C1
:1014800048BF7047B619524141EB0101A3F1010376
:1014900070474FEA14454FEA114724EA054621EA0E
:1014A000074C05FB07F106FB07F70CFB06F24FF0B4
:1014B000000605FB0CFC12EB074241EB174112EB57
:1014C0000C4251EB1C4148BF7047921841EB01019F
:1014D000A3F101037047000070B53A490546006862
:1014E000884202D0384A904202D1D1F8080302E083
:1014F0003648D0F8080310F4403F11D003F00CFB3D
:1015000004466868B0F5803F06D0B0F5003F03D0D0
:10151000B0F5403F26D101E0000C17E0A40821E01F
:101520004FF4002002F03AF9044668688103890B01
:1015300018D181140C2915D2DFE801F01406060633
:101540000606060B0D0F1113800C4000B4FBF0F4DF
:1015500008E0240906E0640904E0A40902E0E409C3
:1015600000E0240A01F09CFD41F20301884208D802
:10157000174884422868816813D821F480718160FB
:1015800070BD14496008884204D82868816821F435
:101590004071F4E71049884206D82868816821F430
:1015A000407141F48071EAE70C49884228688168FB
:1015B00004D821F4407141F40071E0E741F4407136
:1015C000DDE70000002002400021024000600258D8
:1015D000002D3101105E5F0020BCBE0040787D010F
:1015E00070B50446006881688268C1F3400112F05A
:1015F000010F28D039BB816801F00D01012914D1F8
:101600008168124A1140891C8160216803200860AA
:1016100001F04CFD054612E001F048FD401B022898
:101620000DD920688068C00709D0606D40F01000B7
:101630006065A06D40F00100A065012070BD2068CC
:101640008068C007E8D1002070BD0000C0FFFF7FA8
:1016500070B504460068816811F0010F40D18168BF
:10166000204A11422DD18168D5432940491C81600F
:1016700001F01CFD1C49064620681C4B884201D025
:10168000984201D11A4A00E01A4A9268984202F040
:101690001F0200D0014681421DD0E2B120E08168E6
:1016A00011F0010F03D181682940491C816001F0CC
:1016B000FDFC801B02280ED920680068C043C007CB
:1016C00009D0606D40F010006065A06D40F0010031
:1016D000A065012070BD20680168C943C907DED13B
:1016E000002070BD3F000080002002400021024029
:1016F0000023024000630258FEE7704772B6FEE71F
:10170000F8B500270E462F49044600971546006895
:10171000884209D02C49884206D02C49884203D0FF
:101720008E212BA005F0D1FDA5F5E060FF3806D095
:101730003648854203D08F2125A005F0C6FD94F8D8
:10174000500001280BD0012084F850002046FFF7FC
:1017500047FF0100606D04D040F010002DE0022032
:10176000F8BD20F4885040F002006065206806F45F
:10177000803205F08043264D1A4383682B401A437C
:1017800042F000428260234A20680EE0009B5B1C0E
:101790000093934209D3606D84F8507020F00200EA
:1017A00040F0100060650120F8BD8368DB0FEDD1CB
:1017B000606D20F0020040F001006065084684F88A
:1017C0005070F8BD00200240002102400060025825
:1017D0002E2E2F447269766572732F53544D333217
:1017E000483778785F48414C5F4472697665722F5C
:1017F0005372632F73746D3332683778785F686122
:101800006C5F6164635F65782E6300000000FF47D2
:10181000C0FFFE3F00F8C3252DE9F84F05460C46F2
:101820000020FF49009082462868FE4EDFF8F893BA
:10183000884208D0B04206D0484504D0FBA040F60C
:10184000143105F042FD6068062831D00C282FD0F5
:1018500012282DD018282BD0B0F5807F28D0B0F5D5
:10186000837F25D0B0F5867F22D0B0F5897F1FD049
:10187000B0F58C7F1CD0B0F5007F19D0A0F50071B9
:10188000063915D0B0F5037F12D0A0F500711239DA
:101890000ED0B0F5067F0BD0B0F5407F08D0A0F594
:1018A0004071063904D0E1A040F6153105F00DFD78
:1018B000A06890B1012810D002280ED003280CD0C7
:1018C00004280AD0052808D0062806D0072804D006
:1018D000D6A040F6163105F0F8FCE068DFF884B3D6
:1018E000A0F5E061FF3906D0584504D0CFA040F6FE
:1018F000173105F0EAFC206904280BD050B101280B
:1019000008D0022806D0032804D0C8A040F6183119
:1019100005F0DBFC95F838004FF6FF78012815D06C
:10192000286804F005FA4108626928FA01F090423B
:1019300004D240F62831BDA005F0C7FC2069042878
:1019400019D095F83800012815D10FE0E86B6169CE
:10195000401CB1FBF0F7286804F0EAF9410828FAC6
:1019600001F08742EAD940F61C31E4E7AFA040F627
:101970002E3105F0AAFCBB48E168BC4FDFF8F0B29D
:101980008142B9494FEA47084AD0206801287DD0F2
:10199000B842FCD04045FAD05845F8D0A0F1865264
:1019A000103AF4D0B34A9042F1D0A0F1C952403A73
:1019B000EDD0B14A9042EAD0B04A9042E7D0B04A66
:1019C0009042E4D0AF4A904260D0AF4A90425DD09E
:1019D000AE4A90425AD0AE4A904257D0AD4A904259
:1019E00054D0AD4A904251D088424FD0AB49884242
:1019F0004CD0AB49884249D0AA4988427ED0AA49F6
:101A000088427BD0A949884278D0A94A904275D0B3
:101A1000884273D0A749884270D040F633316AE0DB
:101A20007F482A68824220D12068B8421DD04045B4
:101A30001BD0584519D0A0F18652103A15D08D4AC6
:101A4000904212D08F4A90420FD08F4A90420CD0D1
:101A50008E4A904209D0884207D09149884204D0EA
:101A600072A040F6393105F030FC2868B04220D130
:101A70002068B8421DD040451BD0584519D0A0F170
:101A80008651103915D07B49884200E036E010D0ED
:101A90007C4988420DD07C4988420AD07B498842E3
:101AA00007D07F49884204D060A040F63D3105F060
:101AB0000CFC2968494521D12068B8421ED0404518
:101AC0001CD058451AD0A0F18651103916D069495A
:101AD000884213D06B49884210D06B4988420DD0A0
:101AE0006B4988420AD06B49884207D06A498842CC
:101AF00004D040F643314DA005F0E7FB95F85000C7
:101B0000012808D04FF0010885F85080286804F0BB
:101B100027F918B1C5E10220BDE8F88F29682068CF
:101B2000CA69030326D090FAA0F0B0FA80F000BF93
:101B300000F01F0308FA03F00243CA61D4E9002150
:101B40000C2728681F23C2F3846207EA911701F06B
:101B50001F0138448B408A40016B99431143016354
:101B6000286804F0FDF80746286804F0F5F83843C3
:101B700003D0E1E0C0F38460DAE72868A268216856
:101B800004F0F2F84C490968B8EB117F06D12968D6
:101B90006069C968C1F38201490008E02868C1682A
:101BA000C906C1686069F5D501F01001490888408F
:101BB0002169042932D02B68226803EB810102F0ED
:101BC000F8420B6E024303F0004010430866607E4B
:101BD00030B1012804D015A040F68F3105F075FB17
:101BE000617E2A682069012970D0002102EB800003
:101BF000026E22F000420A430266207E30B10128C4
:101C000004D00AA040F6933105F05FFB217E2868DE
:101C1000226901295DD0002103694FE05CE055E0B5
:101C20000020024000210240006002582E2E2F4466
:101C30007269766572732F53544D33324837787812
:101C40005F48414C5F4472697665722F5372632F0F
:101C500073746D3332683778785F68616C5F616484
:101C6000632E63000000FF470000214302003004A0
:101C70000800900C2000F0148000501D000180210D
:101C80000002B0250004002A0008302E0010603247
:101C9000002090360040C03A0080F03E00005247DD
:101CA0000000844B0000B84F000084CB000052C7F6
:101CB000000021C30000B8CF0010005C02F01F023A
:101CC000914023F4F0420A43026135E04FF00041B5
:101CD0008CE74FF400619FE728682178026E02F0DC
:101CE000F842B2EB816F03D1016E21F00041016631
:101CF00028682178426E02F0F842B2EB816F03D17E
:101D0000416E21F00041416628682178826E02F020
:101D1000F842B2EB816F03D1816E21F00041816600
:101D200028682178C26E02F0F842B2EB816F03D1CD
:101D3000C16E21F00041C1662868816811F0010F71
:101D400074D150F8C01F237B7D4F226803F0180C1C
:101D500027FA0CF7C2F31303994317403943016084
:101D60007848E168814277D1206801031BD090FA5E
:101D7000A0F1B1FA81F1491C01F01F0109294FEAD4
:101D8000003131D8002911D090FAA0F1B1FA81F1D7
:101D900001F1010101F01F0108FA01F209D100BFB0
:101DA000C0F3846109E0C0F38461E4E7C0F38461B7
:101DB000EEE790FAA0F1B1FA81F101F1010101F031
:101DC0001F0142EA816102D1C0F3846003E090FA0E
:101DD000A0F0B0FA80F000F1010000F01F0000EB6D
:101DE000400041EA005133E000290ED090FAA0F102
:101DF000B1FA81F101F1010101F01F0108FA01F2CC
:101E000006D100BFC0F3846106E0C0F38461F1E74E
:101E100090FAA0F1B1FA81F101F1010101F01F0185
:101E200042EA816103D1C0F3846004E03FE090FAAC
:101E3000A0F0B0FA80F0444A00F1010000F01F0069
:101E400000EB400002EB005041EA000141F000715C
:101E5000A268286803F088FF2768002F27DA3B4B29
:101E600028683B49DFF8ECC0984201D0B04201D16C
:101E70000A4600E062469268984202F0E07201D0A1
:101E8000B04209D19C68D6F8088004F0010408F03B
:101E9000010844EA080403E0D9F8084004F001040A
:101EA00054B1696D4FF0010A41F0200068650020CF
:101EB00085F8500050462FE6274CA7421CD114024B
:101EC0001AD44845F3D1984202D0B04200D06146BE
:101ED0008B6842F4000023F0E07202438A602049DC
:101EE0001E480968B1FBF0F04000801C00E0401E75
:101EF00000900028FBD1DAE71A4CA7420CD1D4019C
:101F00000AD44845D3D1984202D0B04200D06146AD
:101F10008B6842F080700EE0134CA742C7D1540288
:101F2000C5D44845C3D1984202D0B04200D06146E2
:101F30008B6842F4800023F0E07202438A60B6E7C7
:101F4000FFFF0F000000FF47000020FE00200240BE
:101F50000023024000630258000084CB400D0300C0
:101F600024000024000052C70000B8CF10B5094972
:101F70000446006888420AD00749884207D00749CA
:101F8000884204D006A040F6341105F09EF920687E
:101F9000006C10BD00200240002102400060025889
:101FA0002E2E2F447269766572732F53544D33323F
:101FB000483778785F48414C5F4472697665722F84
:101FC0005372632F73746D3332683778785F68614A
:101FD0006C5F6164632E63002DE9F84F4FF00008D9
:101FE00004004646CDF800807DD0FB4D2068DFF828
:101FF000EC93FB4FA84208D0B84206D0484504D025
:102000004FF4D871F7A005F060F96068B0F5803F33
:102010002CD0B0F5003F29D0B0F5403F26D028B3F2
:10202000B0F5802F22D0B0F5002F1FD0B0F5402F93
:102030001CD0B0F5801F19D0B0F5A01F16D0B0F598
:10204000C01F13D0B0F5E01F10D0B0F5001F0DD0A9
:10205000B0F5101F0AD0B0F5201F07D0B0F5301F23
:1020600004D0E0A040F2B11105F02FF9A06880B1D2
:1020700004280ED014280CD008280AD0182808D01C
:102080000C2806D0102804D0D6A04FF4D97105F042
:102090001CF9E06830B1012804D0D2A040F2B3119D
:1020A00005F013F9607D30B1012804D04FF4DA71E6
:1020B000CCA005F00AF9A06A4FF4806A60B15045DF
:1020C0000AD0B0F5006F07D0B0F5406F04D0C5A0BE
:1020D00040F2B51105F0F9F8606A504543D0B0F50B
:1020E000846F40D000E08AE0B0F5886F3BD0B0F557
:1020F0008C6F38D0B0F5906F35D0B0F5946F32D08A
:10210000B0F5986F2FD0B0F59C6F2CD0B0F5A06FC4
:1021100029D0B0F5A46F26D0B0F5A86F23D0B0F5C4
:10212000AC6F20D0B0F5B06F1DD0B0F5B46F1AD041
:10213000B0F5B86F17D0B0F5BC6F14D0B0F5C06F64
:1021400011D0B0F5C46F0ED0B0F5C86F0BD0B0F59C
:10215000CC6F08D0B0F5D06F05D020B1A1A04FF45E
:10216000DB7105F0B2F8E06A50B1022808D001280E
:1021700006D0032804D09BA040F2B71105F0A5F8C3
:102180002069042806D0082804D04FF4DC7195A0FB
:1021900005F09BF8206B38B1B0F5805F04D091A0BA
:1021A00040F2B91105F091F8207D30B1012804D03A
:1021B0008CA04FF4DD7105F088F894F8380030B148
:1021C000012804D087A040F2BB1105F07EF8E0683A
:1021D00008B3A069401E0F2804D982A040F2BF11A5
:1021E00005F073F8207F08B301280BD04FF4E0719D
:1021F0007CA005F06AF8207F012803D016E00120BA
:10220000BDE8F88F206A401E072807D94FF4E27115
:1022100074A005F05AF8207F012807D1607D0128BD
:1022200004D170A040F2C91105F04FF8606D30B9CB
:10223000204600F073F9C4F8588084F85080206874
:102240008168C1F3407119B18168744A114081609D
:1022500020688168C1F3007181B98168704A1140BA
:1022600041F08051816070496E480968B1FBF0F01F
:10227000401C00E0401E00900028FBD120688168CF
:10228000C1F3007141B9616D012641F01001616532
:10229000A16D41F00101A16503F062FD616DC90608
:1022A00000D420B1606D012640F0100091E0606D17
:1022B00020F4807040F0020060652068816811F0B1
:1022C000010F1DD1A84201D0B84207D1A968BA6850
:1022D00001F0010102F00102114303E0D9F80810F6
:1022E00001F0010161B9A84201D0B84201D14F48C3
:1022F00000E04F488268616822F47C120A438260E1
:1023000000F0CEFE41F20301884202D9A0681028F5
:102310000CD0617D237FA268206B490341EA034111
:1023200010430843217F01290CD010E0617D227FFA
:10233000206B490341EA024140F01000084340F09D
:102340000C00EFE7218C3B4A02EB41410843616AF4
:1023500029B1A26A01F47871014342EA01002168BF
:10236000354BCA681A400243CA60206803F0F8FC83
:102370000546206803F0F0FC28431DD1216844F293
:102380000303257DE26AC86842EA85329843104318
:10239000C86094F83800012850D02068016921F005
:1023A000010101612068626B016921F070411143F4
:1023B00001612046FFF790F8E068012820687CD092
:1023C000016B21F00F010163606D20F0020040F00D
:1023D00001006065304613E70020024000600258AB
:1023E000002102402E2E2F447269766572732F539E
:1023F000544D3332483778785F48414C5F447269B6
:102400007665722F5372632F73746D333268377829
:10241000785F68616C5F6164632E6300C0FFFF5F7B
:10242000C0FFFF7F400D0300240000240023024072
:10243000006302580000FEFF03C0F0FFE06B401E87
:10244000504505D340F2C921AFF2680004F03DFFCA
:10245000206CF8B120281DD040281BD0602819D04E
:10246000802817D0A02815D0C02813D0E02811D07C
:10247000B0F5807F0ED0B0F5907F0BD0B0F5A07F87
:1024800008D0B0F5B07F05D040F2CB21AFF2AC0060
:1024900004F01BFF606C40B1B0F5007F05D04FF435
:1024A0003371AFF2C00004F010FFA06C01280BD014
:1024B000A0F58061013907D000E023E040F2CD2192
:1024C000AFF2E00004F001FF606A08B1A06A38B919
:1024D000606C28B140F2D321AFF2F80004F0F5FEB1
:1024E0002168A38F0B4FD4E9100C0B4D07EB03476A
:1024F000A26C0B6940EA0C003A4310432B4018438E
:1025000008614FE7A269016B521E21F00F011143D0
:1025100059E700000100FFFF1EF800FC70B5B0B0E5
:102520000446BC216846FEF73EF8124920688842FE
:102530001ED1022110240020CDE90341C0250591C0
:10254000CDE9065008908A04289001235026684659
:102550008DE84C0001F058FA08B1FFF7CFF80648B3
:10256000016841F080710160006800F080702F9078
:1025700030B070BD00600258E04402582DE9F041CF
:10258000414D04460068414EA84201D0B04201D1FD
:102590003F4900E03F498968A84201F01F0709D080
:1025A000B04207D03C49884204D03CA040F285515B
:1025B00004F08BFE206803F0D3FB18B1022108461B
:1025C000BDE8F08194F8500001280CD0012084F877
:1025D00050002046FFF73CF801004FF0000204D005
:1025E00084F85020EBE70220EAE7636D40F6016CC7
:1025F000206823EA0C03B04243F48073636501D181
:102600002B4600E00346834200D01FB9636D23F4DC
:1026100080136365636DDB0404D5A36D23F00603AB
:10262000A36500E0A2651C23036084F850202068A5
:10263000B04201D12A4600E00246824215D0A7B13D
:10264000052F12D0092F10D0626DB04242F48012D3
:10265000626500D00546E8688001B0D5606D20F461
:10266000005040F480506065A9E7C268920105D52A
:10267000626D22F4005242F4805262658268154B0A
:102680001A40121D82609AE7002002400021024099
:102690000023024000630258006002582E2E2F448F
:1026A0007269766572732F53544D33324837787898
:1026B0005F48414C5F4472697665722F5372632F95
:1026C00073746D3332683778785F68616C5F61640A
:1026D000632E6300C0FFFF7F2DE9F84F044600F032
:1026E000E5FC002C009008D094F83500022805D0B5
:1026F00080216165002084F83400E3E0C84DC84EB5
:10270000C749183520683036DFF81883DFF818938A
:102710008842DFF818A3DFF818B32ED0A8422CD0D7
:10272000B0422AD0404528D0484526D0504524D034
:10273000584522D0BE4A183290421ED0BD4A90421F
:102740001BD0BC4A1832904217D0BA4A303290425D
:1027500013D0B84A483290420FD0B64A6032904205
:102760000BD0B44A7832904207D0B24A90329042AD
:1027700003D0B04AA832904209D1026822F01E026A
:1027800002602068426922F08002426103E0026830
:1027900022F00E02026027688F4238464DD0A842D0
:1027A0004BD0B04249D0404547D0484545D0504530
:1027B00043D0584541D09E4A183290423DD09D4A60
:1027C00090423AD09B4A1832904236D0994A3032E1
:1027D000904232D0974A483290422ED0954A603289
:1027E00090422AD0934A7832904226D0914A903231
:1027F000904222D08F4AA83290421ED08E4A9042F8
:102800001BD08D4A1432904217D08B4A2832904206
:1028100013D0894A3C3290420FD0874A50329042BE
:102820000BD0854A6432904207D0834A7832904276
:1028300003D0814A8C32974204D1206E026822F480
:102840008072026076492068884228D0A84226D04B
:10285000B04224D0404522D0484520D050451ED01B
:1028600058451CD072491831884218D071498842A5
:1028700015D070491831884211D06E4930318842E4
:102880000DD06C494831884209D06A49603188428C
:1028900005D068497831884201D066499031016895
:1028A00021F00101016010E000F000FC0099401AE5
:1028B00005280AD9202262650020032184F834000B
:1028C00084F835100120BDE8F88F3868C007EBD1D7
:1028D000534A0121206890422ED0A8422CD0B04209
:1028E0002AD0404528D0484526D0504524D05845C8
:1028F00022D04F4B183398421ED04E4B98421BD0DB
:102900004C4B1833984217D04A4B3033984213D06F
:10291000484B483398420FD0464B603398420BD017
:10292000444B7833984207D0424B9033984203D0BF
:10293000404BA833984208D194F85C703F23A06DB7
:1029400007F01F07BB40836007E094F85C30A06D80
:1029500003F01F0301FA03F34360206890424DD057
:10296000A8424BD0B04249D0404547D0484545D019
:10297000504543D0584541D02D4A183290423DD061
:102980002C4A90423AD02B4A1832904236D0294AEB
:102990003032904232D0274A483290422ED0254AD7
:1029A000603290422AD0234A7832904226D0214A7F
:1029B0009032904222D01F4AA83290421ED01E4A26
:1029C00090421BD01C4A1432904217D01A4A283227
:1029D000904213D0184A3C3290420FD0164A5032DF
:1029E00090420BD0144A6432904207D0124A783297
:1029F000904203D0104A8C3290420BD1D4E9190294
:102A00004260E06E30B1026822F480720260D4E964
:102A10001C024260002084F8340084F8351052E72C
:102A2000100002405800024070000240880002403E
:102A3000A000024010040240085402582DE9F05F43
:102A400028B190F83510022904D080214165012079
:102A5000BDE8F09F904C904B0168183C18338E4AAB
:102A6000DFF83C92A1428D4CDFF838E28E4FDFF860
:102A70003CB2DFF83CA28F4D8F4E31D091422FD027
:102A800099422DD0A1422BD0494529D0714527D05C
:102A9000B94225D0DFF810C20CF1180C61451FD0E7
:102AA000DFF808C2ACF1600C614519D0DFF8FCC159
:102AB000ACF1480C614513D0DFF8F0C1ACF1300C3B
:102AC00061450DD0DFF8E4C1ACF1180C614507D0C9
:102AD000594505D0514503D0A94201D0B1422CD16E
:102AE000DFF8B4C14FF0040880F83580ACF1180C61
:102AF00061451DD091421BD0994219D0A14217D0F7
:102B0000494515D0714513D0B94211D066481830E7
:102B100081420DD065486038814209D06348483809
:102B2000814205D061483038814201D05F48183871
:102B3000086820F001000860ABE0D1F800C02CF07C
:102B40000E08DFF854C1C1F80080ACF1180C016820
:102B5000614527D0914225D0994223D0A14221D06E
:102B600049451FD071451DD0B9421BD0DFF838C18F
:102B70000CF1180C614515D0DFF830C1ACF1600CD8
:102B800061450FD0DFF824C1ACF1480C614509D094
:102B9000DFF818C1ACF1300C614503D0DFF80CC18F
:102BA000ACF1180CD1F800C02CF0010CC1F800C039
:102BB000DFF8E4804FF0010C0168A8F118084145E6
:102BC00046D0914244D0994242D0A14240D049459A
:102BD0003ED071453CD0B9423AD0334A1832914286
:102BE00036D0324A603A914232D0304A483A914225
:102BF0002ED02E4A303A91422AD02C4A183A91428D
:102C000026D0594524D0514522D0A94220D0B142E6
:102C10001ED02A4A91421BD0284A1432914217D022
:102C2000264A2832914213D0244A3C3291420FD096
:102C3000224A503291420BD0204A6432914207D04E
:102C40001E4A7832914203D01C4A8C32914218D1EC
:102C5000016E0A6822F480720A6090F85C20816D2F
:102C600002F01F020CFA02F24A60D0E919124A601F
:102C7000C16E31B10A6822F480720A60D0E91C1278
:102C80004A600022016D80F8342080F835C001B11F
:102C900088470020DCE6000028000240580002407F
:102CA0007000024088000240A00002407004024010
:102CB00088040240A0040240B804024008540258AC
:102CC00070B5044600F0F2F90546601C02D00448D5
:102CD0000078044400F0EAF9401BA042FAD370BD2A
:102CE000180000242DE9FC5FDFF8C0920027DFF810
:102CF000C0820D46DFF8BCA24845DFF8BCB20446EE
:102D00001FD054451DD05C451BD0AC48844218D020
:102D1000AB48844215D0AB48844212D0AA488442C2
:102D20000FD0AA4884420CD0A948844209D0A948AF
:102D3000844206D0A848844203D0BB21A7A004F057
:102D4000C4FA28680104090C01D0000C03D0BC218E
:102D5000A2A004F0BAFA6868F8B101281DD01128C1
:102D60001BD0022819D0122817D0AB49884214D0A2
:102D7000AA49884211D0AA4988420ED0A94988425E
:102D80000BD0A949884208D0A849884205D0032819
:102D900003D0BD2191A004F098FAA868002807D0BC
:102DA0000128FCD00228FAD0BE218CA004F08DFAB4
:102DB000F4E00120B840064000907DD0686801280A
:102DC00005D0022803D0112801D012281DD1E868AF
:102DD00048B1012807D0022805D0032803D0CE210E
:102DE0007EA004F072FAA16803237A00E868934099
:102DF000904099430843A06060682979009AC1F324
:102E000000119043B94001436160E16803207B00F9
:102E10000193AA689840814300909A400A43E26077
:102E20006868022801D0122839D14C451FD054457A
:102E30001DD05C451BD06148844218D06048844254
:102E400015D06048844212D05F4884420FD05F485A
:102E500084420CD05E48844209D05E48844206D049
:102E60005D48844203D0E6215CA004F02EFA286974
:102E70000F2803D9E72159A004F027FAF808296997
:102E80000F2304EB80024FEA477C106A4FEADC6CA8
:102E900003FA0CF3984301FA0CF10143116228790B
:102EA0002168009A00F003009143019A9040084382
:102EB00020606868C00000E06FE06ED55C48016883
:102EC00041F002010160006827F0030202F1B04204
:102ED00000F002000090B8070F21030FD2F8080499
:102EE00099404C4520EA010001D100212BE05445D6
:102EF00001D1012127E05C4501D1022123E02F49C6
:102F00008C4201D103211EE02D498C4201D10421C4
:102F100019E02C498C4201D1052114E02A498C4248
:102F200001D106210FE029498C4201D107210AE095
:102F300027498C4201D1082105E026498C4201D164
:102F4000092100E00A2199400143C2F80814D8F889
:102F50000000696820EA0600C90300D53043C8F8BC
:102F60000000D8F80400696820EA0600890300D54B
:102F70003043C8F804004FF0B0406A680168D202DC
:102F800021EA060100D5314301606A684168920276
:102F900021EA060100D5314341607F1C2E6836FAD4
:102FA00007F07FF406AFBDE8FC9F00000000025868
:102FB000800000580004025800080258000C025813
:102FC000001002580014025800180258001C025841
:102FD0000020025800240258002802582E2E2F44A8
:102FE0007269766572732F53544D3332483778784F
:102FF0005F48414C5F4472697665722F5372632F4C
:1030000073746D3332683778785F68616C5F6770AE
:10301000696F2E63000000000000111100002111F3
:1030200000003111000012110000221100003211C5
:10303000F444025870B50C001546064604D109A0A8
:1030400040F2AD1104F041F945B1012D04D005A0C5
:103050004FF4D77104F039F9B46170BD2004B06148
:1030600070BD00002E2E2F447269766572732F5347
:10307000544D3332483778785F48414C5F44726929
:103080007665722F5372632F73746D33326837789D
:10309000785F68616C5F6770696F2E630000000085
:1030A00001480068000C70470010005C014880680F
:1030B000704700001800002402488168027811441B
:1030C0008160704718000024032010B500F0DAF882
:1030D00001F068FD0F4A104914681368C4F3032215
:1030E00003F00F038A5CC95C02F01F0201F01F01AC
:1030F000D0400A4A20FA01F1116009490860002015
:1031000000F010F808B1012010BD00F02BF80020ED
:1031100010BD0000184402589274000828000024D2
:103120002400002470B50D4D04462878A0B14FF45A
:103130007A71B1FBF0F00A490968B1FBF0F002F0D6
:103140004FF948B9102C07D200222146501E00F03A
:103150004BF800206C6070BD012070BD1800002489
:1031600024000024064882B0016841F00201016099
:10317000006800F002000090052002B000F082B864
:10318000F444025810B5040003D5BE2107A004F092
:103190009CF8002C09DB60090121800004F01F026B
:1031A00000F1E0209140C0F8001110BD2E2E2F44F8
:1031B0007269766572732F53544D3332483778787D
:1031C0005F48414C5F4472697665722F5372632F7A
:1031D00073746D3332683778785F68616C5F636FE2
:1031E000727465782E63000070B5102A14460D467F
:1031F000064603D3AA2113A004F067F8102D03D3C9
:10320000AB2110A004F061F81D480068C0F3022350
:10321000C3F10702042A00D90422181D072801D28D
:10322000002300E0DB1E012101FA02F09940401E5C
:103230002840491E9840214001433046BDE8704077
:1032400004F02BB82E2E2F447269766572732F53BB
:10325000544D3332483778785F48414C5F44726947
:103260007665722F5372632F73746D3332683778BB
:10327000785F68616C5F636F727465782E630000BD
:103280000CED00E070B5072804460BD0062C09D0E1
:10329000052C07D0042C05D0032C03D0922108A0C4
:1032A00004F013F8154904F007024FF6FF0508680B
:1032B000134B284040EA02201843086070BD00000C
:1032C0002E2E2F447269766572732F53544D33320C
:1032D000483778785F48414C5F4472697665722F51
:1032E0005372632F73746D3332683778785F686117
:1032F0006C5F636F727465782E6300000CED00E004
:103300000000FA0570B50228044606D0012C04D04E
:1033100015A040F23F1103F0D8FF22480168C943CD
:10332000490705D5006800F00700A04213D118E056
:10333000016821F0070121430160FFF7B7FE194D35
:103340004FF47A760446083D07E000BFFFF7AEFE73
:10335000001BB04201D9012070BD2868C043800421
:10336000F4D4002070BD00002E2E2F4472697665C3
:1033700072732F53544D3332483778785F48414C3D
:103380005F4472697665722F5372632F73746D3365
:1033900032683778785F68616C5F7077725F6578E4
:1033A0002E6300000C48025810B501F0B5FB05492A
:1033B0000968054AC1F30211515C01F01F01C840C0
:1033C00010BD000020440258927400084A4930B5EC
:1033D000494C0B1D0A680C3409681D68246802F00A
:1033E000030305F00102C1F30511C4F3CC04002965
:1033F00014FB02F200EE102AF8EE400A76D0414AA1
:103400009FED3E1ADFED3E1AB7EE000A23B1012B05
:103410005AD0022B18D15CE0374C283C23689B061D
:1034200012D5394B246801EE901A1168C4F3C10417
:10343000F8EE612AE34001EE903AC1F30801F8EE9C
:10344000611A81EEA22A07E002EE101A1168F8EE66
:10345000422A81EEA22A45E001EE901A1168F8EEA8
:10346000611A40EE811A71EE800A62EE200AC1F301
:10347000462101EE101AB8EE411A31EE001AC0EEE4
:10348000811ABCEEE11A80ED001A1168C1F3064101
:1034900001EE101AB8EE411A31EE001AC0EE811A90
:1034A000BCEEE11A80ED011A1168C1F3066101EE6C
:1034B000101AB8EE411A31EE000A80EE801ABCEE06
:1034C000C10A80ED020A30BD01EE901ADFED0F2A2D
:1034D00003E001EE901ADFED0E2A1168F8EE611A92
:1034E00082EEA12AC1F30801B6E7FFE700210160DF
:1034F0004160816030BD000028440258000000395E
:103500000024744C304402580090D0030024744AC4
:10351000001B374B494930B5484C0B1D0A68143421
:1035200009681D68246802F00303C5F30012C1F3A3
:103530000531C4F3CC04002914FB02F200EE102A7A
:10354000F8EE400A75D03F4A9FED3D1AB7EE000AEB
:103550006BB1DFED3D1A012B01D0022B64D002EEDE
:10356000101A1168F8EE422A81EEA22A21E0334CAB
:10357000283C23689B0612D5344B246801EE901A30
:103580001168C4F3C104F8EE612AE34001EE903AF9
:10359000C1F30801F8EE611A81EEA22A0BE001EEF8
:1035A000901ADFED2B2A00BFF8EE611A116882EE47
:1035B000A12AC1F3080101EE901A1168F8EE611A10
:1035C00040EE811A71EE800A62EE200AC1F34621B4
:1035D00001EE101AB8EE411A31EE001AC0EE811A4F
:1035E000BCEEE11A80ED001A1168C1F3064101EE4C
:1035F000101AB8EE411A31EE001AC0EE811ABCEE74
:10360000E11A80ED011A1168C1F3066101EE101A8A
:10361000B8EE411A31EE000A80EE801ABCEEC10A03
:1036200080ED020A30BD04E001EE901ADFED092AB8
:10363000BAE70021016041608160F3E72844025845
:1036400000000039384402580024744A0090D00326
:103650000024744C001B374B494930B5484C0B1DB6
:103660000A681C3409681D68246802F00303C5F366
:103670000022C1F30551C4F3CC04002914FB02F26B
:1036800000EE102AF8EE400A75D03F4A9FED3D1A31
:10369000B7EE000A6BB1DFED3D1A012B01D0022B12
:1036A00064D002EE101A1168F8EE422A81EEA22AC6
:1036B00021E0334C283C23689B0612D5344B246808
:1036C00001EE901A1168C4F3C104F8EE612AE340D8
:1036D00001EE903AC1F30801F8EE611A81EEA22AD8
:1036E0000BE001EE901ADFED2B2A00BFF8EE611A15
:1036F000116882EEA12AC1F3080101EE901A116847
:10370000F8EE611A40EE811A71EE800A62EE200A2C
:10371000C1F3462101EE101AB8EE411A31EE001A3B
:10372000C0EE811ABCEEE11A80ED001A1168C1F3F7
:10373000064101EE101AB8EE411A31EE001AC0EE41
:10374000811ABCEEE11A80ED011A1168C1F306611D
:1037500001EE101AB8EE411A31EE000A80EE801A1E
:10376000BCEEC10A80ED020A30BD04E001EE901A01
:10377000DFED092ABAE70021016041608160F3E7CB
:103780002844025800000039404402580024744A7A
:103790000090D0030024744C001B374B2DE9F04FF0
:1037A000944A4FF48079DFF848824845924B89B0BB
:1037B000924EA8F1040592494FF080574FEA221427
:1037C0004FF0005C2ED1D8F8000000F0070005286B
:1037D00024D2DFE800F09BB58425AA0003A8FFF7F8
:1037E000F5FD049809B0BDE8F08F6846FFF792FE3A
:1037F0000098F7E706A8FFF72FFF0698F2E708689A
:10380000C0F3C10022FA00F0ECE70A68D2057CD5CB
:10381000B8427AD12046E5E71846E3E70020E1E721
:103820003046DFE7B0F5007F1AD0DFF8D891B0F569
:10383000806F26D0B0F5006F37D04FF4805A5045D6
:103840004FF4804B4FD1D8F8000000F4E040B0F5C1
:10385000005F44D03DDC002858D05045DED16FE0F9
:10386000D8F8000000F4E070802838D004DC00288C
:103870004CD04028D2D163E0C028D1D04845CDD12A
:1038800053E0D9F8000000F46000B0F5800F26D0B6
:1038900004DCD8B3B0F5001FC0D151E0B0F5C00FC3
:1038A000BED0B0F5000FB9D13FE0D9F8000000F06C
:1038B000E060B0F1007F12D004DC38B3B0F1807F5B
:1038C000ACD13DE0B0F1407FAAD0B0F1806FA5D17E
:1038D0002BE0B0F5405FA3D058459FD125E00868A4
:1038E00080009BD586E7B0F5002F4FF4803612D0CC
:1038F000B04237D1286810F4803075D0B0428DD1F5
:10390000086800018AD5684601E025E06CE0FFF711
:1039100001FE029866E7D9F8000010F440300FD09D
:10392000B04211D0B0F5003F98D128680D6800F082
:1039300040506D077FF569AF00287FF466AF5EE702
:1039400008680001CDD550E708688000C9D506A8F1
:10395000FFF782FE089845E709688903C1D56045ED
:1039600088D159E758452BD1D9F8000000F0E04044
:10397000B0F1405F1CD00CDC90B1B8422CD0604557
:103980008AD108688000ACD506A8FFF765FE0798C5
:1039900028E7B0F1804F0FD0B0F1A04F90D11FE0D9
:1039A000FFF702FD1EE76846FFF7B4FD019819E72F
:1039B0000868400795D522E70868C00591D529E732
:1039C000B0F5004F89D1D8F8000010F0405007D072
:1039D000B84209D0604592D108680001E3D41DE7E0
:1039E00008688003FBD517E708688001F7D5F5E67E
:1039F000504402580090D003001BB7000080BB0069
:103A000000440258584402582DE9FC5F044650F81F
:103A1000241B002500902E460801FE4FDFF8F89386
:103A20001DD5606E50B1B0F5801F0CD0B0F5001FF1
:103A30000ED0B0F5401F1DD001250FE0386840F4CE
:103A40000030386016E00221201D02F09BFA03E0EE
:103A50000098022102F08EFB05000BD02E46208834
:103A6000C00523D5606D05281ED2DFE800F00C11DB
:103A7000161B1B00626ED9F8001021F4401111438F
:103A8000C9F80010EBE7386840F40030386009E00E
:103A90000021201D02F076FA03E00098002102F0D8
:103AA00069FB05466DB100E001252E4620888005A2
:103AB00028D5A06D80281ED00CDC90B140280ED1F6
:103AC00014E0626DD9F8001021F007011143C9F824
:103AD0000010EBE7C02813D0B0F5807F10D001258F
:103AE0000FE0386840F40030386009E00021201D04
:103AF00002F048FA03E00098002102F03BFB054683
:103B000095B12E462088DFF81083400508F108089B
:103B10002CD5D4F8A400B0F5800F20D00DDCA0B1D6
:103B2000B0F5001F0FD115E0A26DD9F8001021F4F7
:103B3000E0711143C9F80010E4E7B0F5C00F13D0ED
:103B4000B0F5000F10D001250FE0386840F40030C8
:103B5000386009E00021201D02F014FA03E000980B
:103B6000002102F007FB054675B12E4620880005AE
:103B70002DD5D4F8A800B0F1007F21D00EDCA8B17B
:103B8000B0F1807F10D116E0D4F8A420D8F800104E
:103B900021F460011143C8F80010E7E7B0F1407F5D
:103BA00013D0B0F1806F10D001250FE0386840F4D9
:103BB0000030386009E00021201D02F0E3F903E045
:103BC0000098002102F0D6FA05466DB12E46206815
:103BD00080011FD5A06CD8B110280FD0202812D09A
:103BE000302815D0012514E0D4F8A820D8F800100A
:103BF00021F0E0611143C8F80010E8E7386840F4AC
:103C00000030386004E00221201D02F0BBF90546B7
:103C10006DB12E462088C0042BD5E06DB0F5005F55
:103C200020D00DDCA0B1B0F5805F0FD115E07A484F
:103C3000A26C001F016821F0300111430160E9E727
:103C4000B0F5405F13D0B0F5804F10D001250FE0E4
:103C5000386840F40030386009E00021201D02F08F
:103C600091F903E00098002102F084FA054685B13D
:103C70002E462088800429D5206EB0F5403F23D001
:103C800010DC08B3B0F5803F14D0B0F5003F0FD181
:103C900015E0E26DD9F8001021F4E0411143C9F8B4
:103CA0000010E6E7B0F5802F0ED0B0F5A02F0BD0B6
:103CB00001250AE00121201D02F064F903E00098CB
:103CC000012102F057FA05468DB12E4620884004A6
:103CD0002AD5D4F8AC00B0F1405F23D010DC08B393
:103CE000B0F1805F14D0B0F1005F0FD115E0226E0B
:103CF000D9F8001021F4E0211143C9F80010E5E7DC
:103D0000B0F1804F0ED0B0F1A04F0BD001250AE0EA
:103D10000121201D02F036F903E00098012102F094
:103D200029FA05466DB12E46208800041FD5E06EA5
:103D3000D8B1B0F1805F0ED0B0F1005F10D0012596
:103D400014E0D4F8AC20D8F8001021F0E041114381
:103D5000C8F80010E8E7386840F40030386004E044
:103D60000121201D02F00EF905466DB12E46206896
:103D7000C0011ED5606CD0B101280ED0022811D030
:103D8000032814D0012513E0E26ED9F8001021F0C9
:103D900040511143C9F80010E9E7386840F4003099
:103DA000386004E00221201D02F0ECF80546ADB3B6
:103DB0002E462068DFF85CB04002ABF11C0B7DD5CD
:103DC000D4F8B000B0F5807F79D0B0F5007F76D020
:103DD000B0F50C5F73D0B0F54C5F70D0B0F5864F86
:103DE0006DD0B0F5A64F6AD0B0F5C64F67D0B0F52C
:103DF000E64F64D0B0F5034F61D0B0F5134F5ED0FD
:103E0000B0F5234F5BD0B0F5334F58D0B0F5434FEA
:103E100055D004E02C44025850440258A9E0B0F5B3
:103E2000534F4CD0B0F5634F49D0B0F5734F46D0E7
:103E3000F749884243D0F749884240D0F649884242
:103E40003DD0F64988423AD0F549884237D0F54905
:103E5000884234D0F449884231D0F44988427FD036
:103E6000F34988427CD0F349884279D0F2498842AC
:103E700076D0F249884273D0F149884270D0F14936
:103E800088426DD0F04988426AD0F049884267D0B4
:103E9000EF49884264D0EF49884261D0EE498842B8
:103EA0005ED0EE4988425BD0ED49884258D0ED495A
:103EB000884255D0EC49884252D001E0A0E04FE062
:103EC000EA4988424CD0EA49884249D0E9498842C7
:103ED00046D0E949884243D0E849884240D0E84981
:103EE00088423DD0E74988423AD0E749884237D0F6
:103EF000E649884234D0E649884231D0E5498842D3
:103F00002ED0E54988422BD0E449884228D0E449A4
:103F1000884225D0E349884222D0E34988421FD015
:103F2000E24988421CD0E249884219D0E1498842DE
:103F300016D0E149884213D0E049884210D0E049C8
:103F400088420DD0DF4988420AD0DF49884207D035
:103F5000DE49884204D0DEA040F27F3103F0B5F99B
:103F6000EA48016841F480710160FFF79FF88246DA
:103F70000EE0E748626C016821F003011143016023
:103F800017E700BFFFF792F8A0EB0A00642835D8C6
:103F9000DE480068C005F5D58DBBDFF874A3B4F822
:103FA000B0100AF1240ADAF8000001F4407100F4BC
:103FB0004070884211D0DAF80010DAF8002021F4BD
:103FC000407142F48032CAF80020DAF8002022F46E
:103FD0008032CAF80020CAF80010D4F8B000B0F55A
:103FE000807F22D1FFF762F801901AE0FFF75EF8B8
:103FF0000199411A41F28830814212D903252E4697
:104000002078DFF80CA3C0070AF1080A3DD0A06FA2
:10401000182838D026DC80B3082829D0102825D1CC
:104020002CE0DAF800008007E0D5D4F8B010C1F336
:104030000120032858460DD0016821F47C5101600D
:10404000B4F8B020DAF80010C2F30B021143CAF83A
:104050000010D5E7AF4A036802EA111223F47C513D
:104060001143ECE720280ED028280CD001250BE0C6
:104070000121201D01F086FF04E004E000980121E9
:1040800002F078F805465DB12E46207880071ED5EF
:10409000606F062819D2DFE800F0160C111616160C
:1040A000A26FDAF8001021F038011143CAF80010AD
:1040B000EBE70121201D01F065FF03E000980121DD
:1040C00002F058F8054675B100E001252E4620782B
:1040D00040071FD5D4F89000062819D2DFE800F079
:1040E000160C11161616626FDAF8001021F007018F
:1040F0001143CAF80010EAE70121201D01F042FF38
:1041000003E00098012102F035F805469DB100E07A
:1041100001252E46207880062BD5D4F88C00B0F1EE
:10412000405F24D011DC10B3B0F1805F15D0B0F146
:10413000005F10D116E0D4F89020D8F8001021F0DC
:1041400007011143C8F80010E4E7B0F1804F0ED02A
:10415000B0F1A04F0BD001250AE00021201D01F095
:1041600011FF03E00098022102F004F805468DB12A
:104170002E46207840062BD5D4F89800B0F5406F35
:1041800024D011DC10B3B0F5806F15D0B0F5006FFE
:1041900010D116E0D4F88C20DAF8001021F0E041BC
:1041A0001143CAF80010E4E7B0F5805F0ED0B0F517
:1041B000A05F0BD001250AE00021201D01F0E2FEE6
:1041C00003E00098022101F0D5FF05468DB12E468F
:1041D0002078000618D5D4F89C00B0F5C04F12D056
:1041E00013DC80B1B0F5005F10D0B0F5804F0ED178
:1041F0009FE0D4F89820D8F8001021F4E051114342
:10420000C8F80010E4E799E09AE085E08CE089E0E6
:10421000000301000013010000230100003301002E
:10422000004301000053010000630100007301001E
:10423000008301000093010000A3010000B301000E
:1042400000C3010000D3010000E3010000F30100FE
:1042500000030200001302000023020000330200EA
:1042600000430200005302000063020000730200DA
:10427000008302000093020000A3020000B30200CA
:1042800000C3020000D3020000E3020000F30200BA
:1042900000030300001303000023030000330300A6
:1042A0000043030000530300006303000073030096
:1042B000008303000093030000A3030000B3030086
:1042C00000C3030000D3030000E3030000F3030076
:1042D0002E2E2F447269766572732F53544D3332EC
:1042E000483778785F48414C5F4472697665722F31
:1042F0005372632F73746D3332683778785F6861F7
:104300006C5F7263635F65782E630000004802583B
:104310004C440258CFFFFF00B0F5004F0ED0B0F56F
:10432000204F0BD001250AE00021201D01F02AFEBC
:1043300003E00098022101F01DFF0546DDB12E4685
:104340002078000730D5D4F88000B0F5805F1CD00D
:10435000B0F5005F1FD0F0B1B0F5405F1BD040F268
:104360000F51AFF2940002F0B0FFD4F88000B0F526
:10437000805F0AD00FE0D4F89C20D8F8001021F418
:1043800060411143C8F80010DAE70098022101F0FB
:10439000F1FE00B10126D4F88020DAF8001021F4F3
:1043A00040511143CAF800102078C00625D5D4F832
:1043B0009400B0F5807F11D0B0F5007F14D098B193
:1043C000B0F5405F10D040F22251AFF2FC0002F095
:1043D0007CFFD4F89400B0F5807F05D100980221CD
:1043E00001F0C8FE00B10126D4F89420D8F80010DE
:1043F00021F440711143C8F800102068000316D55D
:10440000D4F8A00038B1B0F5803F09D0B0F5003F36
:104410000BD001250AE00021201D01F0B3FD03E0CF
:104420000098022101F0A6FE054685B12E462068BF
:10443000400322D5D4F88400B0F5801F11D0B0F528
:10444000001F13D0B0F5401F15D0012514E0D4F89B
:10445000A020D8F8001021F440311143C8F8001012
:10446000E5E7386840F40030386004E00098012146
:1044700001F080FE0546ADB12E462068C00327D569
:10448000E06C40B1B0F5803F05D04FF4B161AFF2C0
:10449000C01002F01AFFE06C70B1B0F5803F10D090
:1044A000012514E0D4F88420DAF8001021F440113A
:1044B0001143CAF80010E0E7386840F40030386073
:1044C00004E00221201D01F05DFD0546CDB12E4620
:1044D0002068800005D50098022101F04BFE00B154
:1044E0000126206880031AD5E06FB0B1B0F5807F57
:1044F0000FD0B0F5007F10D0B0F5407F0DD0012572
:104500000CE05948E26C016821F4803111430160EC
:10451000DEE7386840F400303860EDB32E4620689E
:10452000C00212D5206F40B1B0F1004F05D040F26B
:10453000E751AFF2642002F0C8FE226FD9F80010F4
:1045400021F000411143C9F800102068C00014D5C3
:10455000D4F8B40040B1B0F5804F05D040F2F1512D
:10456000AFF2942002F0B1FED4F8B420DBF80010D2
:1045700021F480411143CBF800102068800214D54B
:10458000A06E40B1B0F1807F05D040F2FB51AFF298
:10459000C02002F09AFE00E05AE0A26ED9F80010A6
:1045A00021F080711143C9F800102068400018D52F
:1045B000D4F8B80040B1B0F5004F05D040F2116119
:1045C000AFF2F42002F081FEDBF8001021F400418C
:1045D000CBF80010DBF80010D4F8B8201143CBF86A
:1045E00000102068002814DA206D58B1B0F1805F07
:1045F00008D0B0F1005F05D040F21B61AFF230305F
:1046000002F063FE1848226D016821F04051114309
:1046100001602068000217D5D4F8880058B1B0F5C1
:10462000800F08D0B0F5000F05D040F22561AFF241
:10463000603002F04AFED4F88820DAF8001021F445
:1046400040011143CAF800105EB10120BDE8FC9F93
:10465000E26FDAF8001021F440711143CAF800103B
:104660005DE70020F2E700004C4402582DE9F05FBE
:1046700004000D467ED02068401E3E2804D9FFA0CD
:1046800040F2863102F021FE15B3012D20D0022D1B
:104690001ED0032D1CD0042D1AD0052D18D0062DA8
:1046A00016D0072D14D0082D12D0092D10D00A2DA8
:1046B0000ED00B2D0CD00C2D0AD00D2D08D00E2DA8
:1046C00006D00F2D04D0EDA040F2873102F0FDFDA1
:1046D000DFF8E083D8F8000000F00F00A8420CD209
:1046E000D8F8001021F00F012943C8F80010D8F8BD
:1046F000000000F00F00A8423CD12078EE4E4007A9
:1047000019D52069316801F07001884213D960B170
:1047100040280AD0502808D0602806D0702804D03D
:10472000D6A040F2A33102F0D0FD2169306820F01C
:104730007000084330602078DF4F3F1D00071BD515
:104740006069396801F07001884215D960B140286C
:104750000AD0502808D0602806D0702804D0C7A0FE
:1047600040F2B53102F0B1FD6169386820F07000A7
:10477000084300E00DE138602078C0061DD5A0692F
:10478000396801F4E061884217D980B1B0F5806FD3
:104790000DD0B0F5A06F0AD0B0F5C06F07D0B0F55E
:1047A000E06F04D0B5A040F2C63102F08EFDA169E1
:1047B000386820F4E060084338602078DFF8F8A219
:1047C00080060AF1080A1CD5E069DAF8001001F049
:1047D0007001884215D960B140280AD0502808D00D
:1047E000602806D0702804D04FF47671A3A002F0A0
:1047F0006CFDE269DAF8001021F070011143CAF88B
:1048000000102078800721D5E068316801F00F01A1
:1048100088421BD9A0B1082812D0092810D00A2834
:104820000ED00B280CD00C280AD00D2808D00E284A
:1048300006D00F2804D091A040F2EB3102F045FDE4
:10484000E168306820F00F00084330602078C0072E
:1048500069D0A068E0B1B0F5006F19D0B0F5106F65
:1048600016D0B0F5206F13D0B0F5306F10D0B0F582
:10487000406F0DD0B0F5506F0AD0B0F5606F07D023
:10488000B0F5706F04D07DA040F2FB3102F01DFD49
:104890006068012809D040B1022806D0032804D05E
:1048A0004FF47F7175A002F010FD8349A268306853
:1048B000183920F47060104330606068022816D008
:1048C000032817D00968012817D04907002960DAA2
:1048D000DFF8E4B1ABF1080BDBF8002022F00702AF
:1048E0000243CBF80020FEF7E1FB814613E00968A4
:1048F0008903EBE709688901E8E7C905E6E700BF36
:10490000FEF7D4FBA0EB090141F28830814202D9C5
:104910000320BDE8F09F6168DBF8000000F038007C
:10492000B0EBC10FECD12078800721D5E068316869
:1049300001F00F0188421BD2A0B1082812D009282B
:1049400010D00A280ED00B280CD00C280AD00D2825
:1049500008D00E2806D00F2804D048A040F23D41D0
:1049600002F0B3FCE168306820F00F0008433060CB
:10497000D8F80010404601F00F01A9420BD9016898
:1049800021F00F0129430160006800F00F00A842E8
:1049900001D00120BDE72078400719D52069316892
:1049A00001F07001884213D260B140280AD050282B
:1049B00008D0602806D0702804D030A040F25E41B4
:1049C00002F083FC2169306820F0700008433060F9
:1049D0002078000719D56069396801F070018842B4
:1049E00013D260B140280AD0502808D0602806D0E1
:1049F000702804D04FF48E6120A002F066FC61693B
:104A0000386820F07000084338602078C0061DD553
:104A1000A069396801F4E061884217D280B1B0F52D
:104A2000806F0DD0B0F5A06F0AD0B0F5C06F07D081
:104A3000B0F5E06F04D011A040F2824102F045FCD5
:104A4000A169386820F4E060084338602078800667
:104A50003DD5E0695546DAF8001001F07001884252
:104A600035D258B340282CD050282AD0602828D0DE
:104A7000702826D001A040F2944120E02E2E2F4431
:104A80007269766572732F53544D33324837787894
:104A90005F48414C5F4472697665722F5372632F91
:104AA00073746D3332683778785F68616C5F7263F6
:104AB000632E6300002000521844025801E002F007
:104AC00004FCE169286820F070000843286000F0C9
:104AD00069F80D4933683268C3F3032302F00F020B
:104AE000CB5C895C03F01F0201F01F01D040074A34
:104AF00020FA01F111600649086006480068BDE827
:104B0000F05FFEF70FBB000092740008280000243D
:104B1000240000241C00002430B500F043F80B4AA8
:104B20000B490C4B15681468C5F3032204F00F04FD
:104B30008A5C095D02F01F0201F01F01D040064AA5
:104B400020FA01F119601060084630BD184402587F
:104B500092740008280000242400002400B5FFF708
:104B6000DBFF05490968054AC1F30211515C01F0F8
:104B70001F01C84000BD00001C4402589274000888
:104B800000B5FFF7C9FF05490968054AC1F30221CD
:104B9000515C01F01F01C84000BD00001C440258D8
:104BA00092740008454970B545480968434B103B6D
:104BB00011F0380208D00111082A03D0102A0BD0B6
:104BC000182A0BD0084670BD19688906FBD51968EC
:104BD000C1F3C101C84070BD3A4870BD3749374D77
:104BE00018310C1D24350A68096826682D6802F002
:104BF000030406F00102C1F30511C5F3CC0515FB52
:104C000002F200EE102AB8EE400AE9B32F4ADFEDB7
:104C10002E0AB7EE001A6CB1DFED2D1A012C01D06F
:104C2000022C43D002EE101A1068F8EE422A81EEF0
:104C3000A22A1EE01C68A40611D51B6801EE901A7A
:104C40001168C3F3C103F8EE612AD84001EE900A5F
:104C5000C1F30800F8EE611A81EEA22A0BE001EE22
:104C6000901ADFED1C2A00BFF8EE611A106882EE80
:104C7000A12AC0F3080001EE900AF8EE611A40EE96
:104C8000201A31EE810A00E015E022EE000A1068D9
:104C9000C0F34620401C00EE900AF8EE600A80EE59
:104CA000201ABCEEC10A10EE100A70BD01EE901A77
:104CB000DFED092AD8E7002070BD0000104402583B
:104CC0000090D003001BB7000000003930440258A8
:104CD0000024744A0024744C001B374B2DE9F05F0C
:104CE00004006FD0FE4E41F20308DFF8F493FC4F4E
:104CF000A6F10405206809F10C09243780B1C10729
:104D000011D181076CD4C1067DD401077CD4410741
:104D10007BD480067AD4F3A040F2A31102F0D5FA36
:104D20002078C00759D060684FF4803A4FF4A02B28
:104D300040B1504506D0584504D04FF4D471E9A095
:104D400002F0C3FAD9F80000396800F038001028E2
:104D50000CD0182803D101F00300022806D06068A7
:104D600050450AD1286840F4803010E0286880035C
:104D700033D560680028B4D02FE008B158450DD075
:104D8000286820F480302860286820F4802028607B
:104D9000606898B1FEF78AF982460BE0286840F413
:104DA00080202860DEE700BFFEF780F9A0EB0A0054
:104DB000642873D828688003F6D50EE0FEF776F9EC
:104DC000824607E032E100BFFEF770F9A0EB0A006F
:104DD0006428EED828688003F6D42078800770D540
:104DE000E06860B101280AD0092808D0112806D04F
:104DF000192804D04FF4EE71BAA002F066FA2069C7
:104E00007F2809D903E05FE0CFE0EEE004E1B5A040
:104E100040F2DD1102F059FAD9F80000396810F0BB
:104E200038000ED0182801D188070AD0E068A0B356
:104E3000296821F0190101432960FEF737F98246FC
:104E40001AE02868400702D5E068002893D0FEF7F2
:104E500027F940451AD82069402811D0316821F43B
:104E60007C3141EA003030602BE000BFFEF71EF9D4
:104E7000A0EB0A0002289CD828684007F6D5E6E790
:104E8000306820F47C3040F40030ECE7207C31685E
:104E900021F0FE4141EA0060E5E700E06BE22868AE
:104EA00020F001002860FEF701F9824606E000BF0D
:104EB000FEF7FCF8A0EB0A0002288AD82868400711
:104EC000F6D42078C0066DD5E06930B1802804D0D2
:104ED00084A040F21F2102F0F8F9206A3F2804D98B
:104EE0004FF408717FA002F0F0F9D9F80000DFF864
:104EF000F0B1396800F038000BF1080B082810D029
:104F0000182803D101F0030001280AD0E069002825
:104F1000286837D040F080002860FEF7C7F8824646
:104F200022E02868C00522D5E06980287ED11EE0F5
:104F3000206A202820D0316821F0F84141EA8060C1
:104F400030602FE094F82010DBF8002022F07C5233
:104F500042EA0161CBF8001024E000BFFEF7A6F89A
:104F6000A0EB0A00022886D82868C005F6D5FEF70F
:104F700097F84045E6D8DBE7306820F0F84040F08D
:104F80008040DDE720F080002860FEF78FF80646BD
:104F900005E000BFFEF78AF8801B02288DD828683C
:104FA000C005F7D42078000733D54D4E60697036C0
:104FB000E0B1012806D04BA040F2612102F085F952
:104FC000606998B13168B04641F001013160FEF787
:104FD0006DF8064605E000BFFEF768F8801B022862
:104FE000C1D8D8F800008007F6D512E03168B04685
:104FF00021F001013160FEF759F8064605E000BFD7
:10500000FEF754F8801B0228ADD8D8F800008007BE
:10501000F6D4207880062FD5A069E0B1012808D009
:105020004FF423712FA002F050F900E0D2E1A06903
:1050300088B1286840F480502860FEF737F80646AB
:1050400005E000BFFEF732F8801B02288BD82868E5
:105050008004F7D510E0286820F480502860FEF71F
:1050600025F8064605E000BFFEF720F8801B022861
:1050700094D828688004F7D42078400779D5A068B0
:1050800040B1012806D0052804D016A040F2B62170
:1050900002F01BF9DFF88480D8F8001041F4807129
:1050A000C8F80010FEF702F8064604E0FDF7FEFF20
:1050B000801B642894D8D8F80000C005F6D5084EA7
:1050C000A0686C3601282BD008B1052834D0306890
:1050D00020F001003060306820F0040023E0000080
:1050E000044402582E2E2F447269766572732F5332
:1050F000544D3332483778785F48414C5F44726989
:105100007665722F5372632F73746D3332683778FC
:10511000785F68616C5F7263632E630000480258B9
:10512000306840F001003060A06841F2883A98B1E0
:10513000FDF7BCFF80460BE0306840F004003060B3
:10514000EEE700BFFDF7B2FFA0EB080151458FD895
:1051500030688007F6D50CE0FDF7A8FF804605E033
:10516000FDF7A4FFA0EB08015145A3D830688007E4
:10517000F6D4606A00287DD001280AD0022808D021
:105180004FF43A71AFF2A40002F09FF8606A002871
:10519000F1D0DFF84882D9F80000C0F3C20003283C
:1051A00069D0606A022807D0286820F080702860E3
:1051B000FDF77CFF0446E1E0A06A01280AD048B16F
:1051C000032807D0022805D040F2F121AFF2EC000D
:1051D00002F07BF8206C58B1042809D0082807D0C9
:1051E0000C2805D040F2F221AFF2081002F06DF861
:1051F000606C38B1022805D040F2F321AFF21C10E8
:1052000002F063F8E06A401E3E2805D94FF43D7174
:10521000AFF2301002F059F8206B001FB0F5FE7F9E
:1052200005D940F2F521AFF2441002F04EF8606B60
:10523000401E7F2805D940F2F621AFF2581002F047
:1052400044F8A06B401E7F2805D940F2F721AFF249
:105250006C1002F03AF8E06B401E7F2805D94FF43D
:105260003E71AFF2801002F030F8A06CB0F5005F34
:1052700008D301E0B0E085E040F2F921AFF29C10E4
:1052800002F023F8286820F080702860FDF70EFFF8
:10529000064604E0FDF70AFF801B02286BD8286849
:1052A0008001F7D4E26A40F2F331386854F8283FBD
:1052B000884340EA021018433860267B4346218920
:1052C0004FF4FE0C208A4FF0FE47491E227D7602E5
:1052D000401EA6F50076C1F30808B1B2521E0CEAD2
:1052E000004041EA080101433C4807EA02621143D9
:1052F0003A4A001F1960121D016821F00101016086
:1053000011684FF6F876236AB14341EAC301116090
:105310000168A26921F00C01114301600168E26992
:1053200021F0020111430160016841F48031016004
:10533000016841F400310160016841F4802101609D
:10534000016841F001010160286840F08070286028
:10535000FDF7ACFE044604E0FDF7A8FE001B0228A2
:1053600009D828688001F7D536E000BFFDF79EFE1A
:10537000001B022802D90320BDE8F09F28688001A5
:10538000F4D429E0626A3968D8F80000012A21D0F3
:10539000A26A01F0030393421CD1E26AC1F3051132
:1053A0008A4217D1216BC0F30802491E8A4211D1EB
:1053B000616BC0F34622491E91420BD1A16BC0F331
:1053C0000642491E914205D1E16BC0F30660491EB9
:1053D000814201D00120CFE70020CDE730440258C0
:1053E000401EB0F1807F10B501D3012010BD4FF0F9
:1053F000E02460610F21601701F04FFF0020A061E1
:105400000721216110BD000070B51F4904460068E6
:10541000884219D01D49884216D01D49884213D0B0
:105420001C49884210D01C4988420DD01B49884233
:105430000AD01B49884207D01A49884204D04FF449
:105440000D7119A001F041FF94F88000012818D0D7
:10545000012184F880102420C4F884000021202336
:1054600054F8640B0268056822F0005225F001052B
:105470000560216054F8640C0260236208462177BD
:1054800070BD022070BD00000010014000440040CB
:1054900000480040004C0040005000400014014013
:1054A00000780040007C00402E2E2F447269766503
:1054B00072732F53544D3332483778785F48414CDC
:1054C0005F4472697665722F5372632F73746D3304
:1054D00032683778785F68616C5F756172745F6598
:1054E000782E63007047704770B50D462B4904460F
:1054F0000068884219D02A49884216D02949884232
:1055000013D02949884210D0284988420DD0284913
:1055100088420AD02749884207D02749884204D0C8
:1055200026A040F2932101F0D0FE9DB1B5F1007F9D
:1055300010D0B5F1806F0DD0B5F1C06F0AD0B5F1C4
:10554000006F07D0B5F1206F04D04FF425711BA078
:1055500001F0BBFE94F8800001281DD0012184F8E1
:1055600080102420C4F8840020680668016821F0B7
:10557000010101602068816821F060612943816038
:10558000204600F0C3FF2268202100201660C4F8E6
:10559000841084F8800070BD022070BD00100140AE
:1055A0000044004000480040004C004000500040D3
:1055B0000014014000780040007C00402E2E2F4453
:1055C0007269766572732F53544D33324837787849
:1055D0005F48414C5F4472697665722F5372632F46
:1055E00073746D3332683778785F68616C5F7561AA
:1055F00072745F65782E630070B50D462B490446C2
:105600000068884219D02A49884216D02949884220
:1056100013D02949884210D0284988420DD0284902
:1056200088420AD02749884207D02749884204D0B7
:1056300026A040F2622101F048FE9DB1B5F1005F65
:1056400010D0B5F1804F0DD0B5F1C04F0AD0B5F1F3
:10565000004F07D0B5F1204F04D01CA040F26321C9
:1056600001F033FE94F8800001281DD0012184F858
:1056700080102420C4F8840020680668016821F0A6
:10568000010101602068816821F060412943816047
:10569000204600F03BFF2268202100201660C4F85D
:1056A000841084F8800070BD022070BD001001409D
:1056B0000044004000480040004C004000500040C2
:1056C0000014014000780040007C00402E2E2F4442
:1056D0007269766572732F53544D33324837787838
:1056E0005F48414C5F4472697665722F5372632F35
:1056F00073746D3332683778785F68616C5F756199
:1057000072745F65782E63007047704770470000C1
:105710002DE9F04103680446002540F60F06D869DC
:1057200019689A68304209D186067DD501F02006B5
:1057300002F080573E4377D0216F39E1AF4EB04F32
:1057400016400F4037436FD0C70709D0CF0507D5A4
:1057500001271F62D4F88C3043F00103C4F88C3069
:1057600083070AD5D30708D0276802233B62D4F801
:105770008C3043F00403C4F88C3043070AD5D307B8
:1057800008D0276804233B62D4F88C3043F002032E
:10579000C4F88C3003070CD501F02003334308D044
:1057A000266808233362D4F88C3043F00803C4F829
:1057B0008C3003050BD54B0109D526684FF40063E7
:1057C0003362D4F88C3043F02003C4F88C30D4F822
:1057D0008C30002B34D0800609D501F0200002F077
:1057E0008051084303D0216F09B1204688472168C2
:1057F000D4F88C008968490602D410F0280F21D013
:10580000204600F0F9FF20688168490615D58168B7
:1058100021F040018160E06F78B17A490165E06F65
:10582000FDF70CF9002800E012E009D0E06F016DEF
:1058300000E02046BDE8F04108472046FFF766FF3C
:10584000BDE8F0812046FFF761FFC4F88C50F7E710
:10585000E76E2026012F71D1C7066FD5CF066DD513
:105860001020186222689068400669D5E16F664B87
:105870000868984234D0644B1833984230D0624B59
:10588000303398422CD0604B4833984228D05E4B3E
:105890006033984224D05C4B7833984220D05A4BE6
:1058A000903398421CD0584BA833984218D0574B8D
:1058B000984215D0554B1833984211D0534B303382
:1058C00098420DD0514B4833984209D04F4B60332A
:1058D000984205D04D4B7833984201D04B4B9033D2
:1058E00040680004000CABD0B4F85C308342A7D908
:1058F000A4F85E00C869B0F5807F18D0106820F465
:10590000807010602068816821F00101816020684A
:10591000816821F040018160C4F88860E5662068F4
:10592000016821F010010160E06FFCF7D5FEB4F8CA
:105930005C00B4F85E10401A81B220E023E0FFE77B
:10594000B4F85C00B4F85E10B4F85E30401A81B26E
:10595000002BC8D00029C6D010682D4B20F49070C1
:1059600010602068826802EA03028260C4F88860DE
:10597000E56625672068026822F010020260204672
:10598000FFF7B0FD5CE7C70209D5570207D54FF412
:10599000801018622046BDE8F041FFF7B6BE07064A
:1059A0000AD501F0800702F40002174304D0616FAA
:1059B00000297FF43EAF43E742060CD54A060AD5DC
:1059C0001968204621F040011960C4F884606567B9
:1059D00000F0ABF934E7020206D54A0004D52046B0
:1059E000BDE8F041FFF790BEC001CBD50029C9DA70
:1059F0002046BDE8F041FFF776BD00000100001031
:105A000020010004E5670008100002401004024075
:105A1000FEFFFFEF2DE9F047040024D0A0693649CE
:105A2000364A0028364B374D374E384FDFF8E0C046
:105A3000DFF8E080DFF8E090206817D088422CD0B3
:105A400090422AD0984228D0A84226D0B04224D0F2
:105A5000B84222D0604520D040451ED048451CD0D9
:105A60004FF49F7116E00120BDE8F087884214D002
:105A7000904212D0984210D0A8420ED0B0420CD022
:105A8000B8420AD0604508D0404506D0484504D009
:105A900040F2431121A001F018FCD4F8840028B989
:105AA000002084F88000204600F056F82420C4F836
:105AB00084002068016821F001010160204601F0A6
:105AC0007FF80128D0D0A06A10B1204600F040FD38
:105AD0002068416821F4904141602068816821F08C
